:100000000C945E000C947B000C947B000C947B00A1
:100010000C947B000C947B000C947B000C947B0074
:100020000C947B000C947B000C947B000C94A2033A
:100030000C947B000C947B000C94D0030C947B00FC
:100040000C947B000C947B000C947D000C947B0042
:100050000C94AC000C947B000C947B000C947B0003
:100060000C947B000C947B000C947B000C947B0024
:100070000C947B000C947B000C947B000C947B0014
:100080000C947B000C947B000C947B0041200000BE
:1000900042C80000461C40004CBEBC205A0E1BCA81
:1000A000749DC5AE3DCCCCCD3C23D70A38D1B71713
:1000B000322BCC7724E695950A4FB11F11241FBE31
:1000C000CFEFD0E1DEBFCDBF11E0A0E0B1E0EAE9C3
:1000D000F5E200E00BBF02C007900D92A835B10712
:1000E000D9F711E0A8E5B1E001C01D92A237B10730
:1000F000E1F70C94F5030C9400001F920F920FB6D9
:100100000F9211242F938F939F93EF93FF938CB1B2
:1001100080935D0180916F018031A0F48091700126
:1001200020916F01820F912D911DFC012F5F209373
:100130006F01807F9370E81BF90BE15AFE4F8091AD
:100140005D018083FF91EF919F918F912F910F908F
:100150000FBE0F901F9018951F920F920FB60F921F
:100160001124539810925E010F900FBE0F901F90B4
:10017000189580916F018823E1F3539880916F0166
:10018000815080936F0180917001E82FFF27E15A21
:10019000FE4F8F5F80937001E0818091700180310C
:1001A00010F010927001579A8E2F99270895982F6A
:1001B00080915E018130E1F3539A9CB981E0809394
:1001C0005E0108950F931F93CF93FC01C1918F019E
:1001D000CC2371F0CA3019F48DE00E94D7008C2F27
:1001E0000E94D700F80181918F01C82F882391F7D1
:1001F000CF911F910F9108951F93CF93DF93EC013F
:10020000FC0121961491112371F01A3019F48DE03C
:100210000E94D700812F0E94D700FE012196849171
:10022000182F882391F7DF91CF911F910895109295
:1002300070018091700180936F0110925E01119A9C
:10024000199A88ED8AB986E0809395001092900003
:1002500087E689B90895CF93C82F82958F708A3029
:1002600010F4805D01C0895C0E94D7008C2F8F70D4
:100270008A3010F4805D01C0895C0E94D700CF9164
:10028000089510929B0088E180939A0086E0809305
:100290009D00109298008FEC8093990008958091B2
:1002A0009B008823E4F780919C00992787FD909517
:1002B0000895982F80919B0085FFFCCF90939C0020
:1002C0000895CF93DF93EC0187E6809399008881AE
:1002D000882341F089910E94590180E49FE10197B0
:1002E000F1F7F5CF8FEC80939900DF91CF910895CE
:1002F000CF93C82F8A3019F48DE00E94D7008C2F3D
:100300000E94D700CF910895CF93DF93EC01FC01B9
:1003100021968491882339F00E947801FE0121966C
:1003200084918823C9F7DF91CF910895ACE0B0E0C4
:10033000ECE9F1E00C94601241E2442E512C4C0E99
:100340005D1ED201AD90BD902D01F5010894A11C58
:10035000B11C8491853221F0882309F4F4C060C077
:100360003AE0832E912CF5010894A11CB11C8491D4
:100370003324232C803311F0803281F4282EF501B0
:100380000894A11CB11C8491982F90539A3030F49A
:10039000392EF5010894A11CB11C849190E08C3693
:1003A00011F08C3431F491E0F5010894A11CB11CDA
:1003B0008491282F33272835310509F446C0293583
:1003C00031059CF42434310509F443C0253431054A
:1003D00024F423343105F1F023C02335310519F11C
:1003E0002535310509F45BC01BC023373105D9F031
:1003F000243731053CF42336310561F024363105CC
:1004000041F10EC02537310509F449C028373105BF
:10041000E1F006C0F20182E090E0480E591E8081B2
:100420000E94780192CFF201A2E0B0E04A0E5B1E7A
:10043000C080D180F6018081882309F486CFD6015F
:100440008D916D010E947801F5CF20E1822E912CD3
:1004500026C0992351F0F20184E090E0480E591E25
:10046000E080F180028113810CC0F201A2E0B0E0D3
:100470004A0E5B1E808191817C010027F7FC00956C
:10048000102F17FF22C010950095F094E094E11C06
:10049000F11C011D111D8DE20E94780116C09923E7
:1004A00051F0F20184E090E0480E591EE080F180A6
:1004B000028113810AC0F201A2E0B0E04A0E5B1E85
:1004C000808191817C01002711278CE0C82ED12CDE
:1004D000CC0EDD1E1C86C401AA27BB273C014D01A2
:1004E000C801B701A40193010E943E12262F205D8E
:1004F0002A330CF0295FD6012E936D01C801B70194
:10050000A40193010E943E1279018A0131103A94AC
:10051000E114F1040105110519F73A94BFEF3B16F8
:1005200039F0F60122926F013A94FFEF3F16C9F7B6
:10053000D6018C91882309F408CFF60181916F01CF
:100540000E947801F5CFE2E12C960C947C12EF9298
:10055000FF920F931F93DC01CB01EE24FF24870150
:10056000BC01CD012AEF30E040E050E00E940C12C7
:10057000E616F7060807190750F40894E11CF11C69
:10058000011D111DE616F70608071907B0F31F91A4
:100590000F91FF90EF9008951F93959A1AE1812F84
:1005A0008A95F1F765E070E080E090E00E94A70294
:1005B0009598812F8A95F1F765E070E080E090E0F2
:1005C0000E94A7021F910895FF920F931F93F82E88
:1005D0001BB31F7095980AE1802F8A95F1F78F2D34
:1005E000807F812B8BBB9798802F8A95F1F70E9493
:1005F000CC028F2D99278F70907024E0880F991F5F
:100600002A95E1F7182B1BBB9798802F8A95F1F755
:100610000E94CC021F910F91FF900895FF920F93BB
:100620001F93F82E1BB31F7095980AE1802F8A95AF
:10063000F1F78F2D807F812B8BBB979A802F8A9526
:10064000F1F70E94CC028F2D99278F70907034E0C3
:10065000880F991F3A95E1F7182B1BBB979A802FAB
:100660008A95F1F70E94CC021F910F91FF90089597
:10067000992787FD90958130910519F0029721F017
:100680000895862F815802C0862F81540E94E4026B
:100690000895282F33272830310541F02A303105BD
:1006A00049F461E082E00E943803089580E10E94ED
:1006B000E40208950E940E0308950E940E03089517
:1006C000CF93DF93EC018881882331F089910E94D8
:1006D000490388818823D1F7DF91CF910895813034
:1006E00011F4682F03C0823019F461E00E943803CE
:1006F00080E091E00E946003089581B3806E81BB29
:100700008FEF8ABBDE9864E670E080E090E00E94A4
:10071000A70283E30E94E40282E30E94E40288E2EB
:100720000E94E4028CE00E94E40286E00E94E4025F
:1007300081E00E94E4026AE070E080E090E00E94C4
:10074000A70208951F920F920FB60F9211242F93B4
:100750008F939F93209171012223D1F480911501F1
:10076000882359F086B597B590935B0180935A0121
:1007700020935C01209315010BC086B597B590932B
:1007800059018093580181E0809371018093150194
:100790009F918F912F910F900FBE0F901F901895E2
:1007A0001F920F920FB60F9211248F9380915C01CC
:1007B0008F5F80935C018F910F900FBE0F901F9001
:1007C0001895382F20E0281740F4E0E0F0E0CF0142
:1007D0000197F1F72F5F2317D0F308958EB5816449
:1007E0008EBD87B7846287BF0895CDEED0E1DEBFAE
:1007F000CDBF8091640081608093640011BA0E9433
:100800001701809165008E7F809365000E947D03B3
:1008100061E0862F0E94380386E191E00E94600328
:100820000E94EE037894809171018823E1F3809116
:100830005C019927AA27BB27AC0133272227809187
:10084000580190915901AA27BB27280F391F4A1F29
:100850005B1F80915A0190915B01AA27BB27281B3F
:10086000390B4A0B5B0BCA01B9010E9406109B01B0
:10087000AC0160E074E284E79BE40E94A30F7B017B
:100880008C0181E0809371016E010894C11CD11C20
:1008900082E1F60111928A95E9F720E030E04AE71B
:1008A00054E4C801B7010E9413101816ECF420E0BC
:1008B00030E04AE754E4C801B7010E94A30F9F93B8
:1008C0008F937F936F9387E291E09F938F93DF9253
:1008D000CF920E94570F8DB79EB708960FB6F89427
:1008E0009EBF0FBE8DBF14C01F930F93FF92EF9258
:1008F00089E391E09F938F93DF92CF920E94570FED
:10090000EDB7FEB738960FB6F894FEBF0FBEEDBF39
:1009100061E082E00E943803CE0101960E946003EC
:100920001092710180CF2F923F924F925F926F92FF
:100930007F928F929F92AF92BF92CF92DF92EF926F
:10094000FF920F931F93CF93DF93CDB7DEB72A9714
:100950000FB6F894DEBF0FBECDBF1C015A016B016C
:100960002D831F830E8327FF02C01D8205C02D81AA
:10097000263214F065E26D8318862101C101889644
:100980009A87898720E030E040E050E0C601B50159
:100990000E94101088235CF4EE81FF818081918198
:1009A000826091838083D7FAD094D7F8D094AE0137
:1009B0004F5F5F4FC601B5010E9490105B016C0153
:1009C00089819A81AB81BC8120E030E040E050E039
:1009D000BC01CD010E941010882309F44AC009858A
:1009E0001A852AC02DEC3CEC4CEC5DE3C401B3014C
:1009F0000E94C010DC01CB01AE014F5F5F4FBC0114
:100A0000CD010E949010DC01CB012AE939E941E2D5
:100A100051E4BC01CD010E94C010DC01CB01BC013E
:100A2000CD010E94E90FDC01CB01805DF8018293CA
:100A30008F01F885FF5FF88769807A808B809C80C2
:100A400020E030E040E050E0C401B3010E9410100B
:100A5000882319F02016310628F289859A8508170F
:100A6000190768F5F80181918F01F20181932F0137
:100A7000F4CF20E030E040E050E0C601B5010E9434
:100A800013101816E4F405C05701680198859150B9
:100A9000988720E030E040E251E4C601B5010E94B1
:100AA000C0107B018C0120E030E040E85FE30E9451
:100AB000101087FDE9CFE982FA820B831C83EE8157
:100AC000FF814081518153FF15C0F885FD3F94F0AF
:100AD0002F2F332727FD30956D81862F992787FD8E
:100AE00090950196281739072CF45460EE81FF8108
:100AF00051834083EE81FF81808191819C01207030
:100B0000347092FD03C0FD81FF5FFD836D81062F70
:100B1000112707FD1095020D131D232B39F0E885D1
:100B20008E2F992787FD9095080F191F0215130521
:100B300020F5F10158C089859A854816590600F5B7
:100B400020E030E040E251E4C601B5010E94C0104F
:100B5000AE014F5F5F4F0E9490105B016C01898175
:100B60009A81AB81BC81BC01CD010E94E90FDC01FF
:100B7000CB01805DF20181932F0104151505D8F694
:100B8000E985FA850E171F0718F0F10117A22CC08E
:100B90002801F80180818B5F80838A331CF120E378
:100BA00031E3F80120832016310628F482918F0169
:100BB0008F5F808313C0F8013083F885FF5FF8876B
:100BC000EE81FF818081918192FF08C02414350459
:100BD00010F4F20120830894411C511CF80180811B
:100BE0008A33FCF6F2011082F8858F2F992787FD52
:100BF00090952A960FB6F894DEBF0FBECDBFDF9159
:100C0000CF911F910F91FF90EF90DF90CF90BF9009
:100C1000AF909F908F907F906F905F904F903F909C
:100C20002F9008952F923F924F925F926F927F92F2
:100C30008F929F92AF92BF92CF92DF92EF92FF92EC
:100C40000F931F93CF93DF93CDB7DEB7EE970FB619
:100C5000F894DEBF0FBECDBF8824992454013C0117
:100C600078AF6FAB1A011EAA1DAAFC01178216826B
:100C7000838181FD1EC48FEF9FEF2EC48FA998AD95
:100C8000019698AF8FAB6DA97EA960FFFEC389ADB9
:100C900080538A30C8F499AD903331F4552021F453
:100CA00063FD02C07160ABC18AE0589E502C1124D4
:100CB000E9AD5E0EF0ED5F0E57FE02C05FE7552E08
:100CC00063FDF7C3452CF5C329AD25562EAF233060
:100CD00028F089AD8554833008F01EC1F10184E00D
:100CE00090E0280E391EE080F180028113814701D7
:100CF000580163FD02C046E0542E37EBC32E3FEF90
:100D0000D32EC622D722DEAACDAAC801B7010E94DF
:100D10008010892BB9F08EE48B83898381E48A83E8
:100D2000FE013496FCAFEBAFFEADF33008F0ADC280
:100D30008981805E89838A81805E8A838B81805EDF
:100D40008B83A3C2C801B7010E948710892BC9F009
:100D500089E48B838EE48A8386E48983CE010496BA
:100D60009CAF8BAF20E030E040E050E0C801B7011D
:100D70000E9410108823C4F68DE28C83FE01359604
:100D8000D1CF80E092E0C82AD92ADEAACDAAE9AD67
:100D90008E2F992787FD90958734910509F45CC0C3
:100DA000883491053CF48534910599F08634910599
:100DB00061F17FC38636910541F18736910524F4B0
:100DC0008536910531F075C38736910509F444C025
:100DD00070C38E010B5C1F4F252DB501A401CE0100
:100DE0000D960E9493048DAFFCEF4F0E15140CF47A
:100DF0004A94CE010D969CAF8BAFFC010190002070
:100E0000E9F731978E2E881ABFC18DA99EA99460EB
:100E10009EAB8DAB8E010B5C1F4F252DB501A40140
:100E2000CE010D960E9493048DAF15140CF44A94D4
:100E3000FE013D96FCAFEBAFFDAD1F1654F4EBADDC
:100E4000FCAD01900020E9F731978E2E2BAD821A70
:100E50009BC1852C839498C18DA99EA998609EAB57
:100E60008DAB252D552009F421E08E010B5C1F4F21
:100E7000B501A401CE010D960E9493048DAF8DA9FA
:100E80009EA992FF27C08DAD850D8150882E87FDCC
:100E900015C08DAD881694F09E012F5F3F4FE82D51
:100EA000FF27E7FDF095E20FF31F8485803331F4CF
:100EB0008A9487FC03C09DAD89168CF787FC03C01C
:100EC000EDAD8E1614F4552418C0582CFDAD5F1AE4
:100ED000539413C0852C15147CF49E012F5F3F4F53
:100EE000E82DFF27E7FDF095E20FF31F848580339F
:100EF00019F48A941814A4F3582CE82DFF27E7FD61
:100F0000F095EC0FFD1F16868DA99EA992FD8DCF41
:100F100029AD225029AF68CF63FF04C0552011F4DA
:100F200021E0522EE9AD8E2F992787FD90958936C5
:100F3000910509F4A5C08A3691057CF583359105A4
:100F400009F483C084359105BCF48B32910509F412
:100F500043C08C3291054CF48032910509F43FC0B6
:100F60008332910509F443C08AC28D329105E9F1BB
:100F70008E329105F1F183C28336910509F442C0A6
:100F8000843691052CF48835910509F4AEC077C2FA
:100F90008436910509F474C072C28037910509F452
:100FA0009FC08137910544F48C36910539F18F3615
:100FB000910509F492C063C28537910509F497C081
:100FC0008637910524F48337910521F158C288377B
:100FD000910509F48AC053C260617EAB6DAB8DA9E7
:100FE0009EA980629EAB8DAB64C2606808C06064DD
:100FF00006C068607EAB6DAB55245BC264607EAB9F
:101000006DAB57C2F10182E090E0280E391E80805E
:101010004A943BC1F10182E090E0280E391EA08184
:10102000B1814D0163FF09C0852D992787FD9095FA
:10103000BC01CD010E94D40E1FC0FD010190002013
:10104000E9F73197EA1BEAAF18C0F10182E090E0BE
:10105000280E391E0190F081E02D4F0163FF09C079
:10106000852D992787FD9095BC01CF010E94BD0E6B
:1010700003C0CF010E94B40E8AAF9AAD491A05C1D0
:1010800062FF0AC0F10184E090E0280E391E208141
:101090003181428153810CC0F10182E090E0280E41
:1010A000391E808191819C01442737FD4095542F42
:1010B00049015A0157FF0BC062607EAB6DABB09423
:1010C000A09490948094811C911CA11CB11C8DA9AA
:1010D0009EA98F7B9EAB8DAB27C098E09AAF07C0CF
:1010E00060647EAB6DABE8E7E9AFF0E1FAAF6DA904
:1010F0007EA962FF0AC0F10184E090E0280E391E4B
:1011000020813181428153810AC0F10182E090E067
:10111000280E391E808191819C0144275527490161
:101120005A016F7C7EAB6DABFE013196FCAFEBAF2D
:101130006F01FAADEF2EFF2400271127C501B4017E
:10114000A80197010E943E12DC01CB01EBADFCAD82
:1011500080838A3024F0F9AD8F0F815201C0805D09
:10116000EBADFCAD8193FCAFEBAFC501B401A801C1
:1011700097010E943E1249015A012115310541058E
:101180005105E1F68BAC8C184DA95EA9CA0182739A
:101190009070892B09F04A9446FF0DC0842D992741
:1011A00087FD9095FAADF03121F49EEF492E480E5F
:1011B00002C0482E4A9443FF0EC0252D332727FD39
:1011C0003095882D99278217930724F0477F5EABCF
:1011D0004DAB01C058188DA99EA983FF02C04518C8
:1011E00001C0481880789170892B51F4842D4A945D
:1011F000181634F4B30180E290E00E942A0FF6CF73
:101200008DA99EA981FF04C0B3018DE290E00BC0BF
:1012100084FF04C0B3018BE290E005C085FF05C0E8
:10122000B30180E290E00E942A0F8DA99EA986FF5B
:1012300010C0B30180E390E00E942A0F2AAD203154
:1012400041F4B301E9AD8E2F992787FD90950E9457
:101250002A0F8DA99EA990FF0AC0842D4A941816C2
:1012600034F4B30180E390E00E942A0FF6CF8DA9F9
:101270009EA983FF0AC0852D5A94181634F4B30131
:1012800080E390E00E942A0FF6CF8DA987FD0AC067
:10129000842D4A94181634F4B30180E290E00E9441
:1012A0002A0FF6CFF9ADF33631F4882DB301992723
:1012B00087FD9095C0C029AD2337B9F48AAD815020
:1012C0008AAF8F3F09F4CEC0F40180810894811C5D
:1012D000911CB301992787FD90950E942A0F9AAD22
:1012E00091509AAF9F3F81F7BDC0E9ADE33581F4DE
:1012F000FAADF150FAAFFF3F09F4B4C0F4018491A4
:10130000B30199270E942A0F0894811C911CF0CFE9
:101310008DA99EA991FF92C092FF1DC02DAD1216FE
:10132000B4F421502DAF2F3F81F0EBADFCAD819196
:10133000FCAFEBAFB301992787FD90950E942A0F70
:10134000FDADF150FDAFFF3F81F71DAE0FC0B30102
:1013500080E390E009C0EBADFCAD8191FCAFEBAF59
:10136000B301992787FD90950E942A0F15142CF43C
:10137000B3018EE290E00E942A0F8DA99EA992FFF0
:1013800020C08DADF82FFF5FFDAF0DC0852D5A94A5
:101390001816BCF4B30180E390E00E942A0F8DADD3
:1013A000282F2F5F2DAF88238CF30BC0852D5A94E7
:1013B00018167CF4882DB301992787FD90950E941B
:1013C0002A0FEBADFCAD8191FCAFEBAF882E8823EB
:1013D00069F78DA99EA992FD45C0B301F9AD8F2F84
:1013E000992787FD90950E942A0F2DAD21502DAF92
:1013F00027FF09C0B3018DE290E00E942A0F8DAD56
:1014000081958DAF05C0B3018BE290E00E942A0F59
:101410006AE070E0EDAD8E2F992787FD90950E94D0
:101420002B124B015C01B301C401C0960E942A0F2C
:10143000B301C501C0960E942A0F14C08E010F5F30
:101440001F4F8BAD9CAD8017910761F0EBADFCADEC
:101450008291FCAFEBAFB301992787FD90950E9475
:101460002A0FEFCF8DA987FF0DC0842D4A9418163F
:101470004CF4B30180E290E00E942A0FF6CFB30152
:101480000E942A0F1EAA1DAA14C099AD953249F4D4
:1014900081E090E09EAB8DAB5524452CEAE0EAAFAD
:1014A00008C0B301F9AD8F2F992787FD90950E9451
:1014B0002A0FF301838183FF04C0EFA9F8ADF491F3
:1014C00003C0EFA9F8ADF081F9AF29AD222309F0EF
:1014D000D5CBF30186819781EE960FB6F894DEBFE7
:1014E0000FBECDBFDF91CF911F910F91FF90EF9075
:1014F000DF90CF90BF90AF909F908F907F906F9034
:101500005F904F903F902F9008952F923F924F926F
:101510005F926F927F928F929F92AF92BF92CF9283
:10152000DF92EF92FF920F931F93CF93DF93CDB78C
:10153000DEB7C254D0400FB6F894DEBF0FBECDBFA9
:10154000CC24DD2476011FAE1EAE4C0178AF6FAB0C
:101550003A018EE0AAE4B1E0FE0131960D900192CD
:101560008A95E1F723961FAE23971BAE1AAE00E0D3
:1015700010E02FEF3FEF3DAF2CAFF4011783068350
:1015800022961FAF0EAF2297838180FD9FC38FEFFE
:101590009FEFD0C34FA958AD4F5F5F4F58AF4FABD0
:1015A00023965FAD2397A52EBB2440E2242E312C39
:1015B0002A203B20A5FEB7C08EE5481641F4011550
:1015C000110509F081C0A6FC7FC0506425C19DE2D1
:1015D000491639F501151105A9F4842D86958695CE
:1015E0008695FE013196E80FF11D27E0422281E049
:1015F00090E002C0880F991F4A94E2F72685282BB5
:10160000268707C023963FAD2397386023963FAFC8
:1016100023970F5F1F4F5AC3B401C8010E94870F61
:101620004DC04DE5441609F04FC001151105A9F252
:10163000A3FE03C08C8980628C8BA6FE0EC0FE01C7
:1016400031960FE110E08685809586870150104025
:10165000319617FFF8CF00E210E0A4FC07C0F301B9
:1016600082E090E0680E791EC080D180852D5A946A
:10167000181624F5C4010E94E70E8C019FEF0F3F5E
:101680001907E1F0202F802F869586958695FE011B
:10169000E80FF11D8785992787FD9095277002C077
:1016A000959587952A95E2F780FFB6CFA4FCDECF0B
:1016B000F60100830894C11CD11CD8CF2396EFAD4E
:1016C0002397E4FDA3C207C1A3FE28C02396FFAD64
:1016D0002397F77F2396FFAF23972EAD2415F0F4C1
:1016E000BE016F5F7F4F41E050E08EAD982F969521
:1016F00096959695FB01E90FF11D87709A0102C03E
:10170000220F331F8A95E2F78685822B86878EAD5E
:101710009FAD01969FAF8EAF841538F3E42DFF2760
:10172000FFAFEEAF5ACFA0FE96C2F5E24F1641F4DE
:1017300023962FAD23972E7F23962FAF2397B8C2E2
:10174000942D90539A3058F43FE7531611F45524D2
:1017500004C08AE0589E502C1124590EB7C2842D23
:10176000992787FD90950E94BA12482E282F33277B
:1017700027FD30952936310509F4C3C02A363105D5
:10178000DCF42436310509F4BCC0253631057CF47F
:101790002B35310509F429C22C35310524F42A32C0
:1017A000310571F133C223363105D1F12FC228360C
:1017B00031050CF496C18AC22037310509F498C06E
:1017C0002137310564F42E36310509F476C12F3600
:1017D00031050CF083C02C363105D1F017C2253706
:1017E000310509F487C0263731052CF4233731053C
:1017F00009F43FC00BC22837310509F479C006C28D
:1018000023964FAD2397406123964FAF23975EC237
:1018100023965FAD2397546023965FAF239756C2FC
:10182000A4FC07C0F30182E090E0680E791EC0803E
:10183000D1809FE7591611F431E0532E852D5A942B
:1018400018160CF0E3C1C4010E94E70E8C01EFEF03
:101850008F3F9E0709F448C2A4FCF0CFF6018083B5
:101860000894C11CD11CEACFB401C8010E94870FA3
:101870002DC0A4FC07C0F30122E030E0620E731E0D
:10188000C080D180C4010E94E70E8C010E94AB127F
:10189000892BC1F73FEF0F3F130709F425C2852DB0
:1018A0005A9418169CF4C8010E94AB12892BE1F6D9
:1018B000A4FC05C0F60100830894C11CD11CC4011E
:1018C0000E94E70E8C018F5F9F4F49F723965FAD13
:1018D000239754FD9BC1F601108298C188E089AF1F
:1018E00023969FAD2397926023969FAF239709C0BD
:1018F000E0E1E9AF2396FFAD2397F2602396FFAFB7
:101900002397C4010E94E70E8C010E94AB12892B21
:10191000C1F72FEF0F3F120709F4E6C10D3211F0A6
:101920000B32A9F45A9415140CF0DEC10D3239F4BF
:1019300023963FAD2397386023963FAF2397C4018A
:101940000E94E70E8C018F5F9F4F09F4CDC10033D9
:1019500089F5CC24DD2476015A9415140CF07DC051
:10196000C4010E94E70E8C015FEF8F3F950709F4D9
:1019700074C00E94BA128837C1F48FE6481631F05D
:1019800094E6491619F0E5E74E1629F4B401C801AA
:101990000E94870F62C0F0E1F9AFC4010E94E70E18
:1019A0008C018F5F9F4F31F458C039E6431611F414
:1019B00048E049AFCC24DD247601C8010E94BA1268
:1019C000C0979FAF8EAF8A30910544F0C1979FAF0B
:1019D0008EAF97FD03C00A969FAF8EAF8EAD9FADC1
:1019E00097FD08C0E9AD8E2F99272EAD3FAD281782
:1019F00039072CF0B401C8010E94870F21C089ADBE
:101A0000282F332744275527C701B6010E940C12FF
:101A10006B017C01EEADFFADCF01AA2797FDA0952C
:101A2000BA2FC80ED91EEA1EFB1E5A94151444F490
:101A3000C4010E94E70E8C018F5F9F4F09F0BDCF5C
:101A400023962FAD239723FF08C0F094E094D09401
:101A5000C094C11CD11CE11CF11C23964FAD2397EF
:101A6000242F332724FDD2C0C901867090700697B9
:101A700031F4F30182E090E0680E791E0EC021FF80
:101A800006C0F30122E030E0620E731E10C0C301F5
:101A9000029622FF0AC0F3013C010190F081E02D83
:101AA000C082D182E282F382B1C0F3013C01019095
:101AB000F081E02DD182C082A9C0A4FCA7C0F301AF
:101AC00042E050E0640E751EA081B181F401868170
:101AD00097818D939C939AC0B401C8010E94870F8F
:101AE0005FC0C4010E94E70E8C010E94AB12892BDB
:101AF000C1F7FFEF0F3F1F0709F4F6C00D3211F0D9
:101B00000B3289F40D3239F423962FAD23972860D8
:101B100023962FAF2397C4010E94E70E8C018F5F9D
:101B20009F4F09F4E1C02FE0C22ED12CCC0EDD1E58
:101B3000760196E3A92EB12CAC0EBD1ECA14DB04AF
:101B400078F515146CF5B801CE0101960E94C80E07
:101B5000892B11F2053611F0053489F41B86F70143
:101B600001937F01C4010E94E70E8C01FFEF8F3FBC
:101B70009F07B1F08D3231F08B3221F00DC00E3263
:101B800009F41D86F70101937F01C4010E94E70E4D
:101B90008C018F5F9F4F21F05A94EA14FB0488F266
:101BA000F701108260E070E0C6010E940A11DC01BA
:101BB000CB016C017D012396FFAD2397F3FF04C099
:101BC000F7FAF094F7F8F094F30122E030E0620EB7
:101BD000731E0190F081E02DC082D182E282F382F7
:101BE00085E48B878EE28D8711C023963FAD2397C6
:101BF000306223963FAF239781013FAE2EAE80E245
:101C0000FE013F9611928A95E9F760C0F401868142
:101C1000978122962EAD3FAD22972817390774F48D
:101C200023963FAD239734FD06C04AAD5BAD4F5FB1
:101C30005F4F5BAF4AAF1DAE1CAE09C05EE64516F6
:101C400009F052C08FEF0F3F180709F44DC02396DB
:101C50001FAE23973BC095E2491689F4E1E0239635
:101C6000EFAF2397FAE0F9AFF4010680F781E02D9A
:101C70002296FFAFEEAF22978FE7582E27C0842D14
:101C8000992787FD90950E94AB12892B89F0C4019A
:101C90000E94E70E8C010E94AB12892BC1F7FFEF67
:101CA0000F3F1F0709F1B401C8010E94870F0EC042
:101CB000C4010E94E70E8C018F5F9F4FA9F0842D15
:101CC000992787FD90950817190771F4F40183810E
:101CD00083FF04C0EFA9F8AD449003C0EFA9F8ADAD
:101CE0004080442009F056CC2396FFAD23972F2F38
:101CF000332720FF13C0F4018681978122964EADD1
:101D00005FAD2297481759074CF424FD05C08AADF2
:101D10009BAD01969BAF8AAF1DAE1CAE0F5F1F4FF0
:101D200039F4EAADFBADEF2B19F48CAD9DAD02C0DB
:101D30008AAD9BADCE5BDF4F0FB6F894DEBF0FBE12
:101D4000CDBFDF91CF911F910F91FF90EF90DF906A
:101D5000CF90BF90AF909F908F907F906F905F904B
:101D60004F903F902F900895FC0105900020E9F7D7
:101D7000809590958E0F9F1F0895FC0105906150EE
:101D800070400110D8F7809590958E0F9F1F089591
:101D9000FC010190061629F00020D9F78827992721
:101DA00008953197CF010895FC0161507040019072
:101DB0000110D8F7809590958E0F9F1F08957AE0B7
:101DC000979F902D879F802D910D11240895CF937B
:101DD000DF93EC014B81842F992780FF2EC086FF73
:101DE00009C04F7B4B838E819F8101969F838E8399
:101DF0008A812CC082FF11C0E881F9818081282F5F
:101E0000332727FD30952115310519F440624B83A6
:101E100014C03196F983E88313C0EA85FB85CE01AF
:101E200009959C0197FF0CC08B8199272F5F3F4F2D
:101E300011F4806101C080628B838FEF9FEF07C038
:101E40008E819F8101969F838E83822F9927DF91B8
:101E5000CF9108950F931F93CF93DF938C01EB01E4
:101E60008B81992781FF1CC082FF0DC02E813F818D
:101E70008C819D812817390764F4E881F9810193E9
:101E8000F983E88306C0E885F985802F0995892BB9
:101E900039F48E819F8101969F838E83C80102C091
:101EA0008FEF9FEFDF91CF911F910F9108950F93C7
:101EB0001F93CF93DF93CDB7DEB72E970FB6F8946D
:101EC000DEBF0FBECDBF0D891E892F89388D86E0FC
:101ED0008C831A8309838FEF9FE79E838D83AE01E6
:101EE000475E5F4FB901CE0101960E941206EF8155
:101EF000F885E00FF11F10822E960FB6F894DEBF22
:101F00000FBECDBFDF91CF911F910F910895AC010E
:101F1000FB012381822F992780FF06C086FD04C024
:101F20008FEF4F3F580719F48FEF9FEF08954283CB
:101F300020642F7D238386819781019797838683F1
:101F4000842F99270895AED001D091C0552359F020
:101F5000992369F09F575F57951B33F442F49038EB
:101F600011F4915805C09BC091589F3F09F4C6C019
:101F7000BB27112462177307840730F4660F771F9D
:101F8000881FBB1F915098F311D00F920FD00F9262
:101F90000DD0A0E82617370748071B0609F0A04810
:101FA000BA2F602D7F918F9100240895A0E800241E
:101FB000621773078407B10528F0621B730B840B4B
:101FC000B1090A2A660F771F881FBB1FA69581F7E4
:101FD000089597FB73D09F3738F0FEE9F91B982FCF
:101FE000872F762F6B2F05C086C09695879577959E
:101FF0006795F150D0F73EF4909580957095619576
:102000007F4F8F4F9F4F0895E89403C097FB0EF4C6
:10201000F3DFB62F672F782F892F9EE9002427C082
:102020000ED05EF004C00BD026F001C008D019F02D
:1020300020F48FEF089580E0089581E0089597FBE4
:10204000092E052600F8689430D0E89407FC07C0F4
:10205000621773078407950721F008F4009407942A
:10206000989408959A95BB0F661F771F881F1124B7
:102070009923A1F08823B2F79F3F59F0BB0F48F492
:1020800021F4002011F460FF04C06F5F7F4F8F4F79
:102090009F4F881F9795879597F908952CC09FEFBC
:1020A00080EC0895052E092607FA440F551F5F3F5F
:1020B00079F0AA27A51708F051E04795880F991FD6
:1020C0009F3F31F0BB27B91708F091E0879508953D
:1020D0009F919F911124E3CF97FB880F991F9F3FFA
:1020E00031F0BB27B91708F091E0879508959F91CB
:1020F0009F911124D4CF66277727882799270895A1
:102100009F3F59F4803C49F481E0992708959068F5
:102110008923872386238395B9F3882799270895F0
:10212000DBDFCF93DF93D52FC42F552744273327E9
:1021300022279923D9F09F37C8F0F92F98DF592F1C
:10214000482F372F262FF63968F443DF5FDFC03082
:10215000CD0721F069937993899399939058DF91F2
:10216000CF9113C19927882777276627C030CD07DD
:1021700021F02993399349935993DF91CF9177CFE8
:1021800091DF01D074CF992339F0552329F09F575F
:102190005F57950F13F49AF1B1CF91589F3FE1F338
:1021A000629FA12D0F92BB27639FA00DB11DEE274B
:1021B000729FA00DB11DEE1FAF93AA27649FB00DB3
:1021C000E11D739FB00DE11DAA1F6627829FB00D10
:1021D000E11DA61F5527749FE00DA11D551F839F6C
:1021E000E00DA11D561F849FA00D511D852F7A2F34
:1021F0006E2F1F900F9088231AF4939539F44FCFC8
:10220000000C111CBB1F661F771F881F0128089533
:1022100077276627B3D0C82FD92F7F936F939D2E32
:102220008C2E09910032E9F30930D9F30637C9F34E
:102230000C30B9F30A30A9F30D3099F353D070D0B4
:10224000EEF1E2DE17FB97F9C92ED82EE72EF62E17
:1022500088270062053651F4099144D04BD0992368
:1022600019F017FD3DC036C017FD8195ECE8F0E090
:10227000182F9C2D8D2D7E2D6F2D9F7798178707FA
:1022800076076105D9F01A0D3AF411957896912FD9
:102290009B1997322CF504C0912F9B0D9732D4F4E3
:1022A0009C2D112359F0159538F4B1D0EF93FF937D
:1022B00067DFFF91EF91F5CF3496F3CFEF91FF9168
:1022C000E030EF0711F081929082ECE0CDB7DEB7FD
:1022D0000C9482129C2D9F678FE77FEF6FEFEECFFC
:1022E0000ADFECCF11270B3219F00D3211F4106810
:1022F000099108958827992700338CF011F415FF70
:102300000AC00A3364F41062992329F40E94DF0E94
:102310000F70800F911D9D2E8C2E0991EDCF089589
:102320006894E9DEBB24BA94AA240E3229F416FD7F
:1023300024C0106406F11DC00033FCF019F4E894C9
:1023400015FF12C00A33CCF410629F3084F4B394AA
:10235000E8945527442733272AE00E940C120F7077
:10236000600F711D811D911D16FDAA9402C016FFFC
:10237000A3949D2E8C2E0991D8CF0895AA27BB2710
:10238000FF91EF910C9466125058192E8BDE01D0FC
:102390006ECEBA176207730784079507B1F188F408
:1023A0000EF410940B2EBA2FA02D062E622F202D86
:1023B000072E732F302D082E842F402D092E952F98
:1023C000502DFF275523B9F0591B49F0573E98F07F
:1023D000469537952795A795F0405395C9F776F020
:1023E000BA0F621F731F841F30F487957795679526
:1023F000B795F040939517FA0F2E0895BF1BBB2792
:10240000BA0B620B730B840BF6CFDEF677CE5591C9
:102410004591359125910895629FD001739FF001F8
:10242000829FE00DF11D649FE00DF11D929FF00D64
:10243000839FF00D749FF00D659FF00D9927729F9B
:10244000B00DE11DF91F639FB00DE11DF91FBD0126
:10245000CF011124089597FB092E07260AD077FD96
:1024600004D065D006D000201AF4709561957F4F96
:102470000895F6F7909581959F4F0895A1E21A2E41
:10248000AA1BBB1BFD010DC0AA1FBB1FEE1FFF1F18
:10249000A217B307E407F50720F0A21BB30BE40B68
:1024A000F50B661F771F881F991F1A9469F76095AF
:1024B0007095809590959B01AC01BD01CF01089569
:1024C0002F923F924F925F926F927F928F929F9244
:1024D000AF92BF92CF92DF92EF92FF920F931F9332
:1024E000CF93DF93CDB7DEB7CA1BDB0B0FB6F894E3
:1024F000DEBF0FBECDBF09942A88398848885F8423
:102500006E847D848C849B84AA84B984C884DF8093
:10251000EE80FD800C811B81AA81B981CE0FD11D77
:102520000FB6F894DEBF0FBECDBFED010895AA1B14
:10253000BB1B51E107C0AA1FBB1FA617B70710F0AE
:10254000A61BB70B881F991F5A95A9F780959095E0
:10255000BC01CD010895911113C0803251F08A3031
:1025600041F08C3031F08D3021F0893011F08B301A
:1025700099F708958F9309D08F9109F0806208959B
:1025800099278827089585FDFBCF80629111F8CFA8
:0A2590008136ECF38B37DCF7089579
:10259A002020202020202020202020202020202031
:1025AA002020202000014A582D4D4547413132381C
:1025BA00204D4554455200467265713D2025302E06
:1025CA00303266206B487A2000467265713D2025BC
:1025DA00302E30326620487A20003031323334359A
:0825EA003637383945652E0033
:00000001FF
