:200000000C9462000C948A000C948A000C948A000C948A000C948A000C948A000C948A00B8
:200020000C948A000C948A000C948A000C948A000C948A000C948A000C948A000C948A0070
:200040000C94AA030C948A000C946D050C94B4050C948A000C948A000C948A000C948A0016
:200060000C948A000C948A0000000000240027002A0000000000250028002B00000000003F
:20008000230026002900040404040404040402020202020203030303030301020408102071
:2000A0004080010204081020010204081020000000070002010000030406000000000000EB
:2000C00000001A0711241FBECFEFD8E0DEBFCDBF11E0A0E0B1E0E8EFFFE002C005900D92A0
:2000E000A831B107D9F712E0A8E1B1E001C01D92A83DB107E1F710E0C4ECD0E004C02297E1
:20010000FE010E94F607C23CD107C9F70E946A070C94FA070C940000FF920F931F93F82E4C
:2001200010E000E06F2D607881E10E94C5048EE060E00E94C5048EE061E00E94C504FF0C70
:2001400084E00E941905110F182B0F5F083051F7812F1F910F91FF900895FF920F931F9319
:20016000162F042FF22E0E948C00812F0E948C00802F0E948C008F2D0E948C001F910F91C4
:20018000FF9008951F930E94AD00182F80EF60E040E020E00E94AD0080FDF8CF812F1F9129
:2001A000089589EB92E00E947506892BD1F389EB92E00E94A6060895682F89EB92E00E9437
:2001C000A30708951F93182F0E94D100803241F484E10E94DC00812F0E94DC0080E101C052
:2001E00085E10E94DC001F9108950E94D100803229F484E10E94DC0080E101C085E10E947F
:20020000DC000895CF92DF92EF92FF920F931F93CF93DF930E94D100813509F440C282357A
:20022000B8F4813409F444C0823448F4803309F44AC2813359F1803209F069C26CC28534F3
:2002400009F1803509F481C0823409F060C21CC0813609F4E0C0823648F4863589F08036D2
:2002600009F4D7C0853509F052C2C0C0843709F49DC1853709F42AC2843609F048C2CEC09D
:2002800000E0FCC100E05CC000E030C00E94D100803209F045C284E10E94DC00C0E0D1E09C
:2002A00003C00E94DC00219688818823D1F72DC20E94D100813861F0823818F4803871F47B
:2002C00005C0823839F0833949F406C082E0E4C181E0E2C182E1E0C183E5DEC180E0DCC1A4
:2002E0000E94D100C65EDE4F88830F5FC02FD0E00431B1F7AAE1B2E0EAE1F1E089E0019092
:200300000D928150E1F79091240180E020912501820F911D9093250280932402909126010E
:2003200080E020912701820F911D9093270280932602C9C10E94D100C65EDE4F88830F5FF7
:20034000C02FD0E00530B1F7BEC18EE061E00E94C50484E061E00E94C50481E161E00E9433
:20036000C50487E061E00E94C5048EE061E00E94860484E060E00E94860481E161E00E94B1
:20038000860487E061E00E94860487E061E00E94860487E061E00E94C5048EE061E00E94C7
:2003A00086048EE060E00E94C50462E370E080E090E00E94F20387E060E00E94C50462E347
:2003C00070E080E090E00E94F20384E060E00E94860481E161E00E9486048CEA63E540E0E9
:2003E00020E00E94C2008FE060E06BC10E94D100082F10E010931901009318010E94D10048
:20040000382F20E0200F311F30931901209318015AC10E94D1000E94D10055C10E94D100C3
:20042000182F00E00E94D1006801C80ED11C21E0C21621E0D2060CF001C10E94D100182FCC
:2004400000E006C00E94D100C65EDE4F88830F5FC02FD0E0CC15DD05ACF30E94D100803293
:2004600009F059C184E10E94DC00163429F081E1153409F053C181C08091260290912702A7
:20048000181619060CF0DAC062E070E00E94AB07CC27DD27C61BD70B809118019091190174
:2004A000C823D9230AE111E0EE24FF2458C0809126029091270262E070E00E94AB077095BE
:2004C00061957F4F809118019091190186239723C817D907D9F06D2F772767FD7A958CE4EB
:2004E0004C2F20E00E94C200809126029091270262E070E00E94AB07CC27DD27C61BD70BFA
:200500008091180190911901C823D9234091180150911901652F772767FD7A9580E4F801A8
:2005200020810E94C200409118015091190122E030E0E20EF31E652F772767FD7A9588E4AD
:20054000F80121810E94C2008091180190911901019690931901809318010E5F1F4FEC145C
:20056000FD040CF4A4CF6D2F772767FD7A958CE44C2F20E00E94C200C8C0C0E0D0E012C061
:200580008091180190911901880F991F9E01280F422FFE01E65EFE4F80EC60E020810E94E1
:2005A000C2002196CC15DD055CF3AFC00E94D100082F0E94D100F82E0E94D100182F0E94A2
:2005C000D100803209F0A7C0902F80E0FC01EF0DF11D7F0184E10E94DC00163469F5C0E067
:2005E000D0E026C04091180150911901652F772767FD7A9580E220E00E94AD000E94DC00AC
:200600004091180150911901652F772767FD7A9588E220E00E94AD000E94DC0080911801EF
:2006200090911901019690931901809318012296CE15DF05BCF269C0153411F081E16EC04F
:20064000C0E0D0E011C08091180190911901880F991F9E01280F422F80EA60E02FEF0E9414
:20066000AD000E94DC002196CE15DF0564F34DC00E94D100C65EDE4F88830F5FC02FD0E091
:200680000430B1F780911A0160911B0140911C0120911D010E94C2000E94E20041C084E03B
:2006A00060E00E94860481E160E00E9486048EE060E00E94860487E060E00E9486048FE0E4
:2006C00061E00E94C5040E94F5002AC00E94D100803209F584E10E94DC0080E360E040E024
:2006E00020E00E94AD000E94DC0080E360E041E020E00E94AD000E94DC0080E360E042E0D7
:2007000020E00E94AD000E94DC0080E107C00E94D100803211F085E101C082E10E94DC00B6
:20072000DF91CF911F910F91FF90EF90DF90CF90089589EB92E040E05BE460E070E00E94A9
:20074000EF058FE061E00E9486048FE061E00E94C50408951F920F920FB60F9211242F9362
:200760003F938F939F93AF93BF9380912C0290912D02A0912E02B0912F02309130020196D3
:20078000A11DB11D232F2D5F2D3720F02D570196A11DB11D2093300280932C0290932D025C
:2007A000A0932E02B0932F028091280290912902A0912A02B0912B020196A11DB11D8093DA
:2007C000280290932902A0932A02B0932B02BF91AF919F918F913F912F910F900FBE0F9057
:2007E0001F9018959B01AC017FB7F8948091280290912902A0912A02B0912B0266B5A89BE2
:2008000005C06F3F19F00196A11DB11D7FBFBA2FA92F982F8827860F911DA11DB11D62E0B3
:20082000880F991FAA1FBB1F6A95D1F7BC012DC0FFB7F8948091280290912902A0912A022F
:20084000B0912B02E6B5A89B05C0EF3F19F00196A11DB11DFFBFBA2FA92F982F88278E0F9B
:20086000911DA11DB11DE2E0880F991FAA1FBB1FEA95D1F7861B970B885E9340C8F221501C
:2008800030404040504068517C4F211531054105510571F60895789484B5826084BD84B5A7
:2008A000816084BD85B5826085BD85B5816085BDEEE6F0E0808181608083E1E8F0E01082A7
:2008C000808182608083808181608083E0E8F0E0808181608083E1EBF0E08081846080834C
:2008E000E0EBF0E0808181608083EAE7F0E080818460808380818260808380818160808324
:200900008081806880831092C1000895CF93DF93482F50E0CA0186569F4FFC0134914A5778
:200920005F4FFA018491882369F190E0880F991FFC01E859FF4FA591B491FC01EE58FF4F9D
:20094000C591D491662351F42FB7F8948C91932F909589238C93888189230BC0623061F466
:200960002FB7F8948C91932F909589238C938881832B88832FBF06C09FB7F8948C91832B13
:200980008C939FBFDF91CF910895482F50E0CA0182559F4FFC012491CA0186569F4FFC01F2
:2009A00094914A575F4FFA013491332309F440C0222351F1233071F0243028F42130A1F023
:2009C000223011F514C02630B1F02730C1F02430D9F404C0809180008F7703C0809180001C
:2009E0008F7D8093800010C084B58F7702C084B58F7D84BD09C08091B0008F7703C080919D
:200A0000B0008F7D8093B000E32FF0E0EE0FFF1FEE58FF4FA591B4912FB7F894662321F43B
:200A20008C919095892302C08C91892B8C932FBF0895682F70E0CB0182559F4FFC01249161
:200A4000CB0186569F4FFC0144916A577F4FFB019491992319F420E030E03CC0222351F122
:200A6000233071F0243028F42130A1F0223011F514C02630B1F02730C1F02430D9F404C060
:200A8000809180008F7703C0809180008F7D8093800010C084B58F7702C084B58F7D84BD75
:200AA00009C08091B0008F7703C08091B0008F7D8093B000892F90E0880F991F84589F4F12
:200AC000FC01A591B4918C9120E030E0842311F021E030E0C901089508951F920F920FB69D
:200AE0000F9211242F933F934F938F939F93EF93FF934091C60020917102309172022F5FC4
:200B00003F4F2F73307080917302909174022817390759F0E0917102F0917202EF5CFD4FB0
:200B200040833093720220937102FF91EF919F918F914F913F912F910F900FBE0F901F900B
:200B40001895E091C502F091C602E05CFF4F8191919120813181821B930B8F739070892B65
:200B600011F00E946C0508951F920F920FB60F9211242F933F938F939F93EF93FF9320912A
:200B8000B5023091B6028091B7029091B8022817390731F48091C1008F7D8093C10014C056
:200BA000E091B702F091B802EB58FD4F20818091B7029091B80201968F7390709093B80285
:200BC0008093B7022093C600FF91EF919F918F913F912F910F900FBE0F901F901895AF9238
:200BE000BF92DF92EF92FF920F931F93CF93DF93EC017A018B01DD24403081EE580780E066
:200C0000680780E0780711F0DD24D39491E0A92EB12CEC89FD89DD2069F0C5010E8C02C085
:200C2000880F991F0A94E2F7808360E079E08DE390E005C0108260E874E88EE190E0A801EF
:200C400097010E94BE072150304040405040569547953795279580E12030380720F0DD2058
:200C600011F0DD24D6CFE889F9893083EA89FB892083EE89FF89408121E030E0C9010A8C5C
:200C800002C0880F991F0A94E2F7482B4083EE89FF894081C9010B8C02C0880F991F0A94C6
:200CA000E2F7482B4083EE89FF894081C9010C8C02C0880F991F0A94E2F7482B4083EE89CE
:200CC000FF8980810D8C02C0220F331F0A94E2F7209528232083DF91CF911F910F91FF90E4
:200CE000EF90DF90BF90AF900895DC011C96ED91FC911D97E05CFF4F21913191808191817C
:200D0000281B390B2F733070C9010895DC011C96ED91FC911D97E05CFF4F20813181E05444
:200D2000F040DF01AE5BBF4F8D919C9111972817390719F42FEF3FEF07C08D919C91E80FB8
:200D4000F91F8081282F30E0C9010895DC011C96ED91FC911D97E05CFF4F20813181E0544D
:200D6000F040DF01AE5BBF4F8D919C9111972817390719F42FEF3FEF10C08D919C911197BE
:200D8000E80FF91F20818D919C91119701968F73907011969C938E9330E0C9010895FC01AC
:200DA00086859785DC01A05CBF4FFC01EE5BFF4F2D913C9111978081918128173907C1F714
:200DC0000895CF93DF93EC01EE85FF85E05CFF4F20813181E054F0402F5F3F4F2F7330701F
:200DE000DF01AE5BBF4F8D919C91119728173907D1F3E05CFF4F80819181E054F040E80FCE
:200E0000F91F6083EE85FF85E05CFF4F31832083EE89FF89208181E090E00D8C02C0880F9C
:200E2000991F0A94E2F7282B208381E090E0DF91CF9108951092BC021092BB0288EE93E0A7
:200E4000A0E0B0E08093BD029093BE02A093BF02B093C0028CE091E09093BA028093B9024A
:200E600081E392E09093C6028093C50285E792E09093C8028093C70285EC90E09093CA0260
:200E80008093C90284EC90E09093CC028093CB0280EC90E09093CE028093CD0281EC90E035
:200EA0009093D0028093CF0286EC90E09093D2028093D10284E08093D30283E08093D40202
:200EC00087E08093D50285E08093D60281E08093D7020895CF93DF930E944B040E94990384
:200EE000C1EAD5E00E9402012097E1F30E94A105F9CFCF92DF92EF92FF920F931F93CF93B8
:200F0000DF937C016B018A01C0E0D0E00FC0D6016D916D01D701ED91FC910190F081E02D97
:200F2000C7010995C80FD91F015010400115110571F7CE01DF91CF911F910F91FF90EF904A
:200F4000DF90CF900895DC01ED91FC910190F081E02D0995089597FB092E07260AD077FDB0
:200F600004D02ED006D000201AF4709561957F4F0895F6F7909581959F4F0895A1E21A2EB7
:200F8000AA1BBB1BFD010DC0AA1FBB1FEE1FFF1FA217B307E407F50720F0A21BB30BE40B49
:200FA000F50B661F771F881F991F1A9469F760957095809590959B01AC01BD01CF01089501
:200FC000AA1BBB1B51E107C0AA1FBB1FA617B70710F0A61BB70B881F991F5A95A9F78095D9
:200FE0009095BC01CD010895EE0FFF1F0590F491E02D0994F894FFCF415652204953500076
:2010000000000000E10679077506A6068606CF06FFFFFFFFFFFFFFFFFFFFFFFFFFFFFFFFF1
:20102000FFFFFFFFFFFFFFFFFFFFFFFFFFFFFFFFFFFFFFFFFFFFFFFFFFFFFFFFFFFFFFFFD0
:20104000FFFFFFFFFFFFFFFFFFFFFFFFFFFFFFFFFFFFFFFFFFFFFFFFFFFFFFFFFFFFFFFFB0
:20106000FFFFFFFFFFFFFFFFFFFFFFFFFFFFFFFFFFFFFFFFFFFFFFFFFFFFFFFFFFFFFFFF90
:2010800087953A95E1F78170907091878087CB0195958795877090709387828761707070A0
:2010A000758764870E94DB028DB79EB70E960FB6F8949EBF0FBE8DBF0895FF920F931F9344
:2010C0008C01F62E81E00E94C20780E00E94CB0780E00E94D007F80181816F2D0E9411108C
:2010E0001F910F91FF9008951F93CF93DF93EC0160E070E00E945D0880E68EBD0DB407FEF3
:20110000FDCF8EB58FEF8EBD0DB407FEFDCF1EB5CE0161E070E00E945D08812FDF91CF91AB
:201120001F9108951F93CF93DF93EC0160E070E00E945D088FEF8EBD0DB407FEFDCF1EB52A
:20114000CE0161E070E00E945D08812FDF91CF911F9108951F93CF93DF93EC0160E070E058
:201160000E945D0881EE8EBD0DB407FEFDCF1EB5CE0161E070E00E945D08812FDF91CF9162
:201180001F9108951F93CF93DF93EC0160E070E00E945D0882EE8EBD0DB407FEFDCF1EB5D8
:2011A000CE0161E070E00E945D08812FDF91CF911F9108950F931F938C01FC01808160E0DC
:2011C0000E941110C8010E94AA08C8010E94C2081F910F910895EF92FF920F931F93CF9345
:2011E000DF93EC01F62EE72E9C81142F941708F4192F8E81882311F000E002C0092F011B57
:20120000CE0160E070E00E945D0881E68EBD0DB407FEFDCF8F2D9E2D9C01F901FEB49FEFC6
:2012200007C09EBD0DB407FEFDCF8EB5819311501123B9F707C08EBD0DB407FEFDCF9EB567
:20124000015001C08FEF0023B1F7CE0161E070E00E945D088F2DDF91CF911F910F91FF9061
:20126000EF900895EF92FF920F931F93CF93DF93EC01F62EE72E9C81142F941708F4192FA3
:201280008E81882311F000E002C0092F011BCE0160E070E00E945D0880EA8EBD0DB407FEBC
:2012A000FDCF8F2D9E2D9C01F901FEB408C080818EBD0DB407FEFDCF31968EB5115011234D
:2012C000B1F706C01EBC0DB407FEFDCF8EB501500023C1F7CE0161E070E00E945D088F2DA2
:2012E000DF91CF911F910F91FF90EF9008950F931F93CF93DF93EC01162F042F60E070E006
:201300000E945D081F7110621EBD0DB407FEFDCF1EB50EBD0DB407FEFDCF8EB5CE0161E0D4
:2013200070E00E945D08812FDF91CF911F910F910895262F4F702295207F242B64E0422F7B
:201340000E9477090895CF92DF92EF92FF920F931F938B017A01690167E040E70E94770995
:2013600090E09C01E5E036952795EA95E1F72170F801208374E0969587957A95E1F7282FB7
:201380002170F701208396958795969587958170F60180831F910F91FF90EF90DF90CF907C
:2013A0000895DF92EF92FF920F931F93CF93DF938C017B010E949208C82FD0E0CE01A6E0A4
:2013C00096958795AA95E1F7DD24D394D82280FF15C0E114F10431F0CE01959587958770E2
:2013E000F7018083C80167E040E40E947709C5FF05C0C80167E040E20E9477098D2DDF9195
:20140000CF911F910F91FF90EF90DF90089560E070E00E94D1090895462F603808F04FE71E
:2014200065E00E9477090895EF92FF920F931F93CF93DF937C01162FEA01022F60E070E000
:201440000E945D081F7110621EBD0DB407FEFDCF1EB508C088818EBD0DB407FEFDCF2196DE
:201460008EB501500023B1F7C70161E070E00E945D08812FDF91CF911F910F91FF90EF90CF
:201480000895EF92FF920F931F93DF93CF93CDB7DEB728970FB6F894DEBF0FBECDBF7C01D9
:2014A00009831A832B833C834D835E836F8378878E010F5F1F4F6AE0A80125E00E94140AD1
:2014C000C70160E1A80125E00E94140AF7014481413208F040E2C70161E10E947709289661
:2014E0000FB6F894DEBF0FBECDBFCF91DF911F910F91FF90EF9008951F93CF93DF93EC0167
:20150000162F60E070E00E945D081F711EBD0DB407FEFDCF8EB58FEF8EBD0DB407FEFDCF54
:201520001EB5CE0161E070E00E945D08812FDF91CF911F91089560E00E947C0A8C7083FDC0
:2015400003C020E030E007C082FD03C021E030E002C022E030E0C90108950F931F93CF93AD
:20156000DF938C01EB0160E00E947C0A482F437F209729F0219711F4486001C04C60C80174
:2015800060E00E947709DF91CF911F910F91089566E00E947C0A8872803219F422E030E0F3
:2015A00006C020E030E0883011F421E030E0C9010895FF920F931F93CF93DF93EC018B01EE
:2015C00066E00E947C0A1A82B7EDFB2EF8220230110511F480E206C00130110529F481E0E0
:2015E0008A8388E0F82A01C01A82CE0166E04F2D0E947709CE0166E00E947C0A8F1511F45E
:2016000081E002C01A8280E0DF91CF911F910F91FF90089566E00E947C0A8670863019F438
:2016200023E030E00BC0843019F422E030E006C020E030E0823011F421E030E0C9010895F4
:201640000F931F93CF93DF938C01EB0166E00E947C0A482F497FC330D10571F0C230D1054A
:2016600011F444600AC0C130D10511F4426005C0209719F0249709F44660C80166E00E94F5
:201680007709DF91CF911F910F910895BF92CF92DF92EF92FF920F931F93DF93CF93CDB72C
:2016A000DEB728970FB6F894DEBF0FBECDBF6C01B62EE982FA820B831C832D833E834F83E7
:2016C0005887662389F4F601E0868A8181878B8182878C8183878D8184878E8185878F8145
:2016E00086878885878707C0F6E0F61708F43DC081E0681761F4EB2DF0E0E859FF4FE491FE
:20170000C6016E2FAE014F5F5F4F25E00BC0E62FF0E0E859FF4FE491C6016E2FAE014F5FE0
:201720005F4F21E00E94140A0B2D10E0F801E259FF4FE491C6016E2FF60144810E947709D9
:20174000C60162E00E947C0A0C581F4FF801649121E030E002C0220F331F6A95E2F7482FF3
:20176000422BC60162E00E94770928960FB6F894DEBF0FBECDBFCF91DF911F910F91FF901D
:20178000EF90DF90CF90BF9008950F931F938C010E94EB08C80167E10E947C0A81701F91C0
:2017A0000F910895DF92EF92FF920F931F938C017B01D42E60E00E947C0A482F4C7F4260BE
:2017C000C80160E00E94770986E990E00E948D0FC801B7014D2D0E943209F801808161E0AE
:2017E0000E9411108FE090E00E948D0FF801808160E00E9411101F910F91FF90EF90DF903F
:2018000008950F931F938C0160E00E947C0A482F4D7FC80160E00E9477091F910F91089587
:20182000CF93DF93EC0160E00E947C0A482F4360CE0160E00E947709CE0167E040E70E9455
:20184000770988859985892B9A85892B9B85892B9C85892B9D85892B9E85892B9F85892B28
:2018600041F0AE01485F5F4FCE016AE025E00E94140ACE010E94C208CE010E94AA088881EE
:2018800061E00E94111082E890E00E948D0FDF91CF910895CF92DF92FF920F931F93CF93A6
:2018A000DF936C01EB01042FF22ECB010E947102089710F020E001C029E000D000D000D050
:2018C000EDB7FEB7319687E591E0ADB7BEB712969C938E931197D383C283822F992787FD02
:2018E0009095958384830E94DB02EDB7FEB736960FB6F894FEBF0FBEEDBFCFE4D1E01BC03A
:20190000102F1F5FC601602F0E947C0A00D000D0EDB7FEB73196ADB7BEB71296DC93CE937B
:201920001197828313820E94DB02FA94012F0F900F900F900F90FF2019F700D08CE491E0CC
:20194000EDB7FEB7928381830E94DB020F900F90DF91CF911F910F91FF90DF90CF9008953E
:20196000CF93DF93EC01888161E00E94D20F898161E00E94D20F0E94E107888160E00E9496
:201980001110CE0161E070E00E945D0865E070E080E090E00E94340FCE0164E04FE40E948D
:2019A0007709CE0163E070E00E94200BCE0162E070E00E94D90A882311F081E08B83CE01A8
:2019C00060E070E00E94D90ACE0162E070E00E94AD0ACE016CE140E00E947709CE0167E0C4
:2019E00040E70E947709CE016CE40E940C0ACE010E94C208CE010E94AA08DF91CF910895FC
:201A0000EF92FF920F931F93CF93DF937C01162FEA01022F60E070E00E945D081F711EBDAC
:201A20000DB407FEFDCF1EB59FEF07C09EBD0DB407FEFDCF8EB5899301500023B9F7C701B4
:201A400061E070E00E945D08812FDF91CF911F910F91FF90EF900895AF92BF92CF92DF920F
:201A6000EF92FF920F931F93DF93CF9300D00F92CDB7DEB78C010E94D20B0E94260F6B0153
:201A80007C015E010894A11CB11CC80168E0A50121E00E94000D807331F50E94260F6C1968
:201AA0007D098E099F09645F714080409040D8F4ECCFC8010E947408F8018783C8010E9481
:201AC000010CC8010E94AA088F2D0F900F900F90CF91DF911F910F91FF90EF90DF90CF9047
:201AE000BF90AF90089598012B5F3F4FC801BE016E5F7F4FAE014D5F5F4F0E94A309FA8016
:201B0000F80185818823D1F2D4CF4F925F926F927F928F929F92AF92BF92CF92DF92EF929A
:201B2000FF920F931F93DF93CF9300D000D00F92CDB7DEB76C018B01E42EF22ECB010E94F9
:201B40007102089710F020E001C029E000D000D000D0EDB7FEB7319684E491E0ADB7BEB767
:201B600012969C938E93119713830283822F992787FD9095958384830E94DB02EDB7FEB799
:201B800036960FB6F894FEBF0FBEEDBF2E010894411C511C80E4682E81E0782E06E0802EC8
:201BA000912C8C0E9D1E1BE3A12E11E0B12E2FC0C6016E2DA20125E00E94000D00D0ADB79A
:201BC000BEB712967C926E9211970E94DB0284010F900F9015C000D000D0EDB7FEB731965B
:201BE000ADB7BEB71296BC92AE921197D8018C91828313820E94DB020F900F900F900F90A3
:201C0000015010400C171D0731F7E394FA94FF2079F600D088E391E0EDB7FEB79283818303
:201C20000E94DB020F900F900F900F900F900F900F90CF91DF911F910F91FF90EF90DF902F
:201C4000CF90BF90AF909F908F907F906F905F904F9008950F931F938C010E949208682F1C
:201C6000C8010E941308C8016BE271E04AE022E00E94850DC8016EE171E04CE024E00E94DC
:201C80004A0CC80166E171E040E121E00E94850DC8016BE071E041E126E00E944A0CC801E9
:201CA00065E071E041E021E00E944A0CC8016BEF70E042E021E00E944A0CC80165EF70E079
:201CC00045E021E00E944A0CC8016CEE70E046E021E00E944A0CC80165EE70E040E021E0C7
:201CE0000E944A0CC80167ED70E04CE122E00E944A0CC8010E94C80AFC01EE0FFF1FE658C5
:201D0000FF4F2591349100D000D085EC90E0EDB7FEB792838183348323830E94DB02F80132
:201D20008381E82FF0E0EE0FFF1FE058FF4F2591349186EB90E0EDB7FEB792838183348392
:201D400023830E94DB020F900F900F900F90C8010E949B0AFC01EE0FFF1FEC57FF4F259173
:201D6000349100D000D083EA90E0EDB7FEB792838183348323830E94DB020F900F900F90F6
:201D80000F90C8010E940A0BFC01EE0FFF1FE657FF4F2591349100D000D082E990E0EDB7E7
:201DA000FEB792838183348323830E94DB020F900F900F900F901F910F9108951F920F92BE
:201DC0000FB60F9211242F933F938F939F93AF93BF938091B8029091B902A091BA02B09117
:201DE000BB023091BC020196A11DB11D232F2D5F2D3720F02D570196A11DB11D2093BC021A
:201E00008093B8029093B902A093BA02B093BB028091B4029091B502A091B602B091B702A6
:201E20000196A11DB11D8093B4029093B502A093B602B093B702BF91AF919F918F913F9145
:201E40002F910F900FBE0F901F9018958FB7F8942091B8023091B9024091BA025091BB0277
:201E60008FBFB901CA0108959B01AC017FB7F8948091B4029091B502A091B602B091B70265
:201E800066B5A89B05C06F3F19F00196A11DB11D7FBFBA2FA92F982F8827860F911DA11DCF
:201EA000B11D62E0880F991FAA1FBB1F6A95D1F7BC012DC0FFB7F8948091B4029091B502CE
:201EC000A091B602B091B702E6B5A89B05C0EF3F19F00196A11DB11DFFBFBA2FA92F982FDC
:201EE00088278E0F911DA11DB11DE2E0880F991FAA1FBB1FEA95D1F7861B970B885E934065
:201F0000C8F2215030404040504068517C4F211531054105510571F60895019739F0880F2E
:201F2000991F880F991F02970197F1F70895789484B5826084BD84B5816084BD85B5826005
:201F400085BD85B5816085BDEEE6F0E0808181608083E1E8F0E01082808182608083808147
:201F600081608083E0E8F0E0808181608083E1EBF0E0808184608083E0EBF0E080818160FF
:201F80008083EAE7F0E080818460808380818260808380818160808380818068808310925C
:201FA000C1000895CF93DF93482F50E0CA01835A9D4FFC013491475B5D4FFA0184918823E9
:201FC00069F190E0880F991FFC01E55DFD4FA591B491FC01EB5CFD4FC591D491662351F4C9
:201FE0002FB7F8948C91932F909589238C93888189230BC0623061F42FB7F8948C91932FE8
:20200000909589238C938881832B88832FBF06C09FB7F8948C91832B8C939FBFDF91CF9160
:202020000895482F50E0CA018F589D4FFC012491CA01835A9D4FFC019491475B5D4FFA010D
:202040003491332309F440C0222351F1233071F0243028F42130A1F0223011F514C0263059
:20206000B1F02730C1F02430D9F404C0809180008F7703C0809180008F7D8093800010C078
:2020800084B58F7702C084B58F7D84BD09C08091B0008F7703C08091B0008F7D8093B000D6
:2020A000E32FF0E0EE0FFF1FEB5CFD4FA591B4912FB7F894662321F48C919095892302C055
:2020C0008C91892B8C932FBF089508951F920F920FB60F9211242F933F934F938F939F9331
:2020E000EF93FF934091C6002091FD023091FE022F5F3F4F2F7330708091FF029091000330
:202100002817390759F0E091FD02F091FE02E354FD4F40833093FE022093FD02FF91EF913B
:202120009F918F914F913F912F910F900FBE0F901F901895E0915103F0915203E05CFF4F53
:202140008191919120813181821B930B8F739070892B11F00E94651008951F920F920FB63B
:202160000F9211242F933F938F939F93EF93FF9320914103309142038091430390914403D3
:202180002817390731F48091C1008F7D8093C10014C0E0914303F0914403EF5FFC4F20815C
:2021A000809143039091440301968F73907090934403809343032093C600FF91EF919F914B
:2021C0008F913F912F910F900FBE0F901F901895AF92BF92DF92EF92FF920F931F93CF931D
:2021E000DF93EC017A018B01DD24403081EE580780E0680780E0780711F0DD24D39491E0B2
:20220000A92EB12CEC89FD89DD2069F0C5010E8C02C0880F991F0A94E2F7808360E079E035
:202220008DE390E005C0108260E874E88EE190E0A80197010E949C12215030404040504062
:20224000569547953795279580E12030380720F0DD2011F0DD24D6CFE889F9893083EA8972
:20226000FB892083EE89FF89408121E030E0C9010A8C02C0880F991F0A94E2F7482B408348
:20228000EE89FF894081C9010B8C02C0880F991F0A94E2F7482B4083EE89FF894081C901D5
:2022A0000C8C02C0880F991F0A94E2F7482B4083EE89FF8980810D8C02C0220F331F0A944C
:2022C000E2F7209528232083DF91CF911F910F91FF90EF90DF90BF90AF900895DC011C962B
:2022E000ED91FC911D97E05CFF4F2191319180819181281B390B2F733070C9010895DC0101
:202300001C96ED91FC911D97E05CFF4F20813181E054F040DF01AE5BBF4F8D919C91119721
:202320002817390719F42FEF3FEF07C08D919C91E80FF91F8081282F30E0C9010895DC01F8
:202340001C96ED91FC911D97E05CFF4F20813181E054F040DF01AE5BBF4F8D919C911197E1
:202360002817390719F42FEF3FEF10C08D919C911197E80FF91F20818D919C911197019688
:202380008F73907011969C938E9330E0C9010895FC0186859785DC01A05CBF4FFC01EE5B7C
:2023A000FF4F2D913C9111978081918128173907C1F70895CF93DF93EC01EE85FF85E05CC1
:2023C000FF4F20813181E054F0402F5F3F4F2F733070DF01AE5BBF4F8D919C911197281771
:2023E0003907D1F3E05CFF4F80819181E054F040E80FF91F6083EE85FF85E05CFF4F3183B1
:202400002083EE89FF89208181E090E00D8C02C0880F991F0A94E2F7282B208381E090E0C0
:20242000DF91CF910895109248031092470388EE93E0A0E0B0E08093490390934A03A0935B
:202440004B03B0934C0388E992E090934603809345038DEB92E0909352038093510381E0C8
:2024600093E0909354038093530385EC90E0909356038093550384EC90E0909358038093CD
:20248000570380EC90E090935A038093590381EC90E090935C0380935B0386EC90E0909342
:2024A0005E0380935D0384E080935F0383E08093600387E08093610385E08093620381E07A
:2024C000809363030895CF93DF930E94970F0E945007CAE9D0E10E94A8052097E1F30E94F1
:2024E0009A10F9CFCF92DF92EF92FF920F931F93CF93DF937C016B018A01C0E0D0E00FC0CB
:20250000D6016D916D01D701ED91FC910190F081E02DC7010995C80FD91F0150104001159A
:20252000110571F7CE01DF91CF911F910F91FF90EF90DF90CF900895A1E21A2EAA1BBB1B4F
:20254000FD010DC0AA1FBB1FEE1FFF1FA217B307E407F50720F0A21BB30BE40BF50B661F89
:20256000771F881F991F1A9469F760957095809590959B01AC01BD01CF010895EE0FFF1F95
:202580000590F491E02D09949111089581568A5108F48052855808952F923F924F925F92DA
:2025A0006F927F928F929F92AF92BF92CF92DF92EF92FF920F931F93CF93DF93CDB7DEB700
:2025C000CA1BDB0B0FB6F894DEBF0FBECDBF09942A88398848885F846E847D848C849B8404
:2025E000AA84B984C884DF80EE80FD800C811B81AA81B981CE0FD11D0FB6F894DEBF0FBEC6
:20260000CDBFED010895F894FFCF4E6F772073656E64696E6720256C752E2E2E006F6B2E55
:202620002E2E006661696C65642E0A0D004661696C65642C20726573706F6E736520746997
:202640006D6564206F75742E0A0D00476F7420726573706F6E736520256C752C20726F7506
:202660006E642D747269702064656C61793A20256C750A0D00476F74207061796C6F6164C2
:2026800020256C752E2E2E0053656E7420726573706F6E73652E0A0D002A2A2A20434841B2
:2026A0004E47494E4720544F205452414E534D495420524F4C45202D2D20505245535320B9
:2026C00027522720544F20535749544348204241434B0A0D002A2A2A204348414E47494EC7
:2026E0004720544F205245434549564520524F4C45202D2D205052455353202754272054FE
:202700004F20535749544348204241434B0A0D000A0D524632342F6578616D706C65732F5E
:2027200047657474696E67537461727465642F0A0D00524F4C453A2025730A0D002A2A2AF1
:202740002050524553532027542720746F20626567696E207472616E736D697474696E679E
:2027600020746F20746865206F74686572206E6F64650A0D00696E76616C69640050696EC8
:2027800067206F757400506F6E67206261636B0020006E0300006B0273027C020200000022
:2027A0000000DA1172126E119F117F11C811FFFFFFFFFFFFFFFFFFFFFFFFFFFFFFFFFFFF24
:2027C000FFFFFFFFFFFFFFFFFFFFFFFFFFFFFFFFFFFFFFFFFFFFFFFFFFFFFFFFFFFFFFFF19
:2027E000FFFFFFFFFFFFFFFFFFFFFFFFFFFFFFFFFFFFFFFFFFFFFFFFFFFFFFFFFFFFFFFFF9
:20280000649FE00DF11D929FF00D839FF00D749FF00D659FF00D9927729FB00DE11DF91FB8
:20282000639FB00DE11DF91FBD01CF0111240895AA1BBB1B51E107C0AA1FBB1FA617B707B1
:2028400010F0A61BB70B881F991F5A95A9F780959095BC01CD01089597FB092E07260AD0D5
:2028600077FD04D0E5DF06D000201AF4709561957F4F0895F6F7909581959F4F0895A1E2AC
:202880001A2EAA1BBB1BFD010DC0AA1FBB1FEE1FFF1FA217B307E407F50720F0A21BB30BD7
:2028A000E40BF50B661F771F881F991F1A9469F760957095809590959B01AC01BD01CF0196
:2028C000089597FB092E05260ED057FD04D0D7DF0AD0001C38F450954095309521953F4FC6
:2028E0004F4F5F4F0895F6F790958095709561957F4F8F4F9F4F0895EE0FFF1F0590F49161
:20290000E02D0994F894FFCF43757272656E7420636F6E66696775726174696F6E3A0044BA
:202920004620452000444620532000200020690020670020402000204D487A2000636F6E70
:202940006669672073617665206661696C6564003E2000206466232000203A2000723A201C
:20296000706167652000444620433F200052200044462052200044462057004F4B200020E5
:202980003F2000202D3E2061636B00202D3E20002062000A5B5246313264656D6F2E335D0E
:2029A000004446204920003B01B1016403930300000000D01124123C1200FFFFFFFFFFFFBA
:2029C000FFFFFFFFFFFFFFFFFFFFFFFFFFFFFFFFFFFFFFFFFFFFFFFFFFFFFFFFFFFFFFFF17
:2029E000FFFFFFFFFFFFFFFFFFFFFFFFFFFFFFFFFFFFFFFFFFFFFFFFFFFFFFFFFFFFFFFFF7
:202A0000FFFFFFFFFFFFFFFFFFFFFFFFFFFFFFFFFFFFFFFFFFFFFFFFFFFFFFFFFFFFFFFFD6
:202A2000FFFFFFFFFFFFFFFFFFFFFFFFFFFFFFFFFFFFFFFFFFFFFFFFFFFFFFFFFFFFFFFFB6
:207800000C94343C0C94513C0C94513C0C94513C0C94513C0C94513C0C94513C0C94513C1D
:207820000C94513C0C94513C0C94513C0C94513C0C94513C0C94513C0C94513C0C94513CE0
:207840000C94513C0C94513C0C94513C0C94513C0C94513C0C94513C0C94513C0C94513CC0
:207860000C94513C0C94513C11241FBECFEFD8E0DEBFCDBF11E0A0E0B1E0ECE9FFE702C07E
:2078800005900D92A230B107D9F712E0A2E0B1E001C01D92AD30B107E1F70E942D3D0C94CC
:2078A000CC3F0C94003C982F9595959595959595905D8F708A307CF0282F295A8091C000B5
:2078C00085FFFCCF9093C6008091C00085FFFCCF2093C6000895282F205DF0CF982F8091CF
:2078E000C00085FFFCCF9093C6000895EF92FF920F931F93EE24FF2487018091C00087FD7B
:2079000017C00894E11CF11C011D111D81E4E81682E4F8068FE0080780E0180770F3E09106
:207920000401F091050109958091C00087FFE9CF8091C6001F910F91FF90EF9008950E949A
:20794000763C982F8091C00085FFFCCF9093C60091362CF490330CF09053892F08959755DB
:20796000892F08951F930E949F3C182F0E949F3C1295107F810F1F9108951F93182F882308
:2079800021F00E94763C1150E1F71F9108951F93182F0E94763C803249F0809103018F5FC1
:2079A000809303018530C1F01F9108958091C00085FFFCCF84E18093C6008091C00085FF4A
:2079C000FCCF1093C6008091C00085FFFCCF80E18093C6001F910895E0910401F0910501CF
:2079E00009951F9108950E94763C803241F0809103018F5F80930301853081F00895809177
:207A0000C00085FFFCCF84E18093C6008091C00085FFFCCF80E18093C6000895E0910401AC
:207A2000F09105010995089540E951E08823A1F02D9A28EE33E0FA013197F1F72150304072
:207A4000D1F72D9828EE33E0FA013197F1F721503040D1F7815061F708953F924F925F92B3
:207A60006F927F928F929F92AF92BF92CF92DF92EF92FF920F931F93CF93DF93000080E1A3
:207A80008093C4001092C50088E18093C10086E08093C2005098589A259A81E00E94143D43
:207AA00024E1F22E9EE1E92E85E9D82E0FE0C02E10E1B12EAA24A394B1E49B2EA6E58A2E44
:207AC000F2E57F2EE0E26E2E79E4572E63E5462E50E5352E0E94763C8033B1F18133B9F187
:207AE000803409F46FC0813409F476C0823409F485C0853409F488C0803531F1823521F128
:207B0000813511F1853509F485C0863509F48DC0843609F496C0843709F403C1853709F46A
:207B200072C1863709F466C0809103018F5F80930301853079F6E0910401F0910501099559
:207B40000E94763C803351F60E94F33CC3CF0E94763C803249F78091C00085FFFCCFF0928C
:207B6000C6008091C00085FFFCCF9092C6008091C00085FFFCCF8092C6008091C00085FFEA
:207B8000FCCF7092C6008091C00085FFFCCF6092C6008091C00085FFFCCF5092C6008091A1
:207BA000C00085FFFCCF4092C6008091C00085FFFCCF3092C6008091C00085FFFCCFB09214
:207BC000C60088CF0E94763C863808F4BDCF0E94763C0E94F33C7ECF0E94763C803809F473
:207BE0009CC0813809F40BC1823809F43CC1883909F48FC080E00E94C73C6CCF84E10E949F
:207C0000BD3C0E94F33C66CF85E00E94BD3C0E94F33C60CF0E94763C809306010E94763CA3
:207C2000809307010E94F33C55CF0E94763C803309F41DC183E00E94BD3C80E00E94C73C4F
:207C400049CF0E94763C809309020E94763C8093080280910C028E7F80930C020E94763C88
:207C6000853409F415C18091080290910902892B89F000E010E00E94763CF801E85FFE4F53
:207C800080830F5F1F4F80910802909109020817190788F30E94763C803209F045CF8091E0
:207CA0000C0280FF01C16091060170910701660F771F7093070160930601A0910802B091E8
:207CC00009021097C9F0E8E0F1E09B01AD014E0F5F1FF999FECF32BD21BD819180BDFA9A6C
:207CE000F99A2F5F3F4FE417F50799F76A0F7B1F70930701609306018091C00085FFFCCF16
:207D0000F092C6008091C00085FFFCCFB092C600E1CE83E00E94C73CDDCE82E00E94C73C8A
:207D2000D9CE0E94763C809309020E94763C809308028091060190910701880F991F909306
:207D40000701809306010E94763C853409F4A6C080910C028E7F80930C020E94763C80323E
:207D600009F0B8CE8091C00085FFFCCFF092C600609108027091090261157105B9F140E05F
:207D800050E080910C02A82FA170B82FB27011C0BB2309F45CC0E0910601F0910701319613
:207DA000F0930701E09306014F5F5F4F46175707E8F4AA2369F3F999FECF209106013091CA
:207DC000070132BD21BDF89A90B58091C00085FFFCCF9093C6002F5F3F4F30930701209354
:207DE00006014F5F5F4F4617570718F38091C00085FDE5CE8091C00085FFF8CFE0CE81E029
:207E00000E94C73C67CE0E94763C803209F08CCE8091C00085FFFCCFF092C6008091C000F6
:207E200085FFFCCFE092C6008091C00085FFFCCFD092C6008091C00085FFFCCFC092C6003B
:207E40008091C00085FFFCCFB092C60043CEE0910601F091070194918091C00085FFFCCFA3
:207E60009093C6009CCF80E10E94C73C33CE0E94763C0E94763C182F0E94763C112309F433
:207E800083C0113009F484C08FE00E94C73C22CE80910C02816080930C02E5CE80910C0226
:207EA000816080930C0259CF809107018823880F880B8A2180930B0280910601909107019E
:207EC000880F991F90930701809306018091080280FF09C0809108029091090201969093AA
:207EE000090280930802F894F999FECF1127E0910601F0910701C8E0D1E0809108029091A1
:207F00000902103091F40091570001700130D9F303E000935700E895009157000170013067
:207F2000D9F301E100935700E895099019900091570001700130D9F301E000935700E8954C
:207F40001395103498F011270091570001700130D9F305E000935700E8950091570001707A
:207F60000130D9F301E100935700E8953296029709F0C7CF103011F00296E5CF11248091F8
:1E7F8000C00085FFB9CEBCCE8EE10E94C73CA2CD85E90E94C73C9ECDF894FFCF8000B3
:00000001FF
