:100000000C9446010C946E010C946E010C946E01DC
:100010000C946E010C946E010C9470010C946E01A2
:100020000C946E010C946E010C946E010C946E0194
:100030000C946E010C946E010C946E010C946E0184
:100040000C942F080C946E010C94E5090C94330A5F
:100050000C946E010C946E010C946E010C946E0164
:100060000C9400100C946E01000000002400270086
:100070002A0000000000250028002B0000000000DE
:1000800023002600290004040404040404040202DA
:100090000202020203030303030301020408102007
:1000A0004080010204081020010204081020000012
:1000B0000007000201000003040600000000000029
:1000C00000000A0B0C0D0E0F11121314151600016F
:1000D0000203040529022F0235023D0246025002A6
:1000E0005902600268026F0276027D025041205080
:1000F0006F77657209203D2025530D0A0043524356
:10010000204C656E67746809203D2025530D0A0058
:100110004D6F64656C0909203D2025530D0A00448C
:10012000617461205261746509203D2025530D0AD8
:100130000044594E50442F464541545552450043C2
:100140004F4E4649470052465F5345545550005262
:10015000465F434800454E5F525841444452004573
:100160004E5F41410052585F50575F50302D36006E
:1001700054585F414444520052585F414444525FD6
:1001800050322D350052585F414444525F50302D5B
:1001900031000D0A002530327800203078002553D8
:1001A000092563203D000D0A002030782530327883
:1001B000002553092563203D004F425345525645C3
:1001C0005F54583D253032783A20504F4C535F43AE
:1001D0004E543D2578204152435F434E543D25788F
:1001E0000D0A005354415455530909203D203078DD
:1001F000253032782052585F44523D25782054589B
:100200005F44533D2578204D41585F52543D257839
:100210002052585F505F4E4F3D25782054585F461E
:10022000554C4C3D25780D0A00314D42505300325B
:100230004D425053003235304B425053006E5246BF
:1002400032344C3031006E524632344C30312B0057
:1002500044697361626C656400382062697473007C
:10026000313620626974730050415F4D494E005031
:10027000415F4C4F57004C415F4D45440050415F3A
:100280004849474800008C019F0B980E11241FBE5F
:10029000CFEFD8E0DEBFCDBF13E0A0E0B1E0ECE3EC
:1002A000F4E402C005900D92A435B107D9F715E02A
:1002B000A4E5B3E001C01D92AF32B107E1F712E04F
:1002C000CCE8D2E004C02297FE010E940A1FC63883
:1002D000D107C9F70E94F50B0C941C220C94000066
:1002E0001895482F6AE00E94B31E282F30E084E062
:1002F000220F331F8A95E1F7842F0E94B31E892FA6
:10030000820F0895282F22952F709AE0299F90013F
:1003100011248F70820F08958F92AF92CF92EF9237
:100320000F9388E090E090936E0380936D0310929A
:10033000700310926F031092740310927303109263
:100340007203109271038EE793E06FE04BE026E0BA
:100350000E94B1178CE893E069E048E00E94AF1179
:100360008CE993E060E244E025E006E0EE24CC2452
:10037000C39452E0A52E33E0832E0E94B11B0F914F
:10038000EF90CF90AF908F9008950F931F93CF93DE
:10039000DF938C01C0E0D0E0F801EC0FFD1F88E294
:1003A00095E0A096BE0140810E94E11B6F97C93184
:1003B000D10591F7DF91CF911F910F9108950F9380
:1003C0001F93CF93DF938C0188E295E060E270E0A9
:1003D0000E94E61B8C3619F588E295E061E270E038
:1003E0000E94E61B8337D9F488E295E062E270E070
:1003F0000E94E61B813399F4C0E0D0E0BE01605E4C
:100400007F4F88E295E00E94E61BF801EC0FFD1F8C
:1004100080832196C931D10589F781E001C080E050
:10042000DF91CF911F910F9108950F931F9306E4D1
:1004300014E0C80140E056E960E070E00E946E0AF6
:10044000C80160E071E00E94410EC8010E944F0B9C
:1004500062E070E080E090E00E94AB081F910F9195
:100460000895BF92CF92DF92EF92FF920F931F9366
:10047000CF93DF93B82E6B01C0E0D0E07A01002764
:10048000F7FC0095102F11C08B2D61E00E948209AE
:10049000C801B7010E94AB088B2D60E00E94820961
:1004A000C801B7010E94AB082196CC15DD0564F3A5
:1004B000DF91CF911F910F91FF90EF90DF90CF9040
:1004C000BF9008951F9311E029C086E494E00E9434
:1004D000260B482F80916F0390917003883091050F
:1004E000DCF401969093700380936F0360916D0329
:1004F00070916E0380917103909172030E94BF1EF0
:100500009C01FC01E359FC4F40872F5F3F4F309324
:1005100072032093710302C01093B40386E494E045
:100520000E94F50A892B89F61F910895AF92BF9218
:10053000CF92DF92EF92FF920F931F938EE793E09B
:100540000E9499187B018C018EE793E060E00E9485
:10055000F0185B016C0180915A03882331F08CE91B
:1005600093E060E040E00E94D219C601B501A60107
:1005700095010E94901E882341F4C801B701A8018B
:1005800097010E94901E8823A1F186E494E06EE01A
:1005900071E00E94410E80915A03882309F456C0ED
:1005A0008CE993E066E271E00E94410E4FC08CE955
:1005B00093E0B801A70122E030E00E943E0E8CE9F2
:1005C00093E060E371E00E94570D8CE993E0B6017F
:1005D000A50122E030E00E943E0E8CE993E06FED31
:1005E0000E942F0C8CE993E065E371E00E94570DA7
:1005F0002DC086E494E068E371E00E94570D86E424
:1006000094E0B801A70122E030E00E943E0E86E4AB
:1006100094E063E471E00E94410E86E494E068E4B3
:1006200071E00E94570D86E494E0B601A50122E036
:1006300030E00E943E0E86E494E066E571E00E94A0
:10064000410E80915A03882309F0B1CF1F910F9179
:10065000FF90EF90DF90CF90BF90AF9008952F92D2
:100660003F924F925F926F927F928F929F92AF9242
:10067000BF92CF92DF92EF92FF920F931F935C0194
:100680004B013A01290118010EEA14E0C80168E69D
:1006900070E00E945E0EC80160E00E94E00EC8019A
:1006A0000E94230FC80168E670E047E050E00E9416
:1006B000340FC8010E94710E8F770E948201F501EC
:1006C0008083C8010E94710E0E948201F401808320
:1006D000C8010E94710E8F730E948201F301808312
:1006E000C8010E94710E0E948201F2018083C8013C
:1006F0000E94710E0E948201F1018083C8010E9454
:10070000710E0E948201F7018083C8010E94710E60
:100710000E948201F60180831F910F91FF90EF905C
:10072000DF90CF90BF90AF909F908F907F906F9011
:100730005F904F903F902F900895CF92DF92EF926D
:10074000FF920F931F93DF93CF93CDB7DEB7279719
:100750000FB6F894DEBF0FBECDBFCE010196BE012D
:100760006E5F7F4FAE014D5F5F4F9E012C5F3F4F2D
:100770008E010B5F1F4FF6E0EF2EF12CEC0EFD1EED
:10078000E7E0CE2ED12CCC0EDD1E0E942F038091EF
:100790005A03882309F44EC08CE993E060E041E0FD
:1007A0000E94D2198CE993E06F814AE050E00E94E8
:1007B000E60C8CE993E06AE571E00E94570D8CE944
:1007C00093E06E814AE050E00E94E60C8CE993E0F1
:1007D0006AE571E00E94570D8CE993E06D814AE073
:1007E00050E00E94E60C8CE993E06CE571E00E9419
:1007F000570D8CE993E06B814AE050E00E94E60CD3
:100800008CE993E06EE571E00E94570D8CE993E06E
:100810006A814AE050E00E94E60C8CE993E06EE5C4
:1008200071E00E94570D8CE993E069814AE050E045
:100830000E94E60C27960FB6F894DEBF0FBECDBF20
:10084000CF91DF911F910F91FF90EF90DF90CF90AC
:1008500008959F92AF92BF92CF92DF92EF92FF9254
:100860000F931F93182FF62ED42E922EAEEAAA2E97
:10087000A4E0BA2EC50168E670E00E945E0EC501D4
:1008800060E00E94E00E812F0E947101682FC50177
:100890000E94E00E8F2D0E947101682FC5010E94F9
:1008A000E00E8D2D0E947101682FC5010E94E00E9F
:1008B000892D0E947101682FC5010E94E00E802FD2
:1008C0000E947101682FC5010E94E00E8E2D0E94CA
:1008D0007101682FC5010E94E00E8C2D0E947101EC
:1008E000682FC5010E94E00EC5010E94230F1F91D1
:1008F0000F91FF90EF90DF90CF90BF90AF909F90BF
:100900000895CF92DF92EF92FF920F931F93DF93A0
:10091000CF93CDB7DEB727970FB6F894DEBF0FBEE3
:10092000CDBF86E494E060E671E00E94410E8EEA5D
:1009300094E00E943C0FCE010196BE016E5F7F4F96
:10094000AE014D5F5F4F9E012C5F3F4F8E010B5FED
:100950001F4FF6E0EF2EF12CEC0EFD1EE7E0CE2E41
:10096000D12CCC0EDD1E0E942F038981882349F5EE
:100970008A81882331F58B81882319F58E8188231C
:1009800001F58F818823E9F486E494E06EE671E056
:100990000E94410E19828FE18A8395E09B8384E057
:1009A0008C8382E18D839E838CE08F8380E06FE176
:1009B00045E024E002E115E0E12EBCE0CB2E0E94F0
:1009C000290427960FB6F894DEBF0FBECDBFCF9196
:1009D000DF911F910F91FF90EF90DF90CF900895DE
:1009E0000F931F930CE913E0C8010E94B419C801CA
:1009F0000E941A1A1F910F9108950F931F930CE9EB
:100A000013E0C80160E142E020E00E949A1BC801A7
:100A100067E041E00E948C1BC8010E94C719C80111
:100A20000E949019C8010E949A19C8010E94A21937
:100A30001F910F910895AF92BF92CF92DF92EF92E4
:100A4000FF920F931F93DF93CF93CDB7DEB7289715
:100A50000FB6F894DEBF0FBECDBF80917D0382300C
:100A600009F05AC08CE893E00E94B613882309F479
:100A700053C07E010894E11CF11CB2E8AB2EB1E03A
:100A8000BB2EA5E9CA2EA1E0DA2E8CE893E0B701CF
:100A900044E00E94A114182F00D000D000D0ADB7C0
:100AA000BEB71296BC92AE92119789819A81AB81A2
:100AB000BC81EDB7FEB783839483A583B6830E9480
:100AC000171F2DB73EB72A5F3F4F0FB6F8943EBFB2
:100AD0000FBE2DBF64E170E080E090E00E94AB08A3
:100AE0008CE893E00E9489128CE893E0B70144E01F
:100AF0000E94001600D0ADB7BEB71296DC92CE921F
:100B000011970E94171F0F900F908CE893E00E949E
:100B1000EC14112309F4B9CF80917D03813009F0E1
:100B2000ADC08CE893E00E9489120E947708698327
:100B30007A838B839C8300D000D000D026EA31E0FA
:100B4000EDB7FEB732832183ADB7BEB713966D9371
:100B50007D938D939C9316970E94171FEDB7FEB758
:100B600036960FB6F894FEBF0FBEEDBF8CE893E04B
:100B7000BE016F5F7F4F44E00E940016882351F052
:100B800000D089EB91E0ADB7BEB712969C938E93DF
:100B9000119707C000D08FEB91E0EDB7FEB79283BD
:100BA00081830E94171F0F900F908CE893E00E94A2
:100BB000EC140E9477086B017C0110E08CE893E054
:100BC0000E94B613882379F4112379F40E947708E0
:100BD0006C197D098E099F09693C71058105910594
:100BE00068F311E0EBCF112371F000D089EC91E0B4
:100BF000ADB7BEB712969C938E9311970E94171FA4
:100C00000F900F9035C08CE893E0BE016B5F7F4F73
:100C100044E00E94A1140E947708ED80FE800F81BD
:100C20001885EDB7FEB73A970FB6F894FEBF0FBE22
:100C3000EDBF319627EE31E0ADB7BEB712963C93CB
:100C40002E931197E282F382048315836E197F0934
:100C5000800B910B66837783808791870E94171F93
:100C6000EDB7FEB73A960FB6F894FEBF0FBEEDBFD4
:100C700068EE73E080E090E00E94AB0828960FB623
:100C8000F894DEBF0FBECDBFCF91DF911F910F91C2
:100C9000FF90EF90DF90CF90BF90AF9008950F93AB
:100CA0001F930CE813E0C8010E948815C8016FE08B
:100CB0004FE00E944813C8010E94DD141F910F915C
:100CC00008950F931F93DF93CF93CDB7DEB72E9781
:100CD0000FB6F894DEBF0FBECDBF80915C038823B2
:100CE00011F00E94810480915903882311F00E9421
:100CF0004F060E94FD0480915A03882341F00E9410
:100D0000F0048CE993E061E172E00E94570D80915C
:100D10005B038823A9F08E010F5F1F4FC8016FE0AE
:100D20004BE026E00E94B117AEE7B3E0F8018EE099
:100D300001900D928150E1F78EE793E00E94CD176C
:100D400087E090E064E070E044E650E00E94310209
:100D50002E960FB6F894DEBF0FBECDBFCF91DF91B8
:100D60001F910F9108951F938091B403882351F030
:100D700085E090E061E070E04BE450E00E943102D9
:100D80001092B40380916F039091700318161906A6
:100D90000CF419C12EC186E090E064E170E041E0FE
:100DA00050E00E94310280916F039091700301978F
:100DB0009093700380936F0360916D0370916E0345
:100DC00080917303909174030E94BF1E9C01FC01EB
:100DD000E359FC4F10852F5F3F4F309374032093EE
:100DE00073031F3309F45EC0103448F4133269F002
:100DF000143209F47AC0113209F0BEC0D8C01034E0
:100E0000A1F0123709F0B8C09CC08AEF92E00E94AE
:100E1000C501A4E5B3E0EAEFF2E089E101900D92AB
:100E20008150E1F70E946106CEC086E494E06EE155
:100E300072E00E94570D60915A0386E494E070E0DE
:100E400042E050E00E94380D86E494E067E272E0F0
:100E50000E94570D6091590386E494E070E042E0EF
:100E600050E00E94380D86E494E06EE272E00E9449
:100E7000570D60915B0386E494E070E042E050E03F
:100E80000E94380D86E494E063E372E00E94570DFF
:100E900060915C0386E494E070E042E050E00E94E0
:100EA000380D91C086E494E068E372E00E94410E40
:100EB00086E494E062E472E00E94410E86E494E0ED
:100EC00060E672E00E94410E86E494E068E772E01A
:100ED0000E94410E86E494E06FE872E00E94410EA9
:100EE00086E494E067EA72E044C080915C03882362
:100EF00051F086E090E062E070E049E150E00E944D
:100F000031020E949D0380915903882351F086E0AD
:100F100090E062E070E049E150E00E9431020E94FE
:100F20001B0580915B03882309F44DC086E090E0A7
:100F300062E070E049E150E00E9431020E949602B6
:100F400042C080915903882321F08CE893E00E94ED
:100F5000FA161092700310926F031092740310929D
:100F60007303109272031092710386E494E06DEBA8
:100F700072E00E94410E27C086E494E063EC72E0C8
:100F80000E94570D86E494E0612F40E150E00E94FA
:100F9000E60C86E494E066EC72E00E94410E86E086
:100FA00090E065E070E049E150E00E94310210926B
:100FB000700310926F0310927403109273031092D7
:100FC00072031092710380916F0390917003181651
:100FD00019060CF4E0CE86E494E068EC72E00E941E
:100FE000410E87E090E062E070E04BE450E00E9448
:100FF00031021F91089587E061E00E94160986E0A2
:1010000061E00E94160985E061E00E94160985E012
:1010100061E00E94820986E061E00E9482090E94EC
:10102000150284E593E00E94DF01882369F48AEFCA
:1010300092E00E94C501A4E5B3E0EAEFF2E089E1A5
:1010400001900D928150E1F785E060E00E948209F5
:101050000E94610686E060E00E94820908951F9266
:101060000F920FB60F9211242F933F938F939F935C
:10107000AF93BF938091B9039091BA03A091BB0342
:10108000B091BC033091BD030196A11DB11D232F6A
:101090002D5F2D3720F02D570196A11DB11D2093F6
:1010A000BD038093B9039093BA03A093BB03B0939D
:1010B000BC038091B5039091B603A091B703B091A2
:1010C000B8030196A11DB11D8093B5039093B6039B
:1010D000A093B703B093B803BF91AF919F918F9145
:1010E0003F912F910F900FBE0F901F9018958FB7C3
:1010F000F8942091B9033091BA034091BB03509109
:10110000BC038FBFB901CA0108959FB7F89420911D
:10111000B5033091B6034091B7035091B80386B53B
:10112000A89B06C08F3F21F02F5F3F4F4F4F5F4F6F
:101130009FBF542F432F322F2227280F311D411DCF
:10114000511D82E0220F331F441F551F8A95D1F78E
:10115000B901CA010895EF92FF920F931F93CF93A5
:10116000DF937B018C010E948508EB010EC00E9479
:1011700085086C1B7D0B685E7340C8F30894E1081A
:10118000F10801091109C851DC4FE114F10401050E
:10119000110569F7DF91CF911F910F91FF90EF90AB
:1011A0000895019739F0880F991F880F991F0297AA
:1011B0000197F1F70895789484B5826084BD84B571
:1011C000816084BD85B5826085BD85B5816085BD42
:1011D000EEE6F0E0808181608083E1E8F0E010825B
:1011E000808182608083808181608083E0E8F0E09C
:1011F000808181608083E1EBF0E080818460808386
:10120000E0EBF0E0808181608083EAE7F0E08081BC
:10121000846080838081826080838081816080831C
:101220008081806880831092C1000895CF93DF93FE
:10123000482F50E0CA0186569F4FFC0134914A570F
:101240005F4FFA018491882369F190E0880F991F1C
:10125000FC01E859FF4FA591B491FC01EE58FF4FF6
:10126000C591D491662351F42FB7F8948C91932FA4
:10127000909589238C93888189230BC0623061F417
:101280002FB7F8948C91932F909589238C93888114
:10129000832B88832FBF06C09FB7F8948C91832B34
:1012A0008C939FBFDF91CF910895833071F084308C
:1012B00028F48130A1F0823021F514C08630B1F0DD
:1012C0008730D1F08430E9F404C0809180008F77BA
:1012D00003C0809180008F7D80938000089584B545
:1012E0008F7702C084B58F7D84BD08958091B00052
:1012F0008F778093B00008958091B0008F7D8093A8
:10130000B0000895FF920F931F93F62E482F50E0E0
:10131000CA0182559F4FFC012491CA0186569F4FF6
:10132000FC0114914A575F4FFA0104910023C9F060
:10133000222319F0822F0E945509E02FF0E0EE0FD2
:10134000FF1FEE58FF4FA591B4919FB7F894FF206F
:1013500021F48C911095812302C08C91812B8C9368
:101360009FBF1F910F91FF9008950F931F93482FD8
:1013700050E0CA0182559F4FFC012491CA01865654
:101380009F4FFC0104914A575F4FFA0114911123BA
:1013900019F420E030E015C0222319F0822F0E94BA
:1013A0005509812F90E0880F991F84589F4FFC01A9
:1013B000A591B4918C9120E030E0802311F021E0E0
:1013C00030E0C9011F910F9108951F920F920FB63F
:1013D0000F9211242F933F934F938F939F93EF93EB
:1013E000FF938091C00082FD1DC04091C6002091F6
:1013F000FE033091FF032F5F3F4F2F7330708091BA
:101400000004909101042817390771F0E091FE0360
:10141000F091FF03E254FC4F40833093FF0320938D
:10142000FE0302C08091C600FF91EF919F918F91C2
:101430004F913F912F910F900FBE0F901F901895D5
:10144000E0915204F0915304E05CFF4F819191913F
:1014500020813181821B930B8F739070892B11F047
:101460000E94620208951F920F920FB60F921124EC
:101470002F933F938F939F93EF93FF932091420479
:101480003091430480914404909145042817390712
:1014900031F48091C1008F7D8093C10014C0E09130
:1014A0004404F0914504EE5FFB4F20818091440499
:1014B0009091450401968F739070909345048093AA
:1014C00044042093C600FF91EF919F918F913F912B
:1014D0002F910F900FBE0F901F901895AF92BF9253
:1014E000DF92EF92FF920F931F93CF93DF93EC0164
:1014F0007A018B01DD24403081EE580780E06807D7
:1015000080E0780711F0DD24D39491E0A92EB12C6E
:10151000EC89FD89DD2069F0C50108A002C0880FB3
:10152000991F0A94E2F7808360E079E08DE390E010
:1015300005C0108260E874E88EE190E0A801970190
:101540000E94D21E21503040404050405695479551
:101550003795279580E12030380720F0DD2011F005
:10156000DD24D6CFE889F9893083EA89FB89208395
:1015700019A2EE89FF89408121E030E0C9010C8C7D
:1015800002C0880F991F0A94E2F7482B4083EE8926
:10159000FF894081C9010D8C02C0880F991F0A94F0
:1015A000E2F7482B4083EE89FF894081C9010E8C08
:1015B00002C0880F991F0A94E2F7482B4083EE89F6
:1015C000FF8980810F8C02C0220F331F0A94E2F73B
:1015D000209528232083DF91CF911F910F91FF90B9
:1015E000EF90DF90BF90AF900895DC011C96ED91D5
:1015F000FC911D97E05CFF4F219131918081918199
:10160000281B390B2F733070C9010895DC011C961B
:10161000ED91FC911D97E05CFF4F20813181E054FA
:10162000F040DF01AE5BBF4F8D919C911197281761
:10163000390719F42FEF3FEF07C08D919C91E80F08
:10164000F91F8081282F30E0C9010895DC011C9624
:10165000ED91FC911D97E05CFF4F20813181E054BA
:10166000F040DF01AE5BBF4F8D919C911197281721
:10167000390719F42FEF3FEF10C08D919C9111970E
:10168000E80FF91F20818D919C91119701968F731E
:10169000907011969C938E9330E0C9010895DC01FF
:1016A00091968C919197882339F05496ED91FC9105
:1016B0005597808186FFF9CF91961C920895CF931C
:1016C000DF93EC01EE85FF85E05CFF4F20813181E7
:1016D000E054F0402F5F3F4F2F733070DF01AE5B5F
:1016E000BF4F8D919C91119728173907D1F3E05C7A
:1016F000FF4F80819181E054F040E80FF91F608333
:10170000EE85FF85E05CFF4F31832083EE89FF8902
:10171000208181E090E00F8C02C0880F991F0A940D
:10172000E2F7282B208381E089A3EC89FD89808161
:101730008064808381E090E0DF91CF9108951092E2
:1017400049041092480488EE93E0A0E0B0E0809352
:101750004A0490934B04A0934C04B0934D0487E14A
:1017600093E090934704809346048EEB93E090932C
:1017700053048093520482E094E090935504809344
:10178000540485EC90E0909357048093560484ECC5
:1017900090E0909359048093580480EC90E09093EB
:1017A0005B0480935A0481EC90E090935D048093F5
:1017B0005C0482EC90E090935F0480935E0486EC7E
:1017C00090E0909361048093600484E080936204CD
:1017D00083E08093630487E08093640485E08093D2
:1017E000650481E0809366040895CF93DF930E949F
:1017F000DB080E94FB07C0E2DAE00E94B3062097F4
:10180000E1F30E94200AF9CF0895CF92DF92EF9280
:10181000FF920F931F93CF93DF937C016B018A019B
:10182000C0E0D0E00FC0D6016D916D01D701ED9100
:10183000FC910190F081E02DC7010995C80FD91FD7
:10184000015010400115110571F7CE01DF91CF91C4
:101850001F910F91FF90EF90DF90CF900895DC01E2
:10186000ED91FC910190F081E02D09950895EF92A2
:10187000FF920F931F938C01DC01ED91FC9101907D
:10188000F081E02D6DE009957C01D801ED91FC918E
:101890000190F081E02DC8016AE009959C012E0DB0
:1018A0003F1DC9011F910F91FF90EF900895CF93B5
:1018B000DF93EC016115710519F420E030E00FC0F1
:1018C000DB010D900020E9F71197A61BB70BE8810B
:1018D000F9810280F381E02DAD0109959C01C901D8
:1018E000DF91CF9108954F925F927F928F929F9256
:1018F000AF92BF92CF92DF92EF92FF920F931F931E
:10190000DF93CF93CDB7DEB7A1970FB6F894DEBFC4
:101910000FBECDBF2C01742ECB01223008F42AE07B
:1019200019A231E2C32ED12CCC0EDD1E822E9924B9
:10193000AA24BB24672D752FA50194010E94D21EF5
:1019400079018A01C801B701A50194010E94941E82
:10195000472D461B0894C108D1084A3010F4405D59
:1019600001C0495CF6014083E114F1040105110551
:1019700021F07E2C5F2DC801DDCFC201B6010E948F
:10198000570CA1960FB6F894DEBF0FBECDBFCF9116
:10199000DF911F910F91FF90EF90DF90CF90BF905C
:1019A000AF909F908F907F905F904F900895DC0153
:1019B0002115310541F4ED91FC910190F081E02D6C
:1019C000642F099508950E94730C0895EF92FF9279
:1019D0000F931F939A01E62EFF2400E010E0B80158
:1019E000A7010E94D70C1F910F91FF90EF900895CF
:1019F000CF92DF92EF92FF920F931F93CF93DF93DB
:101A0000EC016A017B012115310541F4E881F9817E
:101A10000190F081E02D642F09951FC02A30310517
:101A2000D1F477FF17C0E881F9810190F081E02DB2
:101A30006DE209958C0144275527BA014C195D09BF
:101A40006E097F09CE012AE00E94730C9801280FCD
:101A5000391F04C02AE00E94730C9C01C901DF9168
:101A6000CF911F910F91FF90EF90DF90CF9008954D
:101A7000CF92DF92EF92FF920F931F936C017B0145
:101A80009A010027F7FC0095102FB801A7010E94CA
:101A9000F80C8C01C6010E94370C080F191FC801F1
:101AA0001F910F91FF90EF90DF90CF9008950E94CB
:101AB000570C08957F928F929F92AF92BF92CF92D0
:101AC000DF92EF92FF920F931F93CF93DF934C011E
:101AD0007A018B01722ECB01BA01A80197010E94F5
:101AE000901E882321F0C40162EE72E021C0C0E0A4
:101AF000D0E057016801E894D7F8C601B5012FEF8F
:101B00003FEF4FE75FE70E94901E882351F4C60124
:101B1000B5012FEF3FEF4FE75FE70E94DA1C181681
:101B200014F0C1E0D0E0219739F0C40166EE72E014
:101B30000E94570CEC0193C0C801B7012FEF3FEF93
:101B40004FE75FE40E94291E181654F0C801B70140
:101B50002FEF3FEF4FE75FEC0E94DA1C882324F45D
:101B6000C4016AEE72E0E4CFC801B70120E030E0C2
:101B700040E050E00E94DA1C87FD03C0C0E0D0E0E6
:101B80000EC0D401ED91FC910190F081E02DC401D3
:101B90006DE20995EC0117FB109517F9109520E0FF
:101BA00030E040E05FE3DD240BC0CA01B90120E072
:101BB00030E040E251E40E94DE1C9B01AC01D39472
:101BC000D71498F3C801B7010E94761C5B016C0121
:101BD0000E944B1D7B018C01C401B801A7012AE0C2
:101BE00030E00E94D70CC80FD91F772039F0C4010C
:101BF0006EEE72E00E94570CC80FD91FC801B701E2
:101C00000E94771D9B01AC01C601B5010E94751CA5
:101C100024C020E030E040E251E40E942D1E7B0110
:101C20008C010E94461D5B016C01CC24B7FCC09462
:101C3000DC2CC401B601A5012AE030E00E94F80CBA
:101C4000C80FD91FC601B5010E94791D9B01AC01C7
:101C5000C801B7010E94751C7A947720D1F6CE0195
:101C6000DF91CF911F910F91FF90EF90DF90CF9078
:101C7000BF90AF909F908F907F9008950E945A0DD3
:101C80000895EF92FF920F931F937C010E94570CCF
:101C90008C01C7010E94370C080F191FC8011F9142
:101CA0000F91FF90EF90089581E08093AD046093D1
:101CB0008A041092AB041092AC04089581E08093E2
:101CC000AD0460938A041092AB041092AC040895A2
:101CD0002091890430E080918804281B3109C901D2
:101CE00008954091880480918904481718F02FEFD7
:101CF0003FEF0AC0E42FF0E0E859FB4F8081282F26
:101D000030E04F5F40938804C9010895E091880452
:101D100080918904E81718F0EFEFFFEF06C0F0E0BC
:101D2000E859FB4F8081E82FF0E0CF010895089536
:101D30001092B1041092B00488EE93E0A0E0B0E0FD
:101D40008093B2049093B304A093B404B093B50409
:101D500087E293E09093AF048093AE040895CF920E
:101D6000DF92EF92FF920F931F93CF93DF937C014B
:101D70006B018A018091AD048823A1F0C0E0D0E01E
:101D80000DC0D701ED91FC91D601AC0FBD1F0190A4
:101D9000F081E02DC7016C9109952196C017D107FC
:101DA00080F304C0CB01642F0E94E50FC801DF91CE
:101DB000CF911F910F91FF90EF90DF90CF900895FA
:101DC000DF93CF930F92CDB7DEB7FC01698380918B
:101DD000AD048823C9F08091AC04803238F081E0F2
:101DE00090E09383828320E030E015C08091AB04C3
:101DF000E82FF0E0E557FB4F998190838F5F809348
:101E0000AB048093AC0405C0CE01019661E00E9452
:101E1000E50F21E030E0C9010F90CF91DF910895E7
:101E20000F93062F80918A046BE874E04091AC0414
:101E300021E00E94900F1092AB041092AC0410921B
:101E4000AD040F91089561E00E94100F0895413292
:101E500008F040E2862F68E674E00E94470F109277
:101E6000880480938904089521E00E94270F089533
:101E700021E00E94270F089510928804109289048F
:101E80001092AB041092AC040E9491110895382F67
:101E9000413210F040E042C08091BA048823E1F75B
:101EA00091E09093BA042093BC048FEF80932705B0
:101EB0001092E20441504093E3044F5F9093BB04BF
:101EC0008091BB04330F832B8093BB048091BD04AE
:101ED000813041F41092BD048091BB048093BB001B
:101EE00085EC01C085EE8093BC008091BA048130FE
:101EF000E1F38091E204841710F44091E20420E0C1
:101F000030E00AC0FB01E20FF31FD901AE53BB4F13
:101F10008C9180832F5F3F4F2417A0F3842F089567
:101F20000F931F93582F122F413210F081E04AC0B7
:101F30008091BA048823E1F782E08093BA04009389
:101F4000BC048FEF809327051092E2044093E304D2
:101F5000A2ECB4E0FB0102C081918D938E2F861B11
:101F60008417D0F31092BB048091BB04550F852BCE
:101F70008093BB048091BD04813041F41092BD0474
:101F80008091BB048093BB0085EC01C085EE8093FB
:101F9000BC00112321F08091BA048230E1F38091DA
:101FA00027058F3F11F480E00DC080912705803216
:101FB00011F482E007C080912705803311F084E09E
:101FC00001C083E01F910F910895482F613210F0F6
:101FD00081E008958091BA04843011F082E0089580
:101FE00060930505A4EEB4E0842F9C01F90102C0C2
:101FF00081918D938E2F841B8617D0F380E00895F6
:102000001F920F920FB60F9211242F933F934F936D
:102010005F936F937F938F939F93AF93BF93EF9350
:10202000FF938091B90090E0887F90708036910591
:1020300009F4F2C081369105CCF58832910509F496
:102040007BC089329105B4F48031910509F46FC0E9
:10205000813191053CF4009709F447C1089709F0D4
:102060004FC165C08831910509F466C0809709F0B9
:1020700047C182C08034910509F4A4C08134910520
:1020800044F48033910509F482C0C89709F038C13F
:1020900089C08035910509F489C08835910509F416
:1020A00096C08834910509F02BC1AEC088399105DE
:1020B00009F413C189399105ECF48837910509F4C5
:1020C000ABC0893791054CF48836910509F4A4C05A
:1020D0008037910509F014C19FC08838910509F433
:1020E000FCC08039910509F49DC08038910509F044
:1020F00007C198C0803B910509F4C6C0813B91059A
:102100004CF4803A910509F49FC0883A910509F092
:10211000F7C0BAC0803C910509F4E3C0883C910542
:1021200009F4DFC0883B910509F0EAC0C2C0809184
:10213000BB048093BB00CFC09091E2048091E30484
:10214000981768F49091E204E92FF0E0EE53FB4F0A
:1021500080818093BB009F5F9093E204BCC080911C
:10216000BC04882309F44BC085ED8093BC008091AA
:10217000BC0084FDFCCFC2C080E28093270585EDC2
:102180008093BC008091BC0084FDFCCFB7C080E38D
:102190008093270585ED8093BC008091BC0084FD71
:1021A000FCCFACC088E3809327059BC08091E204FC
:1021B0009091BB00E82FF0E0EE53FB4F90838F5FD0
:1021C0008093E2049091E2048091E30482C08091C4
:1021D000E2049091BB00E82FF0E0EE53FB4F9083B8
:1021E0008F5F8093E2048091BC04882341F085EDE9
:1021F0008093BC008091BC0084FDFCCF7FC081E057
:102200008093BD0484EA6EC085ED8093BC0080910C
:10221000BC0084FDFCCF72C083E08093BA041092AE
:10222000260559C080912605803208F056C080915D
:1022300026059091BB00E82FF0E0EA5FFA4F90830B
:102240008F5F8093260547C080912605803230F449
:10225000E0912605F0E0EA5FFA4F108285ED809369
:10226000BC008091BC0084FDFCCF1092BA04609148
:102270002605E091C004F091C10486E095E070E08D
:102280000995109226052DC084E08093BA0410921F
:10229000040510920505E091BE04F091BF04099574
:1022A00080910505882329F481E08093050510922B
:1022B000E40490910405E92FF0E0EC51FB4F80819C
:1022C0008093BB009F5F90930405909104058091DB
:1022D0000505981710F485EC01C085E88093BC00D3
:1022E0000FC085EC8093BC0009C01092270585EDD6
:1022F0008093BC008091BC0084FDFCCF1092BA0496
:10230000FF91EF91BF91AF919F918F917F916F91CD
:102310005F914F913F912F910F900FBE0F901F90A3
:1023200018951092BA0481E08093BC041092BD0409
:1023300082E161E00E94820983E161E00E948209FA
:10234000E9EBF0E080818E7F808380818D7F8083C8
:1023500088E48093B80085E48093BC000895FC0174
:102360006083418381E08283138280E284831582CB
:102370001682108611861286138614861586168696
:102380001786089570E08DB79EB70E970FB6F89434
:102390009EBF0FBE8DBFEDB7FEB7319683EE91E0C5
:1023A000ADB7BEB712969C938E93119773836283D9
:1023B000CB0156E0969587955A95E1F7817090701C
:1023C00095838483CB0145E0969587954A95E1F7FF
:1023D0008170907097838683CB0134E096958795C2
:1023E0003A95E1F78170907091878087CB01959540
:1023F00087958770907093878287617070707587FA
:1024000064870E942C1F8DB79EB70E960FB6F89466
:102410009EBF0FBE8DBF0895FF920F931F938C0137
:10242000F62E81E00E94EA1B80E00E94F31B80E010
:102430000E94F81BF80181816F2D0E9482091F9173
:102440000F91FF9008951F93CF93DF93EC0160E00D
:1024500070E00E940C1280E68EBD0DB407FEFDCF29
:102460008EB58FEF8EBD0DB407FEFDCF1EB5CE012C
:1024700061E070E00E940C12812FDF91CF911F91DB
:1024800008951F93CF93DF93EC0160E070E00E940A
:102490000C128FEF8EBD0DB407FEFDCF1EB5CE0121
:1024A00061E070E00E940C12812FDF91CF911F91AB
:1024B00008951F93CF93DF93EC0160E070E00E94DA
:1024C0000C1281EE8EBD0DB407FEFDCF1EB5CE0100
:1024D00061E070E00E940C12812FDF91CF911F917B
:1024E00008951F93CF93DF93EC0160E070E00E94AA
:1024F0000C1282EE8EBD0DB407FEFDCF1EB5CE01CF
:1025000061E070E00E940C12812FDF91CF911F914A
:1025100008950F931F938C01FC01808160E00E945D
:102520008209C8010E945912C8010E9471121F91AC
:102530000F910895EF92FF920F931F93CF93DF9324
:10254000EC01F62EE72E9C81142F941708F4192F16
:102550008E81882311F000E002C0092F011BCE01FB
:1025600060E070E00E940C1281E68EBD0DB407FEA3
:10257000FDCF8F2D9E2D9C01F901FEB49FEF07C06A
:102580009EBD0DB407FEFDCF8EB581931150112372
:10259000B9F707C08EBD0DB407FEFDCF9EB5015043
:1025A00001C08FEF0023B1F7CE0161E070E00E941F
:1025B0000C128F2DDF91CF911F910F91FF90EF9013
:1025C0000895EF92FF920F931F93CF93DF93EC0147
:1025D000F62EE72E9C81142F941708F4192F8E8164
:1025E000882311F000E002C0092F011BCE0160E03A
:1025F00070E00E940C1280EA8EBD0DB407FEFDCF84
:102600008F2D9E2D9C01F901FEB408C080818EBDE6
:102610000DB407FEFDCF31968EB511501123B1F7E1
:1026200006C01EBC0DB407FEFDCF8EB501500023C1
:10263000C1F7CE0161E070E00E940C128F2DDF9196
:10264000CF911F910F91FF90EF9008950F931F93DB
:10265000CF93DF93EC01162F042F60E070E00E940F
:102660000C121F7110621EBD0DB407FEFDCF1EB50A
:102670000EBD0DB407FEFDCF8EB5CE0161E070E05A
:102680000E940C12812FDF91CF911F910F9108951D
:10269000262F4F702295207F242B64E0422F0E942A
:1026A00026130895CF92DF92EF92FF920F931F931C
:1026B0008B017A01690167E040E70E94261390E0F0
:1026C0009C01E5E036952795EA95E1F72170F80140
:1026D000208374E0969587957A95E1F7282F2170ED
:1026E000F701208396958795969587958170F601D9
:1026F00080831F910F91FF90EF90DF90CF9008950E
:10270000DF92EF92FF920F931F93CF93DF938C0191
:102710007B010E944112C82FD0E0CE01A6E0969521
:102720008795AA95E1F7DD24D394D82280FF15C0C0
:10273000E114F10431F0CE01959587958770F7018A
:102740008083C80167E040E40E942613C5FF05C0EE
:10275000C80167E040E20E9426138D2DDF91CF91E2
:102760001F910F91FF90EF90DF90089560E070E06F
:102770000E9480130895462F603808F04FE765E007
:102780000E9426130895EF92FF920F931F93CF9309
:10279000DF937C01162FEA01022F60E070E00E94B7
:1027A0000C121F7110621EBD0DB407FEFDCF1EB5C9
:1027B00008C088818EBD0DB407FEFDCF21968EB571
:1027C00001500023B1F7C70161E070E00E940C12D4
:1027D000812FDF91CF911F910F91FF90EF9008957E
:1027E0001F93CF93DF93EC01162F60E070E00E94FF
:1027F0000C121F711EBD0DB407FEFDCF8EB58FEFFD
:102800008EBD0DB407FEFDCF1EB5CE0161E070E0B8
:102810000E940C12812FDF91CF911F91089560E0EB
:102820000E94F0138C7083FD02C080E0089582FD49
:1028300002C081E0089582E008951F93CF93DF9353
:10284000EC01162F60E00E94F013482F437F112304
:1028500029F0113011F4486001C04C60CE0160E0F5
:102860000E942613DF91CF911F91089566E00E9488
:10287000F013982F9872903211F482E0089580E05E
:10288000983009F481E008950F931F93CF93DF935D
:10289000EC01162F66E00E94F0131A82082F077DC4
:1028A000123011F4006206C0113019F41A83086066
:1028B00001C01A82CE0166E0402F0E942613CE018D
:1028C00066E00E94F013801711F481E002C01A82C2
:1028D00080E0DF91CF911F910F91089566E00E94F3
:1028E000F0138670863011F493E008C0843011F440
:1028F00092E004C090E0823009F491E0892F0895BD
:102900001F93CF93DF93EC01162F66E00E94F01324
:10291000482F497F133061F0123011F4446009C030
:10292000113011F4426005C0112319F0143009F47C
:102930004660CE0166E00E942613DF91CF911F9181
:1029400008950F931F938C010E949A12C80167E1AA
:102950000E94F01381701F910F910895DF92EF9202
:10296000FF920F931F938C017B01D42E60E00E9495
:10297000F013482F4C7F4260C80160E00E9426138C
:1029800086E990E00E94D108C801B7014D2D0E9450
:10299000E112F801808161E00E9482098FE090E0FD
:1029A0000E94D108F801808160E00E9482091F9195
:1029B0000F91FF90EF90DF9008950F931F938C017C
:1029C00060E00E94F013482F4D7FC80160E00E9434
:1029D00026131F910F910895CF93DF93EC0160E0D0
:1029E0000E94F013482F4360CE0160E00E9426133E
:1029F000CE0167E040E70E94261388859985892BE0
:102A00009A85892B9B85892B9C85892B9D85892B74
:102A10009E85892B9F85892B41F0AE01485F5F4FD2
:102A2000CE016AE025E00E94C313CE010E9471121C
:102A3000CE010E945912888161E00E94820982E8D9
:102A400090E00E94D108DF91CF910895CF92DF925C
:102A5000FF920F931F93CF93DF936C01EB01042F31
:102A6000F22ECB010E940E1F089710F020E001C04B
:102A700029E000D000D000D0EDB7FEB7319681EB51
:102A800091E0ADB7BEB712969C938E931197D38306
:102A9000C283248315820E942C1FEDB7FEB73696A1
:102AA0000FB6F894FEBF0FBEEDBFC9EAD1E01BC060
:102AB000102F1F5FC601602F0E94F01300D000D0BE
:102AC000EDB7FEB73196ADB7BEB71296DC93CE9395
:102AD0001197828313820E942C1FFA94012F0F906A
:102AE0000F900F900F90FF2019F700D086EA91E029
:102AF000EDB7FEB7928381830E942C1F0F900F9039
:102B0000DF91CF911F910F91FF90DF90CF900895AB
:102B1000CF93DF93EC01888161E00E9416098981DF
:102B200061E00E9416090E94091C888160E00E94F1
:102B30008209CE0161E070E00E940C1265E070E055
:102B400080E090E00E94AB08CE0164E04FE40E9478
:102B50002613CE0163E00E948014CE0162E00E9441
:102B60004414882311F081E08B83CE0160E00E9441
:102B70004414CE0162E00E941D14CE016CE140E0DD
:102B80000E942613CE0167E040E70E942613CE0183
:102B90006CE40E94BB13CE010E947112CE010E9410
:102BA0005912DF91CF910895EF92FF920F931F93E7
:102BB000CF93DF937C01162FEA01022F60E070E0D3
:102BC0000E940C121F711EBD0DB407FEFDCF1EB575
:102BD0009FEF07C09EBD0DB407FEFDCF8EB5899354
:102BE00001500023B9F7C70161E070E00E940C12A8
:102BF000812FDF91CF911F910F91FF90EF9008955A
:102C0000AF92BF92CF92DF92EF92FF920F931F93FA
:102C1000DF93CF9300D00F92CDB7DEB78C010E9427
:102C2000AE140E9477086B017C015E010894A11C20
:102C3000B11CC80168E0A50121E00E94D415807391
:102C400031F50E9477086C197D098E099F09645F30
:102C5000714080409040D8F4ECCFC8010E9423120C
:102C6000F8018783C8010E94DD14C8010E9459122F
:102C70008F2D0F900F900F90CF91DF911F910F919B
:102C8000FF90EF90DF90CF90BF90AF9008959801A4
:102C90002B5F3F4FC801BE016E5F7F4FAE014D5F9E
:102CA0005F4F0E945213FA80F80185818823D1F288
:102CB000D4CF4F925F926F927F928F929F92AF92FA
:102CC000BF92CF92DF92EF92FF920F931F93DF9309
:102CD000CF9300D000D00F92CDB7DEB76C018B013F
:102CE000E42EF22ECB010E940E1F089710F020E078
:102CF00001C029E000D000D000D0EDB7FEB731967A
:102D00008EE991E0ADB7BEB712969C938E93119762
:102D100013830283248315820E942C1FEDB7FEB714
:102D200036960FB6F894FEBF0FBEEDBF2E01089485
:102D3000411C511C0AE9602E01E0702E16E0812E24
:102D4000912C8C0E9D1EB5E9AB2EB1E0BB2E2FC091
:102D5000C6016E2DA20125E00E94D41500D0ADB7AA
:102D6000BEB712967C926E9211970E942C1F84011E
:102D70000F900F9015C000D000D0EDB7FEB7319680
:102D8000ADB7BEB71296BC92AE921197D8018C9196
:102D9000828313820E942C1F0F900F900F900F9030
:102DA000015010400C171D0731F7E394FA94FF20EF
:102DB00079F600D082E991E0EDB7FEB79283818386
:102DC0000E942C1F0F900F900F900F900F900F905C
:102DD0000F90CF91DF911F910F91FF90EF90DF90B7
:102DE000CF90BF90AF909F908F907F906F905F90AB
:102DF0004F9008950F931F938C010E944112682FEA
:102E0000C8010E94C211C80165E871E04AE022E0F1
:102E10000E945916C80168E771E04CE024E00E9466
:102E20002615C80160E771E040E121E00E945916D3
:102E3000C80165E671E041E126E00E942615C8015F
:102E40006FE571E041E021E00E942615C80165E5CB
:102E500071E042E021E00E942615C8016FE471E0B4
:102E600045E021E00E942615C80166E471E046E0D5
:102E700021E00E942615C8016FE371E040E021E0E7
:102E80000E942615C80161E371E04CE122E00E9436
:102E90002615C8010E943614E82FF0E0EE0FFF1F40
:102EA000EC52FF4F2591349100D000D08FE191E09A
:102EB000EDB7FEB792838183348323830E942C1F56
:102EC000F8018381E82FF0E0EE0FFF1FE652FF4F7D
:102ED0002591349180E191E0EDB7FEB79283818333
:102EE000348323830E942C1F0F900F900F900F901C
:102EF000C8010E940F14E82FF0E0EE0FFF1FE2520E
:102F0000FF4F2591349100D000D08DEF90E0EDB7C8
:102F1000FEB792838183348323830E942C1F0F90FA
:102F20000F900F900F90C8010E946E14E82FF0E0F0
:102F3000EE0FFF1FEC51FF4F2591349100D000D0D0
:102F40008CEE90E0EDB7FEB79283818334832383C8
:102F50000E942C1F0F900F900F900F901F910F91B8
:102F60000895FC0166834783208781E08587089563
:102F7000CB01BA0120E030E040E151E40E942D1E77
:102F800020E030E040EA50E40E94DE1C20E030E027
:102F900040E052E40E94761C08950F931F938C0129
:102FA000FC01868160E00E941609F801868161E0DB
:102FB0000E948209F80111861286138614861F91D9
:102FC0000F910895CF92DF92EF92FF920F931F938C
:102FD000CF93DF93EC018E8161E00E9482096AEF5A
:102FE00070E080E090E00E94AB080E9477089B01AF
:102FF000AC0189859A85AB85BC85281739074A07B6
:103000005B0720F419861A861B861C868D8588230B
:1030100071F489859A85AB85BC85281B390B4A0BD1
:103020005B0B205D37404040504008F477C01D8660
:103030000E94770869877A878B879C871C821B820E
:103040001A82198218828E8161E00E9416098E818F
:1030500060E00E94820964E170E080E090E00E94FC
:10306000AB08F8948E8161E00E94820988E290E0CA
:103070000E94D1088E8160E00E94160981E0EE2452
:1030800000E010E00AC0F39481E090E00E94D108D3
:103090008FEFF81629F40AC0822FFF24C82EDD24F2
:1030A0008E810E94B5098C159D0569F38E810E9461
:1030B000B509282F8FEFF816C9F0043090F000FD05
:1030C00010C08E2D869586958695FE01E80FF11D20
:1030D0009081990F908388858F1510F4916090836B
:1030E000E3940F5F1F4F05351105B1F6789487E221
:1030F0008E1510F030E013C030E04C8150E0298193
:10310000888190E0820F911D2A81820F911D2B8171
:10311000820F911D90704817590709F431E0832FF1
:10312000DF91CF911F910F91FF90EF90DF90CF90A3
:103130000895EF92FF920F931F93CF93DF93EC01CB
:103140000E94E2178823A9F18F818B3031F08B30F8
:1031500080F18551823068F507C0688170E080E0B9
:1031600090E00E94771D22C0688170E080E090E0CE
:103170000E94771D20E030E040E853E40E942D1EBD
:103180007B018C01698170E0882777FD8095982FFD
:103190000E94791D9B01AC01C801B7010E94761CF9
:1031A00020E030E040E251E40E94DE1CE62F692F6F
:1031B0000AC086E494E060EF72E00E94570DE0E000
:1031C00070E080EC6FE72E2F372F482F562FB90174
:1031D000CA01DF91CF911F910F91FF90EF90089559
:1031E000CF92DF92EF92FF920F931F93CF93DF93D3
:1031F000EC01C62E0E94E217882309F44DC08F818E
:103200008B3041F08B3008F447C08551823008F094
:1032100043C009C06A8170E080E090E00E94771DA1
:103220007B018C012FC0DA806D2D70E06F7770709C
:10323000882777FD8095982F0E94791D20E030E047
:1032400040E853E40E942D1E7B018C016B8170E0ED
:10325000882777FD8095982F0E94791D9B01AC01EE
:10326000C801B7010E94761C20E030E040E251E442
:103270000E94DE1C7B018C01D7FE04C017FB109559
:1032800017F91095CC20C1F0CE01B801A7010E941A
:10329000B8177B018C0110C086E494E060EF72E007
:1032A0000E94570D0F2EF0E0EF2EF0E0FF2EF0EC15
:1032B0000F2FFFE71F2FF02DB701C801DF91CF912E
:1032C0001F910F91FF90EF90DF90CF900895089598
:1032D0000895FC011382128287E393E09183808337
:1032E0000895FC01A081B18118962D913C91199708
:1032F0006FEFF90109950895FC01A081B18118963D
:103300002D913C91199760E0F90109950895DC0130
:10331000ED91FC910284F385E02D40E0099508953C
:10332000FC016681862F826086836660CF010E94E1
:1033300087190895FC0165816E7F658368600E942E
:1033400087190895FC0165816D7F658368600E941F
:1033500087190895FC016581862F846085836C60E0
:10336000CF010E94871908950F931F938C010E942B
:10337000AA19C8010E9471191F910F910895FC01AB
:1033800065816B7F658368600E94871908950F933C
:103390001F938C010E947C19C8010E94BF191F91C4
:1033A0000F910895DF93CF93CDB7DEB728970FB66F
:1033B000F894DEBF0FBECDBFDC0117968C91179736
:1033C000481710F0482F415018969C91189790314B
:1033D00069F4843059F41D8280E48E839F8380E5F4
:1033E0008887FE01E40FF11D85810BC0198280E4FE
:1033F0008A8384E18B8384E58C83FE01E40FF11DD5
:103400008181680F6068CD010E94871928960FB6E8
:10341000F894DEBF0FBECDBFCF91DF910895DC01E0
:10342000ED91FC910284F385E02D41E0099581E066
:1034300090E0089562E00E94871980ED97E00E9475
:10344000D108089561E00E94871980ED97E00E94FD
:10345000D1080895CF93DF93EC01423018F08C81AE
:1034600088608C834F836887222329F0413019F4C8
:103470008C8184608C8364E670E080E090E00E9440
:10348000AB086C8164FD31C0E881F9810284F38569
:10349000E02DCE0163E042E0099584E991E10E94CC
:1034A000D108E881F9810284F385E02DCE0163E043
:1034B00042E0099584E991E10E94D108E881F9810F
:1034C0000284F385E02DCE0163E042E0099586E9B0
:1034D00090E00E94D108E881F9810284F385E02D13
:1034E000CE0162E042E0099516C06062CE010E9402
:1034F000871984E991E10E94D1086C816062CE0154
:103500000E94871986E990E00E94D1086C81606270
:10351000CE010E9487196C816062CE010E948719DA
:1035200084E08D83CE010E94AA19CE010E94221A46
:1035300082E08E83CE0166E00E948719CE010E9450
:103540007119DF91CF9108958F92AF92BF92CF9270
:10355000DF92EF92FF920F931F93DF93CF93CDB73C
:10356000DEB7FC01628713861486118681E090E045
:10357000BC0102C0660F771F4A95E2F7618BAC0170
:1035800002C0440F551F2A95E2F7428BBC0102C0CE
:10359000660F771F0A95E2F7638B9C0102C0220F2A
:1035A000331FEA94E2F7248BAC0102C0440F551F8D
:1035B000CA94E2F7458BBC0102C0660F771FAA943C
:1035C000E2F7668B02C0880F991F8A94E2F7878B17
:1035D000CF91DF911F910F91FF90EF90DF90CF90EF
:1035E000BF90AF908F900895DF92EF92FF920F936C
:1035F0001F938C01D62E8DE0E82EF12CE00EF11EEB
:10360000F80161896D29C7010E94321CF8016189A6
:1036100060956D21C7010E94321C1F910F91FF9090
:10362000EF90DF900895DC01FC0120E090E070E075
:1036300060FF02C08489282B9F5F3196943019F077
:1036400075956795F4CF413019F453964C91539783
:103650001C968C911C97842B282BCD01622F0E94E5
:10366000F41A08950F931F93CF93DF93EC01142F57
:10367000062F0F70423019F4602F40E00CC070E04C
:1036800044E0759567954A95E1F7412F0E94131B19
:10369000CE01602F412F0E94131BDF91CF911F910C
:1036A0000F910895FC019385992391F081858823DA
:1036B00019F4662329F406C0813021F4662311F43D
:1036C000948701C01486CF010D9664850E94321C38
:1036D00008950F931F93CF93DF938C01EC012D96E8
:1036E000CE01F80162850E94581C019719F020E074
:1036F00030E00CC0CE0161E00E94271CF80114826A
:10370000CE0160E00E94321C21E030E0C901DF916F
:10371000CF911F910F910895FC0181E090E002C0CC
:10372000880F991F6A95E2F783874187CF010E942E
:103730007C190895DF92EF92FF920F931F938C01F3
:10374000F62EE42ED22E0E94691BC8016F2D4E2D3D
:103750002D2D0E942A1A1F910F91FF90EF90DF905C
:1037600008956F927F928F92AF92CF92DF92EF92F5
:10377000FF920F931F93DF93CF93CDB7DEB73C013A
:10378000162FF42ED22E0E94691987E493E0F301DC
:1037900091838083C3010D960E94201CC301612F79
:1037A0004F2D2D2D0E94A41ACF91DF911F910F91C3
:1037B000FF90EF90DF90CF90AF908F907F906F90C1
:1037C0000895CB01642F0E9437210895CB010E94F8
:1037D0002F210895882319F48CB5806202C08CB51E
:1037E0008F7D8CBD08959CB5937F982B9CBD0895CB
:1037F0002CB5382F33702C7F322B3CBD2DB590E08B
:10380000959587959595879581702E7F822B8DBD97
:1038100008958AE061E00E9482098AE061E00E94E6
:1038200016098CB580618CBD8CB580648CBD8DE033
:1038300061E00E9416098BE061E00E94160908957C
:10384000FC0112828FEF8183108213820895FC01A4
:103850008381882331F0662319F48FEF81830895E3
:1038600011820895CF93DF93EC018B81882319F4A3
:1038700080E090E013C089818095862388838EEA5A
:1038800094E06A810E94540E8EEA94E068810E945E
:10389000E00E8EEA94E00E94230F90E020E030E0FA
:1038A000892B11F421E030E0C901DF91CF91089517
:1038B000CF93DF93EC016A838EEA94E00E943C0F81
:1038C0008EEA94E06A8141E00E94380F1B828823CF
:1038D00011F081E08B838EEA94E00E94710E888360
:1038E0008B8190E0DF91CF9108955058BB27AA2794
:1038F0000ED075C166D130F06BD120F031F49F3F0E
:1039000011F41EF45BC10EF4E095E7FB51C1E92F01
:1039100077D180F3BA17620773078407950718F009
:1039200071F49EF58FC10EF4E0950B2EBA2FA02DE9
:103930000B01B90190010C01CA01A0011124FF275C
:10394000591B99F0593F50F4503E68F11A16F04057
:10395000A22F232F342F4427585FF3CF4695379556
:103960002795A795F0405395C9F77EF41F16BA0B1B
:10397000620B730B840BBAF09150A1F0FF0FBB1FC9
:10398000661F771F881FC2F70EC0BA0F621F731F12
:10399000841F48F4879577956795B795F7959E3F6F
:1039A00008F0B3CF9395880F08F09927EE0F9795FD
:1039B00087950895D9D008F481E008950CD00FC1FF
:1039C00007D140F0FED030F021F45F3F19F0F0C095
:1039D000511139C1F3C014D198F39923C9F3552378
:1039E000B1F3951B550BBB27AA27621773078407F2
:1039F00038F09F5F5F4F220F331F441FAA1FA9F3A8
:103A000033D00E2E3AF0E0E830D091505040E69599
:103A1000001CCAF729D0FE2F27D0660F771F881FFA
:103A2000BB1F261737074807AB07B0E809F0BB0BE9
:103A3000802DBF01FF2793585F4F2AF09E3F51050D
:103A400068F0B6C000C15F3FECF3983EDCF38695AA
:103A500077956795B795F7959F5FC9F7880F911D83
:103A60009695879597F90895E1E0660F771F881F6F
:103A7000BB1F621773078407BA0720F0621B730B22
:103A8000840BBA0BEE1F88F7E095089504D0689474
:103A9000B111D9C00895BCD088F09F5790F0B92FCC
:103AA0009927B751A0F0D1F0660F771F881F991F93
:103AB0001AF0BA95C9F712C0B13081F0C3D0B1E0A5
:103AC0000895C0C0672F782F8827B85F39F0B93FB5
:103AD000CCF3869577956795B395D9F73EF4909595
:103AE0008095709561957F4F8F4F9F4F0895E89413
:103AF00009C097FB3EF490958095709561957F4F36
:103B00008F4F9F4F9923A9F0F92F96E9BB279395E3
:103B1000F695879577956795B795F111F8CFFAF4F3
:103B2000BB0F11F460FF1BC06F5F7F4F8F4F9F4F24
:103B300016C0882311F096E911C0772321F09EE882
:103B4000872F762F05C0662371F096E8862F70E0E8
:103B500060E02AF09A95660F771F881FDAF7880FC2
:103B60009695879597F90895990F0008550FAA0B18
:103B7000E0E8FEEF16161706E807F907C0F0121680
:103B80001306E407F50798F0621B730B840B950B83
:103B900039F40A2661F0232B242B252B21F40895D8
:103BA0000A2609F4A140A6958FEF811D811D089575
:103BB00097F99F6780E870E060E008959FEF80ECE0
:103BC000089500240A941616170618060906089583
:103BD00000240A9412161306140605060895092EE9
:103BE0000394000C11F4882352F0BB0F40F4BF2B58
:103BF00011F460FF04C06F5F7F4F8F4F9F4F089598
:103C000057FD9058440F551F59F05F3F71F047958D
:103C1000880F97FB991F61F09F3F79F08795089572
:103C2000121613061406551FF2CF4695F1DF08C091
:103C3000161617061806991FF1CF869571056105AE
:103C400008940895E894BB2766277727CB0197F956
:103C500008958ADF08F48FEF08950BD0C0CFB1DF4D
:103C600028F0B6DF18F0952309F0A2CFA7CF1124D2
:103C7000EACFC6DFA0F3959FD1F3950F50E0551F13
:103C8000629FF001729FBB27F00DB11D639FAA27B1
:103C9000F00DB11DAA1F649F6627B00DA11D661F00
:103CA000829F2227B00DA11D621F739FB00DA11D21
:103CB000621F839FA00D611D221F749F3327A00DDB
:103CC000611D231F849F600D211D822F762F6A2F77
:103CD00011249F5750408AF0E1F088234AF0EE0FFC
:103CE000FF1FBB1F661F771F881F91505040A9F709
:103CF0009E3F510570F05CCFA6CF5F3FECF3983E3E
:103D0000DCF3869577956795B795F795E7959F5F6F
:103D1000C1F7FE2B880F911D9695879597F9089509
:103D200023DF880B990B0895629FD001739FF001E8
:103D3000829FE00DF11D649FE00DF11D929FF00D3B
:103D4000839FF00D749FF00D659FF00D9927729F72
:103D5000B00DE11DF91F639FB00DE11DF91FBD01FD
:103D6000CF0111240895991B79E004C0991F96177B
:103D700008F0961B881F7A95C9F78095089597FBE0
:103D8000092E07260AD077FD04D02ED006D00020B9
:103D90001AF4709561957F4F0895F6F79095819587
:103DA0009F4F0895A1E21A2EAA1BBB1BFD010DC057
:103DB000AA1FBB1FEE1FFF1FA217B307E407F507DB
:103DC00020F0A21BB30BE40BF50B661F771F881FB7
:103DD000991F1A9469F760957095809590959B014D
:103DE000AC01BD01CF010895AA1BBB1B51E107C067
:103DF000AA1FBB1FA617B70710F0A61BB70B881F7B
:103E0000991F5A95A9F780959095BC01CD01089509
:103E1000EE0FFF1F0590F491E02D0994FC01059031
:103E20000020E9F7809590958E0F9F1F0895A0E0E0
:103E3000B0E0EDE1FFE10C94F521FE0135966191D2
:103E4000719180912B0590912C05AF010E94521F1A
:103E50002096E2E00C941122A0E0B0E0E2E3FFE162
:103E60000C94F521FE01359661917191A0912B057D
:103E7000B0912C0513968C911397886013968C93B0
:103E800080912B0590912C05AF010E94521FE0916B
:103E90002B05F0912C052381277F23832096E2E0D8
:103EA0000C941122ABE0B0E0E8E5FFE10C94E521D1
:103EB0003C012B015A01FC0117821682838181FD8E
:103EC00003C06FEF7FEFC6C19AE0892E1E010894F0
:103ED000211C311CF3012381F20123FD859123FF75
:103EE00081912F01882309F4B2C1853239F423FD71
:103EF000859123FF81912F01853229F490E0B30150
:103F00000E945B21E7CF982FFF24EE249924FFE144
:103F1000FF15D0F09B3269F09C3228F4903259F0B2
:103F2000933291F40EC09D3249F0903369F441E030
:103F300024C052E0F52A84E0F82A28C098E0F92A43
:103F400025C0E0E1FE2A22C0F7FC29C0892F80535A
:103F50008A3070F4F6FE05C0989C902C1124980EBF
:103F600015C0E89CE02C1124E80EF0E2FF2A0EC0F8
:103F70009E3229F4F6FC6BC140E4F42A07C09C365B
:103F800019F450E8F52A02C0983649F4F20123FDED
:103F9000959123FF91912F01992309F0B8CF892F93
:103FA0008554833018F08052833038F444E050E078
:103FB000A40EB51E5FE359830FC0933631F09337DB
:103FC00079F0933509F056C020C0F50180818983CE
:103FD00042E050E0A40EB51E610101E010E012C005
:103FE000F501C080D180F6FC03C06FEF7FEF02C007
:103FF000692D70E042E050E0A40EB51EC6010E949B
:1040000050218C015FE7F52214C0F501C080D180FA
:10401000F6FC03C06FEF7FEF02C0692D70E042E055
:1040200050E0A40EB51EC6010E9445218C0150E847
:10403000F52AF3FE07C01AC080E290E0B3010E94A7
:104040005B21EA948E2D90E008171907A8F30EC0A3
:10405000F601F7FC8591F7FE81916F0190E0B301C5
:104060000E945B21E110EA940150104001151105F6
:1040700079F7EAC0943611F0993669F5F7FE08C071
:10408000F501208131814281538184E090E00AC0B2
:10409000F501808191819C01442737FD4095542F83
:1040A00082E090E0A80EB91E9FE6F92257FF09C0F2
:1040B00050954095309521953F4F4F4F5F4FE0E829
:1040C000FE2ACA01B901A1012AE030E00E9487213D
:1040D000D82ED21840C0953729F41F2D1F7E2AE014
:1040E00030E01DC01F2D197F9F3661F0903720F4FE
:1040F000983509F0ACC00FC0903739F0983709F007
:10410000A6C004C028E030E00AC0106114FD1460AD
:1041100020E130E004C014FD166020E132E017FF1A
:1041200008C0F501608171818281938144E050E093
:1041300008C0F50180819181BC0180E090E042E0FF
:1041400050E0A40EB51EA1010E948721D82ED218DE
:104150008FE7F82EF122F6FE0BC05EEFF522D914A0
:1041600038F4F4FE07C0F2FC05C08FEEF82202C05E
:104170001D2D01C0192DF4FE0DC0FE01ED0DF11D28
:104180008081803319F499EEF92208C01F5FF2FE96
:1041900005C003C08F2D867809F01F5F0F2DF3FC3B
:1041A00014C0F0FE0FC01E1510F09D2C0BC09D2CEE
:1041B0009E0C911A1E2D06C080E290E0B3010E9471
:1041C0005B211F5F1E15C0F304C01E1510F4E11A19
:1041D00001C0EE2404FF0FC080E390E0B3010E9411
:1041E0005B2102FF1DC001FD03C088E790E00EC007
:1041F00088E590E00BC0802F867891F001FF02C027
:104200008BE201C080E2F7FC8DE290E0B3010E94F6
:104210005B2106C080E390E0B3010E945B219A9489
:10422000D914C0F3DA94F101ED0DF11D808190E015
:10423000B3010E945B21DD20A9F706C080E290E077
:10424000B3010E945B21EA94EE20C1F743CEF30153
:1042500066817781CB012B96E2E10C940122F999DA
:10426000FECF92BD81BDF89A992780B50895262F7B
:10427000F999FECF1FBA92BD81BD20BD0FB6F8944B
:10428000FA9AF99A0FBE01960895FC0105906150C3
:1042900070400110D8F7809590958E0F9F1F08955C
:1042A000FC016150704001900110D8F78095909505
:1042B0008E0F9F1F08950F931F93CF93DF938C0151
:1042C000EB018B8181FF1BC082FF0DC02E813F81DE
:1042D0008C819D812817390764F4E881F981019365
:1042E000F983E88306C0E885F985802F0995892B35
:1042F00031F48E819F8101969F838E8302C00FEFE0
:104300001FEFC801DF91CF911F910F910895FA011E
:10431000AA27283051F1203181F1E8946F936E7F04
:104320006E5F7F4F8F4F9F4FAF4FB1E03ED0B4E0F5
:104330003CD0670F781F891F9A1FA11D680F791F36
:104340008A1F911DA11D6A0F711D811D911DA11D47
:1043500020D009F468943F912AE0269F1124301957
:10436000305D3193DEF6CF010895462F4770405DF2
:104370004193B3E00FD0C9F7F6CF462F4F70405DA1
:104380004A3318F0495D31FD4052419302D0A9F7FC
:10439000EACFB4E0A6959795879577956795BA95F6
:1043A000C9F700976105710508959B01AC010A2EBC
:1043B00006945795479537952795BA95C9F7620F93
:1043C000731F841F951FA01D08952F923F924F9237
:1043D0005F926F927F928F929F92AF92BF92CF9295
:1043E000DF92EF92FF920F931F93CF93DF93CDB79E
:1043F000DEB7CA1BDB0B0FB6F894DEBF0FBECDBF16
:1044000009942A88398848885F846E847D848C84E6
:104410009B84AA84B984C884DF80EE80FD800C81EF
:104420001B81AA81B981CE0FD11D0FB6F894DEBFD2
:0C4430000FBECDBFED010895F894FFCF42
:10443C000A43617373657474653332385000466196
:10444C00696C656420746F20726561642066726F9C
:10445C006D2044485400444854206572726F7200B9
:10446C00255248200043200048756D6964697479B1
:10447C003A2000202552480054656D7065726174B5
:10448C007572653A2000202A43002D0020003A0066
:10449C005761696D616E54696E795254430057616E
:1044AC00726E696E673A2074696D6520726573650A
:1044BC007400476F74207061796C6F616420256C97
:1044CC00752E2E2E0053656E7420726573706F6E90
:1044DC0073652E0A0D004E6F772073656E64696EDE
:1044EC006720256C752E2E2E006F6B2E2E2E0066DF
:1044FC0061696C65642E0A0D004661696C65642CFB
:10450C0020726573706F6E73652074696D656420BD
:10451C006F75742E0A0D00476F7420726573706F7F
:10452C006E736520256C752C20726F756E642D74FE
:10453C007269702064656C61793A20256C750A0D7E
:10454C000043617373657474653332385000646969
:10455C0073706C61793D00726164696F3D006468D1
:10456C00743D007274633D00436F6D6D616E6473D6
:10457C003A002030783231202721272020456E74D4
:10458C0065722073657276696365206D6F64650072
:10459C00203078323320272327202052657365740E
:1045AC0020636F6E666967002030783234202724D0
:1045BC0027202047697665207265706F7274002021
:1045CC00307834302027402720205072696E7420B8
:1045DC00636F6E6669670020307837322027722748
:1045EC002020526164696F20696E666F00722041F1
:1045FC00434B003078003F002E00696E76616C6989
:10460C0064005265706F72746572004C6F676765F9
:10461C0072006E616E00696E66006F7666002E0029
:10462C0052656164206661696C006C733100000036
:10463C00010101D2F0F0F0F0000000E1F0F0F0F038
:10464C00000000000000005F0B050CF50A260B06AD
:10465C000B4F0B00000000E00EAF0E680E710E86C3
:10466C000E970E000000000F1A050C2A1A67196825
:10467C0019040C000000000F1A050C9A1B8C1B521D
:04468C001B321B00C2
:00000001FF
