:100000000C94B4000C94C6000C94C6000C94C6006A
:100010000C94C6000C94C6000C94C6000C94C60048
:100020000C94C6000C94C6000C94C6000C94C80036
:100030000C94C6000C94C6000C94C6000C94C60028
:100040000C9400010C94C6000C94C6000C94C600DD
:100050000C94C6000C94C6000C94C6000C94C60008
:100060000C94C6000C94C600808386898C8F929570
:10007000989C9FA2A5A8ABAEB0B3B6B9BCBFC1C493
:10008000C7C9CCCED1D3D5D8DADCDEE0E2E4E6E8ED
:10009000EAECEDEFF0F2F3F5F6F7F8F9FAFBFCFC19
:1000A000FDFEFEFFFFFFFFFFFFFFFFFFFFFFFEFE66
:1000B000FDFCFCFBFAF9F8F7F6F5F3F2F0EFEDECE6
:1000C000EAE8E6E4E2E0DEDCDAD8D5D3D1CECCC98A
:1000D000C7C4C1BFBCB9B6B3B0AEABA8A5A29F9C04
:1000E0009895928F8C898683807C797673706D6AFF
:1000F0006763605D5A5754514F4C494643403E3BFD
:10010000383633312E2C2A272523211F1D1B191782
:10011000151312100F0D0C0A090807060504030336
:1001200002010100000000000000000000000101C9
:100130000203030405060708090A0C0D0F10121329
:100140001517191B1D1F212325272A2C2E31333665
:10015000383B3E404346494C4F5154575A5D6063CB
:10016000676A6D707376797C11241FBECFEFD8E07B
:10017000DEBFCDBF11E0A0E0B1E001C01D92AA300A
:10018000B107E1F70E94F1000C9483010C94000088
:100190001F920F920FB60F9211248F93EF93FF933C
:1001A00080910001E8E6F0E0E80FF11DE491E7BD81
:1001B0008F5F80930001FF91EF918F910F900FBEA1
:1001C0000F901F901895569A80E887BD84B5806877
:1001D00084BD84B5836084BD85B5826085BD089586
:1001E0000895CF93DF930E9448010E94E300C0E08E
:1001F000D0E00E94F0002097E1F30E940000F9CFC8
:100200001F920F920FB60F9211242F933F938F934B
:100210009F93AF93BF938091050190910601A091A8
:100220000701B0910801309109010196A11DB11D8E
:10023000232F2D5F2D3720F02D570196A11DB11DC5
:10024000209309018093050190930601A093070173
:10025000B09308018091010190910201A0910301E6
:10026000B09104010196A11DB11D809301019093ED
:100270000201A0930301B0930401BF91AF919F913C
:100280008F913F912F910F900FBE0F901F90189557
:10029000789484B5826084BD84B5816084BD85B561
:1002A000826085BD85B5816085BDEEE6F0E0808128
:1002B00081608083E1E8F0E0108280818260808349
:1002C000808181608083E0E8F0E0808181608083CC
:1002D000E1EBF0E0808184608083E0EBF0E08081FE
:1002E00081608083EAE7F0E08081846080838081A0
:1002F0008260808380818160808380818068808348
:0A0300001092C1000895F894FFCF99
:00000001FF
