:100000000C941B020C945B100C9488100C9443020B
:100010000C9443020C9443020C9443020C9443024C
:100020000C9443020C9443020C9443020C9443023C
:100030000C9443020C9443020C9443020C9443022C
:100040000C9426070C9443020C94F3080C943A0980
:100050000C9443020C9443020C9443020C9443020C
:100060000C9443020C944302202D3E2000202D3E90
:100070002061636B0020627974657320726563652B
:100080006976656400204700203F004F4B000A411D
:100090007661696C61626C6520636F6D6D616E6421
:1000A000733A0A20203C6E6E3E20692020202020DA
:1000B0002D20736574206E6F646520494420287379
:1000C00074616E64617264206E6F6465206964732C
:1000D0002061726520312E2E3330290A20203C6E9B
:1000E0003E20622020202020202D20736574204D8A
:1000F000487A2062616E64202834203D20343333F6
:100100002C2038203D203836382C2039203D20390D
:100110003135290A20203C6E6E6E3E20672020205B
:10012000202D20736574206E6574776F726B206765
:10013000726F7570202852464D3132206F6E6C7987
:1001400020616C6C6F7773203231322C2030203D6F
:1001500020616E79290A20203C6E3E2063202020F9
:100160002020202D2073657420636F6C6C65637490
:10017000206D6F64652028616476616E6365642C10
:10018000206E6F726D616C6C792030290A202074AA
:10019000202020202020202020202D2062726F612E
:1001A0006463617374206D61782D73697A6520745E
:1001B000657374207061636B65742C207265717552
:1001C0006573742061636B0A20202E2E2E2C3C6EEA
:1001D0006E3E2061202D2073656E64206461746121
:1001E000207061636B657420746F206E6F6465208E
:1001F0003C6E6E3E2C207265717565737420616370
:100200006B0A20202E2E2E2C3C6E6E3E2073202D4D
:100210002073656E642064617461207061636B6536
:100220007420746F206E6F6465203C6E6E3E2C20CF
:100230006E6F2061636B0A20203C6E3E206C202094
:10024000202020202D207475726E206163746976E1
:10025000697479204C4544206F6E20504231206FE4
:100260006E206F72206F66660A20203C6E3E207101
:100270002020202020202D20736574207175696551
:1002800074206D6F6465202831203D20646F6E27D7
:1002900074207265706F7274206261642070616393
:1002A0006B657473290A20203C6E3E207820202044
:1002B0002020202D20736574207265706F72746920
:1002C0006E6720666F726D6174202830203D206457
:1002D0006563696D616C2C2031203D20686578294B
:1002E0000A2020313233207A2020202020202D2087
:1002F000746F74616C20706F77657220646F776EB5
:100300002C206E65656473206120726573657420AE
:10031000746F2073746172742075702061676169F5
:100320006E0A52656D6F746520636F6E74726F6CC8
:1003300020636F6D6D616E64733A0A20203C6863C0
:1003400068693E2C3C68636C6F3E2C3C616464724F
:100350003E2C3C636D643E206620202020202D2012
:100360004653323020636F6D6D616E6420283836DD
:1003700038204D487A290A20203C616464723E2C62
:100380003C6465763E2C3C6F6E3E206B2020202026
:10039000202020202020202020202D204B414B55A4
:1003A00020636F6D6D616E642028343333204D48B7
:1003B0007A290A0043757272656E7420636F6E66E7
:1003C000696775726174696F6E3A005B5261646946
:1003D0006F4C696E6B5D0000000000240027002A4E
:1003E0000000000000250028002B00000000002372
:1003F0000026002900040404040404040402020288
:100400000202020303030303030102040810204055
:1004100080010204081020010204081020000000DE
:1004200007000201000003040600000000000000B5
:1004300000006002A00A11241FBECFEFD8E0DEBF8B
:10044000CDBF11E0A0E0B1E0E4E2F2E202C005902D
:100450000D92AA34B107D9F713E0AAE4B1E001C0C4
:100460001D92A13DB107E1F714E0C6E3D4E004C05A
:100470002297FE010E940C11C233D107C9F70E94D6
:10048000F00A0C9410110C940000FB01DC0102C076
:1004900001900D9241505040D8F70895FB01DC01C6
:1004A0000D900020E9F7119701900D920020E1F7DF
:1004B0000895FB01DC0101900D920020E1F7089501
:1004C0008AE491E0909314028093130288EC809365
:1004D000150282E192E00E941E1008951F93182FCA
:1004E00080911B028823E9F0812F90E024E095950C
:1004F00087952A95E1F78F70682F605D6A3308F061
:10050000695F8BE593E00E944C0B812F8F70682F01
:10051000605D6A3308F0695F8BE593E00E944C0BE5
:1005200008C08BE593E0612F70E04AE050E00E9444
:10053000580C1F9108951F93CF93DF93CEE8D0E01E
:10054000FE0121961491112369F01A3029F48BE5EC
:1005500093E06DE00E944C0B8BE593E0612F0E94CD
:100560004C0BEECF8BE593E064EB73E00E94740BD1
:1005700081E00E94B30FDF91CF911F9108950F93F7
:100580001F93CF93DF93EC018B016A30710540F02C
:10059000CB016AE070E00E94D410CE010E94BF023D
:1005A000DE010D900020E9F71197AC1BCA0FD11D99
:1005B000C8016AE070E00E94D410805D8883DF91FA
:1005C000CF911F910F9108951F93CF93DF93CEE1A9
:1005D000D2E08CE1FE0111928A95E9F7CE0160E04C
:1005E00071E00E94590210911C021F71FE010190DE
:1005F0000020E9F7EF51F240F0E0EC0FFD1F105C36
:1006000010831054CE0162E071E00E944E02CE01D0
:10061000612F70E00E94BF0280911C0285FF0BC019
:10062000FE0101900020E9F7EF51F240F0E0EC0FFD
:10063000FD1F8AE280838EE192E065E071E00E9416
:100640004E0260911D028EE192E070E00E94BF02B6
:100650008EE192E068E071E00E944E02E0911C029F
:10066000F0E046E0F595E7954A95E1F7EE0FFF1FBC
:10067000EE5CFE4F608171818EE192E00E94BF02CC
:100680008EE192E06CE071E00E944E028FEF9FEFEE
:1006900090933B0280933A02ECE1F2E02191809149
:1006A0003A0290913B028227282F22952827022E7A
:1006B000269526952025022E269520252770082E82
:1006C000892F269507942795902D822706942795A4
:1006D0009025822790933B0280933A0282E0EA338E
:1006E000F807E1F680E290E0FC01E450FE4FE08183
:1006F000F999FECF1FBA92BD81BDE0BD0FB6F89447
:10070000FA9AF99A0FBE01968034910569F781E053
:100710000E94B30F882331F48BE593E062E171E02E
:100720000E948D0CDF91CF911F910895EF92FF925F
:100730000F931F938C017B0181E00E94BC0EC801C6
:100740008A569F4F0E94C70780E00E94BC0EC701D7
:10075000885C90400E94C7071F910F91FF90EF9017
:1007600008950F931F93CF93DF93EC016830A1F4AA
:100770009C01220F331F082E82958025082E869516
:1007800086958025C82FD0E02196D595C795C17054
:10079000D070C22BD32B69E0262F30E0215030409F
:1007A00081E090E0A0E0B0E004C0880F991FAA1F8C
:1007B000BB1F2A95D2F78C010FC0C8018C239D2343
:1007C000892B19F460E971E002C068E572E0CB01A1
:1007D0000E949603169507950115110571F7DF9193
:1007E000CF911F910F9108951F93182F89E061E019
:1007F0000E940C0860E0112309F461E089E00E9486
:100800004B081F910895CF92DF92EF92FF920F93C2
:100810001F93CF93DF938BE593E00E94FB09892B15
:1008200009F4FCC18BE593E00E942C0A182F805339
:100830008A3058F4809181022AE0829FC0011124FD
:100840008053810F80938102E9C11C3289F4909119
:100850008202963450F4E92FF0E0ED57FD4F80917D
:10086000810280839F5F9093820210928102D6C1A1
:10087000812F81568A3108F092C18BE593E065E2C1
:1008800071E00E948A0C00E012C0E02FF0E0ED570A
:10089000FD4F60818BE593E070E04AE050E00E94FC
:1008A000580C8BE593E06CE20E944C0B0F5F80913B
:1008B0008202081750F3609181028BE593E070E0AB
:1008C0004AE050E00E94580C8BE593E0612F0E94B3
:1008D000880B1B3609F4E5C01C3690F4133609F476
:1008E0004BC0143630F4113609F47BC01236D9F4FB
:1008F00024C01736D1F11936C9F01636A1F48AC0D2
:10090000133709F46EC0143730F41C3609F47DC077
:10091000113749F428C1183709F43CC11A3709F4D2
:1009200027C11437B9F10E949B0267C190918102DF
:100930009F7180911C02807E14C080918102882367
:10094000C1F0883011F492E005C0893011F091E0D7
:1009500001C093E09295990F990F907C80911C02B1
:100960008F73980F90931C0204C080918102809332
:100970001D020E94E40241C180918102882321F07E
:1009800080911C02806203C080911C028F7D809345
:100990001C02EFCF81E680933C0282E480933D020B
:1009A00010923E02EFE3F2E090E08091C902890FDD
:1009B00081939F5F9234C9F78BE593E068E271E021
:1009C0000E948A0C6091C9028BE593E070E04AE0D6
:1009D00050E00E946B0C8091C9028F5F8093C90226
:1009E0000CC110933C024091820240933D028091E1
:1009F000810280933E022FE332E0E3E8F2E0C90196
:100A0000BF0150E00E944502F8C0809181020E941F
:100A1000F403F3C080E062E044ED0E94370F81E010
:100A20000E94F4039091830280E020918402EC0103
:100A3000C20FD11DD0908502E0908102FD2E1D2DA8
:100A40001E0D1A5F1C0F1D0F00E081E090E06DE0AD
:100A50000E94B1038F2D90E068E00E94B103CE01A7
:100A600068E00E94B1038D2D90E068E00E94B10320
:100A70008E2D90E068E00E94B103812F90E068E045
:100A80000E94B10380E090E061E00E94B1036AE05F
:100A900070E080E090E00E946E070F5F0330A9F6DF
:100AA0005EC080E061E044ED0E94370F81E00E946B
:100AB000F40380918402282F30E021503040B4E0CC
:100AC000220F331FBA95E1F78091830290E00197DE
:100AD0008F709070282B392BE12CA6E0FA2EE22A99
:100AE000F32A80918102882329F0E12CFEE0FF2E79
:100AF000E22AF32A10E0ECEDCE2EE5E0DE2E2CC04B
:100B000087E791E065E674E00E949603C7010C2E2A
:100B100002C0959587950A94E2F780FD03C087E7A8
:100B200091E002C085E694E0B601681B790B0E9453
:100B300096032196CC30D10519F787E791E067E756
:100B400071E00E9496036BE070E080E090E00E940C
:100B50006E071F5F143019F0C0E0D0E0D1CF80E005
:100B60000E94F40347C08091810280931A0245C01D
:100B7000809181028B3709F040C06AE070E080E02C
:100B800090E00E946E0780E00E94C60EF8940E94DA
:100B9000A00C33C08091810280931B022EC01E33B3
:100BA000C1F580918202E82FF0E0ED57FD4F909162
:100BB000810290838F5F8093820280918502909161
:100BC0008302983011F462E005C0993011F061E0C1
:100BD00001C063E0409184020E94370F409182027D
:100BE00044508091860267E872E00E94EA0E82E03B
:100BF0000E949F0E80E00E94B30F1092820210921A
:100C0000810286E4E3E8F2E0DF011D928A95E9F7CC
:100C100005C01152103210F40E949B020E94B60DC2
:100C2000882309F498C010917E0380917A039091F3
:100C30007B03892B39F48BE593E06BE870E00E942D
:100C4000290B0EC080911A02882309F0BCC08BE5E5
:100C500093E068E870E00E94290B153108F014E178
:100C600080911B02882329F08BE593E068E50E94C0
:100C70004C0B80911D02882351F48BE593E065E8CD
:100C800070E00E94290B80917C030E946E028BE52C
:100C900093E060E20E944C0B80917D030E946E0203
:100CA000C0E0D0E010C080911B02882329F48BE5BE
:100CB00093E060E20E944C0BFE01E158FC4F808102
:100CC0000E946E022196C11770F38BE593E00E949B
:100CD000540B80917A0390917B03892BE1F581E09D
:100CE0000E94F40360917E038BE593E070E04AE09C
:100CF00050E00E94580C8BE593E065E770E00E949D
:100D0000740B80917D0385FF02C080917D038091EB
:100D10007D0385FF1DC080917D0387FD19C08091F3
:100D20001C0285FD15C08BE593E06DE670E00E9426
:100D3000740B80917D0386FF02C080E804C080911F
:100D40007D038F71806C60E070E040E00E94DB0EFC
:100D500080E00E94F40380913C028823A1F10E946C
:100D6000450E882381F181E00E94F4038BE593E036
:100D700068E670E00E94290B60913D028BE593E0EC
:100D800070E04AE050E00E94580C8BE593E06EE280
:100D900071E00E948D0C80913C02813611F080E060
:100DA00001C080E290913E02992311F09064892B5A
:100DB0006FE372E040913D020E94DB0E10923C0214
:100DC00080E00E94F403DF91CF911F910F91FF907B
:100DD000EF90DF90CF9008958BE593E040E051EEE7
:100DE00060E070E00E9475098BE593E00E94540B6F
:100DF0008BE593E06BEC73E00E94290B80E00E948E
:100E0000F40381E00E94B30F8823A9F0F999FECF83
:100E100080E290E092BD81BDF89A80B580931C027B
:100E2000F999FECF81E290E092BD81BDF89A80B53C
:100E300080931D0208C081E880931C0285E08093A6
:100E40001D020E94E4020E949B0208951F920F92CD
:100E50000FB60F9211242F933F938F939F93AF93CD
:100E6000BF938091CE029091CF02A091D002B09119
:100E7000D1023091D2020196A11DB11D232F2D5F09
:100E80002D3720F02D570196A11DB11D2093D202C0
:100E90008093CE029093CF02A093D002B093D10260
:100EA0008091CA029091CB02A091CC02B091CD0268
:100EB0000196A11DB11D8093CA029093CB02A0930D
:100EC000CC02B093CD02BF91AF919F918F913F9192
:100ED0002F910F900FBE0F901F9018959B01AC01A2
:100EE0007FB7F8948091CA029091CB02A091CC0276
:100EF000B091CD0266B5A89B05C06F3F19F0019671
:100F0000A11DB11D7FBFBA2FA92F982F8827860F4B
:100F1000911DA11DB11D62E0880F991FAA1FBB1F63
:100F20006A95D1F7BC012DC0FFB7F8948091CA0231
:100F30009091CB02A091CC02B091CD02E6B5A89BD6
:100F400005C0EF3F19F00196A11DB11DFFBFBA2FDB
:100F5000A92F982F88278E0F911DA11DB11DE2E0AA
:100F6000880F991FAA1FBB1FEA95D1F7861B970B05
:100F7000885E9340C8F22150304040405040685154
:100F80007C4F211531054105510571F608950197F2
:100F900039F0880F991F880F991F02970197F1F771
:100FA0000895789484B5826084BD84B5816084BDE1
:100FB00085B5826085BD85B5816085BDEEE6F0E0D2
:100FC000808181608083E1E8F0E01082808182602E
:100FD0008083808181608083E0E8F0E080818160AF
:100FE0008083E1EBF0E0808184608083E0EBF0E0DF
:100FF000808181608083EAE7F0E080818460808383
:10100000808182608083808181608083808180682C
:1010100080831092C1000895CF93DF93482F50E052
:10102000CA01875F9B4FFC0134914B505C4FFA0122
:101030008491882369F190E0880F991FFC01E9529F
:10104000FC4FA591B491FC01EF51FC4FC591D49197
:10105000662351F42FB7F8948C91932F90958923A0
:101060008C93888189230BC0623061F42FB7F89488
:101070008C91932F909589238C938881832B8883DF
:101080002FBF06C09FB7F8948C91832B8C939FBF82
:10109000DF91CF910895482F50E0CA01835E9B4FA6
:1010A000FC012491CA01875F9B4FFC0194914B5036
:1010B0005C4FFA013491332309F440C0222351F1EB
:1010C000233071F0243028F42130A1F0223011F5C2
:1010D00014C02630B1F02730C1F02430D9F404C058
:1010E000809180008F7703C0809180008F7D8093F6
:1010F000800010C084B58F7702C084B58F7D84BD19
:1011000009C08091B0008F7703C08091B0008F7DBF
:101110008093B000E32FF0E0EE0FFF1FEF51FC4F84
:10112000A591B4912FB7F894662321F48C919095F2
:10113000892302C08C91892B8C932FBF0895682F2F
:1011400070E0CB01835E9B4FFC012491CB01875F54
:101150009B4FFC0144916B507C4FFB019491992370
:1011600019F420E030E03CC0222351F1233071F02B
:10117000243028F42130A1F0223011F514C026309B
:10118000B1F02730C1F02430D9F404C08091800040
:101190008F7703C0809180008F7D8093800010C086
:1011A00084B58F7702C084B58F7D84BD09C08091DE
:1011B000B0008F7703C08091B0008F7D8093B00026
:1011C000892F90E0880F991F85519C4FFC01A591B4
:1011D000B4918C9120E030E0842311F021E030E0E4
:1011E000C901089508951F920F920FB60F9211240E
:1011F0002F933F934F938F939F93EF93FF93409140
:10120000C60020911303309114032F5F3F4F2F73BB
:10121000307080911503909116032817390759F003
:10122000E0911303F0911403ED52FD4F408330938E
:10123000140320931303FF91EF919F918F914F918E
:101240003F912F910F900FBE0F901F901895E09136
:101250006703F0916803E05CFF4F819191912081D9
:101260003181821B930B8F739070892B11F00E9438
:10127000F20808951F920F920FB60F9211242F9328
:101280003F938F939F93EF93FF9320915703309158
:1012900058038091590390915A032817390731F464
:1012A0008091C1008F7D8093C10014C0E0915903EB
:1012B000F0915A03E95EFC4F20818091590390918F
:1012C0005A0301968F73907090935A038093590339
:1012D0002093C600FF91EF919F918F913F912F91A5
:1012E0000F900FBE0F901F901895AF92BF92DF9294
:1012F000EF92FF920F931F93CF93DF93EC017A014C
:101300008B01DD24403081EE580780E0680780E0E3
:10131000780711F0DD24D39491E0A92EB12CEC894B
:10132000FD89DD2069F0C5010E8C02C0880F991F70
:101330000A94E2F7808360E079E08DE390E005C0F5
:10134000108260E874E88EE190E0A80197010E94A5
:10135000E810215030404040504056954795379511
:10136000279580E12030380720F0DD2011F0DD24C2
:10137000D6CFE889F9893083EA89FB892083EE8911
:10138000FF89408121E030E0C9010A8C02C0880F4A
:10139000991F0A94E2F7482B4083EE89FF89408128
:1013A000C9010B8C02C0880F991F0A94E2F7482BE1
:1013B0004083EE89FF894081C9010C8C02C0880FEF
:1013C000991F0A94E2F7482B4083EE89FF898081B8
:1013D0000D8C02C0220F331F0A94E2F720952823B8
:1013E0002083DF91CF911F910F91FF90EF90DF90BD
:1013F000BF90AF900895DC011C96ED91FC911D9774
:10140000E05CFF4F2191319180819181281B390B44
:101410002F733070C9010895DC011C96ED91FC9189
:101420001D97E05CFF4F20813181E054F040DF01E7
:10143000AE5BBF4F8D919C9111972817390719F416
:101440002FEF3FEF07C08D919C91E80FF91F80812E
:10145000282F30E0C9010895DC011C96ED91FC9124
:101460001D97E05CFF4F20813181E054F040DF01A7
:10147000AE5BBF4F8D919C9111972817390719F4D6
:101480002FEF3FEF10C08D919C911197E80FF91F3E
:1014900020818D919C91119701968F739070119678
:1014A0009C938E9330E0C9010895FC018685978551
:1014B000DC01A05CBF4FFC01EE5BFF4F2D913C9126
:1014C00011978081918128173907C1F70895CF932B
:1014D000DF93EC01EE85FF85E05CFF4F20813181D9
:1014E000E054F0402F5F3F4F2F733070DF01AE5B51
:1014F000BF4F8D919C91119728173907D1F3E05C6C
:10150000FF4F80819181E054F040E80FF91F608324
:10151000EE85FF85E05CFF4F31832083EE89FF89F4
:10152000208181E090E00D8C02C0880F991F0A9401
:10153000E2F7282B208381E090E0DF91CF9108959E
:1015400010925E0310925D0388EE93E0A0E0B0E09D
:1015500080935F0390936003A0936103B093620351
:101560008EE391E090935C0380935B0383ED92E0C4
:10157000909368038093670387E193E090936A03F5
:101580008093690385EC90E090936C0380936B03E8
:1015900084EC90E090936E0380936D0380EC90E078
:1015A0009093700380936F0381EC90E090937203AB
:1015B0008093710386EC90E090937403809373039F
:1015C00084E08093750383E08093760387E08093C3
:1015D000770385E08093780381E080937903089511
:1015E000CF93DF930E94D1070E94EC06C7E2D9E0B7
:1015F0000E9403042097E1F30E942709F9CFCF92BC
:10160000DF92EF92FF920F931F93CF93DF937C01B2
:101610006B018A01C0E0D0E00FC0D6016D916D0171
:10162000D701ED91FC910190F081E02DC701099562
:10163000C80FD91F015010400115110571F7CE01D7
:10164000DF91CF911F910F91FF90EF90DF90CF909E
:101650000895EF92FF920F931F93CF93DF937C0136
:101660008B01C0E0D0E0F8010F5F1F4F649166234B
:1016700059F0D701ED91FC910190F081E02DC70167
:101680000995C80FD91FEFCFCE01DF91CF911F91E0
:101690000F91FF90EF900895DC01ED91FC91019086
:1016A000F081E02D09950895EF92FF920F931F931B
:1016B0008C01DC01ED91FC910190F081E02D6DE059
:1016C00009957C01D801ED91FC910190F081E02D0C
:1016D000C8016AE009959C012E0D3F1DC9011F91AB
:1016E0000F91FF90EF900895EF92FF920F931F9349
:1016F0007C010E94290B8C01C7010E94540B9C01A4
:10170000200F311FC9011F910F91FF90EF90089595
:10171000EF92FF920F931F937C01DC01ED91FC91FE
:101720000190F081E02D09958C01C7010E94540BB6
:10173000080F191FC8011F910F91FF90EF90089596
:10174000CF93DF93DB010D900020E9F71197A61BE3
:10175000B70BEC01E881F9810280F381E02DAD0146
:101760000995DF91CF9108954F925F927F928F926A
:101770009F92AF92BF92CF92DF92EF92FF920F9320
:101780001F93DF93CF93CDB7DEB7A1970FB6F89431
:10179000DEBF0FBECDBF2C01742ECB01223008F46A
:1017A0002AE019A231E2C32ED12CCC0EDD1E822EEE
:1017B0009924AA24BB24672D752FA50194010E94AA
:1017C000E81079018A01C801B701A50194010E94BE
:1017D000B510472D461B0894C108D1084A3010F4B3
:1017E000405D01C0495CF6014083E114F10401054C
:1017F000110521F07E2C5F2DC801DDCFC201B6019D
:101800000E94A00BA1960FB6F894DEBF0FBECDBF0D
:10181000CF91DF911F910F91FF90EF90DF90CF90CC
:10182000BF90AF909F908F907F905F904F90089562
:10183000CF92DF92EF92FF920F931F93CF93DF939C
:10184000EC016A017B012115310541F4E881F98140
:101850000190F081E02D642F09951FC02A303105D9
:10186000D1F477FF17C0E881F9810190F081E02D74
:101870006DE209958C0144275527BA014C195D0981
:101880006E097F09CE012AE00E94B40B9801280F4F
:10189000391F04C02AE00E94B40B9C01C901DF91EA
:1018A000CF911F910F91FF90EF90DF90CF9008950F
:1018B000EF92FF920F931F937B019A010027F7FC91
:1018C0000095102FB801A7010E94180C1F910F91CD
:1018D000FF90EF900895CF92DF92EF92FF920F93D7
:1018E0001F936C017B019A010027F7FC0095102FD4
:1018F000B801A7010E94180C8C01C6010E94540B6C
:10190000080F191FC8011F910F91FF90EF90DF90F2
:10191000CF9008950E94A00B0895EF92FF920F932D
:101920001F937C010E94A00B8C01C7010E94540BE5
:10193000080F191FC8011F910F91FF90EF90089594
:10194000EAE7F0E0908180818F77808383B7817FA1
:10195000846083BFF89483B7816083BF85B7806656
:1019600085BF85B78F79806485BF7894889583B764
:101970008E7F83BF90937A000895782F8CB5816015
:101980008CBD65B121E030E040E050E000903101D5
:1019900004C0220F331F441F551F0A94D2F7522F41
:1019A000822F8095862385B99EBD0DB407FEFDCF9D
:1019B0008EB57EBD0DB407FEFDCF4EB5382F20E0AD
:1019C00085B1582B55B98CB58E7F8CBD50E0422B1C
:1019D000532BCA010895E8980E94BD0CE89A089517
:1019E00080E090E00E94BD0C8091CA03853009F030
:1019F00054C080E090EB0E94BD0C282F8091CC0356
:101A0000882371F49091CB03992351F08091CC03FA
:101A1000E82FF0E0E458FC4F90838F5F8093CC0375
:101A20008091CC03E82FF0E0E458FC4F20838F5FD7
:101A30008093CC0380917A0390917B038227282F97
:101A400022952827022E269526952025022E2695BA
:101A500020252770082E892F269507942795902DED
:101A60008227069427959025822790937B03809365
:101A70007A0380917E032091CC0390E0049630E0BD
:101A8000821793072CF08091CC03873408F46DC043
:101A90008DE092E80E94BD0C08958091CA0387FFF3
:101AA0002EC0E0917E038091CA038F5F8093CA03AA
:101AB0008150ED5FE80FF0E0E458FC4FE081809149
:101AC0007A0390917B038E27282F22952827022EB8
:101AD000269526952025022E269520252770082E4E
:101AE000892F269507942795902D82270694279570
:101AF0009025822790937B0380937A0330C0809156
:101B0000CA038F5F8093CA038150833019F18430F8
:101B10002CF4882399F0813009F516C0893019F02A
:101B20008A30E1F402C0EDE21AC0E091CB0390915B
:101B30007E038EEF891B8093CA0311C080917A03C4
:101B400090917B03E82F0BC080917A0390917B03E7
:101B5000E92F05C08DE092E80E94BD0CEAEA8E2FC5
:101B600090E0805098440E94BD0C08958091CA0373
:101B7000853009F042C080917E032091CC0390E033
:101B8000049630E08217930724F08091CC038734C9
:101B9000A0F184E08093CA0380917E03833430F007
:101BA00081E090E090937B0380937A0380917D03A2
:101BB00086FF12C08091C903282F30E0C9018F71C0
:101BC00090704F9749F080917D0390E08227932792
:101BD0008F719070892B89F480917A0390917B03A7
:101BE000892B09F044C0E091C703F091C8033097F6
:101BF00009F43DC080E0099546C08091CA03843055
:101C000011F080E0089510927E0380917E0380930E
:101C1000CC038FEF9FEF90937B0380937A03209107
:101C2000CB032223D9F08227282F22952827022EA2
:101C3000269526952025022E269520252770082EEC
:101C4000892F269507942795902D8227069427950E
:101C50009025822790937B0380937A0385E080937D
:101C6000CA038DED92E80E94BD0C80E008958FEFCD
:101C70009FEFAFEFBFEF8093C3039093C403A09394
:101C8000C503B093C60381E008958091CA038530EF
:101C900099F48091CC03882379F480E090E00E944D
:101CA000EB0C90FD09C08DE092E80E94EB0C84E003
:101CB0008093CA0381E0089580E00895982F86FDFF
:101CC00005C0907E8091C9038F71980F90937D031A
:101CD000E091C703F091C803309711F081E00995B6
:101CE0008FEF9FEF90937B0380937A0380917A0329
:101CF00090917B032091CB038227282F22952827C0
:101D0000022E269526952025022E26952025277021
:101D1000082E892F269507942795902D82270694C3
:101D200027959025822790937B0380937A0386E002
:101D30008093CA038DE392E80E94BD0C0895282F7A
:101D400016C02223A1F093B7233011F484E005C01C
:101D5000223011F080E001C08CE0917F892B83BF9D
:101D600083B7816083BF889583B78E7F83BF80915F
:101D7000CA03843031F70895882319F48DE092E87E
:101D800002C08DE392E80E94BD0C08951F93182FA6
:101D900090E0956E0E94EB0C85E092E80E94EB0CBF
:101DA000112321F087E092E80E94EB0C84E08093FD
:101DB000CA031F9108951F93182F40937E032FE7A6
:101DC00033E0C90150E00E944502812F0E945E0E5F
:101DD0001F9108950F931F93CF93DF93182FEB015B
:101DE000042F02C00E94B60D0E94450E8823D1F335
:101DF000812FBE01402F0E94DB0EDF91CF911F91FA
:101E00000F91089525B181E090E0A0E0B0E000904E
:101E1000310104C0880F991FAA1FBB1F0A94D2F773
:101E2000282B25B924B1822B84B98AE061E00E9475
:101E30004B088AE061E00E940C088BE061E00E94A0
:101E40000C088CE060E00E940C088DE061E00E94CC
:101E50000C0880E58CBD8DB581608DBD82E060E0B1
:101E60000E940C0882E061E00E944B0808951F93D5
:101E7000162F8093C9034093CB030E94020F80E08A
:101E800090E00E94BD0C85E092E80E94BD0C80E0CD
:101E900098EB02C080E090E00E94BD0C82E00E94BE
:101EA0009F08892BB9F3812F90E074E0880F991F68
:101EB0007A95E1F7876C90680E94BD0C80E496EA01
:101EC0000E94BD0C86E096EC0E94BD0C82EA94E96B
:101ED0000E94BD0C8CEA92EC0E94BD0C1091CB03C9
:101EE000112341F083E89AEC0E94BD0C812F90E011
:101EF0009E6C06C08BE89AEC0E94BD0C8DE29EECB5
:101F00000E94BD0C83E894EC0E94BD0C80E598E92A
:101F10000E94BD0C87E79CEC0E94BD0C80E090EE17
:101F20000E94BD0C80E098EC0E94BD0C89E490EC0E
:101F30000E94BD0C84E08093CA038091C90390E0A5
:101F40008F719070892B41F080E060EF7CE040E081
:101F500050E00E94251003C080E00E94481080914C
:101F6000C9031F910895EF92FF920F931F93CF9390
:101F7000DF93E82E4FEF5FEF20E230E0F999FECFDC
:101F800032BD21BDF89A80B54827842F82958427D9
:101F9000082E869586958025082E86958025877043
:101FA000042E452F869507948795502D4827069433
:101FB0008795502548272F5F3F4F2034310509F082
:101FC000DDCF452B11F080E032C000E0FF2410E0AF
:101FD000C0E2D0E0F999FECFD2BDC1BDF89A60B59C
:101FE000112311F4062F0CC0113011F4F62E08C085
:101FF000662351F0EE2021F08BE593E00E944C0B1C
:102000001F5F21961E3131F7EE2021F08BE593E022
:102010000E94540B602F70E0E6E075956795EA9595
:10202000E1F7802F4F2D0E94370F802F8F71DF91A6
:10203000CF911F910F91FF90EF900895FC01858142
:1020400084831582108217820895823000F5E82F6C
:10205000F0E0EE0FFF1FE353FC4F71836083882392
:1020600019F08130A1F408C0809169008C7F842B25
:1020700080936900E89A089580916900440F551F84
:10208000440F551F837F842B80936900E99A08953C
:10209000823080F4882319F0813021F402C0E8985E
:1020A00001C0E998E82FF0E0EE0FFF1FE353FC4F6B
:1020B0001182108208951F920F920FB60F92112471
:1020C0002F933F934F935F936F937F938F939F9340
:1020D000AF93BF93EF93FF938091CD039091CE0385
:1020E000892B29F0E091CD03F091CE030995FF9162
:1020F000EF91BF91AF919F918F917F916F915F9180
:102100004F913F912F910F900FBE0F901F901895F8
:102110001F920F920FB60F9211242F933F934F935C
:102120005F936F937F938F939F93AF93BF93EF933F
:10213000FF938091CF039091D003892B29F0E091F8
:10214000CF03F091D0030995FF91EF91BF91AF912B
:102150009F918F917F916F915F914F913F912F91BF
:102160000F900FBE0F901F901895629FD001739F24
:10217000F001829FE00DF11D649FE00DF11D929F23
:10218000F00D839FF00D749FF00D659FF00D992762
:10219000729FB00DE11DF91F639FB00DE11DF91F86
:1021A000BD01CF0111240895AA1BBB1B51E107C03B
:1021B000AA1FBB1FA617B70710F0A61BB70B881FD7
:1021C000991F5A95A9F780959095BC01CD01089566
:1021D000A1E21A2EAA1BBB1BFD010DC0AA1FBB1F2B
:1021E000EE1FFF1FA217B307E407F50720F0A21B9D
:1021F000B30BE40BF50B661F771F881F991F1A940A
:1022000069F760957095809590959B01AC01BD0133
:10221000CF010895EE0FFF1F0590F491E02D099472
:04222000F894FFCF60
:10222400200020690020670020402000204D487ACB
:102234002000636F6E66696720736176652066614E
:10224400696C6564003E200074657374200020622C
:1022540000023B01B1016403930300000000670A1C
:0A226400FF0AFB092C0A0C0A550AB8
:00000001FF
