:100000000C9445010C946D010C946D010C946D01E0
:100010000C946D010C946D010C946D010C946D01A8
:100020000C946D010C946D010C946D010C946D0198
:100030000C946D010C946D010C946D010C946D0188
:100040000C9446020C946D010C942E030C947C03CA
:100050000C946D010C946D010C946D010C946D0168
:100060000C946D010C946D010A0B0C0D0E0F111206
:1000700013141516000102030405CF01D501DB019D
:10008000E301EC01F601FF0106020E0215021C025B
:100090002302504120506F77657209203D2025537F
:1000A0000D0A00435243204C656E67746809203D79
:1000B0002025530D0A004D6F64656C0909203D2011
:1000C00025530D0A00446174612052617465092052
:1000D0003D2025530D0A0044594E50442F464541BA
:1000E0005455524500434F4E4649470052465F53D0
:1000F000455455500052465F434800454E5F5258A4
:100100004144445200454E5F41410052585F5057B0
:100110005F50302D360054585F41444452005258CD
:100120005F414444525F50322D350052585F414484
:1001300044525F50302D31000D0A002530327800D6
:10014000203078002553092563203D000D0A00204A
:10015000307825303278002553092563203D004F43
:100160004253455256455F54583D253032783A2027
:10017000504F4C535F434E543D2578204152435FCE
:10018000434E543D25780D0A0053544154555309AC
:1001900009203D203078253032782052585F445273
:1001A0003D25782054585F44533D2578204D4158D3
:1001B0005F52543D25782052585F505F4E4F3D2589
:1001C000782054585F46554C4C3D25780D0A003137
:1001D0004D42505300324D425053003235304B4265
:1001E0005053006E524632344C3031006E5246321B
:1001F000344C30312B0044697361626C65640038A3
:100200002062697473003136206269747300504152
:100210005F4D494E0050415F4C4F57004C415F4D80
:1002200045440050415F4849474800000000002411
:100230000027002A0000000000250028002B0000F5
:100240000000002300260029000404040404040420
:100250000402020202020203030303030301020475
:100260000810204080010204081020010204081038
:100270002000000007000201000003040600000047
:100280000000000000006F01E80411241FBECFEF42
:10029000D8E0DEBFCDBF11E0A0E0B1E0E2E0F1E2E6
:1002A00002C005900D92A835B107D9F712E0A8E574
:1002B000B1E001C01D92A132B107E1F712E0CAE836
:1002C000D2E004C02297FE010E94830DC638D107F8
:1002D000C9F70E943E050C947F100C94000088E53D
:1002E00091E069E048E00E94CE050895AF92BF9288
:1002F000CF92DF92EF92FF921F93DF93CF9300D0C4
:1003000000D0CDB7DEB788E591E00E94D5078823FD
:1003100009F44BC07E010894E11CF11C90E0A92E69
:1003200091E0B92E83E1C82E81E0D82E88E591E0D6
:10033000B70144E00E947A09182F00D000D000D005
:10034000EDB7FEB7B282A18289819A81AB81BC816F
:1003500083839483A583B6830E94900D8DB79EB747
:1003600006960FB6F8949EBF0FBE8DBF64E170E095
:1003700080E090E00E94C20288E591E00E94A80619
:1003800088E591E0B70144E00E94D90A00D0EDB7BA
:10039000FEB7D282C1820E94900D0F900F9088E527
:1003A00091E00E94C509112309F20F900F900F9060
:1003B0000F90CF91DF911F91FF90EF90DF90CF9042
:1003C000BF90AF90089589EF91E06EE20E9497058B
:1003D0000E94760164EF71E080E090E00E94C2022A
:1003E0000895CF92DF92EF92FF920F931F9348E50B
:1003F000C42E41E0D42EC6010E94610AC6016FE0FE
:100400004FE00E946707C60101EE10EF20EF30EFCA
:1004100040EF50E060E070E00E940F08C60161E02C
:1004200032EDE32E20EFF22E00EF20EF30E040E03F
:1004300050E00E94FB08C6010E94C509C6010E9447
:10044000D30B1F910F91FF90EF90DF90CF90089505
:100450000F931F9309EF11E0C80140E051EE60E0F7
:1004600070E00E94B703C80164E271E00E94CB050E
:10047000C8010E94980462E070E080E090E00E9471
:10048000C2020E94F1011F910F9108951F920F92D5
:100490000FB60F9211242F933F938F939F93AF9397
:1004A000BF9380916C0190916D01A0916E01B0910C
:1004B0006F01309170010196A11DB11D232F2D5F99
:1004C0002D3720F02D570196A11DB11D20937001ED
:1004D00080936C0190936D01A0936E01B0936F01B6
:1004E0008091680190916901A0916A01B0916B01BE
:1004F0000196A11DB11D8093680190936901A0939D
:100500006A01B0936B01BF91AF919F918F913F9121
:100510002F910F900FBE0F901F9018958FB7F894E2
:1005200020916C0130916D0140916E0150916F01ED
:100530008FBFB901CA0108959FB7F894209168014F
:100540003091690140916A0150916B0186B5A89B79
:1005500006C08F3F21F02F5F3F4F4F4F5F4F9FBF30
:10056000542F432F322F2227280F311D411D511D9B
:1005700082E0220F331F441F551F8A95D1F7B9011E
:10058000CA010895EF92FF920F931F93CF93DF93C9
:100590007B018C010E949C02EB010EC00E949C0218
:1005A0006C1B7D0B685E7340C8F30894E108F1088A
:1005B00001091109C851DC4FE114F10401051105CD
:1005C00069F7DF91CF911F910F91FF90EF90089500
:1005D000019739F0880F991F880F991F029701978B
:1005E000F1F70895789484B5826084BD84B5816004
:1005F00084BD85B5826085BD85B5816085BDEEE62B
:10060000F0E0808181608083E1E8F0E01082808109
:1006100082608083808181608083E0E8F0E0808177
:1006200081608083E1EBF0E0808184608083E0EB97
:10063000F0E0808181608083EAE7F0E0808184607F
:1006400080838081826080838081816080838081DB
:10065000806880831092C100089508951F920F92C0
:100660000FB60F9211242F933F934F938F939F9325
:10067000EF93FF938091C00082FD1DC04091C600A2
:100680002091B1013091B2012F5F3F4F2F73307035
:100690008091B3019091B4012817390771F0E0916E
:1006A000B101F091B201EF58FE4F40833093B20197
:1006B0002093B10102C08091C600FF91EF919F91FC
:1006C0008F914F913F912F910F900FBE0F901F90E0
:1006D0001895E0910502F0910602E05CFF4F8191D0
:1006E000919120813181821B930B8F739070892BA4
:1006F00011F00E942D0308951F920F920FB60F92D2
:1007000011242F933F938F939F93EF93FF93209107
:10071000F5013091F6018091F7019091F8012817C9
:10072000390731F48091C1008F7D8093C10014C0DE
:10073000E091F701F091F801EB54FE4F2081809198
:10074000F7019091F80101968F7390709093F801E2
:100750008093F7012093C600FF91EF919F918F91B5
:100760003F912F910F900FBE0F901F901895AF9251
:10077000BF92DF92EF92FF920F931F93CF93DF937D
:10078000EC017A018B01DD24403081EE580780E0D6
:10079000680780E0780711F0DD24D39491E0A92E5A
:1007A000B12CEC89FD89DD2069F0C50108A002C0EB
:1007B000880F991F0A94E2F7808360E079E08DE367
:1007C00090E005C0108260E874E88EE190E0A80136
:1007D00097010E945F0D2150304040405040569597
:1007E00047953795279580E12030380720F0DD20A8
:1007F00011F0DD24D6CFE889F9893083EA89FB89B5
:10080000208319A2EE89FF89408121E030E0C901EF
:100810000C8C02C0880F991F0A94E2F7482B408382
:10082000EE89FF894081C9010D8C02C0880F991F94
:100830000A94E2F7482B4083EE89FF894081C90181
:100840000E8C02C0880F991F0A94E2F7482B408350
:10085000EE89FF8980810F8C02C0220F331F0A941A
:10086000E2F7209528232083DF91CF911F910F91EC
:10087000FF90EF90DF90BF90AF900895DC011C9641
:10088000ED91FC911D97E05CFF4F219131918081AA
:100890009181281B390B2F733070C9010895DC0139
:1008A0001C96ED91FC911D97E05CFF4F20813181FA
:1008B000E054F040DF01AE5BBF4F8D919C911197EA
:1008C0002817390719F42FEF3FEF07C08D919C913E
:1008D000E80FF91F8081282F30E0C9010895DC015D
:1008E0001C96ED91FC911D97E05CFF4F20813181BA
:1008F000E054F040DF01AE5BBF4F8D919C911197AA
:100900002817390719F42FEF3FEF10C08D919C91F4
:100910001197E80FF91F20818D919C9111970196F5
:100920008F73907011969C938E9330E0C901089557
:10093000DC0191968C919197882339F05496ED9132
:10094000FC915597808186FFF9CF91961C9208956E
:10095000CF93DF93EC01EE85FF85E05CFF4F2081B4
:100960003181E054F0402F5F3F4F2F733070DF0133
:10097000AE5BBF4F8D919C91119728173907D1F32A
:10098000E05CFF4F80819181E054F040E80FF91F57
:100990006083EE85FF85E05CFF4F31832083EE8925
:1009A000FF89208181E090E00F8C02C0880F991FA1
:1009B0000A94E2F7282B208381E089A3EC89FD8942
:1009C00080818064808381E090E0DF91CF91089501
:1009D0001092FC011092FB0188EE93E0A0E0B0E0E1
:1009E0008093FD019093FE01A093FF01B09300025C
:1009F0008CE491E09093FA018093F90181E791E012
:100A0000909306028093050285EB91E09093080293
:100A10008093070285EC90E090930A02809309028C
:100A200084EC90E090930C0280930B0280EC90E0B9
:100A300090930E0280930D0281EC90E0909310024F
:100A400080930F0282EC90E0909312028093110247
:100A500086EC90E0909314028093130284E08093DC
:100A6000150283E08093160287E08093170285E0E9
:100A70008093180281E0809319020895CF93DF9349
:100A80000E94F2020E942802C9E6D3E00E94E3011C
:100A90002097E1F30E946903F9CFCF92DF92EF92A2
:100AA000FF920F931F93CF93DF937C016B018A0119
:100AB000C0E0D0E00FC0D6016D916D01D701ED917E
:100AC000FC910190F081E02DC7010995C80FD91F55
:100AD000015010400115110571F7CE01DF91CF9142
:100AE0001F910F91FF90EF90DF90CF900895EF92BC
:100AF000FF920F931F938C01DC01ED91FC9101900B
:100B0000F081E02D6DE009957C01D801ED91FC911B
:100B10000190F081E02DC8016AE009959C012E0D3D
:100B20003F1DC9011F910F91FF90EF900895EF9223
:100B3000FF920F931F937C01DC01ED91FC910190DA
:100B4000F081E02D09958C01C7010E947705080FFF
:100B5000191FC8011F910F91FF90EF900895CF9337
:100B6000DF93EC016115710519F420E030E00FC04E
:100B7000DB010D900020E9F71197A61BB70BE88168
:100B8000F9810280F381E02DAD0109959C01C90135
:100B9000DF91CF9108950E94AF050895FC01608315
:100BA000418381E08283138280E2848315821682EE
:100BB0001086118612861386148615861686178669
:100BC000089570E08DB79EB70E970FB6F8949EBF4C
:100BD0000FBE8DBFEDB7FEB7319689E891E0ADB796
:100BE000BEB712969C938E93119773836283CB0149
:100BF00056E0969587955A95E1F7817090709583A8
:100C00008483CB0145E0969587954A95E1F78170FD
:100C1000907097838683CB0134E0969587953A95BB
:100C2000E1F78170907091878087CB0195958795CA
:100C30008770907093878287617070707587648702
:100C40000E94A50D8DB79EB70E960FB6F8949EBF65
:100C50000FBE8DBF0895FF920F931F938C01F62E48
:100C600081E00E94290D80E00E94320D80E00E9408
:100C7000370DF80181816F2D0E94F60C1F910F91A5
:100C8000FF9008951F93CF93DF93EC0160E070E035
:100C90000E942B0680E68EBD0DB407FEFDCF8EB5FB
:100CA0008FEF8EBD0DB407FEFDCF1EB5CE0161E006
:100CB00070E00E942B06812FDF91CF911F91089544
:100CC0001F93CF93DF93EC0160E070E00E942B064E
:100CD0008FEF8EBD0DB407FEFDCF1EB5CE0161E0D6
:100CE00070E00E942B06812FDF91CF911F91089514
:100CF0001F93CF93DF93EC0160E070E00E942B061E
:100D000081EE8EBD0DB407FEFDCF1EB5CE0161E0B4
:100D100070E00E942B06812FDF91CF911F910895E3
:100D20001F93CF93DF93EC0160E070E00E942B06ED
:100D300082EE8EBD0DB407FEFDCF1EB5CE0161E083
:100D400070E00E942B06812FDF91CF911F910895B3
:100D50000F931F938C01FC01808160E00E94F60CD0
:100D6000C8010E947806C8010E9490061F910F9149
:100D70000895EF92FF920F931F93CF93DF93EC01AF
:100D8000F62EE72E9C81142F941708F4192F8E81CC
:100D9000882311F000E002C0092F011BCE0160E0A2
:100DA00070E00E942B0681E68EBD0DB407FEFDCFDC
:100DB0008F2D9E2D9C01F901FEB49FEF07C09EBDB3
:100DC0000DB407FEFDCF8EB5819311501123B9F7F5
:100DD00007C08EBD0DB407FEFDCF9EB5015001C00A
:100DE0008FEF0023B1F7CE0161E070E00E942B0687
:100DF0008F2DDF91CF911F910F91FF90EF9008956C
:100E0000EF92FF920F931F93CF93DF93EC01F62E97
:100E1000E72E9C81142F941708F4192F8E818823B4
:100E200011F000E002C0092F011BCE0160E070E06C
:100E30000E942B0680EA8EBD0DB407FEFDCF8F2DDC
:100E40009E2D9C01F901FEB408C080818EBD0DB4B9
:100E500007FEFDCF31968EB511501123B1F706C0B4
:100E60001EBC0DB407FEFDCF8EB501500023C1F7A7
:100E7000CE0161E070E00E942B068F2DDF91CF91B3
:100E80001F910F91FF90EF9008950F931F93CF93B1
:100E9000DF93EC01162F042F60E070E00E942B0618
:100EA0001F7110621EBD0DB407FEFDCF1EB50EBD35
:100EB0000DB407FEFDCF8EB5CE0161E070E00E945B
:100EC0002B06812FDF91CF911F910F910895262F2F
:100ED0004F702295207F242B64E0422F0E9445070B
:100EE0000895CF92DF92EF92FF920F931F938B01A1
:100EF0007A01690167E040E70E94450790E09C01A4
:100F0000E5E036952795EA95E1F72170F801208311
:100F100074E0969587957A95E1F7282F2170F7016F
:100F2000208396958795969587958170F6018083A5
:100F30001F910F91FF90EF90DF90CF900895DF9277
:100F4000EF92FF920F931F93CF93DF938C017B015E
:100F50000E946006C82FD0E0CE01A6E09695879546
:100F6000AA95E1F7DD24D394D82280FF15C0E114BF
:100F7000F10431F0CE01959587958770F701808354
:100F8000C80167E040E40E944507C5FF05C0C801ED
:100F900067E040E20E9445078D2DDF91CF911F91C0
:100FA0000F91FF90EF90DF90089560E070E00E9455
:100FB0009F070895462F603808F04FE765E00E94CC
:100FC00045070895EF92FF920F931F93CF93DF93FE
:100FD0007C01162FEA01022F60E070E00E942B06D0
:100FE0001F7110621EBD0DB407FEFDCF1EB508C0F7
:100FF00088818EBD0DB407FEFDCF21968EB50150C0
:101000000023B1F7C70161E070E00E942B06812F39
:10101000DF91CF911F910F91FF90EF900895EF9284
:10102000FF920F931F93DF93CF93CDB7DEB728972F
:101030000FB6F894DEBF0FBECDBF7C0109831A83C3
:101040002B833C834D835E836F8378878E010F5F94
:101050001F4F6AE0A80125E00E94E207C70160E196
:10106000A80125E00E94E207F7014481413208F01F
:1010700040E2C70161E10E94450728960FB6F89447
:10108000DEBF0FBECDBFCF91DF911F910F91FF90BB
:10109000EF9008951F93CF93DF93EC01162F60E03C
:1010A00070E00E942B061F711EBD0DB407FEFDCF20
:1010B0008EB58FEF8EBD0DB407FEFDCF1EB5CE01F0
:1010C00061E070E00E942B06812FDF91CF911F918C
:1010D000089560E00E944A088C7083FD02C080E0A1
:1010E000089582FD02C081E0089582E008951F9373
:1010F000CF93DF93EC01162F60E00E944A08482F3F
:10110000437F112329F0113011F4486001C04C6075
:10111000CE0160E00E944507DF91CF911F910895B5
:1011200066E00E944A08982F9872903211F482E08B
:10113000089580E0983009F481E008950F931F939B
:10114000CF93DF93EC01162F66E00E944A081A82C3
:10115000082F077D123011F4006206C0113019F417
:101160001A83086001C01A82CE0166E0402F0E94F7
:101170004507CE0166E00E944A08801711F481E01D
:1011800002C01A8280E0DF91CF911F910F910895E4
:1011900066E00E944A088670863011F493E008C029
:1011A000843011F492E004C090E0823009F491E0C0
:1011B000892F08951F93CF93DF93EC01162F66E0DC
:1011C0000E944A08482F497F133061F0123011F411
:1011D000446009C0113011F4426005C0112319F0B8
:1011E000143009F44660CE0166E00E944507DF91A5
:1011F000CF911F910895BF92CF92DF92EF92FF920D
:101200000F931F93DF93CF93CDB7DEB728970FB619
:10121000F894DEBF0FBECDBF6C01B62EE982FA8214
:101220000B831C832D833E834F835887662389F469
:10123000F601E0868A8181878B8182878C81838712
:101240008D8184878E8185878F8186878885878732
:1012500007C0F6E0F61708F43DC081E0681761F4B6
:10126000EB2DF0E0E859FF4FE491C6016E2FAE017F
:101270004F5F5F4F25E00BC0E62FF0E0E859FF4FCE
:10128000E491C6016E2FAE014F5F5F4F21E00E94D7
:10129000E2070B2D10E0F801E259FF4FE491C6017F
:1012A0006E2FF60144810E944507C60162E00E944C
:1012B0004A080C581F4FF801649121E030E002C049
:1012C000220F331F6A95E2F7482F422BC60162E0D6
:1012D0000E94450728960FB6F894DEBF0FBECDBF1B
:1012E000CF91DF911F910F91FF90EF90DF90CF9002
:1012F000BF9008950F931F938C010E94B906C801F7
:1013000067E10E944A0881701F910F910895DF9252
:10131000EF92FF920F931F938C017B01D42E60E01C
:101320000E944A08482F4C7F4260C80160E00E943A
:10133000450786E990E00E94E802C801B7014D2DFB
:101340000E940007F801808161E00E94F60C8FE0A6
:1013500090E00E94E802F801808160E00E94F60CB3
:101360001F910F91FF90EF90DF9008950F931F93BF
:101370008C0160E00E944A08482F4D7FC80160E060
:101380000E9445071F910F910895CF93DF93EC01C1
:1013900060E00E944A08482F4360CE0160E00E944E
:1013A0004507CE0167E040E70E944507888599859B
:1013B000892B9A85892B9B85892B9C85892B9D85DB
:1013C000892B9E85892B9F85892B41F0AE01485F33
:1013D0005F4FCE016AE025E00E94E207CE010E9445
:1013E0009006CE010E947806888161E00E94F60C8A
:1013F00082E890E00E94E802DF91CF910895CF92B9
:10140000DF92FF920F931F93CF93DF936C01EB0159
:10141000042FF22ECB010E94870D089710F020E0D8
:1014200001C029E000D000D000D0EDB7FEB7319662
:1014300087E591E0ADB7BEB712969C938E93119756
:10144000D383C283248315820E94A50DEDB7FEB716
:1014500036960FB6F894FEBF0FBEEDBFCFE4D1E0D5
:101460001BC0102F1F5FC601602F0E944A0800D0CA
:1014700000D0EDB7FEB73196ADB7BEB71296DC938C
:10148000CE931197828313820E94A50DFA94012FA7
:101490000F900F900F900F90FF2019F700D08CE461
:1014A00091E0EDB7FEB7928381830E94A50D0F9066
:1014B0000F90DF91CF911F910F91FF90DF90CF9010
:1014C0000895CF93DF93EC01888161E00E948A0C3C
:1014D000898161E00E948A0C0E94480D888160E049
:1014E0000E94F60CCE0161E070E00E942B0665E0E0
:1014F00070E080E090E00E94C202CE0164E04FE420
:101500000E944507CE0163E00E94DA08CE0162E046
:101510000E949E08882311F081E08B83CE0160E059
:101520000E949E08CE0162E00E947708CE016CE125
:1015300040E00E944507CE0167E040E70E94450772
:10154000CE016CE40E94DA07CE010E949006CE0123
:101550000E947806DF91CF910895EF92FF920F934A
:101560001F93CF93DF937C01162FEA01022F60E0D7
:1015700070E00E942B061F711EBD0DB407FEFDCF4B
:101580001EB59FEF07C09EBD0DB407FEFDCF8EB503
:10159000899301500023B9F7C70161E070E00E9410
:1015A0002B06812FDF91CF911F910F91FF90EF902C
:1015B0000895AF92BF92CF92DF92EF92FF920F9376
:1015C0001F93DF93CF9300D00F92CDB7DEB78C017E
:1015D0000E9487090E948E026B017C015E010894C3
:1015E000A11CB11CC80168E0A50121E00E94AD0A60
:1015F000807331F50E948E026C197D098E099F0956
:10160000645F714080409040D8F4ECCFC8010E94E4
:101610004206F8018783C8010E94B609C8010E94EA
:1016200078068F2D0F900F900F90CF91DF911F9123
:101630000F91FF90EF90DF90CF90BF90AF90089503
:1016400098012B5F3F4FC801BE016E5F7F4FAE0117
:101650004D5F5F4F0E947107FA80F80185818823F2
:10166000D1F2D4CF4F925F926F927F928F929F92DE
:10167000AF92BF92CF92DF92EF92FF920F931F93A0
:10168000DF93CF9300D000D00F92CDB7DEB76C01BF
:101690008B01E42EF22ECB010E94870D089710F0EB
:1016A00020E001C029E000D000D000D0EDB7FEB7A7
:1016B000319684E491E0ADB7BEB712969C938E93B9
:1016C000119713830283248315820E94A50DEDB721
:1016D000FEB736960FB6F894FEBF0FBEEDBF2E01D3
:1016E0000894411C511C00E4602E01E0702E16E0AD
:1016F000812E912C8C0E9D1EBBE3AB2EB1E0BB2E38
:101700002FC0C6016E2DA20125E00E94AD0A00D0B7
:10171000ADB7BEB712967C926E9211970E94A50D3E
:1017200084010F900F9015C000D000D0EDB7FEB728
:101730003196ADB7BEB71296BC92AE921197D80152
:101740008C91828313820E94A50D0F900F900F90B1
:101750000F90015010400C171D0731F7E394FA94D5
:10176000FF2079F600D088E391E0EDB7FEB79283D1
:1017700081830E94A50D0F900F900F900F900F90F6
:101780000F900F90CF91DF911F910F91FF90EF90ED
:10179000DF90CF90BF90AF909F908F907F906F9091
:1017A0005F904F9008950F931F938C010E946006E5
:1017B000682FC8010E94E105C8016BE271E04AE0B0
:1017C00022E00E94320BC8016EE171E04CE024E09F
:1017D0000E94FF09C80166E171E040E121E00E943A
:1017E000320BC8016BE071E041E126E00E94FF0985
:1017F000C80165E071E041E021E00E94FF09C801F5
:101800006BEF70E042E021E00E94FF09C80165EF44
:1018100070E045E021E00E94FF09C8016CEE70E035
:1018200046E021E00E94FF09C80165EE70E040E05B
:1018300021E00E94FF09C80167ED70E04CE122E061
:101840000E94FF09C8010E949008E82FF0E0EE0F07
:10185000FF1FE658FF4F2591349100D000D085EC52
:1018600090E0EDB7FEB792838183348323830E9497
:10187000A50DF8018381E82FF0E0EE0FFF1FE0587F
:10188000FF4F2591349186EB90E0EDB7FEB7928340
:101890008183348323830E94A50D0F900F900F90B6
:1018A0000F90C8010E946908E82FF0E0EE0FFF1FBB
:1018B000EC57FF4F2591349100D000D083EA90E09F
:1018C000EDB7FEB792838183348323830E94A50DF5
:1018D0000F900F900F900F90C8010E94C808E82F3A
:1018E000F0E0EE0FFF1FE657FF4F2591349100D037
:1018F00000D082E990E0EDB7FEB792838183348314
:1019000023830E94A50D0F900F900F900F901F91B1
:101910000F910895CF93DF93482F50E0CA01835A67
:101920009D4FFC013491475B5D4FFA018491882300
:1019300069F190E0880F991FFC01E55DFD4FA591CD
:10194000B491FC01EB5CFD4FC591D491662351F439
:101950002FB7F8948C91932F909589238C9388813D
:1019600089230BC0623061F42FB7F8948C91932FC8
:10197000909589238C938881832B88832FBF06C001
:101980009FB7F8948C91832B8C939FBFDF91CF915D
:101990000895833071F0843028F48130A1F08230D2
:1019A00021F514C08630B1F08730D1F08430E9F4ED
:1019B00004C0809180008F7703C0809180008F7D6C
:1019C00080938000089584B58F7702C084B58F7DA1
:1019D00084BD08958091B0008F778093B000089502
:1019E0008091B0008F7D8093B0000895FF920F9397
:1019F0001F93F62E482F50E0CA018F589D4FFC01CF
:101A00002491CA01835A9D4FFC011491475B5D4F9D
:101A1000FA0104910023C9F0222319F0822F0E94B9
:101A2000C90CE02FF0E0EE0FFF1FEB5CFD4FA5911E
:101A3000B4919FB7F894FF2021F48C9110958123E5
:101A400002C08C91812B8C939FBF1F910F91FF90AF
:101A50000895882319F48CB5806202C08CB58F7DFF
:101A60008CBD08959CB5937F982B9CBD08952CB593
:101A7000382F33702C7F322B3CBD2DB590E09595DF
:101A800087959595879581702E7F822B8DBD0895C2
:101A90008AE061E00E94F60C8AE061E00E948A0C14
:101AA0008CB580618CBD8CB580648CBD8DE061E0AF
:101AB0000E948A0C8BE061E00E948A0C0895A1E2EA
:101AC0001A2EAA1BBB1BFD010DC0AA1FBB1FEE1FB8
:101AD000FF1FA217B307E407F50720F0A21BB30B03
:101AE000E40BF50B661F771F881F991F1A9469F77F
:101AF00060957095809590959B01AC01BD01CF01DB
:101B00000895EE0FFF1F0590F491E02D0994FC015C
:101B100005900020E9F7809590958E0F9F1F0895FE
:101B2000A0E0B0E0E6E9FDE00C945810FE01359627
:101B30006191719180911D0290911E02AF010E94EE
:101B4000CB0D2096E2E00C947410A0E0B0E0EBEA3C
:101B5000FDE00C945810FE01359661917191A091B1
:101B60001D02B0911E0213968C91139788601396F4
:101B70008C9380911D0290911E02AF010E94CB0DAB
:101B8000E0911D02F0911E022381277F238320967E
:101B9000E2E00C947410ABE0B0E0E1EDFDE00C94F9
:101BA00048103C012B015A01FC01178216828381E7
:101BB00081FD03C06FEF7FEFC6C19AE0892E1E0141
:101BC0000894211C311CF3012381F20123FD85912E
:101BD00023FF81912F01882309F4B2C1853239F4A2
:101BE00023FD859123FF81912F01853229F490E017
:101BF000B3010E94BE0FE7CF982FFF24EE24992453
:101C0000FFE1FF15D0F09B3269F09C3228F490324E
:101C100059F0933291F40EC09D3249F0903369F43B
:101C200041E024C052E0F52A84E0F82A28C098E078
:101C3000F92A25C0E0E1FE2A22C0F7FC29C0892F3D
:101C400080538A3070F4F6FE05C0989C902C1124C5
:101C5000980E15C0E89CE02C1124E80EF0E2FF2A53
:101C60000EC09E3229F4F6FC6BC140E4F42A07C092
:101C70009C3619F450E8F52A02C0983649F4F2016E
:101C800023FD959123FF91912F01992309F0B8CF5E
:101C9000892F8554833018F08052833038F444E023
:101CA00050E0A40EB51E5FE359830FC0933631F0A8
:101CB000933779F0933509F056C020C0F501808143
:101CC000898342E050E0A40EB51E610101E010E0FE
:101CD00012C0F501C080D180F6FC03C06FEF7FEF2A
:101CE00002C0692D70E042E050E0A40EB51EC601AE
:101CF0000E94B30F8C015FE7F52214C0F501C0808C
:101D0000D180F6FC03C06FEF7FEF02C0692D70E059
:101D100042E050E0A40EB51EC6010E94A80F8C013F
:101D200050E8F52AF3FE07C01AC080E290E0B30144
:101D30000E94BE0FEA948E2D90E008171907A8F3B1
:101D40000EC0F601F7FC8591F7FE81916F0190E0DE
:101D5000B3010E94BE0FE110EA940150104001153A
:101D6000110579F7EAC0943611F0993669F5F7FE56
:101D700008C0F501208131814281538184E090E0E7
:101D80000AC0F501808191819C01442737FD40956F
:101D9000542F82E090E0A80EB91E9FE6F92257FF6B
:101DA00009C050954095309521953F4F4F4F5F4F5B
:101DB000E0E8FE2ACA01B901A1012AE030E00E9450
:101DC000EA0FD82ED21840C0953729F41F2D1F7E58
:101DD0002AE030E01DC01F2D197F9F3661F090373B
:101DE00020F4983509F0ACC00FC0903739F098371F
:101DF00009F0A6C004C028E030E00AC0106114FD5C
:101E0000146020E130E004C014FD166020E132E0EF
:101E100017FF08C0F501608171818281938144E0E0
:101E200050E008C0F50180819181BC0180E090E024
:101E300042E050E0A40EB51EA1010E94EA0FD82E88
:101E4000D2188FE7F82EF122F6FE0BC05EEFF522D6
:101E5000D91438F4F4FE07C0F2FC05C08FEEF82266
:101E600002C01D2D01C0192DF4FE0DC0FE01ED0DA7
:101E7000F11D8081803319F499EEF92208C01F5FAB
:101E8000F2FE05C003C08F2D867809F01F5F0F2D6D
:101E9000F3FC14C0F0FE0FC01E1510F09D2C0BC0FB
:101EA0009D2C9E0C911A1E2D06C080E290E0B3017D
:101EB0000E94BE0F1F5F1E15C0F304C01E1510F454
:101EC000E11A01C0EE2404FF0FC080E390E0B301EB
:101ED0000E94BE0F02FF1DC001FD03C088E790E015
:101EE0000EC088E590E00BC0802F867891F001FF4E
:101EF00002C08BE201C080E2F7FC8DE290E0B3010A
:101F00000E94BE0F06C080E390E0B3010E94BE0FA6
:101F10009A94D914C0F3DA94F101ED0DF11D80818A
:101F200090E0B3010E94BE0FDD20A9F706C080E259
:101F300090E0B3010E94BE0FEA94EE20C1F743CEB9
:101F4000F30166817781CB012B96E2E10C9464105A
:101F5000FC010590615070400110D8F78095909574
:101F60008E0F9F1F0895FC01615070400190011079
:101F7000D8F7809590958E0F9F1F08950F931F930C
:101F8000CF93DF938C01EB018B8181FF1BC082FF1C
:101F90000DC02E813F818C819D812817390764F403
:101FA000E881F9810193F983E88306C0E885F98522
:101FB000802F0995892B31F48E819F8101969F8313
:101FC0008E8302C00FEF1FEFC801DF91CF911F91E9
:101FD0000F910895FA01AA27283051F1203181F19B
:101FE000E8946F936E7F6E5F7F4F8F4F9F4FAF4F21
:101FF000B1E03ED0B4E03CD0670F781F891F9A1F34
:10200000A11D680F791F8A1F911DA11D6A0F711DE7
:10201000811D911DA11D20D009F468943F912AE0F3
:10202000269F11243019305D3193DEF6CF010895DB
:10203000462F4770405D4193B3E00FD0C9F7F6CF0C
:10204000462F4F70405D4A3318F0495D31FD4052D4
:10205000419302D0A9F7EACFB4E0A695979587956A
:1020600077956795BA95C9F7009761057105089549
:102070009B01AC010A2E06945795479537952795F5
:10208000BA95C9F7620F731F841F951FA01D08958D
:102090002F923F924F925F926F927F928F929F9278
:1020A000AF92BF92CF92DF92EF92FF920F931F9366
:1020B000CF93DF93CDB7DEB7CA1BDB0B0FB6F89417
:1020C000DEBF0FBECDBF09942A88398848885F8457
:1020D0006E847D848C849B84AA84B984C884DF80C8
:1020E000EE80FD800C811B81AA81B981CE0FD11DAC
:1020F0000FB6F894DEBF0FBECDBFED010895F89482
:02210000FFCF0F
:10210200476F74207061796C6F616420256C752E45
:102112002E2E0053656E7420726573706F6E736538
:102122002E0A0D000A524632344C6F676765720000
:10213200696E76616C6964005265706F7274657263
:10214200004C6F676765720000000000A8044D052F
:082152003E046F044F049804E1
:00000001FF
