:100000000C9464000C948C000C948C000C948C0068
:100010000C948C000C948C000C948C000C948C0030
:100020000C948C000C948C000C948C000C948C0020
:100030000C948C000C948C000C948C000C948C0010
:100040000C9465010C948C000C944C020C949E0250
:100050000C948C000C948C000C948C000C948C00F0
:100060000C94040A0C948C0000000000240027006B
:100070002A0000000000250028002B0000000000DE
:1000800023002600290004040404040404040202DA
:100090000202020203030303030301020408102007
:1000A0004080010204081020010204081020000012
:1000B0000007000201000003040600000000000029
:1000C00000008F000D04A00811241FBECFEFD8E060
:1000D000DEBFCDBF11E0A0E0B1E0EEEEF8E102C07E
:1000E00005900D92AE3CB107D9F713E0AEECB1E04C
:1000F00001C01D92A935B107E1F710E0C8ECD0E0CE
:1001000004C02297FE010E94710CC23CD107C9F7BE
:100110000E94B8050C94750C0C94000008958F9201
:10012000AF92CF92EF920F938EEC91E060E244E0B9
:1001300025E006E0EE24CC24C39452E0A52E33E063
:10014000832E0E949E070F91EF90CF90AF908F90DB
:1001500008950F931F9300E08EEC91E00E945F06DC
:100160008EEC91E060E071E00E94A1058EEC91E0E0
:10017000602F40E150E00E943C058EEC91E069E088
:1001800071E00E94A105602F70E0605F7F4F8EECF0
:1001900091E040E150E00E948E058EEC91E060E03D
:1001A00041E00E94FD0510E0612F600F8EEC91E0B0
:1001B0000E941C061F5F1031B9F7005F60EA7FE004
:1001C00080E090E00E94AD01C7CF0F931F930EEC2B
:1001D00011E0C80160E142E020E00E948707C80109
:1001E00067E041E00E947907C80161E00E943F0793
:1001F000C80160E045E451E00E942706C80161E0C3
:100200004DE451E00E942706C80162E045E551E057
:100210000E942706C80163E04DE551E00E942706D1
:10022000C80164E045E651E00E942706C80165E088
:100230004DE651E00E942706C80166E045E751E01F
:100240000E942706C80167E04DE751E00E9427069B
:10025000C8010E9457061F910F9108950F931F9395
:1002600007E712E0C80140E051EE60E070E00E9454
:10027000D902C8016DE071E00E94A4050E94E5006A
:100280000EEC11E0C80167E271E00E94A105C8010F
:1002900060E041E00E94FD05C80166E371E00E9454
:1002A000A105C80163E00E941C06C8016AE371E071
:1002B0000E94A10568E873E180E090E00E94AD0132
:1002C0000E94A9001F910F9108951F920F920FB6DF
:1002D0000F9211242F933F938F939F93AF93BF93CC
:1002E0008091EA019091EB01A091EC01B091ED01B8
:1002F0003091EE010196A11DB11D232F2D5F2D37E9
:1003000020F02D570196A11DB11D2093EE01809381
:10031000EA019093EB01A093EC01B093ED01809181
:10032000E6019091E701A091E801B091E901019601
:10033000A11DB11D8093E6019093E701A093E80110
:10034000B093E901BF91AF919F918F913F912F9110
:100350000F900FBE0F901F9018959B01AC017FB7B7
:10036000F8948091E6019091E701A091E801B091A5
:10037000E90166B5A89B05C06F3F19F00196A11D64
:10038000B11D7FBFBA2FA92F982F8827860F911DE7
:10039000A11DB11D62E0880F991FAA1FBB1F6A959E
:1003A000D1F7BC012DC0FFB7F8948091E601909180
:1003B000E701A091E801B091E901E6B5A89B05C06D
:1003C000EF3F19F00196A11DB11DFFBFBA2FA92F54
:1003D000982F88278E0F911DA11DB11DE2E0880F77
:1003E000991FAA1FBB1FEA95D1F7861B970B885E42
:1003F0009340C8F2215030404040504068517C4FFB
:10040000211531054105510571F60895019739F01F
:10041000880F991F880F991F02970197F1F7089588
:10042000789484B5826084BD84B5816084BD85B5CF
:10043000826085BD85B5816085BDEEE6F0E0808196
:1004400081608083E1E8F0E01082808182608083B7
:10045000808181608083E0E8F0E08081816080833A
:10046000E1EBF0E0808184608083E0EBF0E080816C
:1004700081608083EAE7F0E080818460808380810E
:1004800082608083808181608083808180688083B6
:100490001092C100089508951F920F920FB60F9207
:1004A00011242F933F934F938F939F93EF93FF9339
:1004B0008091C00082FD1DC04091C60020912F0296
:1004C000309130022F5F3F4F2F7330708091310297
:1004D000909132022817390771F0E0912F02F091C4
:1004E0003002E151FE4F40833093300220932F02BF
:1004F00002C08091C600FF91EF919F918F914F9123
:100500003F912F910F900FBE0F901F901895E09183
:100510008302F0918402E05CFF4F819191912081F0
:100520003181805C9F4F821B930B60E470E00E94DE
:10053000260C892B11F00E944B0208951F920F92F6
:100540000FB60F9211242F933F938F939F93EF93A6
:10055000FF93209173023091740280917502909103
:1005600076022817390731F48091C1008F7D80937E
:10057000C10014C0E0917502F0917602ED5CFD4F70
:100580002081809175029091760201968F73907010
:1005900090937602809375022093C600FF91EF91AD
:1005A0009F918F913F912F910F900FBE0F901F90B1
:1005B0001895AF92BF92DF92EF92FF920F931F9325
:1005C000CF93DF93EC017A018B01DD24403081EE83
:1005D000580780E0680780E0780711F0DD24D394A5
:1005E00091E0A92EB12CEC89FD89DD2069F0C501CF
:1005F00008A002C0880F991F0A94E2F7808360E088
:1006000079E08DE390E005C0108260E874E88EE147
:1006100090E0A80197010E94390C215030404040E1
:100620005040569547953795279580E120303807FB
:1006300020F0DD2011F0DD24D6CFE889F989308360
:10064000EA89FB89208319A2EE89FF89408121E094
:1006500030E0C9010C8C02C0880F991F0A94E2F7A0
:10066000482B4083EE89FF894081C9010D8C02C06F
:10067000880F991F0A94E2F7482B4083EE89FF897F
:100680004081C9010E8C02C0880F991F0A94E2F7BD
:10069000482B4083EE89FF8980810F8C02C0220F96
:1006A000331F0A94E2F7209528232083DF91CF910E
:1006B0001F910F91FF90EF90DF90BF90AF90089542
:1006C000DC011C96ED91FC911D97E05CFF4F819140
:1006D000919120813181805C9F4F821B930B60E45C
:1006E00070E00E94260C0895DC011C96ED91FC91AF
:1006F0001D97E05CFF4F20813181E054F040DF0125
:10070000AE5BBF4F8D919C9111972817390719F453
:100710002FEF3FEF07C08D919C91E80FF91F80816B
:10072000282F30E0C9010895DC011C96ED91FC9161
:100730001D97E05CFF4F20813181E054F040DF01E4
:10074000AE5BBF4F8D919C9111972817390719F413
:100750002FEF3FEF10C08D919C911197E80FF91F7B
:1007600020818D919C91119701968F7390701196B5
:100770009C938E9330E0C9010895DC0191968C9191
:100780009197882339F05496ED91FC91559780818B
:1007900086FFF9CF91961C920895CF93DF93EC01D9
:1007A000EE85FF85E05CFF4F20813181E054F04011
:1007B0002F5F3F4F2F733070DF01AE5BBF4F8D91C6
:1007C0009C91119728173907D1F3E05CFF4F808186
:1007D0009181E054F040E80FF91F6083EE85FF85BA
:1007E000E05CFF4F31832083EE89FF89208181E027
:1007F00090E00F8C02C0880F991F0A94E2F7282B13
:10080000208381E089A3EC89FD89808180648083D5
:1008100081E090E0DF91CF91089510927A021092DA
:10082000790288EE93E0A0E0B0E080937B029093A1
:100830007C02A0937D02B0937E0289E891E09093C0
:100840007802809377028FEE91E0909384028093F8
:10085000830283E392E0909386028093850285EC85
:1008600090E0909388028093870284EC90E09093CC
:100870008A028093890280EC90E090938C028093AE
:100880008B0281EC90E090938E0280938D0282EC3B
:1008900090E09093900280938F0286EC90E090938A
:1008A00092028093910284E08093930283E080938C
:1008B000940287E08093950285E08093960281E020
:1008C000809397020895CF92DF92EF92FF920F9359
:1008D0001F93CF93DF937C016B018A01C0E0D0E0CE
:1008E0000FC0D6016D916D01D701ED91FC91019082
:1008F000F081E02DC7010995C80FD91F01501040A4
:100900000115110571F7CE01DF91CF911F910F9164
:10091000FF90EF90DF90CF900895EF92FF920F93AA
:100920001F938C01DC01ED91FC910190F081E02D91
:100930006DE009957C01D801ED91FC910190F08169
:10094000E02DC8016AE009959C012E0D3F1DC901EB
:100950001F910F91FF90EF900895CF93DF93EC01DB
:100960006115710519F420E030E00FC0DB010D9036
:100970000020E9F71197A61BB70BE881F9810280E7
:10098000F381E02DAD0109959C01C901DF91CF9163
:1009900008954F925F927F928F929F92AF92BF92F3
:1009A000CF92DF92EF92FF920F931F93DF93CF933B
:1009B000CDB7DEB7A1970FB6F894DEBF0FBECDBF9F
:1009C0002C01742ECB01223008F42AE019A231E266
:1009D000C32ED12CCC0EDD1E822E9924AA24BB243A
:1009E000672D752FA50194010E94390C79018A01A8
:1009F000C801B701A50194010E94070C472D461BB1
:100A00000894C108D1084A3010F4405D01C0495C27
:100A1000F6014083E114F1040105110521F07E2C5B
:100A20005F2DC801DDCFC201B6010E94AD04A196C1
:100A30000FB6F894DEBF0FBECDBFCF91DF911F91EF
:100A40000F91FF90EF90DF90CF90BF90AF909F906D
:100A50008F907F905F904F900895DC0121153105B4
:100A600041F4ED91FC910190F081E02D642F099506
:100A700008950E94C9040895EF92FF920F931F9367
:100A80009A01E62EFF2400E010E0B801A7010E94C1
:100A90002D051F910F91FF90EF900895CF92DF9257
:100AA000EF92FF920F931F93CF93DF93EC016A01B4
:100AB0007B012115310541F4E881F9810190F08134
:100AC000E02D642F09951FC02A303105D1F477FF3E
:100AD00017C0E881F9810190F081E02D6DE2099560
:100AE0008C0144275527BA014C195D096E097F090D
:100AF000CE012AE00E94C9049801280F391F04C0C2
:100B00002AE00E94C9049C01C901DF91CF911F9185
:100B10000F91FF90EF90DF90CF900895EF92FF92AA
:100B20000F931F937B019A010027F7FC0095102F6C
:100B3000B801A7010E944E051F910F91FF90EF9001
:100B400008950E94AD040895EF92FF920F931F93B2
:100B50007C010E94AD048C01C7010E948D04080F26
:100B6000191FC8011F910F91FF90EF9008950895EC
:100B7000CF93DF930E9410020E94B7050E942E01BE
:100B8000C7E8D2E00E948E002097E1F30E9487021E
:100B9000F9CF089508950895FC011382128289E91E
:100BA00091E0918380830895FC01A081B181189622
:100BB0002D913C9119976FEFF90109950895FC016A
:100BC000A081B18118962D913C91199760E0F901AF
:100BD00009950895DC01ED91FC910284F385E02DE7
:100BE00040E009950895FC016581862F8460858326
:100BF0006C60CF010E94EA050895DC0117969C9174
:100C00001797491710F0492F415018968C91189753
:100C1000803139F4943029F4E42FF0E0EB55FE4FA5
:100C200004C0E42FF0E0E755FE4F8081680F606854
:100C3000CD010E94EA050895DC01ED91FC9102844A
:100C4000F385E02D41E0099581E090E00895EF9271
:100C5000FF920F931F93CF93DF938C017A016770FC
:100C6000660F660F660F60640E94EA058EE190E0F1
:100C70000E940602C0E0D0E0D801ED91FC91D701BE
:100C8000AC0FBD1F0190F081E02DC8016C9109955A
:100C900088E290E00E9406022196C830D10561F7F3
:100CA000DF91CF911F910F91FF90EF90089562E037
:100CB0000E94EA0580ED97E00E940602089561E037
:100CC0000E94EA0580ED97E00E9406020895CF9306
:100CD000DF93EC01423018F08C8188608C834F8365
:100CE0006887222329F0413019F48C8184608C8339
:100CF00064E670E080E090E00E94AD016C8164FDEC
:100D000031C0E881F9810284F385E02DCE0163E0F2
:100D100042E0099584E991E10E940602E881F981A7
:100D20000284F385E02DCE0163E042E0099584E979
:100D300091E10E940602E881F9810284F385E02DA9
:100D4000CE0163E042E0099586E990E00E94060248
:100D5000E881F9810284F385E02DCE0162E042E072
:100D6000099516C06062CE010E94EA0584E991E10E
:100D70000E9406026C816062CE010E94EA0586E94B
:100D800090E00E9406026C816062CE010E94EA053A
:100D90006C816062CE010E94EA0584E08D83CE0101
:100DA0000E94F305CE010E945F0682E08E83CE0191
:100DB00066E00E94EA05CE010E94D405DF91CF9142
:100DC0000895DF92EF92FF920F931F938C01D62E1E
:100DD0008DE0E82EF12CE00EF11EF80161896D29FD
:100DE000C7010E942308F801618960956D21C70140
:100DF0000E9423081F910F91FF90EF90DF900895BC
:100E0000DC01FC0120E090E070E060FF02C084891A
:100E1000282B9F5F3196943019F075956795F4CF24
:100E2000413019F453964C9153971C968C911C9712
:100E3000842B282BCD01622F0E94E10608950F9389
:100E40001F93CF93DF93EC01142F062F0F704230C6
:100E500019F4602F40E00CC070E044E07595679590
:100E60004A95E1F7412F0E940007CE01602F412FE4
:100E70000E940007DF91CF911F910F910895FC010F
:100E80009385992391F08185882319F4662329F4A9
:100E900006C0813021F4662311F4948701C01486C2
:100EA000CF010D9664850E94230808950F931F9328
:100EB000CF93DF938C01EC012D96CE01F801628572
:100EC0000E944908019719F020E030E00CC0CE01E3
:100ED00061E00E941808F8011482CE0160E00E94CF
:100EE000230821E030E0C901DF91CF911F910F91DC
:100EF0000895FC0181E090E002C0880F991F6A9577
:100F0000E2F783874187CF010E94DF050895DF92D2
:100F1000EF92FF920F931F938C01F62EE42ED22EA8
:100F20000E945607C8016F2D4E2D2D2D0E94670679
:100F30001F910F91FF90EF90DF9008952F923F92B5
:100F40004F925F926F927F928F929F92AF92BF92D9
:100F5000CF92DF92EF92FF920F931F93DF93CF9385
:100F6000CDB7DEB73C01962E442E222E0E94CC0532
:100F700081EB91E0F30191838083C3010D960E9480
:100F80001108F301928613861486118681E090E0A1
:100F90009C0102C0220F331F4A94E2F7218BFC010F
:100FA00002C0EE0FFF1F2A94E2F71F01F301228A0D
:100FB0009C0102C0220F331F0A95E2F7238BFC012C
:100FC00002C0EE0FFF1FEA94E2F77F01F301E48A0B
:100FD0009C0102C0220F331FCA94E2F7258BFC014B
:100FE00002C0EE0FFF1FAA94E2F75F01F301A68A89
:100FF00002C0880F991F8A94E2F7878BCF91DF9107
:101000001F910F91FF90EF90DF90CF90BF90AF9026
:101010009F908F907F906F905F904F903F902F9018
:101020000895FC0112828FEF81831082138208954C
:10103000FC018381882331F0662319F48FEF8183CB
:10104000089511820895CF93DF93EC018B8188235B
:1010500019F480E090E013C089818095862388830D
:101060008FED92E06A810E9466088FED92E06881C0
:101070000E94E8088FED92E00E942B0990E020E0AA
:1010800030E0892B11F421E030E0C901DF91CF91EC
:101090000895CF93DF93EC016A838FED92E00E9475
:1010A00040098FED92E06A8141E00E943C091B8279
:1010B000882311F081E08B838FED92E00E94790804
:1010C00088838B8190E0DF91CF91089581E08093B8
:1010D000DE026093BB021092DC021092DD020895E2
:1010E0002091BA0230E08091B902281B3109C90170
:1010F00008954091B9028091BA02481718F02FEF75
:101100003FEF0AC0E42FF0E0E756FD4F8081282F23
:1011100030E04F5F4093B902C9010895E091B902F0
:101120008091BA02E81718F0EFEFFFEF06C0F0E089
:10113000E756FD4F8081E82FF0E0CF010895089534
:101140001092E2021092E10288EE93E0A0E0B0E09B
:101150008093E3029093E402A093E502B093E60249
:1011600081EC91E09093E0028093DF020895CF92AA
:10117000DF92EF92FF920F931F93CF93DF937C0147
:101180006B018A018091DE028823A1F0C0E0D0E0EB
:101190000DC0D701ED91FC91D601AC0FBD1F0190A0
:1011A000F081E02DC7016C9109952196C017D107F8
:1011B00080F304C0CB01642F0E94E909C801DF91CC
:1011C000CF911F910F91FF90EF90DF90CF900895F6
:1011D000DF93CF930F92CDB7DEB7FC016983809187
:1011E000DE028823C9F08091DD02803238F081E090
:1011F00090E09383828320E030E015C08091DC0290
:10120000E82FF0E0E454FD4F998190838F5F809345
:10121000DC028093DD0205C0CE01019661E00E94F0
:10122000E90921E030E0C9010F90CF91DF910895E5
:101230000F93062F8091BB026CEB72E04091DD02B0
:1012400021E00E9494091092DC021092DD021092BB
:10125000DE020F91089561E00E941809089541325D
:1012600008F040E2862F69E972E00E944B09109273
:10127000B9028093BA02089521E00E942F090895CF
:101280001092B9021092BA021092DC021092DD02A2
:101290000E94950B0895382F413210F040E042C073
:1012A0008091EB028823E1F791E09093EB02209389
:1012B000ED028FEF80935803109213034150409337
:1012C00014034F5F9093EC028091EC02330F832B59
:1012D0008093EC028091EE02813041F41092EE0294
:1012E0008091EC028093BB0085EC01C085EE809379
:1012F000BC008091EB028130E1F3809113038417ED
:1013000010F44091130320E030E00AC0FB01E20F2B
:10131000F31FD901AD50BD4F8C9180832F5F3F4F9C
:101320002417A0F3842F08950F931F93582F122F83
:10133000413210F081E04AC08091EB028823E1F74E
:1013400082E08093EB020093ED028FEF80935803CD
:101350001092130340931403A3EFB2E0FB0102C009
:1013600081918D938E2F861B8417D0F31092EC02FF
:101370008091EC02550F852B8093EC028091EE0258
:10138000813041F41092EE028091EC028093BB0018
:1013900085EC01C085EE8093BC00112321F0809183
:1013A000EB028230E1F3809158038F3F11F480E02B
:1013B0000DC080915803803211F482E007C0809103
:1013C0005803803311F084E001C083E01F910F9136
:1013D0000895482F613210F081E008958091EB026A
:1013E000843011F082E0089560933603A5E1B3E004
:1013F000842F9C01F90102C081918D938E2F841B53
:101400008617D0F380E008951F920F920FB60F92C7
:1014100011242F933F934F935F936F937F938F93F9
:101420009F93AF93BF93EF93FF938091B90090E0A8
:10143000887F90708036910509F4F2C0813691055D
:10144000CCF58832910509F47BC089329105B4F45A
:101450008031910509F46FC0813191053CF400970A
:1014600009F447C1089709F04FC165C0883191055B
:1014700009F466C0809709F047C182C080349105A5
:1014800009F4A4C08134910544F48033910509F432
:1014900082C0C89709F038C189C08035910509F428
:1014A00089C08835910509F496C08834910509F002
:1014B0002BC1AEC08839910509F413C18939910552
:1014C000ECF48837910509F4ABC0893791054CF4E9
:1014D0008836910509F4A4C08037910509F014C13C
:1014E0009FC08838910509F4FCC08039910509F442
:1014F0009DC08038910509F007C198C0803B9105D7
:1015000009F4C6C0813B91054CF4803A910509F479
:101510009FC0883A910509F0F7C0BAC0803C910598
:1015200009F4E3C0883C910509F4DFC0883B9105CC
:1015300009F0EAC0C2C08091EC028093BB00CFC02A
:101540009091130380911403981768F490911303FA
:10155000E92FF0E0ED50FD4F80818093BB009F5F4D
:1015600090931303BCC08091ED02882309F44BC013
:1015700085ED8093BC008091BC0084FDFCCFC2C08F
:1015800080E28093580385ED8093BC008091BC007D
:1015900084FDFCCFB7C080E38093580385ED809332
:1015A000BC008091BC0084FDFCCFACC088E380937C
:1015B00058039BC0809113039091BB00E82FF0E08B
:1015C000ED50FD4F90838F5F809313039091130331
:1015D0008091140382C0809113039091BB00E82F87
:1015E000F0E0ED50FD4F90838F5F80931303809167
:1015F000ED02882341F085ED8093BC008091BC0012
:1016000084FDFCCF7FC081E08093EE0284EA6EC04F
:1016100085ED8093BC008091BC0084FDFCCF72C03E
:1016200083E08093EB021092570359C080915703D7
:10163000803208F056C0809157039091BB00E82F8C
:10164000F0E0E95CFC4F90838F5F8093570347C0C5
:1016500080915703803230F4E0915703F0E0E95C69
:10166000FC4F108285ED8093BC008091BC0084FD0E
:10167000FCCF1092EB0260915703E091F102F091E0
:10168000F20287E393E070E00995109257032DC0B2
:1016900084E08093EB021092350310923603E091C0
:1016A000EF02F091F002099580913603882329F426
:1016B00081E0809336031092150390913503E92F52
:1016C000F0E0EB5EFC4F80818093BB009F5F9093C6
:1016D00035039091350380913603981710F485EC0B
:1016E00001C085E88093BC000FC085EC8093BC00EE
:1016F00009C01092580385ED8093BC008091BC0016
:1017000084FDFCCF1092EB02FF91EF91BF91AF915E
:101710009F918F917F916F915F914F913F912F9109
:101720000F900FBE0F901F9018951092EB0281E062
:101730008093ED021092EE0282E161E00E94B30B11
:1017400083E161E00E94B30BE9EBF0E080818E7FE2
:10175000808380818D7F808388E48093B80085E4D6
:101760008093BC000895482F50E0CA0182559F4FD6
:10177000FC012491CA0186569F4FFC0194914A575F
:101780005F4FFA013491332309F440C0222351F111
:10179000233071F0243028F42130A1F0223011F5EB
:1017A00014C02630B1F02730C1F02430D9F404C081
:1017B000809180008F7703C0809180008F7D80931F
:1017C000800010C084B58F7702C084B58F7D84BD42
:1017D00009C08091B0008F7703C08091B0008F7DE9
:1017E0008093B000E32FF0E0EE0FFF1FEE58FF4FA5
:1017F000A591B4912FB7F894662321F48C9190951C
:10180000892302C08C91892B8C932FBF0895629FEE
:10181000D001739FF001829FE00DF11D649FE00DE8
:10182000F11D929FF00D839FF00D749FF00D659F49
:10183000F00D9927729FB00DE11DF91F639FB00D48
:10184000E11DF91FBD01CF011124089597FB092E59
:1018500007260AD077FD04D02ED006D000201AF437
:10186000709561957F4F0895F6F7909581959F4FFC
:101870000895A1E21A2EAA1BBB1BFD010DC0AA1FD1
:10188000BB1FEE1FFF1FA217B307E407F50720F0E9
:10189000A21BB30BE40BF50B661F771F881F991F64
:1018A0001A9469F760957095809590959B01AC01AD
:1018B000BD01CF010895AA1BBB1B51E107C0AA1FA0
:1018C000BB1FA617B70710F0A61BB70B881F991FE1
:1018D0005A95A9F780959095BC01CD010895EE0F1A
:0E18E000FF1F0590F491E02D0994F894FFCFBE
:1018EE00436F646573203078002D307800493243A1
:1018FE005F4C43445F437573746F6D4368617273DD
:10190E005F6D6A6B647A0048656C6C6F20776F72DE
:10191E006C642E2E2E002069200020617264756981
:10192E006E6F732100040E0E0E1F000400020302E0
:10193E000E1E0C0000000E1517110E0000000A1FDF
:10194E001F0E040000000C1D0F0F06000000010307
:10195E00161C080000001B0E040E1B0000010105E2
:10196E00091F08040000000000CD03630460039407
:10197E00037403BD03000000001C0663046706CA5F
:10198E0005CB05C90500401050004014540000005E
:10199E00001C066304870779073F071F0700000036
:0E19AE0000E808B708700879088E089F080046
:00000001FF
