:100000000C9453010C947B010C947B010C947B01A8
:100010000C947B010C947B010C947B010C947B0170
:100020000C947B010C947B010C947B010C947B0160
:100030000C947B010C947B010C947B010C947B0150
:100040000C94ED010C947B010C94BD020C940B03F9
:100050000C947B010C947B010C947B010C947B0130
:100060000C947B010C947B01000000000000005FF9
:1000700000000007000700147F147F14242A7F2A41
:10008000122313086462364955225000050300000C
:10009000001C2241000041221C0014083E081408E4
:1000A000083E0808005030000008080808080060F2
:1000B00060000020100804023E5149453E00427F86
:1000C000400042615149462141454B311814127F8D
:1000D0001027454545393C4A494930017109050316
:1000E0003649494936064949291E0036360000007E
:1000F0005636000008142241001414141414004150
:100100002214080201510906324979413E7E11113B
:10011000117E7F494949363E414141227F4141227A
:100120001C7F494949417F090909013E4149497AF2
:100130007F0808087F00417F41002040413F017F48
:10014000081422417F404040407F020C027F7F0420
:1001500008107F3E4141413E7F090909063E415159
:10016000215E7F09192946464949493101017F012C
:10017000013F4040403F1F2040201F3F4038403F4C
:100180006314081463070870080761514945430068
:100190007F41410002040810200041417F00040219
:1001A0000102044040404040000102040020545439
:1001B00054787F48444438384444442038444448C0
:1001C0007F3854545418087E0901020C5252523E92
:1001D0007F0804047800447D40002040443D007FB7
:1001E0001028440000417F40007C041804787C08FB
:1001F00004047838444444387C1414140808141453
:10020000187C7C080404084854545420043F44409B
:10021000203C4040207C1C2040201C3C4030403C86
:1002200044281028440C5050503C4464544C440022
:100230000836410000007F00000041360800100829
:100240000810080000000000000000002400270043
:100250002A0000000000250028002B0000000000FC
:1002600023002600290004040404040404040202F8
:100270000202020203030303030301020408102025
:100280004080010204081020010204081020000030
:100290000007000201000003040600000000000047
:1002A00000007D01770411241FBECFEFD8E0DEBF30
:1002B000CDBF11E0A0E0B1E0E4EFF1E102C00590B4
:1002C0000D92AA34B107D9F712E0AAE4B1E001C057
:1002D0001D92AC34B107E1F712E0C6EAD2E004C0E7
:1002E0002297FE010E94EB08C23AD107C9F70E948B
:1002F00000060C94F8080C940000EF920F938AE427
:1003000091E063E044E025E006E037E0E32E0E9460
:100310000F060F91EF9008950F931F930AE411E0D9
:10032000C80160E040E00E944906C80160E071E059
:100330000E94EA05C80160E041E00E944906609120
:10034000970170919801C8014AE050E00E94D705DA
:10035000C80160E20E949A06C80160E00E949A0605
:1003600064EF71E080E090E00E945B028091970171
:1003700090919801019690939801809397011F9115
:100380000F9108950F931F930AE212E0C80140E015
:1003900051EE60E070E00E944603C8016EE071E03B
:1003A0000E94ED050AE411E0C80164E540E320E0A5
:1003B0000E941507C80160E041E20E942B06C801B7
:1003C00060E040E20E942B06C80160E04DE251E08F
:1003D0000E9420061F910F9108951F920F920FB651
:1003E0000F9211242F933F938F939F93AF93BF93BB
:1003F00080919D0190919E01A0919F01B091A001DB
:100400003091A1010196A11DB11D232F2D5F2D3724
:1004100020F02D570196A11DB11D2093A1018093BD
:100420009D0190939E01A0939F01B093A0018091A4
:10043000990190919A01A0919B01B0919C01019624
:10044000A11DB11D8093990190939A01A0939B01E6
:10045000B0939C01BF91AF919F918F913F912F914C
:100460000F900FBE0F901F9018959FB7F894209192
:10047000990130919A0140919B0150919C0186B560
:10048000A89B06C08F3F21F02F5F3F4F4F4F5F4F1C
:100490009FBF542F432F322F2227280F311D411D7C
:1004A000511D82E0220F331F441F551F8A95D1F73B
:1004B000B901CA010895EF92FF920F931F93CF9352
:1004C000DF937B018C010E943502EB010EC00E947C
:1004D00035026C1B7D0B685E7340C8F30894E1081D
:1004E000F10801091109C851DC4FE114F1040105BB
:1004F000110569F7DF91CF911F910F91FF90EF9058
:100500000895789484B5826084BD84B5816084BD8B
:1005100085B5826085BD85B5816085BDEEE6F0E07C
:10052000808181608083E1E8F0E0108280818260D8
:100530008083808181608083E0E8F0E08081816059
:100540008083E1EBF0E0808184608083E0EBF0E089
:10055000808181608083EAE7F0E08081846080832D
:1005600080818260808380818160808380818068D7
:1005700080831092C100089508951F920F920FB6C4
:100580000F9211242F933F934F938F939F93EF9349
:10059000FF938091C00082FD1DC04091C600209154
:1005A000E2013091E3012F5F3F4F2F733070809154
:1005B000E4019091E5012817390771F0E091E2011B
:1005C000F091E301EE55FE4F40833093E301209319
:1005D000E20102C08091C600FF91EF919F918F913F
:1005E0004F913F912F910F900FBE0F901F90189534
:1005F000E0913602F0913702E05CFF4F81919191DA
:1006000020813181821B930B8F739070892B11F0A5
:100610000E94BC0208951F920F920FB60F921124F0
:100620002F933F938F939F93EF93FF9320912602F5
:1006300030912702809128029091290228173907CA
:1006400031F48091C1008F7D8093C10014C0E0918E
:100650002802F0912902EA51FE4F20818091280260
:100660009091290201968F73907090932902809344
:1006700028022093C600FF91EF919F918F913F91A7
:100680002F910F900FBE0F901F901895AF92BF92B1
:10069000DF92EF92FF920F931F93CF93DF93EC01C2
:1006A0007A018B01DD24403081EE580780E0680735
:1006B00080E0780711F0DD24D39491E0A92EB12CCD
:1006C000EC89FD89DD2069F0C50108A002C0880F12
:1006D000991F0A94E2F7808360E079E08DE390E06F
:1006E00005C0108260E874E88EE190E0A8019701EF
:1006F0000E94C708215030404040504056954795D1
:100700003795279580E12030380720F0DD2011F063
:10071000DD24D6CFE889F9893083EA89FB892083F3
:1007200019A2EE89FF89408121E030E0C9010C8CDB
:1007300002C0880F991F0A94E2F7482B4083EE8984
:10074000FF894081C9010D8C02C0880F991F0A944E
:10075000E2F7482B4083EE89FF894081C9010E8C66
:1007600002C0880F991F0A94E2F7482B4083EE8954
:10077000FF8980810F8C02C0220F331F0A94E2F799
:10078000209528232083DF91CF911F910F91FF9017
:10079000EF90DF90BF90AF900895DC011C96ED9133
:1007A000FC911D97E05CFF4F2191319180819181F7
:1007B000281B390B2F733070C9010895DC011C967A
:1007C000ED91FC911D97E05CFF4F20813181E05459
:1007D000F040DF01AE5BBF4F8D919C9111972817C0
:1007E000390719F42FEF3FEF07C08D919C91E80F67
:1007F000F91F8081282F30E0C9010895DC011C9683
:10080000ED91FC911D97E05CFF4F20813181E05418
:10081000F040DF01AE5BBF4F8D919C91119728177F
:10082000390719F42FEF3FEF10C08D919C9111976C
:10083000E80FF91F20818D919C91119701968F737C
:10084000907011969C938E9330E0C9010895DC015D
:1008500091968C919197882339F05496ED91FC9163
:100860005597808186FFF9CF91961C920895CF937A
:10087000DF93EC01EE85FF85E05CFF4F2081318145
:10088000E054F0402F5F3F4F2F733070DF01AE5BBD
:10089000BF4F8D919C91119728173907D1F3E05CD8
:1008A000FF4F80819181E054F040E80FF91F608391
:1008B000EE85FF85E05CFF4F31832083EE89FF8961
:1008C000208181E090E00F8C02C0880F991F0A946C
:1008D000E2F7282B208381E089A3EC89FD898081C0
:1008E0008064808381E090E0DF91CF910895109241
:1008F0002D0210922C0288EE93E0A0E0B0E08093ED
:100900002E0290932F02A0933002B093310286E31F
:1009100091E090932B0280932A0282EA91E09093D7
:1009200037028093360286EE91E0909339028093ED
:10093000380285EC90E090933B0280933A0284EC7D
:1009400090E090933D0280933C0280EC90E0909385
:100950003F0280933E0281EC90E0909341028093AD
:10096000400282EC90E0909343028093420286EC36
:1009700090E0909345028093440284E08093460285
:1009800083E08093470287E08093480285E080936C
:10099000490281E080934A020895CF92DF92EF925C
:1009A000FF920F931F93CF93DF937C016B018A011A
:1009B000C0E0D0E00FC0D6016D916D01D701ED917F
:1009C000FC910190F081E02DC7010995C80FD91F56
:1009D000015010400115110571F7CE01DF91CF9143
:1009E0001F910F91FF90EF90DF90CF900895EF92BD
:1009F000FF920F931F938C01DC01ED91FC9101900C
:100A0000F081E02D6DE009957C01D801ED91FC911C
:100A10000190F081E02DC8016AE009959C012E0D3E
:100A20003F1DC9011F910F91FF90EF900895CF9343
:100A3000DF93EC016115710519F420E030E00FC07F
:100A4000DB010D900020E9F71197A61BB70BE88199
:100A5000F9810280F381E02DAD0109959C01C90166
:100A6000DF91CF9108954F925F927F928F929F92E4
:100A7000AF92BF92CF92DF92EF92FF920F931F93AC
:100A8000DF93CF93CDB7DEB7A1970FB6F894DEBF53
:100A90000FBECDBF2C01742ECB01223008F42AE00A
:100AA00019A231E2C32ED12CCC0EDD1E822E992448
:100AB000AA24BB24672D752FA50194010E94C708A5
:100AC00079018A01C801B701A50194010E94750846
:100AD000472D461B0894C108D1084A3010F4405DE8
:100AE00001C0495CF6014083E114F10401051105E0
:100AF00021F07E2C5F2DC801DDCFC201B6010E941E
:100B00001705A1960FB6F894DEBF0FBECDBFCF91EB
:100B1000DF911F910F91FF90EF90DF90CF90BF90EA
:100B2000AF909F908F907F905F904F900895CF925D
:100B3000DF92EF92FF920F931F93CF93DF93EC011D
:100B40006A017B012115310541F4E881F9810190A9
:100B5000F081E02D642F09951FC02A303105D1F4B2
:100B600077FF17C0E881F9810190F081E02D6DE2F7
:100B700009958C0144275527BA014C195D096E0966
:100B80007F09CE012AE00E9433059801280F391F02
:100B900004C02AE00E9433059C01C901DF91CF9176
:100BA0001F910F91FF90EF90DF90CF900895EF92FB
:100BB000FF920F931F937B019A010027F7FC00958A
:100BC000102FB801A7010E9497051F910F91FF9068
:100BD000EF9008950E9417050895EF92FF920F93EA
:100BE0001F937C010E9417058C01C7010E94F70426
:100BF000080F191FC8011F910F91FF90EF900895E2
:100C0000CF93DF930E9481020E94C201C8EFD2E01D
:100C10000E948C012097E1F30E94F802F9CFEF9235
:100C20000F93FC011382128286E491E0918380830A
:100C30006483458326830783E0860F91EF900895B0
:100C4000603240F4E62FF0E0EE0FFF1FE80FF91FCF
:100C5000568745870895FF920F931F938C01F42EBA
:100C6000FC0186810E940008F801808560E00E94F6
:100C70000008F8018581648141E02F2D0E9433082E
:100C8000F801808561E00E9400081F910F91FF909C
:100C900008950F931F938C01862F242FF8016185EF
:100CA00090E070E00E94A008482F8387828569E069
:100CB0000E949408682F70E06F5F7F4F822F90E052
:100CC0000E94B40884874068C80160E00E942B0637
:100CD000F80144854064C80160E00E942B061F9122
:100CE0000F9108950F931F93CF93DF93EC0160E072
:100CF00040E00E94490600E010E007C0CE0161E03C
:100D000040E00E942B060F5F1F4F8A8586958695CF
:100D100086952985829FC00111240817190770F351
:100D2000CE0160E040E00E944906DF91CF911F9123
:100D30000F910895CF92DF92EF92FF920F931F933E
:100D4000DF93CF9300D000D00F92CDB7DEB76C0108
:100D500067FF03C020E030E059C0E62FF0E06032CA
:100D600080F0CF018097BC01660F771F660F771F59
:100D7000680F791F68597F4F8E010F5F1F4FC801A1
:100D80000FC0EE0FFF1FE80FF91FE584F684E11492
:100D9000F10459F48E010F5F1F4FC80168E670E03F
:100DA00045E050E00E94EF08780100E010E0F70114
:100DB000E00FF11FC60161E040810E942B060F5F2A
:100DC0001F4F0530110599F7C60161E040E00E9410
:100DD0002B06F601838590E06185069670E00E94FF
:100DE000B4088387882381F4F601248530E0828566
:100DF00069E00E949408682F70E06F5F7F4FC9011F
:100E000001960E94B408848721E030E0C9010F9068
:100E10000F900F900F900F90CF91DF911F910F9136
:100E2000FF90EF90DF90CF9008951F93CF93DF93C3
:100E3000EC01122F69874A871B861C860D96FC01E0
:100E400080E4DF011D928A95E9F78C8161E00E94C0
:100E500094078D8161E00E9494078E8161E00E9479
:100E600094078F8161E00E949407888561E00E9469
:100E700094078F8161E00E940008888561E00E94EC
:100E800000088F8160E00E94000864E670E080E066
:100E900090E00E945B028F8161E00E940008CE0119
:100EA00060E041E20E942B06CE0160E043E10E9437
:100EB0002B06113049F4CE0160E040EE0E942B0673
:100EC000CE0160E045E003C0CE0160E042EC0E944C
:100ED0002B06CE0160E040E20E942B06CE0160E0CE
:100EE00049E00E942B06CE010E947206CE0160E00E
:100EF00048E00E942B06CE0160E04CE00E942B06E9
:100F000064E670E080E090E00E945B02CE0160E069
:100F100040E80E942B06CE0160E040E40E942B06D0
:100F2000DF91CF911F910895CF93DF93482F50E029
:100F3000CA0186589D4FFC0134914A595D4FFA0110
:100F40008491882369F190E0880F991FFC01E85B88
:100F5000FD4FA591B491FC01EE5AFD4FC591D4917E
:100F6000662351F42FB7F8948C91932F9095892391
:100F70008C93888189230BC0623061F42FB7F89479
:100F80008C91932F909589238C938881832B8883D0
:100F90002FBF06C09FB7F8948C91832B8C939FBF73
:100FA000DF91CF910895833071F0843028F481303F
:100FB000A1F0823021F514C08630B1F08730D1F035
:100FC0008430E9F404C0809180008F7703C0809161
:100FD00080008F7D80938000089584B58F7702C054
:100FE00084B58F7D84BD08958091B0008F77809304
:100FF000B00008958091B0008F7D8093B000089577
:10100000FF920F931F93F62E482F50E0CA0182578C
:101010009D4FFC012491CA0186589D4FFC011491FB
:101020004A595D4FFA0104910023C9F0222319F0B7
:10103000822F0E94D307E02FF0E0EE0FFF1FEE5A41
:10104000FD4FA591B4919FB7F894FF2021F48C91A6
:101050001095812302C08C91812B8C939FBF1F918F
:101060000F91FF900895BF92CF92DF92EF92FF927F
:101070000F931F93CF93DF93E82EF62EB42EC7E085
:10108000D0E0022F10E087E0C82ED12CBB2059F40D
:10109000B6016C1B7D0BC80102C0959587956A95BA
:1010A000E2F7BC0107C0B8010C2E02C07595679528
:1010B0000A94E2F761708E2D0E9400088F2D61E086
:1010C0000E9400088F2D60E00E94000821979FEF8A
:1010D000CF3FD907D9F6DF91CF911F910F91FF90A4
:1010E000EF90DF90CF90BF900895629FD001739FE3
:1010F000F001829FE00DF11D649FE00DF11D929FB4
:10110000F00D839FF00D749FF00D659FF00D9927F2
:10111000729FB00DE11DF91F639FB00DE11DF91F16
:10112000BD01CF0111240895991B79E004C0991FD6
:10113000961708F0961B881F7A95C9F78095089531
:10114000AA1BBB1B51E107C0AA1FBB1FA617B707ED
:1011500010F0A61BB70B881F991F5A95A9F7809509
:101160009095BC01CD01089597FB092E07260AD062
:1011700077FD04D0E5DF06D000201AF47095619564
:101180007F4F0895F6F7909581959F4F0895A1E2BE
:101190001A2EAA1BBB1BFD010DC0AA1FBB1FEE1FF1
:1011A000FF1FA217B307E407F50720F0A21BB30B3C
:1011B000E40BF50B661F771F881F991F1A9469F7B8
:1011C00060957095809590959B01AC01BD01CF0114
:1011D0000895EE0FFF1F0590F491E02D0994FB0197
:1011E000DC0102C005900D9241505040D8F708959F
:0411F000F894FFCFA1
:1011F40048656C6C6F2C20576F726C6421006E6FA5
:101204006B69615F706364383534345F646973702B
:101214006C61795F74657374696E67320010343081
:101224003410000000003704CD04CD03FE03DE03B8
:0A1234002704000000009A06CD0414
:00000001FF
