:100000000C9462000C948A000C948A000C948A0070
:100010000C948A000C948A000C948A000C948A0038
:100020000C948A000C948A000C948A000C948A0028
:100030000C948A000C948A000C948A000C948A0018
:100040000C9465010C948A000C9416030C946403C0
:100050000C948A000C948A000C948A000C948A00F8
:100060000C948A000C948A000000000024002700F1
:100070002A0000000000250028002B0000000000DE
:1000800023002600290004040404040404040202DA
:100090000202020203030303030301020408102007
:1000A0004080010204081020010204081020000012
:1000B0000007000201000003040600000000000029
:1000C0000000D00411241FBECFEFD8E0DEBFCDBFAB
:1000D00013E0A0E0B1E0E0EBFBE002C005900D9280
:1000E000AE31B107D9F713E0AEE1B3E001C01D9224
:1000F000A13DB107E1F710E0C4ECD0E004C02297C5
:10010000FE010E94D205C23CD107C9F70E949F059B
:100110000C94D6050C9400008EE061E00E94A002D1
:1001200064E170E080E090E00E94D3018EE060E046
:100130000E94A00264E170E080E090E00E94D301A0
:1001400008958FEA93E040E051EE60E070E00E9495
:100150009F038EE061E00E9434020E948C000895AB
:100160001F93982F162F85E0692F0E94A00287E029
:1001700060E00E94A00284E063E041E0212F0E9441
:10018000D30287E061E00E94A0021F91089587E0FA
:1001900061E00E94340286E061E00E94340285E062
:1001A00061E00E94340284E061E00E94340283E056
:1001B00061E00E94340286E060E00E94A00286E0D6
:1001C00061E00E94A00280E061E20E94B00080E055
:1001D00061EB0E94B00080E064E00E94B00080E02B
:1001E00064E10E94B00080E06CE00E94B00080E01A
:1001F00060E20E94B00080E06CE00E94B0000895D0
:10020000CF93DF93C0E0D0E081E060E00E94B000D7
:10021000219681E0C83FD807B9F7DF91CF910895C3
:100220000F931F93CF93DF93182F81E060E00E941C
:10023000B000812F90E08097EC01CC0FDD1FCC0F38
:10024000DD1FC80FD91FC25DDE4F85E0189F8001FA
:1002500011240D561F4F81E069910E94B000C01714
:10026000D107C9F781E060E00E94B000DF91CF9133
:100270001F910F910895CF93DF93EC0103C0219656
:100280000E94100188818823D1F7DF91CF910895D2
:100290008FEA93E060E071E00E948C050E948C0080
:1002A0000E94C7000E94000164EF71E080E090E0CE
:1002B0000E94D30181E291E00E943B016CED75E068
:1002C00080E090E00E94D30108951F920F920FB634
:1002D0000F9211242F933F938F939F93AF93BF93CC
:1002E0008091220390912303A0912403B0912503D0
:1002F000309126030196A11DB11D232F2D5F2D37AF
:1003000020F02D570196A11DB11D20932603809347
:10031000220390932303A0932403B0932503809199
:100320001E0390911F03A0912003B0912103019619
:10033000A11DB11D80931E0390931F03A093200362
:10034000B0932103BF91AF919F918F913F912F91D6
:100350000F900FBE0F901F9018959FB7F8942091A3
:100360001E0330911F03409120035091210386B555
:10037000A89B06C08F3F21F02F5F3F4F4F4F5F4F2D
:100380009FBF542F432F322F2227280F311D411D8D
:10039000511D82E0220F331F441F551F8A95D1F74C
:1003A000B901CA010895EF92FF920F931F93CF9363
:1003B000DF937B018C010E94AD01EB010EC00E9416
:1003C000AD016C1B7D0B685E7340C8F30894E108B7
:1003D000F10801091109C851DC4FE114F1040105CC
:1003E000110569F7DF91CF911F910F91FF90EF9069
:1003F0000895789484B5826084BD84B5816084BD9D
:1004000085B5826085BD85B5816085BDEEE6F0E08D
:10041000808181608083E1E8F0E0108280818260E9
:100420008083808181608083E0E8F0E0808181606A
:100430008083E1EBF0E0808184608083E0EBF0E09A
:10044000808181608083EAE7F0E08081846080833E
:1004500080818260808380818160808380818068E8
:1004600080831092C1000895CF93DF93482F50E00E
:10047000CA0186569F4FFC0134914A575F4FFA01DB
:100480008491882369F190E0880F991FFC01E85955
:10049000FF4FA591B491FC01EE58FF4FC591D49147
:1004A000662351F42FB7F8948C91932F909589235C
:1004B0008C93888189230BC0623061F42FB7F89444
:1004C0008C91932F909589238C938881832B88839B
:1004D0002FBF06C09FB7F8948C91832B8C939FBF3E
:1004E000DF91CF910895833071F0843028F481300A
:1004F000A1F0823021F514C08630B1F08730D1F000
:100500008430E9F404C0809180008F7703C080912B
:1005100080008F7D80938000089584B58F7702C01E
:1005200084B58F7D84BD08958091B0008F778093CE
:10053000B00008958091B0008F7D8093B000089541
:10054000FF920F931F93F62E482F50E0CA01825559
:100550009F4FFC012491CA0186569F4FFC011491C4
:100560004A575F4FFA0104910023C9F0222319F082
:10057000822F0E947302E02FF0E0EE0FFF1FEE5873
:10058000FF4FA591B4919FB7F894FF2021F48C916F
:100590001095812302C08C91812B8C939FBF1F915A
:1005A0000F91FF900895BF92CF92DF92EF92FF924A
:1005B0000F931F93CF93DF93E82EF62EB42EC7E050
:1005C000D0E0022F10E087E0C82ED12CBB2059F4D8
:1005D000B6016C1B7D0BC80102C0959587956A9585
:1005E000E2F7BC0107C0B8010C2E02C075956795F3
:1005F0000A94E2F761708E2D0E94A0028F2D61E0B7
:100600000E94A0028F2D60E00E94A00221979FEF20
:10061000CF3FD907D9F6DF91CF911F910F91FF906E
:10062000EF90DF90CF90BF90089508951F920F92A2
:100630000FB60F9211242F933F934F938F939F9355
:10064000EF93FF938091C00082FD1DC04091C600D2
:1006500020916703309168032F5F3F4F2F733070F5
:100660008091690390916A032817390771F0E0912E
:100670006703F0916803E95DFC4F408330936803A2
:100680002093670302C08091C600FF91EF919F9174
:100690008F914F913F912F910F900FBE0F901F9010
:1006A0001895E091BB03F091BC03E05CFF4F819192
:1006B000919120813181821B930B8F739070892BD4
:1006C00011F00E94150308951F920F920FB60F921A
:1006D00011242F933F938F939F93EF93FF93209138
:1006E000AB033091AC038091AD039091AE0328171A
:1006F000390731F48091C1008F7D8093C10014C00F
:10070000E091AD03F091AE03E559FC4F208180915B
:10071000AD039091AE0301968F7390709093AE03EA
:100720008093AD032093C600FF91EF919F918F912D
:100730003F912F910F900FBE0F901F901895AF9281
:10074000BF92DF92EF92FF920F931F93CF93DF93AD
:10075000EC017A018B01DD24403081EE580780E006
:10076000680780E0780711F0DD24D39491E0A92E8A
:10077000B12CEC89FD89DD2069F0C50108A002C01B
:10078000880F991F0A94E2F7808360E079E08DE397
:1007900090E005C0108260E874E88EE190E0A80166
:1007A00097010E94AE052150304040405040569580
:1007B00047953795279580E12030380720F0DD20D8
:1007C00011F0DD24D6CFE889F9893083EA89FB89E5
:1007D000208319A2EE89FF89408121E030E0C90120
:1007E0000C8C02C0880F991F0A94E2F7482B4083B3
:1007F000EE89FF894081C9010D8C02C0880F991FC5
:100800000A94E2F7482B4083EE89FF894081C901B1
:100810000E8C02C0880F991F0A94E2F7482B408380
:10082000EE89FF8980810F8C02C0220F331F0A944A
:10083000E2F7209528232083DF91CF911F910F911C
:10084000FF90EF90DF90BF90AF900895DC011C9671
:10085000ED91FC911D97E05CFF4F219131918081DA
:100860009181281B390B2F733070C9010895DC0169
:100870001C96ED91FC911D97E05CFF4F208131812A
:10088000E054F040DF01AE5BBF4F8D919C9111971A
:100890002817390719F42FEF3FEF07C08D919C916E
:1008A000E80FF91F8081282F30E0C9010895DC018D
:1008B0001C96ED91FC911D97E05CFF4F20813181EA
:1008C000E054F040DF01AE5BBF4F8D919C911197DA
:1008D0002817390719F42FEF3FEF10C08D919C9125
:1008E0001197E80FF91F20818D919C911197019626
:1008F0008F73907011969C938E9330E0C901089588
:10090000DC0191968C919197882339F05496ED9162
:10091000FC915597808186FFF9CF91961C9208959E
:10092000CF93DF93EC01EE85FF85E05CFF4F2081E4
:100930003181E054F0402F5F3F4F2F733070DF0163
:10094000AE5BBF4F8D919C91119728173907D1F35A
:10095000E05CFF4F80819181E054F040E80FF91F87
:100960006083EE85FF85E05CFF4F31832083EE8955
:10097000FF89208181E090E00F8C02C0880F991FD1
:100980000A94E2F7282B208381E089A3EC89FD8972
:1009900080818064808381E090E0DF91CF91089531
:1009A0001092B2031092B10388EE93E0A0E0B0E0A1
:1009B0008093B3039093B403A093B503B093B603AD
:1009C00082E193E09093B0038093AF0387E293E0DA
:1009D0009093BC038093BB038BE693E09093BE039C
:1009E0008093BD0385EC90E09093C0038093BF0398
:1009F00084EC90E09093C2038093C10380EC90E07C
:100A00009093C4038093C30381EC90E09093C6035A
:100A10008093C50382EC90E09093C8038093C70352
:100A200086EC90E09093CA038093C90384E080939E
:100A3000CB0383E08093CC0387E08093CD0385E0F4
:100A40008093CE0381E08093CF030895CF92DF920D
:100A5000EF92FF920F931F93CF93DF937C016B0173
:100A60008A01C0E0D0E00FC0D6016D916D01D701C1
:100A7000ED91FC910190F081E02DC7010995C80F1F
:100A8000D91F015010400115110571F7CE01DF91FA
:100A9000CF911F910F91FF90EF90DF90CF9008952D
:100AA000EF92FF920F931F938C01DC01ED91FC916B
:100AB0000190F081E02D6DE009957C01D801ED9168
:100AC000FC910190F081E02DC8016AE009959C013C
:100AD0002E0D3F1DC9011F910F91FF90EF900895BA
:100AE000CF93DF93EC016115710519F420E030E03C
:100AF0000FC0DB010D900020E9F71197A61BB70B83
:100B0000E881F9810280F381E02DAD0109959C0116
:100B1000C901DF91CF910895EF92FF920F931F9338
:100B20007C010E9470058C01C7010E945005080FCE
:100B3000191FC8011F910F91FF90EF900895CF9357
:100B4000DF930E94F9010E94A100C1E5D3E00E9459
:100B500048012097E1F30E945103F9CFA1E21A2E38
:100B6000AA1BBB1BFD010DC0AA1FBB1FEE1FFF1F51
:100B7000A217B307E407F50720F0A21BB30BE40BA1
:100B8000F50B661F771F881F991F1A9469F76095E8
:100B90007095809590959B01AC01BD01CF010895A2
:100BA000EE0FFF1F0590F491E02D0994F894FFCF0C
:100BB000504338353434202D204E6F6B696120331B
:100BC0003331302F3535313020646973706C617981
:100BD0000048656C6C6F20576F726C6421000000D8
:100BE00000000000005F00000007000700147F14F1
:100BF0007F14242A7F2A122313086462364955225F
:100C0000500005030000001C2241000041221C008E
:100C100014083E081408083E080800503000000878
:100C200008080808006060000020100804023E5117
:100C300049453E00427F40004261514946214145BD
:100C40004B311814127F1027454545393C4A494914
:100C50003001710905033649494936064949291EBB
:100C600000363600000056360000081422410014F9
:100C700014141414004122140802015109063249C7
:100C800079413E7E1111117E7F494949363E4141ED
:100C900041227F4141221C7F494949417F0909097D
:100CA000013E4149497A7F0808087F00417F4100A1
:100CB0002040413F017F081422417F404040407F57
:100CC000020C027F7F0408107F3E4141413E7F09B4
:100CD0000909063E4151215E7F09192946464949C5
:100CE000493101017F01013F4040403F1F2040202A
:100CF0001F3F4038403F631408146307087008071B
:100D00006151494543007F41410002040810200021
:100D100041417F0004020102044040404040000184
:100D200002040020545454787F48444438384444E2
:100D30004420384444487F3854545418087E0901EC
:100D4000020C5252523E7F0804047800447D400059
:100D50002040443D007F1028440000417F40007C3B
:100D6000041804787C0804047838444444387C141B
:100D7000141408081414187C7C08040408485454FB
:100D80005420043F4440203C4040207C1C20402014
:100D90001C3C4030403C44281028440C5050503CEF
:100DA0004464544C44000836410000007F000000B9
:100DB00041360800100808100878464146780000BF
:0E0DC000000090042605260457043704800422
:00000001FF
