:100000000C9462000C948A000C948A000C948A0070
:100010000C948A000C948A000C948A000C943D097C
:100020000C948A000C948A000C948A000C948A0028
:100030000C948A000C948A000C948A000C948A0018
:100040000C94FF030C948A000C948A000C948A0090
:100050000C948A000C948A000C948A000C948A00F8
:100060000C948A000C948A000000000024002700F1
:100070002A0000000000250028002B0000000000DE
:1000800023002600290004040404040404040202DA
:100090000202020203030303030301020408102007
:1000A0004080010204081020010204081020000012
:1000B0000007000201000003040600000000000029
:1000C0000000CD0011241FBECFEFD8E0DEBFCDBFB2
:1000D00011E0A0E0B1E0ECE1F9E102C005900D9281
:1000E000A237B107D9F711E0A2E7B1E001C01D9234
:1000F000A63AB107E1F710E0C4ECD0E004C02297C3
:10010000FE010E94880CC23CD107C9F70E943E073D
:100110000C948C0C0C9400006F927F928F929F92A3
:10012000AF92BF92CF92DF92EF92FF920F931F9305
:100130005B016C0139014A0120915001309151015C
:100140004091520150915301CA01B9010E94DE0B46
:100150007B018C01C601B501A60195010E94DE0B51
:100160009B01AC01C801B7010E948F0A20E030E07A
:1001700040E85FE30E94260AA40193010E94DE0B7F
:100180001F910F91FF90EF90DF90CF90BF90AF90B5
:100190009F908F907F906F900895CF92EF920F93E2
:1001A00085E791E063E044E020E101E158E0E52EDD
:1001B00039E0C32E0E9404090F91EF90CF9008956B
:1001C000EF92FF920F931F930E942A0B7B018C01E9
:1001D00085E791E060E041E00E941708809174019A
:1001E000882309F465C0813009F01EC120915801AF
:1001F0003091590140915A0150915B01B701C801FA
:100200000E948C007B018C012FE530E749E850E328
:100210000E948B0A8823DCF4C801B70125EA34ED7B
:1002200048E653E50E94DE0BAB01BC0185E791E097
:1002300022E030E00E943B0785E791E060E071E05A
:100240000E94540685E791E062E071E0EBC0C801CE
:10025000B7012FE530E749E850E30E94DA0B882325
:100260000CF4DCC0C801B7012DEB37E346E855E3D9
:100270000E948B0A88230CF0D1C0C801B70128E284
:100280003BE64EE65EE40E94DE0BAB01BC0185E777
:1002900091E022E030E00E943B0785E791E060E0DA
:1002A00071E00E94540685E791E065E071E0BAC014
:1002B00020915401309155014091560150915701C0
:1002C000B701C8010E948C007B018C012DEB37E344
:1002D00046E855E30E948B0A8823DCF4C801B70185
:1002E00028E23BE64EE65EE40E94DE0BAB01BC0179
:1002F00085E791E022E030E00E943B0785E791E04E
:1003000060E071E00E94540685E791E06CE071E0E6
:1003100089C0C801B7012DEB37E346E855E30E94D9
:10032000DA0B88232CF1C801B7012FE632E143E84C
:100330005AE30E948B0A8823DCF4C801B70120E04D
:1003400034E244E759E40E94DE0BAB01BC0185E7CF
:1003500091E022E030E00E943B0785E791E060E019
:1003600071E00E94540685E791E06FE071E05AC0A9
:10037000C801B7012FE632E143E85AE30E94DA0BE5
:1003800088232CF1C801B70120E030E040E85FE3AA
:100390000E948B0A8823DCF4C801B70120E030E01A
:1003A0004AE754E40E94DE0BAB01BC0185E791E013
:1003B00022E030E00E943B0785E791E060E071E0D9
:1003C0000E94540685E791E062E171E02BC0C8010C
:1003D000B70120E030E040E85FE30E94DA0B8823B9
:1003E000ECF0C801B70120E030E048EC52E40E9494
:1003F0008B0A88239CF485E791E0B801A70122E0ED
:1004000030E00E943B0785E791E060E071E00E94E8
:10041000540685E791E065E171E004C085E791E06D
:1004200068E071E00E9454061F910F91FF90EF90D9
:100430000895EF92FF920F931F937B018C0185E744
:1004400091E060E041E00E94170888EEE81683E042
:10045000F80680E0080780E018078CF4C801B701AF
:100460000E942A0BAB01BC0185E791E020E030E05F
:100470000E943B0785E791E067E171E016C0C80183
:10048000B7010E942A0B20E030E04AE754E40E94C2
:100490008F0AAB01BC0185E791E023E030E00E94C8
:1004A0003B0785E791E06BE171E00E9454061F91E4
:1004B0000F91FF90EF90089585E791E00E94460824
:1004C00082E00E942B05892B39F41092740185E794
:1004D00091E060E271E007C081E08093740185E7FC
:1004E00091E068E271E00E945406809173018823D4
:1004F00061F085E791E060E040E00E94170885E741
:1005000091E060E371E00E94540608951F93CF9339
:10051000DF93CCE5D1E01881812F60E00E948C044C
:10052000812F61E00E94F804229681E0C236D8074C
:1005300091F782E060E00E948C0482E061E00E941A
:10054000F8048AE061E00E948C048AE060E00E9486
:10055000F8048EE061E00E948C048EE060E00E946E
:10056000F80485E791E060E142E020E00E944E0857
:100570000E945C02DF91CF911F9108950F931F930A
:10058000CF93DF938C01C0E0D0E005C088EE93E00C
:100590000E9447042196C017D107C4F3DF91CF9181
:1005A0001F910F9108951F93CF93DF93EC01FC01EE
:1005B000EE0FFF1FE45AFE4F1081812F0E942B0582
:1005C000019789F4C257DE4F8881882361F084E166
:1005D00090E00E94BE02812F0E942B05019719F422
:1005E000188281E001C080E0DF91CF911F910895D2
:1005F0001F93CF93DF93EC01FC01EE0FFF1FE45A32
:10060000FE4F1081812F0E942B05892B89F4C25740
:10061000DE4F8881882361F484E190E00E94BE026D
:10062000812F0E942B05892B19F481E0888301C05A
:1006300080E0DF91CF911F910895EF92FF920F9389
:100640001F938AE690E09093A5018093A40188EE21
:1006500093E00E94B009E0909A01B0919B01A091B3
:100660009C01F0919D0140918A0130918B01209174
:100670008C0190918D0180919E01542F632F722FD8
:10068000E92F4E2D9D019F2F8823A9F350938A01B6
:1006900060938B0170938C01E0938D010E945C024A
:1006A00080E090E00E94F802882371F090E0809151
:1006B0007201882309F491E090937201992311F05B
:1006C0008AE071C08AE072C081E090E00E94F80286
:1006D000882309F457C080917401882321F1813067
:1006E00009F049C060918A0170918B0180918C0161
:1006F00090918D010E94280B7B018C012FE530E742
:1007000049E850E30E948C002FE530E749E850E3C8
:100710000E94270A609358017093590180935A01EF
:1007200090935B0120C060918A0170918B01809150
:100730008C0190918D010E94280B7B018C012CE390
:100740003CEB47E659E30E948C002CE33CEB47E688
:1007500059E30E94270A60935401709355018093D6
:10076000560190935701E0925001F092510100938D
:1007700052011093530185E791E06CE371E00E9410
:10078000540617C082E090E00E94F802882389F0A6
:1007900090E080917301882309F491E090937301B4
:1007A000992319F08EE061E002C08EE060E00E94C3
:1007B000F8048091730120918A0130918B0140915E
:1007C0008C0150918D01882329F0CA01B9010E9442
:1007D000190204C0CA01B9010E94E00080E090E063
:1007E0000E94D30281E090E00E94D30282E090E078
:1007F0000E94D3021F910F91FF90EF9008951F92D6
:100800000F920FB60F9211242F933F938F939F93C4
:10081000AF93BF938091950190919601A09197011C
:10082000B0919801309199010196A11DB11D232F1E
:100830002D5F2D3720F02D570196A11DB11D20935E
:1008400099018093950190939601A0939701B0939D
:1008500098018091910190919201A0919301B091A2
:1008600094010196A11DB11D809391019093920175
:10087000A0939301B0939401BF91AF919F918F91F9
:100880003F912F910F900FBE0F901F9018950197D9
:1008900039F0880F991F880F991F02970197F1F778
:1008A0000895789484B5826084BD84B5816084BDE8
:1008B00085B5826085BD85B5816085BDEEE6F0E0D9
:1008C000808181608083E1E8F0E010828081826035
:1008D0008083808181608083E0E8F0E080818160B6
:1008E0008083E1EBF0E0808184608083E0EBF0E0E6
:1008F000808181608083EAE7F0E08081846080838A
:100900008081826080838081816080838081806833
:1009100080831092C1000895CF93DF93482F50E059
:10092000CA0186569F4FFC0134914A575F4FFA0126
:100930008491882369F190E0880F991FFC01E859A0
:10094000FF4FA591B491FC01EE58FF4FC591D49192
:10095000662351F42FB7F8948C91932F90958923A7
:100960008C93888189230BC0623061F42FB7F8948F
:100970008C91932F909589238C938881832B8883E6
:100980002FBF06C09FB7F8948C91832B8C939FBF89
:10099000DF91CF910895833071F0843028F4813055
:1009A000A1F0823021F514C08630B1F08730D1F04B
:1009B0008430E9F404C0809180008F7703C0809177
:1009C00080008F7D80938000089584B58F7702C06A
:1009D00084B58F7D84BD08958091B0008F7780931A
:1009E000B00008958091B0008F7D8093B00008958D
:1009F000FF920F931F93F62E482F50E0CA018255A5
:100A00009F4FFC012491CA0186569F4FFC0114910F
:100A10004A575F4FFA0104910023C9F0222319F0CD
:100A2000822F0E94CB04E02FF0E0EE0FFF1FEE5864
:100A3000FF4FA591B4919FB7F894FF2021F48C91BA
:100A40001095812302C08C91812B8C939FBF1F91A5
:100A50000F91FF9008950F931F93482F50E0CA0104
:100A600082559F4FFC012491CA0186569F4FFC017D
:100A700004914A575F4FFA011491112319F420E0B1
:100A800030E015C0222319F0822F0E94CB04812F61
:100A900090E0880F991F84589F4FFC01A591B49155
:100AA0008C9120E030E0802311F021E030E0C9019A
:100AB0001F910F910895CF92DF92EF92FF920F93C3
:100AC0001F93CF93DF937C016B018A01C0E0D0E0DC
:100AD0000FC0D6016D916D01D701ED91FC91019090
:100AE000F081E02DC7010995C80FD91F01501040B2
:100AF0000115110571F7CE01DF91CF911F910F9173
:100B0000FF90EF90DF90CF900895CF93DF93EC01AB
:100B10006115710519F420E030E00FC0DB010D9084
:100B20000020E9F71197A61BB70BE881F981028035
:100B3000F381E02DAD0109959C01C901DF91CF91B1
:100B400008954F925F927F928F929F92AF92BF9241
:100B5000CF92DF92EF92FF920F931F93DF93CF9389
:100B6000CDB7DEB7A1970FB6F894DEBF0FBECDBFED
:100B70002C01742ECB01223008F42AE019A231E2B4
:100B8000C32ED12CCC0EDD1E822E9924AA24BB2488
:100B9000672D752FA50194010E94640C79018A01CB
:100BA000C801B701A50194010E94450C472D461BC1
:100BB0000894C108D1084A3010F4405D01C0495C76
:100BC000F6014083E114F1040105110521F07E2CAA
:100BD0005F2DC801DDCFC201B6010E948505A19637
:100BE0000FB6F894DEBF0FBECDBFCF91DF911F913E
:100BF0000F91FF90EF90DF90CF90BF90AF909F90BC
:100C00008F907F905F904F900895DC012115310502
:100C100041F4ED91FC910190F081E02D642F099554
:100C200008950E94A1050895CF92DF92EF92FF925E
:100C30000F931F93CF93DF93EC016A017B01211582
:100C4000310541F4E881F9810190F081E02D642FB4
:100C500009951FC02A303105D1F477FF17C0E8810C
:100C6000F9810190F081E02D6DE209958C01442716
:100C70005527BA014C195D096E097F09CE012AE09A
:100C80000E94A1059801280F391F04C02AE00E9484
:100C9000A1059C01C901DF91CF911F910F91FF9098
:100CA000EF90DF90CF9008950E94850508957F9280
:100CB0008F929F92AF92BF92CF92DF92EF92FF926C
:100CC0000F931F93CF93DF934C017A018B01722E08
:100CD000CB01BA01A80197010E94410C882321F0A1
:100CE000C40162E471E021C0C0E0D0E057016801B6
:100CF000E894D7F8C601B5012FEF3FEF4FE75FE764
:100D00000E94410C882351F4C601B5012FEF3FEF3B
:100D10004FE75FE70E948B0A181614F0C1E0D0E09D
:100D2000219739F0C40166E471E00E948505EC0169
:100D300093C0C801B7012FEF3FEF4FE75FE40E9478
:100D4000DA0B181654F0C801B7012FEF3FEF4FE749
:100D50005FEC0E948B0A882324F4C4016AE471E0EA
:100D6000E4CFC801B70120E030E040E050E00E944D
:100D70008B0A87FD03C0C0E0D0E00EC0D401ED9126
:100D8000FC910190F081E02DC4016DE20995EC0128
:100D900017FB109517F9109520E030E040E05FE375
:100DA000DD240BC0CA01B90120E030E040E251E48B
:100DB0000E948F0A9B01AC01D394D71498F3C80109
:100DC000B7010E94270A5B016C010E94FC0A7B01AB
:100DD0008C01C401B801A7012AE030E00E94050699
:100DE000C80FD91F772039F0C4016EE471E00E946A
:100DF0008505C80FD91FC801B7010E94280B9B01A8
:100E0000AC01C601B5010E94260A24C020E030E0F2
:100E100040E251E40E94DE0B7B018C010E94F70A44
:100E20005B016C01CC24B7FCC094DC2CC401B6017E
:100E3000A5012AE030E00E941406C80FD91FC601A0
:100E4000B5010E942A0B9B01AC01C801B7010E94A9
:100E5000260A7A947720D1F6CE01DF91CF911F91A7
:100E60000F91FF90EF90DF90CF90BF90AF909F9049
:100E70008F907F9008950E9457060895CF93DF9337
:100E80000E9451040E948602C0E0D0E00E941D032F
:100E90002097E1F30E940000F9CF0F931F938C017C
:100EA000FC01868160E00E94F80481E090E00E94ED
:100EB0004704F801868161E00E94F80481E090E037
:100EC0000E944704F801868160E00E94F80484E6ED
:100ED00090E00E9447041F910F910895CF92DF92F6
:100EE000EF92FF920F931F93CF93DF93D82EC92ECB
:100EF000282F392FC9018C01C0E0D0E0E62EFF2455
:100F0000F801878161E00E948C04B7010C2E02C0B9
:100F1000759567950A94E2F76170F80187810E94E0
:100F2000F80421960F5F1F4FC830D10549F78D2D6A
:100F30009C2D0E944D07DF91CF911F910F91FF9043
:100F4000EF90DF90CF900895CF92DF92EF92FF92D3
:100F50000F931F93CF93DF93D82EC92E282F392FAD
:100F6000C9018C01C0E0D0E0E62EFF24F8018781A2
:100F700061E00E948C04B7010C2E02C07595679544
:100F80000A94E2F76170F80187810E94F8042196C3
:100F90000F5F1F4FC430D10549F78D2D9C2D0E9446
:100FA0004D07DF91CF911F910F91FF90EF90DF9050
:100FB000CF9008951F93CF93DF93EC01162F8C8170
:100FC000642F0E94F8048D818F3F19F060E00E9429
:100FD000F8048F8584FF05C0CE01612F0E946E0743
:100FE0000EC0612F70E084E0759567958A95E1F7F2
:100FF000CE010E94A407CE01612F0E94A407DF91B9
:10100000CF911F91089541E00E94DA0781E090E0BE
:10101000089540E00E94DA070895FC016089862F58
:101020008460808B6C60CF010E9409080895DF9373
:10103000CF93CDB7DEB728970FB6F894DEBF0FBEBB
:10104000CDBF9C01FE013196AAE6B1E088E00D908B
:1010500001928150E1F7F9018389481710F0482F78
:101060004150E42FF0E0EE0FFF1FEC0FFD1F8181D8
:10107000680F6068C9010E94090828960FB6F894A5
:10108000DEBF0FBECDBFCF91DF91089561E00E941A
:10109000090880ED97E00E9447040895CF93DF93FD
:1010A000EC01423018F08F8588608F874B8B1C8A4B
:1010B000222329F0413019F48F8584608F8780E5E1
:1010C00093EC0E9447048C8160E00E94F8048E81BA
:1010D00060E00E94F8048D818F3F19F060E00E946B
:1010E000F8046F8564FD1DC0CE0163E00E94A40773
:1010F00084E991E10E944704CE0163E00E94A407C5
:1011000084E991E10E944704CE0163E00E94A407B4
:1011100086E990E00E944704CE0162E00E94A407A5
:1011200016C06062CE010E94090884E991E10E9424
:1011300047046F856062CE010E94090886E990E04D
:101140000E9447046F856062CE010E9409086F8586
:101150006062CE010E94090884E0888BCE010E9463
:101160000D08CE010E94460882E0898BCE0166E020
:101170000E940908DF91CF9108956F927F928F921C
:10118000AF92CF92EF920F931F93DF93CF93CDB790
:10119000DEB73C01162F842FF30144832583068399
:1011A000E782C086A18682869D8593879E859487E7
:1011B0009F8595879889968761E00E948C04F3014A
:1011C00085818F3F19F061E00E948C04F3018681D4
:1011D00061E00E948C04112319F0F301178603C00B
:1011E00080E1F3018787C30160E141E020E00E94D4
:1011F0004E08CF91DF911F910F91EF90CF90AF905C
:101200008F907F906F9008958F92AF92CF92EF92D0
:101210000F931F93CF93DF93DC01362F542F722F40
:10122000102FAE2C8C2C13961C921E92129786E6D1
:1012300091E011969C938E9300D000D0EDB7FEB74D
:101240003196CDB7DEB71982118212821382CD0199
:1012500061E0432F2FEF052FE72EC12E0E94BD081E
:101260000F900F900F900F90DF91CF911F910F91E2
:10127000EF90CF90AF908F9008951F920F920FB67E
:101280000F9211242F933F934F935F936F937F930C
:101290008F939F93AF93BF93EF93FF932091A00100
:1012A0003091A1018091A2019091A30128173907E3
:1012B000A0F18091A4019091A5010E944704809122
:1012C0008100887F80938100809170008D7F809362
:1012D000700080916E00816080936E0081E0809349
:1012E0009E0180919F01209184003091850090E0C3
:1012F000A0E0B0E0DC019927882740E050E0820FB1
:10130000931FA41FB51F80939A0190939B01A093F4
:101310009C01B0939D0110929F018091A00190913A
:10132000A10101969093A1018093A001B09B07C0F9
:1013300080919F018F5F80939F0181E086BBFF9129
:10134000EF91BF91AF919F918F917F916F915F913D
:101350004F913F912F910F900FBE0F901F901895B6
:101360000F931F93182F092F80916E008E7F80930B
:101370006E0082E390E00E944704812F902F9093AB
:10138000A3018093A2018091A4019091A501892BD2
:1013900031F481E090E09093A5018093A401109234
:1013A000800010928100109285001092840080913C
:1013B00081008160809381008091810082608093B0
:1013C0008100809181008460809381001092B00040
:1013D0001092B1008091B10081608093B100809142
:1013E000B1008D7F8093B1008091B10084608093C3
:1013F000B1008091B0008E7F8093B0008091B000EA
:1014000082608093B0008091B000877F8093B000AD
:101410008CE78093B30010929E011092A10110926C
:10142000A00182E083BD1092B2001092850010925C
:1014300084008091700082608093700080918100B0
:101440008760809381001F910F9108955058BB27AA
:10145000AA270ED075C166D130F06BD120F031F4DF
:101460009F3F11F41EF45BC10EF4E095E7FB51C100
:10147000E92F77D180F3BA176207730784079507BE
:1014800018F071F49EF58FC10EF4E0950B2EBA2F73
:10149000A02D0B01B90190010C01CA01A00111247A
:1014A000FF27591B99F0593F50F4503E68F11A1626
:1014B000F040A22F232F342F4427585FF3CF4695B7
:1014C00037952795A795F0405395C9F77EF41F16D9
:1014D000BA0B620B730B840BBAF09150A1F0FF0FA3
:1014E000BB1F661F771F881FC2F70EC0BA0F621F8F
:1014F000731F841F48F4879577956795B795F7957F
:101500009E3F08F0B3CF9395880F08F09927EE0F10
:10151000979587950895D9D008F481E008950CD067
:101520000FC107D140F0FED030F021F45F3F19F039
:10153000F0C0511139C1F3C014D198F39923C9F304
:101540005523B1F3951B550BBB27AA2762177307C9
:10155000840738F09F5F5F4F220F331F441FAA1F7D
:10156000A9F333D00E2E3AF0E0E830D0915050403D
:10157000E695001CCAF729D0FE2F27D0660F771FEB
:10158000881FBB1F261737074807AB07B0E809F0CD
:10159000BB0B802DBF01FF2793585F4F2AF09E3F62
:1015A000510568F0B6C000C15F3FECF3983EDCF334
:1015B000869577956795B795F7959F5FC9F7880FDB
:1015C000911D9695879597F90895E1E0660F771F2D
:1015D000881FBB1F621773078407BA0720F0621BBE
:1015E000730B840BBA0BEE1F88F7E095089504D0B7
:1015F0006894B111D9C00895BCD088F09F5790F07D
:10160000B92F9927B751A0F0D1F0660F771F881F27
:10161000991F1AF0BA95C9F712C0B13081F0C3D042
:10162000B1E00895C0C0672F782F8827B85F39F0E0
:10163000B93FCCF3869577956795B395D9F73EF486
:1016400090958095709561957F4F8F4F9F4F08952E
:10165000E89409C097FB3EF490958095709561954C
:101660007F4F8F4F9F4F9923A9F0F92F96E9BB2702
:101670009395F695879577956795B795F111F8CF7E
:10168000FAF4BB0F11F460FF1BC06F5F7F4F8F4FE9
:101690009F4F16C0882311F096E911C0772321F0DF
:1016A0009EE8872F762F05C0662371F096E8862F77
:1016B00070E060E02AF09A95660F771F881FDAF7CE
:1016C000880F9695879597F90895990F0008550FFB
:1016D000AA0BE0E8FEEF16161706E807F907C0F0B8
:1016E00012161306E407F50798F0621B730B840BC0
:1016F000950B39F40A2661F0232B242B252B21F49A
:1017000008950A2609F4A140A6958FEF811D811D39
:10171000089597F99F6780E870E060E008959FEF73
:1017200080EC089500240A94161617061806090678
:10173000089500240A941216130614060506089547
:10174000092E0394000C11F4882352F0BB0F40F4CF
:10175000BF2B11F460FF04C06F5F7F4F8F4F9F4F0F
:10176000089557FD9058440F551F59F05F3F71F091
:101770004795880F97FB991F61F09F3F79F08795F8
:101780000895121613061406551FF2CF4695F1DF81
:1017900008C0161617061806991FF1CF8695710511
:1017A000610508940895E894BB2766277727CB0145
:1017B00097F908958ADF08F48FEF08950BD0C0CF12
:1017C000B1DF28F0B6DF18F0952309F0A2CFA7CF3C
:1017D0001124EACFC6DFA0F3959FD1F3950F50E017
:1017E000551F629FF001729FBB27F00DB11D639FD3
:1017F000AA27F00DB11DAA1F649F6627B00DA11D79
:10180000661F829F2227B00DA11D621F739FB00D1E
:10181000A11D621F839FA00D611D221F749F33278E
:10182000A00D611D231F849F600D211D822F762F27
:101830006A2F11249F5750408AF0E1F088234AF024
:10184000EE0FFF1FBB1F661F771F881F9150504070
:10185000A9F79E3F510570F05CCFA6CF5F3FECF338
:10186000983EDCF3869577956795B795F795E7955C
:101870009F5FC1F7FE2B880F911D9695879597F96D
:10188000089523DF880B990B0895629FD001739F01
:10189000F001829FE00DF11D649FE00DF11D929F0C
:1018A000F00D839FF00D749FF00D659FF00D99274B
:1018B000729FB00DE11DF91F639FB00DE11DF91F6F
:1018C000BD01CF0111240895A1E21A2EAA1BBB1B52
:1018D000FD010DC0AA1FBB1FEE1FFF1FA217B307FC
:1018E000E407F50720F0A21BB30BE40BF50B661F12
:1018F000771F881F991F1A9469F7609570958095D6
:1019000090959B01AC01BD01CF010895EE0FFF1F23
:0C1910000590F491E02D0994F894FFCFAD
:10191C0020007046006E46002D2D2D006E4800757F
:10192C0048006D4800480020487A00204B487A0057
:10193C004D6F64653A204C004D6F64653A2043004E
:10194C004672657175656E63793A2000202043619B
:10195C006C006E616E00696E66006F7666002E001C
:10196C0000ECA9483CBC67395F7089300B000C0057
:10197C000F000000000003085B050000400014008D
:02198C00540005
:00000001FF
