:100000003DC09EC156C055C054C053C052C051C01F
:1000100050C04FC04EC04DC04CC04BC04AC004037E
:100020000904200363006F006400650061006E0036
:1000300064006C006900660065002E0063006F00BC
:100040006D00160355005300420065007800610002
:100050006D0070006C00650012011001FF000008C7
:10006000C016DC05000101020001090212000101B5
:1000700000801909040000000000000011241FBEC8
:10008000CFE5D2E0DEBFCDBF10E0A0E6B0E0EEE706
:10009000F7E002C005900D92A237B107D9F710E042
:1000A000A2E7B0E001C01D92A03AB107E1F7ECD29F
:1000B00064C3A6CF85B7826085BF8BB780648BBFD2
:1000C00008951F93CF93DF9360918600635067FD7F
:1000D000A3C080918300CCE0D0E0C81BD109C657F3
:1000E000DF4F809182008D3209F084C0683009F0C2
:1000F00091C083EC809376008AE580936000109233
:1001000073008881807639F0CE016BD2282F8F3F23
:1001100009F45FC065C09A8110927F0089818823AD
:1001200021F41092800022E04DC0853019F49093A4
:10013000870047C08630B1F58B81813019F488E59E
:1001400090E004C0823041F48AE690E0909385000C
:100150008093840022E122C08330F9F48A818823CD
:1001600041F48EE190E0909385008093840024E038
:1001700015C0813041F482E290E090938500809335
:10018000840020E20BC0823041F482E490E090933E
:1001900085008093840026E101C020E080E4809304
:1001A00073001EC0883021F421E089E890E00CC083
:1001B000893019F49093890004C08A3011F421E049
:1001C00001C020E08FE790E0909385008093840049
:1001D00007C0888187FD2E8180E88093730006C068
:1001E0008F81882319F48E81821708F0822F8093E3
:1001F000610010C08091730087FF0CC0CE0129D22E
:100200008F3F21F48EE18093600004C0882311F0B9
:1002100010926100109286008091600084FF49C0B6
:10022000809161008F3F09F444C0182F893008F095
:1002300018E0811B809361008091760098E88927FF
:1002400080937600112341F1209184003091850044
:100250008091730086FF0DC0A7E7B0E080E090E0DA
:10026000F901E80FF91FE491ED9301961817C1F712
:1002700008C0912FD901E7E7F0E08D91819391506B
:10028000E1F71150812F90E01F5F0196820F931FBD
:10029000909385008093840087E790E0612F39D0A8
:1002A000612F6C5F6C3019F08FEF80936100609369
:1002B000600094E186B3867031F49150D9F71092C2
:1002C00087001092810010E0992309F411E08091D9
:1002D0007200811729F0112309F4FED110937200E6
:1002E000DF91CF911F910895A82FB92F80E090E062
:1002F00041E050EA609530E009C02D918227979542
:10030000879510F084279527305EC8F36F5FA8F3B8
:100310000895EADF8D939D930895A6E08827992795
:10032000AA9569F00197E1F3B199FCCFB19BFECF9B
:1003300081E09927A6B3019611F0A670D9F7089528
:10034000CF93CFB7CF93C395B19BE9F7B19B0BC0C8
:10035000B19B09C0B19B07C0B19B05C0B19B03C055
:10036000B19B01C0D3C00F92DF93C0918300DD2702
:10037000C657DF4F012EB19B03C0DF910F90E6CF30
:100380002F930F931F934F932FEF4F6F06B301FBE4
:1003900020F95F933F9350E03BE065C016B3012620
:1003A000502951FDC89556B3012701FB25F92F733C
:1003B00006B3B1F05027102711FB26F906B2223000
:1003C000F0F000C016B3012701FB27F901265029E0
:1003D00006B22430E8F54F77206816B30000F6CF58
:1003E00050274F7D206206B2102F000000C006B3D8
:1003F00000265029102711FB26F906B2E2CF4F7BC9
:1004000006B3206400C0DACF01265029167006B268
:1004100069F14E7F2160012F16B328C000265029B4
:100420004D7F06B22260102F29C0012650294B7F34
:1004300006B22460012F2DC016B301265029477F34
:100440002860000006B22EC04F7E06B3206130C087
:10045000422706B3499300265029102706B24FEFD2
:1004600011FB20F9297F16B379F2167059F1012694
:10047000502906B2012701FB21F9237F06B371F24F
:10048000002650293150D0F006B2102711FB22F976
:10049000277E16B351F201265029012701FB06B22F
:1004A00023F92F7C49F2000006B3102711FB24F931
:1004B0000026502906B22F7939F270CF10E41ABF06
:1004C000002717C03B503195C31BD04010E41ABF22
:1004D0000881033CF9F00B34E9F020918100198187
:1004E000110F1213EDCF093651F10D3211F0013E0B
:1004F00039F7009388003F915F914F911F910F91C1
:100500002F91DF910F90CAB7C6FD1DCFCF91CFBFFE
:10051000CF91189520918800222369F310918600CD
:10052000112321F5343022F130938600209382008C
:10053000109183003BE0311B3093830019C0009180
:10054000860001309CF40AE53091600034FD11C052
:1005500000936000C6E7D0E010C0052710E000C09F
:1005600021C0052710E0C89508BB14C03AE501C0BA
:1005700032ED032EC0E0D0E032E017B31660C19A2E
:1005800008B317BB56E020E84FEF20FF052708BB54
:10059000279517951C3F28F700004552B0F720FF1C
:1005A0000527279508BB17951C3FB8F629913A9562
:1005B00061F7097F10918700110F08BBC250D0402E
:1005C00011F01093810010E41ABF026017B3197F75
:1005D000402F497F54E05A95F1F708BB17BB48BB41
:1005E0008ACFFC018181823081F0833028F4882316
:1005F00051F08130F1F405C0833079F08430C9F4D2
:100600001AC0C39A16C0C39814C082E690E09093B3
:1006100085008093840080E1089582818093690041
:10062000838180936A00848180936B0085818093AD
:100630006C0080E0089586818093750010927400AC
:10064000813110F48FEF089580E1809375008FEF72
:10065000089540917500E0917400DC0190E007C0BE
:10066000F0E0EE59FF4F8D9180839F5FE22FE417FA
:1006700020F42E2F2F5F961798F3E093740080E0FC
:10068000E41709F481E0089588E087BBC39A20E06D
:100690004AE350E2A895CA010197F1F72F5F223390
:1006A000C9F7C3982EE088E190E00FB6F894A895BA
:1006B00081BD0FBE21BDFEDCB99A20E04AE350E2C5
:1006C000A895CA010197F1F72F5F2A3FC9F7B9989A
:1006D0007894A895F6DCFDCFCF92DF92EF92FF924F
:1006E0000F931F93CF93DF93CFE0D7E2DD24DD207C
:1006F00011F010E801C010E040E050E000E4EE240A
:10070000FF244453594014F4100F01C0101B11BFB3
:1007100004DE9C01AC0189E02533380714F0C901DF
:1007200004C088279927821B930B845399408C1708
:100730009D076CF489E02533380714F0E90104C003
:10074000CC27DD27C21BD30BC453D940C12E06953D
:100750000894E11CF11C87E0E816F10491F6D394AB
:1007600082E0D81621F6C1BEDF91CF911F910F9183
:0E077000FF90EF90DF90CF900895F894FFCFA8
:10077E005AFF48656C6C6F2C2055534221000000C7
:02078E00000069
:00000001FF
