:100000003FC04EC04DC04CC04BC04AC049C048C0A4
:1000100047C0E0C045C044C043C042C041C040C02A
:100020003FC03EC03DC0000000003700340031003A
:1000300000000000380035003200000000003600EB
:100040003300300004040404040404040202020225
:10005000020203030303030301020408102040808B
:100060000102040810200102040810200000000012
:100070000000000000030405000000000000000074
:1000800011241FBECFE5D4E0DEBFCDBF10E0A0E657
:10009000B0E001C01D92A936B107E1F753D156C1B6
:1000A000AFCF8EE060E062D068EE73E080E090E079
:1000B00005D18FE060E05AD068EE73E080E090E018
:1000C000FDD08EE061E052D068EE73E080E090E019
:1000D000F5D08FE061E04AD068EE73E080E090E018
:1000E000EDD008958EE061E00AD08FE061E007D0A6
:1000F0008EE061E03BD08FE061E038D00895482F7A
:1001000050E0CA01885A9F4FFC0124914C5B5F4F1D
:10011000FA0184918823C1F0E82FF0E0EE0FFF1F71
:10012000EA5DFF4FA591B491662341F49FB7F8941F
:100130008C91209582238C939FBF08959FB7F8944C
:100140008C91822B8C939FBF0895843039F0853039
:1001500049F0833051F48FB58F7702C08FB58F7D12
:100160008FBD089585B58F7D85BD0895FF920F934E
:100170001F93F62E482F50E0CA0184599F4FFC016F
:100180002491CA01885A9F4FFC0114914C5B5F4F28
:10019000FA0104910023D1F0222311F0822FD5DF40
:1001A000E02FF0E0EE0FFF1FE05DFF4FA591B4914F
:1001B000FF2031F49FB7F8948C911095812304C0EF
:1001C0009FB7F8948C91812B8C939FBF1F910F91B7
:1001D000FF9008951F920F920FB60F9211242F9344
:1001E0003F938F939F93AF93BF93809164009091BF
:1001F0006500A0916600B09167003091680001969B
:10020000A11DB11D232F235D2D3720F02D57019601
:10021000A11DB11D20936800809364009093650038
:10022000A0936600B0936700809160009091610098
:10023000A0916200B09163000196A11DB11D809351
:10024000600090936100A0936200B0936300BF913F
:10025000AF919F918F913F912F910F900FBE0F9073
:100260001F9018953FB7F8948091600090916100BD
:10027000A0916200B091630022B708B600FE05C0ED
:100280002F3F19F00196A11DB11D3FBFBA2FA92F15
:10029000982F8827820F911DA11DB11D9C01AD01D2
:1002A00062E0220F331F441F551F6A95D1F7280FB4
:1002B000391F4A1F5B1FB901CA010895EF92FF92CF
:1002C0000F931F93CF93DF937B018C01CBDFEB0167
:1002D0000DC0C8DF6C1B7D0B685E7340D0F30894C3
:1002E000E108F10801091109C851DC4FE114F104DA
:1002F0000105110571F7DF91CF911F910F91FF90CB
:10030000EF900895789483B7826083BF83B781604C
:1003100083BF89B7816089BF1EBC8EB582608EBDE8
:100320008EB581608EBD8FB581608FBD85B58460CF
:1003300085BD85B5806485BD329A319A309A379AE9
:100340001AB80895DFDFCEDEACDEFECFF894FFCF23
:00000001FF
