:100000000C9462000C948A000C948A000C948A0070
:100010000C948A000C948A000C948A000C948A0038
:100020000C948A000C948A000C948A000C948A0028
:100030000C948A000C948A000C948A000C948A0018
:100040000C94A3060C948A000C9413080C945A0880
:100050000C948A000C948A000C948A000C948A00F8
:100060000C948A000C948A000000000024002700F1
:100070002A0000000000250028002B0000000000DE
:1000800023002600290004040404040404040202DA
:100090000202020203030303030301020408102007
:1000A0004080010204081020010204081020000012
:1000B0000007000201000003040600000000000029
:1000C0000000C00911241FBECFEFD8E0DEBFCDBFB6
:1000D00011E0A0E0B1E0E4E2F5E102C005900D928C
:1000E000AA31B107D9F712E0AAE1B1E001C01D922F
:1000F000A23EB107E1F710E0C4ECD0E004C02297C3
:10010000FE010E948C0AC23CD107C9F70E94100A66
:100110000C94900A0C94000080912001809320029E
:1001200080912101809321028091220180932202FB
:1001300080912301809323028091240180932402E3
:1001400080912501809325028091260180932602CB
:1001500080912701809327028091280180932802B3
:100160001092290290912A0180E020912B01820FA8
:10017000911D90932B0280932A0290912C0180E094
:1001800020912D01820F911D90932D0280932C02BE
:1001900090912E0180E020912F01820F911D90936C
:1001A0002F0280932E029091320180E02091330142
:1001B000820F911D9093310280933002089590E058
:1001C000049633E0880F991F3A95E1F78EBD0DB480
:1001D00007FEFDCF8EB57EBD0DB407FEFDCF8EB5FB
:1001E0006EBD0DB407FEFDCF8EB51EBC0DB407FE6F
:1001F000FDCF8EB50895CF92DF92EF92FF920F93CD
:100200001F93CF93DF937C01C0911E01D0911F01FA
:10021000CC0FDD1F00E010E040EAC42EDD24DA94AC
:100220001BC0CEBC0DB407FEFDCF8EB5DEBD0DB438
:1002300007FEFDCF8EB5CEBD0DB407FEFDCF8EB54A
:10024000DEBC0DB407FEFDCF6EB583EC92E00E94DC
:10025000490A0F5F1F4F21960E151F0514F380E109
:10026000DF91CF911F910F91FF90EF90DF90CF9092
:1002700008950F931F93CF93DF938C01C0E0D0E0DC
:1002800022C060911E0170911F0180E00E94DF007A
:10029000682F83EC92E00E94490A60911E017091E0
:1002A0001F0181E00E94DF00682F83EC92E00E9432
:1002B000490A80911E0190911F01019690931F01A0
:1002C00080931E012296C017D107DCF280E1DF91F6
:1002D000CF911F910F9108958CE060E00E947F07FD
:1002E0008BE060E00E947F078DE060E00E947F0766
:1002F0008AE060E00E947F0710921D0110921C01AD
:10030000089583E58CBD8DB58EB58AE061E00E94CD
:100310007F078AE061E00E94BE078DE061E00E94F5
:100320007F078DE060E00E94BE0762E370E080E03E
:1003300090E00E94EB068AE060E00E94BE0762E364
:1003400070E080E090E00E94EB068CE060E00E94AC
:100350007F078BE061E00E947F078CEA8EBD0DB4C1
:1003600007FEFDCF8EB583E58EBD0DB407FEFDCF34
:100370008EB51EBC0DB407FEFDCF8EB51EBC0DB4F0
:1003800007FEFDCF8EB581E090E090931D01809334
:100390001C010895682F87E00E94BE0708950F93FF
:1003A0001F938C0180E090E00E94CA018CE48EBD16
:1003B0000DB407FEFDCF8EB51EBD0DB407FEFDCFFB
:1003C0008EB50EBD0DB407FEFDCF8EB51EBC0DB4AF
:1003D00007FEFDCF8EB56EE170E080E090E00E94F8
:1003E000EB0681E090E00E94CA011F910F910895F1
:1003F000CF92DF92EF92FF920F931F93CF93DF93F1
:100400007C0180912C0290912D028032910531F473
:1004100080911E0190911F01807F11C08034910551
:1004200031F480911E0190911F01807E08C08038B8
:10043000910571F480911E0190911F01807CC0E2B2
:10044000D1E000E010E070E4C72E68E4D62E9BC037
:1004500020911E0130911F018050914019F4C90173
:100460008078EDCFC901EBCF40912C0250912D0245
:100470004032510531F420911E0130911F01207F3F
:100480001AC04034510531F420911E0130911F01F2
:10049000207E11C04038510531F420911E01309169
:1004A0001F01207C08C020911E0130911F01405087
:1004B000514009F420788217930761F10E94CF011F
:1004C00080912C0290912D028032910531F480911F
:1004D0001E0190911F01807F1DC08034910531F471
:1004E00080911E0190911F01807E14C0803891057B
:1004F00031F480911E0190911F01807C0BC02091EE
:100500001E0130911F018050914019F4C90180787B
:1005100001C0C90120911E0130911F014881532F54
:10052000622FCEBC0DB407FEFDCF7EB55EBD0DB40F
:1005300007FEFDCF7EB56EBD0DB407FEFDCF7EB5C7
:100540004EBD0DB407FEFDCF4EB54981DEBC0DB4E6
:1005500007FEFDCF7EB55EBD0DB407FEFDCF5EB5D7
:100560006EBD0DB407FEFDCF5EB54EBD0DB407FEEA
:10057000FDCF0E5F1F4F4EB52F5F3F4F30931F01D2
:1005800020931E0122960E151F050CF46DCF0E94BC
:10059000CF0180E1DF91CF911F910F91FF90EF90FC
:1005A000DF90CF9008951F93CF93DF93182FEB0127
:1005B000812F61E00E94BE076EE170E080E090E074
:1005C0000E94EB06812F60E00E94BE076EE170E0A2
:1005D00080E090E00E94EB0621978FEFCF3FD80795
:1005E00039F7DF91CF911F91089583EC92E00E943B
:1005F0001B09892BD1F383EC92E00E944C090895EA
:100600000E94F502803269F080911A0190911B01DD
:10061000019690931B0180931A0183EC92E065E1AF
:1006200055C083EC92E064E10E94490A80E38EBDEC
:100630000DB407FEFDCF8EB51EBC0DB407FEFDCF79
:100640008EB51EBC0DB407FEFDCF8EB51EBC0DB41D
:1006500007FEFDCF6EB583EC92E00E94490A80E36D
:100660008EBD0DB407FEFDCF8EB51EBC0DB407FECA
:10067000FDCF8EB581E08EBD0DB407FEFDCF8EB5EA
:100680001EBC0DB407FEFDCF6EB583EC92E00E9458
:10069000490A80E38EBD0DB407FEFDCF8EB51EBCAA
:1006A0000DB407FEFDCF8EB582E08EBD0DB407FE02
:1006B000FDCF8EB51EBC0DB407FEFDCF6EB583EC2D
:1006C00092E00E94490A83EC92E060E10E94490AAC
:1006D0000895FF920F931F93CF93DF930E94F5022B
:1006E000F82E0E94F502082F0E94F502182F0E9492
:1006F000F502803269F080911A0190911B010196F8
:1007000090931B0180931A0183EC92E065E11AC07B
:100710009F2D80E0EC01C00FD11D83EC92E064E1DD
:100720000E94490A163421F4CE010E94390107C003
:10073000153411F061E104C0CE010E94FB00682F66
:1007400083EC92E00E94490ADF91CF911F910F91B3
:10075000FF9008951F93182F0E94F502803271F4C4
:1007600083EC92E064E10E94490A83EC92E0612FFD
:100770000E94490A83EC92E060E10CC080911A016A
:1007800090911B01019690931B0180931A0183ECB9
:1007900092E065E10E94490A1F910895813861F055
:1007A000823818F4803871F405C0823839F0833902
:1007B00049F406C082E007C081E005C082E103C0C1
:1007C00083E501C080E00E94AA0308950E94F5021B
:1007D000803249F483EC92E064E10E94490A83ECA0
:1007E00092E060E10CC080911A0190911B0101968A
:1007F00090931B0180931A0183EC92E065E10E94C3
:10080000490A08950F931F93CF93DF938C01C0E0A3
:10081000D0E007C00E94F502FE01E05EFE4F80833B
:100820002196C017D107B4F3DF91CF911F910F919B
:100830000895DF92EF92FF920F931F93CF93DF9370
:10084000182F092F7B01CB010E94020480E090E069
:100850000E94CA01212F302FC901EC0100E010E0F5
:10086000E0ECDE2E21C0F801E05EFE4FE081DEBC50
:100870000DB407FEFDCF8EB5DEBD0DB407FEFDCF76
:100880008EB5CEBD0DB407FEFDCF8EB5EEBD0DB459
:1008900007FEFDCF8EB56DE270E080E090E00E9433
:1008A000EB060F5F1F4F21960E151F05E4F281E046
:1008B00090E00E94CA0180E1DF91CF911F910F91DA
:1008C000FF90EF90DF9008950F931F93CF93DF93E6
:1008D000BC0120911E0130911F0180912E02909148
:1008E0002F02861797072CF08901000F111FEB01CB
:1008F00013C080911A0190911B01019690931B01E6
:1009000080931A0181E110C0C80160E270E00E948A
:100910001904005E1F4FA097C132D105ACF7C80182
:10092000BE010E94190480E1DF91CF911F910F91C8
:10093000089584E090E00E9402048091200190914B
:10094000210120912201309123018EBD0DB407FEBB
:10095000FDCF8EB59EBD0DB407FEFDCF8EB52EBD6D
:100960000DB407FEFDCF8EB53EBD0DB407FEFDCF25
:100970008EB50E94AA030895CF93DF93EC010E94E5
:1009800002040E94F502803261F483EC92E064E19B
:100990000E94490ACE010E94F801682F83EC92E080
:1009A0000CC080911A0190911B01019690931B013C
:1009B00080931A0183EC92E065E10E94490ADF917D
:1009C000CF9108950F931F93CF93DF930E94F50269
:1009D000182F00E00E94F502E801C80FD11D0E9407
:1009E000F502863421F4CE010E94BC0425C0853472
:1009F000F1F4CE010E946404082F0E94F5028032B7
:100A000049F483EC92E064E10E94490A83EC92E0AD
:100A1000602F10C080911A0190911B010196909354
:100A20001B0180931A0183EC92E065E103C083EC23
:100A300092E061E10E94490ADF91CF911F910F91ED
:100A400008950F931F930E94F502813509F482C027
:100A50008235B8F4813409F446C0823440F48033DE
:100A600049F1813361F1803209F088C07DC085345D
:100A700009F447C0803509F449C0823409F07EC0CA
:100A800037C0813609F45AC0823650F4863509F4ED
:100A90005EC0803609F450C0853509F06FC039C09A
:100AA000843709F451C0853709F45BC0843609F0F6
:100AB00065C047C010921B0110921A011FC00E940E
:100AC000F502803209F070C083EC92E064E10E948C
:100AD000490A83EC92E060E071E00E94650A83ECD1
:100AE00092E060E15FC00E94F5020E94CE035CC00C
:100AF00084E190E00E9402040E948C000E94E603C0
:100B000053C085E090E00E940204F8CF0E9481016A
:100B1000F5CF0E94F502082F10E010931F010093FB
:100B20001E010E94F502382F20E0200F311F309364
:100B30001F0120931E01E2CF0E94F5020E94F502E0
:100B4000DDCF0E94E20430C00E9469032DC00E94E4
:100B500099042AC010921B0110921A010E946C0184
:100B6000CDCF0E94000320C080911A0190911B01FB
:100B7000019690931B0180931A0111C080911A0174
:100B800090911B01019690931B0180931A010E9482
:100B9000F502803221F483EC92E062E103C083EC41
:100BA00092E065E10E94490A1F910F91089590918A
:100BB0000801913C28F080910901819580930901F9
:100BC000903228F480910901819580930901609108
:100BD0000901690F6093080189E070E00E944306F3
:100BE00064E170E080E090E00E94EB06089580915F
:100BF0001C0190911D01892B19F087E061E002C072
:100C000087E060E00E94BE0780911A0190911B016D
:100C1000892B19F088E061E002C088E060E00E9462
:100C2000BE070E94D70583EC92E00E941B09892B26
:100C300011F00E942105089583EC92E040E05BE40E
:100C400060E070E00E94950887E061E00E947F0705
:100C500087E090E062E070E00E94D30288E061E00B
:100C60000E947F0788E090E062E070E00E94D3027B
:100C700089E061E00E947F0789E090E062E070E037
:100C80000E94D30208951F93CF93DF93182FEB0197
:100C900061E00E947F07209709F44AC0CF3FD10549
:100CA00009F449C0E12FF0E0E255FF4F8491833011
:100CB000C1F0843028F4813051F08230B1F50CC09D
:100CC000863019F1873049F1843079F514C084B544
:100CD000806884BDC7BD33C084B5806284BDC8BD93
:100CE0002EC080918000806880938000D09389001E
:100CF000C093880024C0809180008062809380002F
:100D0000D0938B00C0938A001AC08091B000806895
:100D10008093B000C093B30012C08091B000806295
:100D20008093B000C093B4000AC0C038D1051CF451
:100D3000812F60E002C0812F61E00E94BE07DF9139
:100D4000CF911F9108951F920F920FB60F92112409
:100D50002F933F938F939F93AF93BF9380913602CE
:100D600090913702A0913802B091390230913A0245
:100D70000196A11DB11D232F2D5F2D3720F02D577A
:100D80000196A11DB11D20933A02809336029093E3
:100D90003702A0933802B0933902809132029091C9
:100DA0003302A0913402B09135020196A11DB11D0C
:100DB0008093320290933302A0933402B0933502B1
:100DC000BF91AF919F918F913F912F910F900FBE47
:100DD0000F901F9018959B01AC017FB7F8948091FC
:100DE000320290913302A0913402B091350266B57F
:100DF000A89B05C06F3F19F00196A11DB11D7FBFD3
:100E0000BA2FA92F982F8827860F911DA11DB11DDC
:100E100062E0880F991FAA1FBB1F6A95D1F7BC011A
:100E20002DC0FFB7F8948091320290913302A091C7
:100E30003402B0913502E6B5A89B05C0EF3F19F02A
:100E40000196A11DB11DFFBFBA2FA92F982F88278A
:100E50008E0F911DA11DB11DE2E0880F991FAA1FE1
:100E6000BB1FEA95D1F7861B970B885E9340C8F2AB
:100E7000215030404040504068517C4F2115310591
:100E80004105510571F60895789484B5826084BD5A
:100E900084B5816084BD85B5826085BD85B581607E
:100EA00085BDEEE6F0E0808181608083E1E8F0E0DE
:100EB0001082808182608083808181608083E0E80D
:100EC000F0E0808181608083E1EBF0E080818460EC
:100ED0008083E0EBF0E0808181608083EAE7F0E0EE
:100EE0008081846080838081826080838081816052
:100EF00080838081806880831092C1000895CF93A1
:100F0000DF93482F50E0CA0186569F4FFC01349171
:100F10004A575F4FFA018491882369F190E0880F66
:100F2000991FFC01E859FF4FA591B491FC01EE58BF
:100F3000FF4FC591D491662351F42FB7F8948C914B
:100F4000932F909589238C93888189230BC06230DD
:100F500061F42FB7F8948C91932F909589238C93FB
:100F60008881832B88832FBF06C09FB7F8948C910C
:100F7000832B8C939FBFDF91CF910895482F50E032
:100F8000CA0182559F4FFC012491CA0186569F4F8A
:100F9000FC0194914A575F4FFA013491332309F4CD
:100FA00040C0222351F1233071F0243028F4213045
:100FB000A1F0223011F514C02630B1F02730C1F075
:100FC0002430D9F404C0809180008F7703C08091D1
:100FD00080008F7D8093800010C084B58F7702C021
:100FE00084B58F7D84BD09C08091B0008F7703C028
:100FF0008091B0008F7D8093B000E32FF0E0EE0F82
:10100000FF1FEE58FF4FA591B4912FB7F8946623B8
:1010100021F48C919095892302C08C91892B8C931B
:101020002FBF089508951F920F920FB60F921124AB
:101030002F933F934F938F939F93EF93FF93409101
:10104000C60020917B0230917C022F5F3F4F2F73AF
:10105000307080917D0290917E022817390759F0F7
:10106000E0917B02F0917C02E55CFD4F4083309380
:101070007C0220937B02FF91EF919F918F914F9182
:101080003F912F910F900FBE0F901F901895E091F8
:10109000CF02F091D002E05CFF4F819191912081CD
:1010A0003181821B930B8F739070892B11F00E94FA
:1010B000120808951F920F920FB60F9211242F93CA
:1010C0003F938F939F93EF93FF932091BF023091B3
:1010D000C0028091C1029091C2022817390731F4F1
:1010E0008091C1008F7D8093C10014C0E091C10246
:1010F000F091C202E158FD4F20818091C102909190
:10110000C20201968F7390709093C2028093C102C5
:101110002093C600FF91EF919F918F913F912F9166
:101120000F900FBE0F901F901895AF92BF92DF9255
:10113000EF92FF920F931F93CF93DF93EC017A010D
:101140008B01DD24403081EE580780E0680780E0A5
:10115000780711F0DD24D39491E0A92EB12CEC890D
:10116000FD89DD2069F0C5010E8C02C0880F991F32
:101170000A94E2F7808360E079E08DE390E005C0B7
:10118000108260E874E88EE190E0A80197010E9467
:10119000680A215030404040504056954795379559
:1011A000279580E12030380720F0DD2011F0DD2484
:1011B000D6CFE889F9893083EA89FB892083EE89D3
:1011C000FF89408121E030E0C9010A8C02C0880F0C
:1011D000991F0A94E2F7482B4083EE89FF894081EA
:1011E000C9010B8C02C0880F991F0A94E2F7482BA3
:1011F0004083EE89FF894081C9010C8C02C0880FB1
:10120000991F0A94E2F7482B4083EE89FF89808179
:101210000D8C02C0220F331F0A94E2F72095282379
:101220002083DF91CF911F910F91FF90EF90DF907E
:10123000BF90AF900895DC011C96ED91FC911D9735
:10124000E05CFF4F2191319180819181281B390B06
:101250002F733070C9010895DC011C96ED91FC914B
:101260001D97E05CFF4F20813181E054F040DF01A9
:10127000AE5BBF4F8D919C9111972817390719F4D8
:101280002FEF3FEF07C08D919C91E80FF91F8081F0
:10129000282F30E0C9010895DC011C96ED91FC91E6
:1012A0001D97E05CFF4F20813181E054F040DF0169
:1012B000AE5BBF4F8D919C9111972817390719F498
:1012C0002FEF3FEF10C08D919C911197E80FF91F00
:1012D00020818D919C91119701968F73907011963A
:1012E0009C938E9330E0C9010895FC018685978513
:1012F000DC01A05CBF4FFC01EE5BFF4F2D913C91E8
:1013000011978081918128173907C1F70895CF93EC
:10131000DF93EC01EE85FF85E05CFF4F208131819A
:10132000E054F0402F5F3F4F2F733070DF01AE5B12
:10133000BF4F8D919C91119728173907D1F3E05C2D
:10134000FF4F80819181E054F040E80FF91F6083E6
:10135000EE85FF85E05CFF4F31832083EE89FF89B6
:10136000208181E090E00D8C02C0880F991F0A94C3
:10137000E2F7282B208381E090E0DF91CF91089560
:101380001092C6021092C50288EE93E0A0E0B0E091
:101390008093C7029093C802A093C902B093CA0277
:1013A0008EE091E09093C4028093C3028BE392E0BD
:1013B0009093D0028093CF028FE792E09093D20275
:1013C0008093D10285EC90E09093D4028093D30275
:1013D00084EC90E09093D6028093D50280EC90E06C
:1013E0009093D8028093D70281EC90E09093DA0238
:1013F0008093D90286EC90E09093DC028093DB022C
:1014000084E08093DD0283E08093DE0287E08093B6
:10141000DF0285E08093E00281E08093E10208959D
:10142000CF93DF930E9444070E941C06C7E4D8E0D4
:101430000E94F7052097E1F30E944708F9CFCF9269
:10144000DF92EF92FF920F931F93CF93DF937C0174
:101450006B018A01C0E0D0E00FC0D6016D916D0133
:10146000D701ED91FC910190F081E02DC701099524
:10147000C80FD91F015010400115110571F7CE0199
:10148000DF91CF911F910F91FF90EF90DF90CF9060
:101490000895DC01ED91FC910190F081E02D09951A
:1014A0000895CF93DF93DB010D900020E9F71197AA
:1014B000A61BB70BEC01E881F9810280F381E02DD6
:1014C000AD010995DF91CF9108950E94510A0895C9
:1014D000A1E21A2EAA1BBB1BFD010DC0AA1FBB1F38
:1014E000EE1FFF1FA217B307E407F50720F0A21BAA
:1014F000B30BE40BF50B661F771F881F991F1A9417
:1015000069F760957095809590959B01AC01BD0140
:10151000CF010895EE0FFF1F0590F491E02D09947F
:04152000F894FFCF6D
:1015240041565220495350008008000000008709AA
:0A1534001F0A1B094C092C09750958
:00000001FF
