:0800000077CC76CCACCC74CCBB
:1018C00017C016C04CC014C0040309041201100153
:1018D000FF000008D01653070B01000000010902A9
:1018E0001200010100803209040000000000000025
:1018F00011241FBECFE5D2E0CDBFDEBF00EB0F93BA
:1019000007E00F9310E0A0E6B0E0E0EEFFE102C0D8
:1019100005900D92A636B107D9F710E0A6E6B0E023
:1019200001C01D92A639B107E1F7E5C1A82FB92F73
:1019300080E090E041E050EA609530E009C02D91F0
:1019400082279795879510F084279527305EC8F3F6
:101950006F5FA8F30895EADF8D939D930895CF9369
:10196000CFB7CF93C0915F02C03B21F4C0915E021C
:10197000C73021F0CF91CFBFCF91A1CFCC27C39556
:10198000B39BE9F7B39B0BC0B39B09C0B39B07C0E4
:10199000B39B05C0B39B03C0B39B01C0D3C00F92E0
:1019A000DF93C0917900DD27C058DF4F012EB39B34
:1019B00003C0DF910F90E6CF2F930F931F934F93A8
:1019C0002FEF4F6F06B303FB20F95F933F9350E077
:1019D0003BE065C016B30126502953FDC89556B3A8
:1019E000012703FB25F92F7306B3B1F05027102709
:1019F00013FB26F906B22230F0F000C016B301271F
:101A000003FB27F90126502906B22430E8F54F7769
:101A1000206816B30000F6CF50274F7D206206B233
:101A2000102F000000C006B300265029102713FB1A
:101A300026F906B2E2CF4F7B06B3206400C0DACFAE
:101A400001265029187106B269F14E7F2160012FDD
:101A500016B328C0002650294D7F06B22260102FF1
:101A600029C0012650294B7F06B22460012F2DC0CA
:101A700016B301265029477F2860000006B22EC009
:101A80004F7E06B3206130C0422706B3499300263B
:101A90005029102706B24FEF13FB20F9297F16B308
:101AA00079F2187159F10126502906B2012703FB7A
:101AB00021F9237F06B371F2002650293150D0F06E
:101AC00006B2102713FB22F9277E16B351F2012626
:101AD0005029012703FB06B223F92F7C49F20000AD
:101AE00006B3102713FB24F90026502906B22F79DC
:101AF00039F270CF10E21ABF002717C03B50319562
:101B0000C31BD04010E21ABF0881033CF9F00B342C
:101B1000E9F0209177001981110F1213EDCF0936EA
:101B200051F10D3211F0013E39F700937E003F91E3
:101B30005F914F911F910F912F91DF910F90CAB735
:101B4000C5FD1DCFCF91CFBFCF91189520917E00BD
:101B5000222369F310917C00112321F5343022F106
:101B600030937C0020937800109179003BE0311B8A
:101B70003093790019C000917C0001309CF40AE593
:101B80003091600034FD11C000936000CCE6D0E0DD
:101B900010C0052710E000C021C0052710E0C8953F
:101BA00008BB14C03AE501C032ED032EC0E0D0E01E
:101BB00032E017B31861C39A08B317BB58E120E8A5
:101BC0004FEF20FF052708BB279517951C3F28F7E7
:101BD00000004552B0F720FF0527279508BB179551
:101BE0001C3FB8F629913A9561F7077E10917D0068
:101BF000110F08BBC250D04011F01093770010E2D3
:101C00001ABF086017B3177E402F477E54E05A95DD
:101C1000F1F708BB17BB48BB8ACFF8942FEFB0E8A9
:101C2000A0E44AE0B1BF000081EE9CE0B399FECF92
:101C3000B39BFECF0197B399FDCF97FF03C0BA1BAB
:101C4000819501C0BA0FA69529F4281710F031B775
:101C5000282FA1E0415031F731BF0000789408955A
:101C6000F894F201329785E080935700E8957894D4
:101C700008959C01F2014114510439F490936900D4
:101C8000809368002FE53CEC20C0E430F10539F486
:101C900090936B0080936A002FE53CEC1DC088E1B7
:101CA000EC3BF80739F420916800309169002E551B
:101CB0003C4F12C088E1EE3BF80739F420916A00EE
:101CC00030916B002D553C4F07C088E1EA3BF80787
:101CD00019F481B7282F30E09FB7F89481E009010B
:101CE00080935700E895112482E0482E512C4E0E27
:101CF0005F1E9FBF08951F93CF93DF9314BE88E1AB
:101D000081BD87E081BDBB9A88E893E1ECE9F1E011
:101D10003197F1F70197D1F7BB98AC9A8BB78062F6
:101D20008BBF789477248CE991E00197F1F7A8951F
:101D3000332460917C00162F135017FDB6C080919C
:101D40007900CCE0D0E0C81BD109C058DF4F61500A
:101D5000CE01ECDD8E5F9F4409F0A5C08091780034
:101D60008D3209F086C0183009F09DC083EC809355
:101D70006C008AE58093600010926700888180760D
:101D800099818823D9F07724992341F482E690E061
:101D900090937B0080937A0024E061C0913059F4E5
:101DA00081E180935700E8954C805D80888187FDB4
:101DB00051C09FEF50C0392E20E051C08A8110924F
:101DC0007500992331F41092760085E790E022E0C7
:101DD0003CC0953019F480937D0034C0963011F5E5
:101DE0008B81813019F48CEC98E104C0823041F48D
:101DF0008EED98E190937B0080937A0022E10EC0F3
:101E0000833059F48A81882341F488EC98E19093D7
:101E10007B0080937A0024E001C020E080E480937E
:101E200067001DC0983019F48FE790E009C0993021
:101E300019F480937F0006C09A3021F485E790E082
:101E400021E003C085E790E020E090937B00809341
:101E50007A0005C09E8180E88093670007C08F816B
:101E6000882319F49E81921708F0922F90936100B5
:101E70001AC08091670087FF16C080EC481688E181
:101E8000580638F488819981F4DE125011F02296B8
:101E9000F4CF842D90E08F739070892B21F425E08E
:101EA000322E1092610010927C008091600084FFBD
:101EB0003CC0809161008F3FC1F1182F893008F03C
:101EC00018E0811B8093610080916C0098E889275D
:101ED00080936C001123E1F0E0917A00F0917B0097
:101EE0008091670086FF09C0912FADE6B0E0849134
:101EF0008D9331969150D9F707C0912FADE6B0E0A0
:101F000081918D939150E1F7F0937B00E0937A00FB
:101F10008DE690E0612F1FDD612F6C5F6C3019F052
:101F20008FEF809361006093600094E186B38871C5
:101F300031F49150D9F710927D001092770010E0A3
:101F4000992309F411E080916600811729F011238B
:101F500009F463DE10936600C30101963C018055CD
:101F6000934C11F494E0392E232D3320F1F08AE3C1
:101F700090E20197F1F72230A9F4F894E0ECF8E14F
:101F8000E054F04083E080935700E8953097C1F724
:101F90004424552410E08FEF9FEF6BDE1F5F183055
:101FA000D1F702C0253009F45BDE84E0381609F071
:101FB000BACEEDEBF8E1E491EF3F09F4B4CEF8943A
:101FC000BB9A1BBE15BA10925F02EAEBF8E194913E
:101FD000892F81508E3F10F491BF00006FCCFFCF4E
:061FE0005AFF18BA400888
:04000003000018C021
:00000001FF
