:1000000051C08FC074C073C072C071C070C06FC067
:100010006EC063C46CC06BC06AC069C068C067C092
:1000200066C065C064C00403090412036F00620067
:100030006400650076002E00610074001403440023
:10004000610074006100530074006F00720065006D
:100050001201100100000008C016DF0500010102B6
:10006000000109022200010100807D090400000155
:1000700003000000092101010001221D0007058184
:10008000030800640600FF0901A101150026FF0016
:1000900075089508090082020195200900B2020145
:1000A000C000CB0111241FBECFE5D4E0DEBFCDBF21
:1000B00010E0A0E6B0E0EAEBF9E002C005900D9296
:1000C000AA36B107D9F710E0AAE6B0E001C01D9248
:1000D000AB3FB107E1F710E0C4EAD0E003C02297DC
:1000E000FE0165D4C23AD107D1F7ECD364C488CFFE
:1000F000A82FB92F80E090E041E050EA609530E011
:1001000009C02D9182279795879510F08427952710
:10011000305EC8F36F5FA8F30895EADF8D939D9377
:100120000895CF93CFB7CF93C395B19BE9F7B19B18
:1001300009C0B19B07C0B19B05C0B19B03C0B19B77
:1001400001C0A3C0DF93C091DE00DD27CB51DF4F9C
:10015000B19B02C0DF91EBCF2F930F931F9306B398
:100160002FEF01FB20F94F933F9316B34FEF012779
:1001700001FB21F93BE031C04E7F012F16B3216016
:1001800028C0102F4D7F2260000006B329C04B7F8E
:100190002460012F000016B32BC016B3477F2860E0
:1001A0002AC04F7E06B320612CC04F7D16B320625B
:1001B0002FC04F7B06B3206432C0422706B3499359
:1001C0004FEF0000102711FB20F916B31370C9F18F
:1001D000297F91F2012701FB21F906B3237F89F2E0
:1001E000315058F1102711FB22F916B3277E79F20E
:1001F000012701FB23F92F7C81F206B3102711FBA5
:1002000024F92F7971F200C016B3012701FB25F9FB
:100210002F7359F200C006B3102711FB26F92230C4
:1002200040F200C016B3012701FB27F9243028F65D
:100230004F77206816B30000F9CF10E41ABF0027EB
:1002400019C03B503195C31BD04010E41ABF088140
:10025000033CF9F00B34E9F02091DC001981110F17
:100260001213EDCF4A81441F093641F10D3211F0CE
:10027000013E29F70093E3003F914F911F910F91A9
:100280002F91DF91CAB7C6FD4FCFCF91CFBFCF918E
:1002900018952091E300222379F31091E1001123B6
:1002A00069F534306AF13093E1002093DD0010915C
:1002B000DE003BE0311B3093DE0022C00091E10004
:1002C0000130E4F40AE54F7049F43091600034FDE8
:1002D00019C000936000C5ECD0E018C03091D00088
:1002E00034FD10C00093D000C1EDD0E00FC02795C1
:1002F000A8F45150A9F4220F0000F9CF4AE503C039
:1003000042ED01C0432FC4E1D0E032E017B31360E7
:10031000C19A17BB08B320E413E05F93012756E0AE
:1003200008BB279520F4515021F4220FF9CF012763
:1003300056E000003B5A08BBD0F2279528F45150F4
:1003400029F4220F0000F9CF012756E0279508BBBA
:1003500020F4515021F4220FF9CF012756E02991C2
:10036000332308BB21F60C7F1091E200110FC65118
:10037000D04008BB11F01093DC0010E41ABF0260FB
:1003800017B31C7F402F4C7F5F9100C000C008BB9B
:1003900017BB48BB71CF8AE690E0C7D10895CDD195
:1003A000882389F08EE690E0CBD1482F50E04115AC
:1003B000510549F08AE690E06EE670E015D28AE6D3
:1003C00090E06AE056D2DAD108956BD2089585B7ED
:1003D000826085BF8BB780648BBF8BE48093D10034
:1003E0008AE58093D00008951F93DC01162F809139
:1003F000D00084FF07C08091D10098E889278093BE
:10040000D10003C08AE58093D000912FE2EDF0E0A7
:100410008D91819391501916DCF382ED90E0612F5C
:100420007CDE1C5F1093D0001F9108951F93CF9323
:10043000DF936091E100635067FDBCC08091DE00F6
:10044000CCE0D0E0C81BD109CB51DF4F8091DD005B
:100450008D3209F09DC0683009F0AAC083EC80930A
:10046000C5008AE58093600010928E0088818076B6
:1004700039F0CE013BD1282F8F3F09F478C07EC0E0
:100480009A811092CE008981882321F41092CF00A6
:1004900022E066C0853019F49093E20060C0863097
:1004A00009F049C08B81813019F480E590E01AC0D1
:1004B000823041F482E690E09093E0008093DF0088
:1004C00022E235C08330F1F4992341F486E290E0D2
:1004D0009093E0008093DF0024E029C0913041F444
:1004E0008AE290E09093E0008093DF0022E11FC059
:1004F0009230E1F48CE390E09093E0008093DF0091
:1005000024E115C0813241F484E790E09093E0004B
:100510008093DF0029E00BC0823241F484E890E050
:100520009093E0008093DF002DE101C020E080E4A3
:1005300080938E0023C0883021F421E084EE90E087
:1005400011C0893019F49093E40009C08A3011F485
:1005500021E006C08B3019F48BE48093D10020E0B9
:100560008EEC90E09093E0008093DF0007C08881DC
:1005700087FD2E8180E880938E0006C08F818823BE
:1005800019F48E81821708F0822F8093610010C0C9
:1005900080918E0087FF0CC0CE0174D08F3F21F474
:1005A0008EE18093600004C0882311F010926100F6
:1005B0001092E1008091600084FF54C0809161003E
:1005C0008F3F09F44FC0182F893008F018E0811BC5
:1005D000809361008091C50098E889278093C500C9
:1005E000112371F180918E0087FF08C086EC90E0A6
:1005F000612F46D0182F893078F522C02091DF0076
:100600003091E00086FF0AC0912FF901A6ECB0E01E
:1006100084918D9331969150D9F708C0912FD901CB
:10062000E6ECF0E08D9181939150E1F7C9010196DC
:100630001150810F911D1F5F9093E0008093DF00A8
:1006400086EC90E0612F69DD612F6C5F6C3041F0CA
:100650008FEF8093610004C08FEF809361006EE1A3
:100660006093600094E186B3837031F49150D9F7C0
:100670001092E2001092DC00DF91CF911F9108955B
:1006800080E00895AC018091B800882311F081E0EA
:1006900008958091BB00861708F4682F861B80930D
:1006A000BB00A091B900B091BA0020E030E070E04A
:1006B00008C0FA01E20FF31FE081E111ED932F5F13
:1006C0003F4F26173707ACF3A093B900B093BA0099
:1006D000882311F080E0089581E080939700FD0168
:1006E0001192F093BA00E093B9000895FC01828161
:1006F0008093B800808180768032A9F48181813036
:1007000081F0893081F488E990E09093BA00809379
:10071000B90086818093BB00813218F080E280931B
:10072000BB008FEF089580E00895FC0113821282D0
:1007300086E690E0918380830895809197000895E4
:10074000DC01809197008823C1F080E090E005C033
:10075000FD01E80FF91F20830196FC01E856FF4FC9
:100760002081222319F08032910591F71092980090
:10077000A80FB91F1C9210929700089557DE089594
:10078000EF92FF921F93CF93DF937B01EA0101C0A9
:100790004DDE8091D00084FFFBCF88E0EFE8F0E0F1
:1007A000DF011D928A95E9F720E030E00AC0F901E7
:1007B000E157FF4FD701A20FB31F8C9180832F5FAA
:1007C0003F4F122F2C173D0718F42830310579F7C9
:1007D0008FE890E068E008DE812F90E0DF91CF9114
:1007E0001F91FF90EF9008958F929F92AF92BF92CA
:1007F000DF92EF92FF920F931F93CF93DF934C0101
:100800005B017A018A0193E0169507959A95E1F7C5
:100810000F5F1F4FC0E0D0E0DD2419C0CE01089665
:10082000E816F90618F048E050E003C0A7014C1B99
:100830005D0B6D2D70E083E0660F771F8A95E1F701
:100840006A0D7B1DC4019CDFC80FD91FD3948D2D69
:1008500090E08017910710F3CE01DF91CF911F91A7
:100860000F91FF90EF90DF90BF90AF909F908F908F
:1008700008951F93162F01C0D9DD8091D00084FF09
:10088000FBCFEFE8F0E088E0DF011D928A95E9F701
:1008900010938F00CF0168E0A7DD81E090E01F9109
:1008A0000895F894B99A20E048EB5BE003C0CA01D0
:1008B0000197F1F72150D9F7B99889DD7894109212
:1008C00097000895CF93DF9350D07FDDC0E0D0E054
:1008D00066DD2097E9F394DBFBCF1F920F920FB6F2
:1008E0000F9211242F933F938F939F93AF93BF93B6
:1008F0008091C0009091C100A091C200B091C3004E
:100900003091C4000196A11DB11D232F235D2D3709
:1009100020F02D570196A11DB11D2093C400809396
:10092000C0009093C100A093C200B093C300809117
:10093000BC009091BD00A091BE00B091BF00019697
:10094000A11DB11D8093BC009093BD00A093BE007B
:10095000B093BF00BF91AF919F918F913F912F9125
:100960000F900FBE0F901F901895789483B78260F8
:1009700083BF83B7816083BF89B7816089BF1EBC95
:100980008EB582608EBD8EB581608EBD8FB5816063
:100990008FBD85B5846085BD85B5806485BD329A7F
:1009A000319A309A379A1AB80895EE0FFF1F0590C2
:0A09B000F491E02D0994F894FFCFB4
:0A09BA005AFF000000003904F403A6
:00000001FF
