:100000000C94F1060C9419070C9419070C94190719
:100010000C9419070C9419070C9419070C941907E0
:100020000C9419070C9419070C9419070C941907D0
:100030000C9419070C9419070C9419070C941907C0
:100040000C9476090C9419070C94150B0C94630B03
:100050000C9419070C9419070C9419070C941907A0
:100060000C9419070C9419070C9461000C947E00F1
:100070000C947E000C947E000C947E000C947E0008
:100080000C947E000C947E000C947E000C947E00F8
:100090000C947E000C947E000C947E000C947E00E8
:1000A0000C947E000C947E000C949D000C947E00B9
:1000B0000C947E000C947E000C947E000C947E00C8
:1000C0000C947E000C947E000C947E000C947E00B8
:1000D00000000000240027002A0000000000250086
:1000E00028002B0000000000230026002900040443
:1000F00004040404040402020202020203030303D0
:1001000003030102040810204080010204081020AB
:100110000102040810200000000700020100000393
:100120000406000000000000000011241FBECFEFF5
:10013000D8E0DEBFCDBF11E0A0E0B1E0EEE7F3E034
:1001400002C005900D92A230B107D9F711E0A2E0EC
:10015000B1E001C01D92AB30B107E1F70E94B601DA
:100160000C94BD010C9400008091000161E00E949C
:10017000690168EE73E080E090E00E94E500809104
:10018000000160E00E94690168EE73E080E090E0A9
:100190000E94E50008958091000161E00E944901FC
:1001A00008951F920F920FB60F9211242F933F9331
:1001B0008F939F93AF93BF93809106019091070116
:1001C000A0910801B091090130910A010196A11D89
:1001D000B11D232F2D5F2D3720F02D570196A11D26
:1001E000B11D20930A018093060190930701A0930B
:1001F0000801B09309018091020190910301A0913F
:100200000401B09105010196A11DB11D8093020169
:1002100090930301A0930401B0930501BF91AF91A6
:100220009F918F913F912F910F900FBE0F901F9034
:100230001895EF92FF920F931F937B018C018FB75C
:10024000F894409106015091070160910801709166
:1002500009018FBF2FB7F894809106019091070193
:10026000A0910801B09109012FBF841B950BA60B2B
:10027000B70BE816F9060A071B0760F71F910F91E5
:10028000FF90EF900895789484B5826084BD84B522
:10029000816084BD85B5826085BD85B5816085BD81
:1002A000EEE6F0E0808181608083E1E8F0E080812B
:1002B00082608083808181608083E0E8F0E08081DB
:1002C00081608083E1EBF0E0808184608083E0EBFB
:1002D000F0E0808181608083EAE7F0E080818460E3
:1002E000808380818260808380818160808380813F
:1002F000806880831092C1000895282F30E0C901E2
:1003000086569F4FFC0194912A573F4FF9018491E3
:10031000882391F0E82FF0E0EE0FFF1FE859FF4F20
:10032000A591B491662329F48C91909589238C939F
:1003300008958C91892B8C930895482F50E0CA0121
:1003400082559F4FFC012491CA0186569F4FFC01A4
:1003500094914A575F4FFA0134913323D1F122230C
:1003600031F1233021F4809180008F7705C0243053
:1003700031F4809180008F7D8093800018C02130FF
:1003800019F484B58F7704C0223021F484B58F7DB1
:1003900084BD0DC0263021F48091B0008F7705C058
:1003A000273029F48091B0008F7D8093B000E32F37
:1003B000F0E0EE0FFF1FEE58FF4FA591B4916623BA
:1003C00029F48C91909589238C9308958C91892B95
:1003D0008C9308950E940F010E9497000E94800054
:1003E000FDCFF894FFCF0D00112484B714BE81FF18
:1003F000F0D085E08093810082E08093C00088E1A6
:100400008093C10086E08093C20080E18093C400A5
:100410008EE0C9D0259A86E020E33CEF91E030934E
:1004200085002093840096BBB09BFECF1D9AA895B3
:100430008150A9F7CC24DD2488248394B5E0AB2E29
:10044000A1E19A2EF3E0BF2EA2D0813461F49FD0B7
:10045000082FAFD0023811F0013811F484E001C048
:1004600083E08DD089C0823411F484E103C08534E7
:1004700019F485E0A6D080C0853579F488D0E82EBF
:10048000FF2485D0082F10E0102F00270E291F29E8
:10049000000F111F8ED068016FC0863521F484E0F3
:1004A00090D080E0DECF843609F040C070D06FD0AD
:1004B000082F6DD080E0C81680E7D80618F4F60142
:1004C000B7BEE895C0E0D1E062D089930C17E1F7A0
:1004D000F0E0CF16F0E7DF0618F0F601B7BEE895BA
:1004E00068D007B600FCFDCFA601A0E0B1E02C91DA
:1004F00030E011968C91119790E0982F8827822BED
:10050000932B1296FA010C0187BEE89511244E5FD9
:100510005F4FF1E0A038BF0751F7F601A7BEE8959D
:1005200007B600FCFDCF97BEE89526C08437B1F42E
:100530002ED02DD0F82E2BD03CD0F601EF2C8F01F1
:100540000F5F1F4F84911BD0EA94F801C1F7089404
:10055000C11CD11CFA94CF0CD11C0EC0853739F4C4
:1005600028D08EE10CD085E90AD08FE07ACF813592
:1005700011F488E018D01DD080E101D065CF982F0C
:100580008091C00085FFFCCF9093C60008958091B4
:10059000C00087FFFCCF8091C00084FD01C0A895FA
:1005A0008091C6000895E0E6F0E098E190838083B2
:1005B0000895EDDF803219F088E0F5DFFFCF84E1A8
:1005C000DECF1F93182FE3DF1150E9F7F2DF1F9101
:1005D000089580E0E8DFEE27FF270994FFFFFFFF83
:1005E000FFFFFFFFFFFF04040C94343C0C94513CCC
:1005F0000C94513C0C94513C0C94513C0C94513C47
:100600000C94513C0C94513C0C94513C0C94513C36
:100610000C94513C0C94513C0C94513C0C94513C26
:100620000C94513C0C94513C0C94513C0C94513C16
:100630000C94513C0C94513C0C94513C0C94513C06
:100640000C94513C0C94513C0C94513C0C94513CF6
:1006500011241FBECFEFD8E0DEBFCDBF11E0A0E078
:10066000B1E0ECE9FFE702C005900D92A230B107BE
:10067000D9F712E0A2E0B1E001C01D92AD30B107A0
:10068000E1F70E942D3D0C94CC3F0C94003C982F38
:100690009595959595959595905D8F708A307CF0A0
:1006A000282F295A8091C00085FFFCCF9093C60067
:1006B0008091C00085FFFCCF2093C6000895282FAD
:1006C000205DF0CF982F8091C00085FFFCCF9093E4
:1006D000C6000895EF92FF920F931F93EE24FF241C
:1006E00087018091C00087FD17C00894E11CF11CB0
:1006F000011D111D81E4E81682E4F8068FE0080769
:1007000080E0180770F3E0910401F091050109956C
:100710008091C00087FFE9CF8091C6001F910F91A3
:10072000FF90EF9008950E94763C982F8091C00032
:1007300085FFFCCF9093C60091362CF490330CF0DB
:100740009053892F08959755892F08951F930E94DC
:100750009F3C182F0E949F3C1295107F810F1F9184
:1007600008951F93182F882321F00E94763C115082
:10077000E1F71F9108951F93182F0E94763C803255
:1007800049F0809103018F5F809303018530C1F0B0
:100790001F9108958091C00085FFFCCF84E1809374
:1007A000C6008091C00085FFFCCF1093C6008091E9
:1007B000C00085FFFCCF80E18093C6001F910895A3
:1007C000E0910401F091050109951F9108950E949F
:1007D000763C803241F0809103018F5F809303016A
:1007E000853081F008958091C00085FFFCCF84E1C1
:1007F0008093C6008091C00085FFFCCF80E180938C
:10080000C6000895E0910401F0910501099508954D
:1008100040E951E08823A1F02D9A28EE33E0FA0157
:100820003197F1F721503040D1F72D9828EE33E081
:10083000FA013197F1F721503040D1F7815061F73B
:1008400008953F924F925F926F927F928F929F9204
:10085000AF92BF92CF92DF92EF92FF920F931F93CE
:10086000CF93DF93000080E18093C4001092C50015
:1008700088E18093C10086E08093C2005098589A26
:10088000259A81E00E94143D24E1F22E9EE1E92E9A
:1008900085E9D82E0FE0C02E10E1B12EAA24A39432
:1008A000B1E49B2EA6E58A2EF2E57F2EE0E26E2EC5
:1008B00079E4572E63E5462E50E5352E0E94763CAE
:1008C0008033B1F18133B9F1803409F46FC08134E0
:1008D00009F476C0823409F485C0853409F488C0EF
:1008E000803531F1823521F1813511F1853509F4F9
:1008F00085C0863509F48DC0843609F496C08437E6
:1009000009F403C1853709F472C1863709F466C05A
:10091000809103018F5F80930301853079F6E09128
:100920000401F091050109950E94763C803351F64F
:100930000E94F33CC3CF0E94763C803249F78091FD
:10094000C00085FFFCCFF092C6008091C00085FFFB
:10095000FCCF9092C6008091C00085FFFCCF8092B2
:10096000C6008091C00085FFFCCF7092C6008091C8
:10097000C00085FFFCCF6092C6008091C00085FF5B
:10098000FCCF5092C6008091C00085FFFCCF409202
:10099000C6008091C00085FFFCCF3092C6008091D8
:1009A000C00085FFFCCFB092C60088CF0E94763C85
:1009B000863808F4BDCF0E94763C0E94F33C7ECF7F
:1009C0000E94763C803809F49CC0813809F40BC140
:1009D000823809F43CC1883909F48FC080E00E9454
:1009E000C73C6CCF84E10E94BD3C0E94F33C66CFC3
:1009F00085E00E94BD3C0E94F33C60CF0E94763CA3
:100A0000809306010E94763C809307010E94F33C8C
:100A100055CF0E94763C803309F41DC183E00E94CB
:100A2000BD3C80E00E94C73C49CF0E94763C809349
:100A300009020E94763C8093080280910C028E7F0E
:100A400080930C020E94763C853409F415C1809194
:100A5000080290910902892B89F000E010E00E94C1
:100A6000763CF801E85FFE4F80830F5F1F4F809157
:100A70000802909109020817190788F30E94763C32
:100A8000803209F045CF80910C0280FF01C1609156
:100A9000060170910701660F771F7093070160933D
:100AA0000601A0910802B09109021097C9F0E8E090
:100AB000F1E09B01AD014E0F5F1FF999FECF32BDF2
:100AC00021BD819180BDFA9AF99A2F5F3F4FE417BB
:100AD000F50799F76A0F7B1F709307016093060172
:100AE0008091C00085FFFCCFF092C6008091C000CD
:100AF00085FFFCCFB092C600E1CE83E00E94C73CE8
:100B0000DDCE82E00E94C73CD9CE0E94763C809325
:100B100009020E94763C8093080280910601909120
:100B20000701880F991F90930701809306010E9487
:100B3000763C853409F4A6C080910C028E7F8093A8
:100B40000C020E94763C803209F0B8CE8091C00041
:100B500085FFFCCFF092C6006091080270910902F7
:100B600061157105B9F140E050E080910C02A82FA9
:100B7000A170B82FB27011C0BB2309F45CC0E09122
:100B80000601F09107013196F0930701E093060109
:100B90004F5F5F4F46175707E8F4AA2369F3F999A7
:100BA000FECF209106013091070132BD21BDF89A98
:100BB00090B58091C00085FFFCCF9093C6002F5F59
:100BC0003F4F30930701209306014F5F5F4F461759
:100BD000570718F38091C00085FDE5CE8091C000D5
:100BE00085FFF8CFE0CE81E00E94C73C67CE0E942F
:100BF000763C803209F08CCE8091C00085FFFCCF1E
:100C0000F092C6008091C00085FFFCCFE092C60044
:100C10008091C00085FFFCCFD092C6008091C000BB
:100C200085FFFCCFC092C6008091C00085FFFCCF3D
:100C3000B092C60043CEE0910601F0910701949175
:100C40008091C00085FFFCCF9093C6009CCF80E1CF
:100C50000E94C73C33CE0E94763C0E94763C182FFF
:100C60000E94763C112309F483C0113009F484C03A
:100C70008FE00E94C73C22CE80910C02816080935D
:100C80000C02E5CE80910C02816080930C0259CF5A
:100C9000809107018823880F880B8A2180930B029B
:100CA0008091060190910701880F991F9093070189
:100CB000809306018091080280FF09C0809108029C
:100CC0009091090201969093090280930802F8948A
:100CD000F999FECF1127E0910601F0910701C8E0D4
:100CE000D1E08091080290910902103091F40091B6
:100CF000570001700130D9F303E000935700E895E5
:100D00000091570001700130D9F301E100935700C1
:100D1000E895099019900091570001700130D9F3BE
:100D200001E000935700E8951395103498F01127CF
:100D30000091570001700130D9F305E0009357008E
:100D4000E8950091570001700130D9F301E100935B
:100D50005700E8953296029709F0C7CF103011F08E
:100D60000296E5CF11248091C00085FFB9CEBCCE9C
:100D70008EE10E94C73CA2CD85E90E94C73C9ECD72
:100D8000F894FFCF800000000000240027002A0014
:100D900000000000250028002B00000000002300B8
:100DA00026002900040404040404040402020202CC
:100DB000020203030303030301020408102040801E
:100DC000010204081020010204081020000000079E
:100DD0000002010000030406000000000000000003
:100DE000CF0C11241FBECFEFD8E0DEBFCDBF12E085
:100DF000A0E0B1E0E8E4FDE102C005900D92A0376B
:100E0000B107D9F713E0A0E7B2E001C01D92A33209
:100E1000B107E1F71DE0C2EEDDE004C02297FE015C
:100E20000E949E0EC03ED107C9F70E94250D0C946A
:100E3000A20E0C940000089589E061E00E94450A2A
:100E400089E060E00E94B10A64E670E080E090E032
:100E50000E94E40989E060E00E94450A0895FF923B
:100E60000F931F93F82E10E000E06F2D607881E162
:100E70000E94B10A8EE060E00E94B10A8EE061E05B
:100E80000E94B10AFF0C84E00E94E40A110F182BA3
:100E90000F5F083051F7812F1F910F91FF90089538
:100EA000FF920F931F93182F062FF42E892F0E9465
:100EB0002F07812F0E942F07802F0E942F078F2D31
:100EC0000E942F071F910F91FF90089587E061E026
:100ED0000E94B10A8EE060E00E94B10A6EE170E00B
:100EE00080E090E00E94E40987E060E00E94B10A9F
:100EF0006EE170E080E090E00E94E40983E59CEA06
:100F000062E242E20E945007823211F481E00895C9
:100F100081E093E060E071E00E94480E80E0089577
:100F20000E94500780E090EF60E040E00E94500790
:100F300080FDF8CF0895FB0180FD03C020E030E480
:100F400002C020E038E44491BC0176956795892F72
:100F500099278695822B932B0E94500708957F92A4
:100F60008F929F92AF92BF92CF92DF92EF92FF92B9
:100F70000F931F93CF93DF93C82FD0E08E0123E010
:100F8000000F111F2A95E1F7095B1D4FF8016081E1
:100F9000718181E093E00E94480E0E946607782EDE
:100FA000882309F454C093E0CC0FDD1F9A95E1F734
:100FB000FE01E75BFD4FC080D180F80186809780FD
:100FC000B601607876956795C55BDD4F0990D8814D
:100FD000C02DC859DF4FAA24BB242CC010E8E12E35
:100FE0001FEFF12EEC20FD20F694E7946E157F059F
:100FF00059F0872F99279C6440E00E94900781E078
:1010000093E06EE20E945E0D86010F5F1F4FC601E6
:10101000BE010E949B0782E090E0C80ED91E219677
:10102000C801BE010E949B07E2E0F0E0AE0EBF1EC9
:101030002196B701A814B90488F2872F99279C64D8
:1010400040E00E94900781E093E00E94660D872DAA
:10105000DF91CF911F910F91FF90EF90DF90CF9094
:10106000BF90AF909F908F907F9008951F9381E0E5
:1010700093E040E051EE60E070E00E949E0B81E062
:1010800093E066E171E00E94480E0E941C078EE02A
:1010900061E00E94B10A81E161E00E94B10A87E04B
:1010A00061E00E94B10A8EE061E00E94450A81E1A0
:1010B00061E00E94450A87E061E00E94450A81E004
:1010C00093E066E271E00E94480E0E946607882362
:1010D00009F4D8C081E093E063E371E00E94480E18
:1010E00080E89CEA62E242E20E9490070E94660762
:1010F000882309F4C7C081E093E061E471E00E94B5
:10110000480E80EA9CEA60E04FEF0E94900788EA70
:101110009CEA60E04EED0E94900784EA9CEA60E061
:1011200045E00E94900780EE9CEA60E04FEC0E9450
:10113000900780E00E94AF07882309F4A3C081E0F4
:101140000E94AF07882309F49DC081E093E06FE41B
:1011500071E00E94450E80E098E560E040E00E946A
:101160005007682F81E093E040E150E00E94270E95
:1011700081E093E06BE571E00E94450E80E090E530
:1011800060E040E00E945007682F81E093E040E17A
:1011900050E00E94150E81E093E067E671E00E9446
:1011A000450E88E098E560E040E00E945007682F17
:1011B00081E093E040E150E00E94150E81E093E071
:1011C0006FE671E00E94450E88E090E560E040E047
:1011D0000E945007682F81E093E040E150E00E94B8
:1011E000270E80E098E560E040E00E9450078F3CC9
:1011F000F1F480E090E560E040E00E9450078F3F0E
:10120000B1F488E098E560E040E00E9450078E3D30
:1012100071F488E090E560E040E00E94500785307E
:1012200031F481E093E06BE771E00E94480E81E0C9
:1012300093E069E871E00E94450E10E081E093E0E0
:1012400065E971E00E94450E80E090E3612F40E087
:101250000E945007682F81E093E040E150E00E9437
:10126000150E1F5F183051F781E093E067E971E0D8
:101270000E94480E81E093E068E971E00E94480E08
:101280000E941C078EE060E00E94450A81E160E058
:101290000E94450A87E060E00E94450A8EE060E017
:1012A0000E94B10A81E160E00E94B10A87E060E03B
:1012B0000E94B10A6AE070E080E090E00E94E409D8
:1012C000F89480917A008F7780937A008FEF8093E3
:1012D000640083B7817F846083BF83B7816083BFED
:1012E000889583B78E7F83BF1F9108951F920F92B9
:1012F0000FB60F9211242F933F938F939F93AF9329
:10130000BF938091740290917502A0917602B09182
:101310007702309178020196A11DB11D232F2D5F18
:101320002D3720F02D570196A11DB11D2093780275
:101330008093740290937502A0937602B093770223
:101340008091700290917102A0917202B09173022B
:101350000196A11DB11D8093700290937102A0931C
:101360007202B0937302BF91AF919F918F913F91A1
:101370002F910F900FBE0F901F9018959FB7F89464
:10138000209170023091710240917202509173026B
:1013900086B5A89B06C08F3F21F02F5F3F4F4F4F70
:1013A0005F4F9FBF542F432F322F2227280F311D0D
:1013B000411D511D82E0220F331F441F551F8A9586
:1013C000D1F7B901CA010895EF92FF920F931F93CD
:1013D000CF93DF937B018C010E94BE09EB010EC00D
:1013E0000E94BE096C1B7D0B685E7340C8F30894B5
:1013F000E108F10801091109C851DC4FE114F104B9
:101400000105110569F7DF91CF911F910F91FF90B1
:10141000EF900895789484B5826084BD84B581602E
:1014200084BD85B5826085BD85B5816085BDEEE6EC
:10143000F0E0808181608083E1E8F0E010828081CB
:1014400082608083808181608083E0E8F0E0808139
:1014500081608083E1EBF0E0808184608083E0EB59
:10146000F0E0808181608083EAE7F0E08081846041
:10147000808380818260808380818160808380819D
:10148000806880831092C1000895CF93DF93482F26
:1014900050E0CA018854924FFC0134914C55524F90
:1014A000FA018491882369F190E0880F991FFC016B
:1014B000EA57F24FA591B491FC01E057F24FC59164
:1014C000D491662351F42FB7F8948C91932F909573
:1014D00089238C93888189230BC0623061F42FB7F4
:1014E000F8948C91932F909589238C938881832BEA
:1014F00088832FBF06C09FB7F8948C91832B8C9361
:101500009FBFDF91CF910895833071F0843028F42C
:101510008130A1F0823021F514C08630B1F08730DF
:10152000D1F08430E9F404C0809180008F7703C04B
:10153000809180008F7D80938000089584B58F779F
:1015400002C084B58F7D84BD08958091B0008F77EF
:101550008093B00008958091B0008F7D8093B0009B
:101560000895FF920F931F93F62E482F50E0CA0163
:101570008453924FFC012491CA018854924FFC017C
:1015800014914C55524FFA0104910023C9F02223C3
:1015900019F0822F0E94840AE02FF0E0EE0FFF1F67
:1015A000E057F24FA591B4919FB7F894FF2021F432
:1015B0008C911095812302C08C91812B8C939FBFBD
:1015C0001F910F91FF9008950F931F93482F50E0A4
:1015D000CA018453924FFC012491CA018854924F4E
:1015E000FC0104914C55524FFA011491112319F446
:1015F00020E030E015C0222319F0822F0E94840AD7
:10160000812F90E0880F991F8656924FFC01A5917B
:10161000B4918C9120E030E0802311F021E030E0A3
:10162000C9011F910F91089508951F920F920FB64F
:101630000F9211242F933F934F938F939F93EF9388
:10164000FF938091C00082FD1DC04091C600209193
:10165000B9023091BA022F5F3F4F2F7330708091E3
:10166000BB029091BC022817390771F0E091B902D2
:10167000F091BA02E758FD4F40833093BA022093AD
:10168000B90202C08091C600FF91EF919F918F91A6
:101690004F913F912F910F900FBE0F901F90189573
:1016A000E0910D03F0910E03E05CFF4F8191919169
:1016B00020813181821B930B8F739070892B11F0E5
:1016C0000E94140B08951F920F920FB60F921124CF
:1016D0002F933F938F939F93EF93FF932091FD025E
:1016E0003091FE028091FF02909100032817390784
:1016F00031F48091C1008F7D8093C10014C0E091CE
:10170000FF02F0910003E354FD4F20818091FF021E
:101710009091000301968F739070909300038093D3
:10172000FF022093C600FF91EF919F918F913F910F
:101730002F910F900FBE0F901F901895AF92BF92F0
:10174000DF92EF92FF920F931F93CF93DF93EC0101
:101750007A018B01DD24403081EE580780E0680774
:1017600080E0780711F0DD24D39491E0A92EB12C0C
:10177000EC89FD89DD2069F0C50108A002C0880F51
:10178000991F0A94E2F7808360E079E08DE390E0AE
:1017900005C0108260E874E88EE190E0A80197012E
:1017A0000E947A0E21503040404050405695479557
:1017B0003795279580E12030380720F0DD2011F0A3
:1017C000DD24D6CFE889F9893083EA89FB89208333
:1017D00019A2EE89FF89408121E030E0C9010C8C1B
:1017E00002C0880F991F0A94E2F7482B4083EE89C4
:1017F000FF894081C9010D8C02C0880F991F0A948E
:10180000E2F7482B4083EE89FF894081C9010E8CA5
:1018100002C0880F991F0A94E2F7482B4083EE8993
:10182000FF8980810F8C02C0220F331F0A94E2F7D8
:10183000209528232083DF91CF911F910F91FF9056
:10184000EF90DF90BF90AF900895DC011C96ED9172
:10185000FC911D97E05CFF4F219131918081918136
:10186000281B390B2F733070C9010895DC011C96B9
:10187000ED91FC911D97E05CFF4F20813181E05498
:10188000F040DF01AE5BBF4F8D919C9111972817FF
:10189000390719F42FEF3FEF07C08D919C91E80FA6
:1018A000F91F8081282F30E0C9010895DC011C96C2
:1018B000ED91FC911D97E05CFF4F20813181E05458
:1018C000F040DF01AE5BBF4F8D919C9111972817BF
:1018D000390719F42FEF3FEF10C08D919C911197AC
:1018E000E80FF91F20818D919C91119701968F73BC
:1018F000907011969C938E9330E0C9010895DC019D
:1019000091968C919197882339F05496ED91FC91A2
:101910005597808186FFF9CF91961C920895CF93B9
:10192000DF93EC01EE85FF85E05CFF4F2081318184
:10193000E054F0402F5F3F4F2F733070DF01AE5BFC
:10194000BF4F8D919C91119728173907D1F3E05C17
:10195000FF4F80819181E054F040E80FF91F6083D0
:10196000EE85FF85E05CFF4F31832083EE89FF89A0
:10197000208181E090E00F8C02C0880F991F0A94AB
:10198000E2F7282B208381E089A3EC89FD898081FF
:101990008064808381E090E0DF91CF910895109280
:1019A00004031092030388EE93E0A0E0B0E080937C
:1019B000050390930603A0930703B093080383E6FF
:1019C00092E0909302038093010389E792E0909361
:1019D0000E0380930D038DEB92E0909310038093A0
:1019E0000F0385EC90E0909312038093110384EC35
:1019F00090E0909314038093130380EC90E0909315
:101A000016038093150381EC90E090931803809364
:101A1000170382EC90E090931A038093190386ECED
:101A200090E090931C0380931B0384E080931D033C
:101A300083E080931E0387E080931F0385E08093FB
:101A4000200381E0809321030895CF93DF930E94C8
:101A50000A0A0E943608C0E5DBE00E941B072097B7
:101A6000E1F30E94500BF9CFCF92DF92EF92FF92F9
:101A70000F931F93CF93DF937C016B018A01C0E02A
:101A8000D0E00FC0D6016D916D01D701ED91FC91B1
:101A90000190F081E02DC7010995C80FD91F0150B1
:101AA00010400115110571F7CE01DF91CF911F9103
:101AB0000F91FF90EF90DF90CF900895DC01ED91B2
:101AC000FC910190F081E02D09950895EF92FF922D
:101AD0000F931F938C01DC01ED91FC910190F0813B
:101AE000E02D6DE009957C01D801ED91FC9101900C
:101AF000F081E02DC8016AE009959C012E0D3F1D83
:101B0000C9011F910F91FF90EF900895CF93DF933C
:101B1000EC016115710519F420E030E00FC0DB0124
:101B20000D900020E9F71197A61BB70BE881F9810A
:101B30000280F381E02DAD0109959C01C901DF917F
:101B4000CF9108954F925F927F928F929F92AF9222
:101B5000BF92CF92DF92EF92FF920F931F93DF938A
:101B6000CF93CDB7DEB7A1970FB6F894DEBF0FBE07
:101B7000CDBF2C01742ECB01223008F42AE019A22B
:101B800031E2C32ED12CCC0EDD1E822E9924AA2444
:101B9000BB24672D752FA50194010E947A0E79014F
:101BA0008A01C801B701A50194010E945B0E472D6F
:101BB000461B0894C108D1084A3010F4405D01C0AA
:101BC000495CF6014083E114F1040105110521F09F
:101BD0007E2C5F2DC801DDCFC201B6010E94860DAB
:101BE000A1960FB6F894DEBF0FBECDBFCF91DF91A7
:101BF0001F910F91FF90EF90DF90CF90BF90AF902B
:101C00009F908F907F905F904F900895DC012115F9
:101C1000310541F4ED91FC910190F081E02D642FAC
:101C2000099508950E94A20D0895EF92FF920F93D7
:101C30001F939A01E62EFF2400E010E0B801A701EF
:101C40000E94060E1F910F91FF90EF900895CF9282
:101C5000DF92EF92FF920F931F936C01E62E9A0191
:101C6000FF2400E010E0B801A7010E94060E8C01DD
:101C7000C6010E94660D080F191FC8011F910F9120
:101C8000FF90EF90DF90CF9008950E94860D089509
:101C9000EF92FF920F931F937C010E94860D8C019F
:101CA000C7010E94660D080F191FC8011F910F91EF
:101CB000FF90EF900895629FD001739FF001829F83
:101CC000E00DF11D649FE00DF11D929FF00D839FCB
:101CD000F00D749FF00D659FF00D9927729FB00D68
:101CE000E11DF91F639FB00DE11DF91FBD01CF017B
:101CF00011240895A1E21A2EAA1BBB1BFD010DC0E1
:101D0000AA1FBB1FEE1FFF1FA217B307E407F507AB
:101D100020F0A21BB30BE40BF50B661F771F881F87
:101D2000991F1A9469F760957095809590959B011D
:101D3000AC01BD01CF010895EE0FFF1F0590F49196
:081D4000E02D0994F894FFCF97
:101D480050726F6772616D20456E61626C652046E6
:101D580041494C4544000A5B6973705F7265706164
:101D680069722E325D000A5374617274696E672E4F
:101D78002E2E0045726173696E6720466C61736828
:101D88000053657474696E67204675736573004CFB
:101D98006F636B20426974733A20004675736573EC
:101DA8003A206C6F7720002C206869676820002C27
:101DB80020657874656E64656420004675736520D7
:101DC80062697473204F4B2E005369676E61747596
:101DD8007265733A00200000446F6E652E00323041
:101DE80031302D30342D313820426C696E6B2E63C2
:101DF80070702E6865782020202020202020202048
:101E08002020202020202020383936622040203011
:101E1800783030303000323031312D31312D323997
:101E2800206F707469626F6F745F61746D6567614C
:101E38003332382E6865782020202020202020206A
:101E4800353132622040203078374530300032302A
:101E580030392D30382D31312041546D656761425C
:101E68004F4F545F3136385F61746D656761333247
:101E7800382E68657820202031393530622040209E
:101E8800307837383030009E01000000008003D6DB
:101E980001007E800300020E02007880059E070084
:101EA8000000008F0C340D250C560C360C7F0C00EE
:00000001FF
