:100000000C9462000C948A000C948A000C948A0070
:100010000C948A000C948A000C948A000C948A0038
:100020000C948A000C948A000C948A000C948A0028
:100030000C948A000C948A000C948A000C948A0018
:100040000C949A030C948A000C9439050C9487053F
:100050000C948A000C948A000C948A000C948A00F8
:100060000C948A000C948A000000000024002700F1
:100070002A0000000000250028002B0000000000DE
:1000800023002600290004040404040404040202DA
:100090000202020203030303030301020408102007
:1000A0004080010204081020010204081020000012
:1000B0000007000201000003040600000000000029
:1000C0000000F30611241FBECFEFD8E0DEBFCDBF86
:1000D00011E0A0E0B1E0E6EBFFE002C005900D9278
:1000E000A831B107D9F712E0A8E1B1E001C01D9233
:1000F000AB3DB107E1F710E0C4ECD0E004C02297BB
:10010000FE010E94D507C23CD107C9F70E944907EA
:100110000C94D9070C94000080912602909127023C
:1001200062E070E00E948A07709561957F4F809130
:1001300018019091190168237923CB010895FF924A
:100140000F931F93F82E10E000E06F2D607881E18F
:100150000E94D5048EE060E00E94D5048EE061E04C
:100160000E94D504FF0C84E00E940805110F182B93
:100170000F5F083051F7812F1F910F91FF90089565
:10018000FF920F931F93162F042FF22E0E949F00B1
:10019000812F0E949F00802F0E949F008F2D0E9420
:1001A0009F001F910F91FF9008951F930E94C00020
:1001B000182F80EF60E040E020E00E94C00080FD4A
:1001C000F8CF812F1F91089589EB92E00E94490694
:1001D000892BD1F389EB92E00E947A060895EF9281
:1001E000FF921F93CF93DF937C0110E006C00E9423
:1001F000E400C65EDE4F88831F5FC12FD0E0CE15BE
:10020000DF05ACF3DF91CF911F91FF90EF90089540
:10021000682F89EB92E00E94820708951F93182FA0
:100220000E94E400803241F484E10E940801812FA1
:100230000E94080180E101C085E10E9408011F9130
:1002400008950E94E400803229F484E10E940801AC
:1002500080E101C085E10E9408010895CF92DF92FC
:10026000EF92FF920F931F93CF93DF930E94E400CE
:10027000813509F401C28235C0F4813409F440C0EB
:10028000823448F4803309F40BC2813339F180326F
:1002900009F02AC22DC2853409F46EC0803509F4F4
:1002A00070C0823409F020C243C0813609F4CFC047
:1002B000823650F4863509F4CEC1803609F4C5C0C3
:1002C000853509F011C2AEC0843709F463C18537A2
:1002D00009F4E9C1843609F007C2BCC00E94E400F9
:1002E000803209F00DC284E10E940801C0E0D1E033
:1002F00003C00E940801219688818823D1F7F2C1AA
:100300000E94E400813861F0823818F4803871F47A
:1003100005C0823839F0833949F406C082E0A9C1AA
:1003200081E0A7C182E1A5C183E5A3C180E0A1C1AD
:1003300084E190E00E94EF00AAE1B2E0EAE1F1E09E
:1003400089E001900D928150E1F79091240180E0C5
:1003500020912501820F911D909325028093240204
:100360009091260180E020912701820F911D9093AA
:1003700027028093260294C185E090E00E94EF005E
:100380008FC18EE061E00E94D50484E061E00E94AC
:10039000D50481E161E00E94D50487E061E00E941C
:1003A000D5048EE061E00E94690484E060E00E9470
:1003B000690481E161E00E94690487E061E00E94D4
:1003C000690487E061E00E94690487E061E00E94BF
:1003D000D5048EE061E00E9469048EE060E00E9436
:1003E000D50462E370E080E090E00E94080487E0BA
:1003F00060E00E94D50462E370E080E090E00E943B
:10040000080484E060E00E94690481E161E00E94E8
:1004100069048CEA63E540E020E00E94D5008FE0AB
:1004200060E03CC10E94E400082F10E01093190125
:10043000009318010E94E400382F20E0200F311FA4
:1004400030931901209318012BC10E94E4000E94EF
:10045000E40026C10E94E400182F00E00E94E4009E
:100460006801C80ED11C21E0C21621E0D2060CF0B2
:1004700045C10E94E400182FC6010E94EF000E94AF
:10048000E400803209F034C184E10E94080116348E
:1004900009F064C08091260290912702181619066F
:1004A0000CF02CC180911801909119010E948C00D0
:1004B000EC010AE111E0EE24FF2442C08091180112
:1004C000909119010E948C00C817D90781F06D2FF7
:1004D000772767FD7A958CE44C2F20E00E94D500A9
:1004E00080911801909119010E948C00EC014091BB
:1004F000180150911901652F772767FD7A9580E4DF
:10050000F80120810E94D5004091180150911901F5
:1005100022E030E0E20EF31E652F772767FD7A9523
:1005200088E4F80121810E94D50080911801909102
:100530001901019690931901809318010E5F1F4FC6
:10054000EC14FD040CF4BACF6D2F772767FD7A9574
:100550008CE44C2F20E00E94D500C4C0153409F073
:10056000CDC0C0E0D0E012C0809118019091190177
:10057000880F991F9E01280F422FFE01E65EFE4F55
:1005800080EC60E020810E94D5002196CC15DD052D
:100590005CF3A8C00E94E400082F0E94E400F82E3B
:1005A0000E94E400182F0E94E400803209F0A0C0ED
:1005B000902F80E0FC01EF0DF11D7F0184E10E948E
:1005C0000801163469F5C0E0D0E026C0409118015A
:1005D00050911901652F772767FD7A9580E220E019
:1005E0000E94C0000E940801409118015091190119
:1005F000652F772767FD7A9588E220E00E94C0008A
:100600000E94080180911801909119010196909320
:100610001901809318012296CE15DF05BCF262C045
:10062000153409F06BC0C0E0D0E011C08091180112
:1006300090911901880F991F9E01280F422F80EA7F
:1006400060E02FEF0E94C0000E9408012196CE15A5
:10065000DF0564F347C084E090E00E94EF008091E2
:100660001A0160911B0140911C0120911D010E9403
:10067000D5000E940E0144C084E060E00E9469043D
:1006800081E160E00E9469048EE060E00E946904FC
:1006900087E060E00E9469048FE061E00E94D50479
:1006A0000E9421012DC00E94E400803209F584E1FE
:1006B0000E94080180E360E040E020E00E94C0006A
:1006C0000E94080180E360E041E020E00E94C00059
:1006D0000E94080180E360E042E020E00E94C00048
:1006E0000E94080180E107C00E94E400803211F0FE
:1006F00085E101C082E10E94080102C081E1FBCFD7
:10070000DF91CF911F910F91FF90EF90DF90CF90ED
:10071000089589EB92E040E855E260E070E00E94C5
:10072000C2058FE061E00E9469048FE061E00E94F1
:10073000D50408951F920F920FB60F9211242F9394
:100740003F938F939F93AF93BF9380912C0290918F
:100750002D02A0912E02B0912F023091300201960D
:10076000A11DB11D232F2D5F2D3720F02D57019690
:10077000A11DB11D2093300280932C0290932D0275
:10078000A0932E02B0932F0280912802909129020B
:10079000A0912A02B0912B020196A11DB11D809358
:1007A000280290932902A0932A02B0932B02BF91B2
:1007B000AF919F918F913F912F910F900FBE0F900E
:1007C0001F9018959FB7F894209128023091290224
:1007D00040912A0250912B0286B5A89B06C08F3FFC
:1007E00021F02F5F3F4F4F4F5F4F9FBF542F432F3D
:1007F000322F2227280F311D411D511D82E0220F6B
:10080000331F441F551F8A95D1F7B901CA010895B6
:10081000EF92FF920F931F93CF93DF937B018C0195
:100820000E94E203EB010EC00E94E2036C1B7D0BF1
:10083000685E7340C8F30894E108F10801091109E2
:10084000C851DC4FE114F1040105110569F7DF918E
:10085000CF911F910F91FF90EF900895789484B5F8
:10086000826084BD84B5816084BD85B5826085BDAC
:1008700085B5816085BDEEE6F0E080818160808392
:10088000E1E8F0E010828081826080838081816075
:100890008083E0E8F0E0808181608083E1EBF0E03C
:1008A000808184608083E0EBF0E0808181608083E0
:1008B000EAE7F0E0808184608083808182608083C9
:1008C0008081816080838081806880831092C100F4
:1008D0000895CF93DF93482F50E0CA0186569F4F6B
:1008E000FC0134914A575F4FFA018491882369F1E2
:1008F00090E0880F991FFC01E859FF4FA591B49132
:10090000FC01EE58FF4FC591D491662351F42FB7E7
:10091000F8948C91932F909589238C9388818923C7
:100920000BC0623061F42FB7F8948C91932F90959F
:1009300089238C938881832B88832FBF06C09FB720
:10094000F8948C91832B8C939FBFDF91CF91089566
:10095000833071F0843028F48130A1F0823021F5A9
:1009600014C08630B1F08730D1F08430E9F404C08F
:10097000809180008F7703C0809180008F7D80936D
:100980008000089584B58F7702C084B58F7D84BDC3
:1009900008958091B0008F778093B0000895809182
:1009A000B0008F7D8093B0000895FF920F931F9346
:1009B000F62E482F50E0CA0182559F4FFC0124912A
:1009C000CA0186569F4FFC0114914A575F4FFA01A6
:1009D00004910023C9F0222319F0822F0E94A80459
:1009E000E02FF0E0EE0FFF1FEE58FF4FA591B491FE
:1009F0009FB7F894FF2021F48C911095812302C0B9
:100A00008C91812B8C939FBF1F910F91FF90089524
:100A10000F931F93482F50E0CA0182559F4FFC014E
:100A20002491CA0186569F4FFC0104914A575F4F9B
:100A3000FA011491112319F420E030E015C02223AB
:100A400019F0822F0E94A804812F90E0880F991F2F
:100A500084589F4FFC01A591B4918C9120E030E027
:100A6000802311F021E030E0C9011F910F9108951A
:100A700008951F920F920FB60F9211242F933F9358
:100A80004F938F939F93EF93FF938091C00082FDCC
:100A90001DC04091C60020917102309172022F5FFB
:100AA0003F4F2F733070809173029091740228171A
:100AB000390771F0E0917102F0917202EF5CFD4F25
:100AC0004083309372022093710202C08091C6006D
:100AD000FF91EF919F918F914F913F912F910F90A7
:100AE0000FBE0F901F901895E091C502F091C602BD
:100AF000E05CFF4F8191919120813181821B930BAA
:100B00008F739070892B11F00E94380508951F9201
:100B10000F920FB60F9211242F933F938F939F93B1
:100B2000EF93FF932091B5023091B6028091B70206
:100B30009091B8022817390731F48091C1008F7D58
:100B40008093C10014C0E091B702F091B802EB5855
:100B5000FD4F20818091B7029091B80201968F736A
:100B600090709093B8028093B7022093C600FF91D3
:100B7000EF919F918F913F912F910F900FBE0F900A
:100B80001F901895AF92BF92DF92EF92FF920F9352
:100B90001F93CF93DF93EC017A018B01DD2440306A
:100BA00081EE580780E0680780E0780711F0DD24C7
:100BB000D39491E0A92EB12CEC89FD89DD2069F058
:100BC000C50108A002C0880F991F0A94E2F780832C
:100BD00060E079E08DE390E005C0108260E874E8A1
:100BE0008EE190E0A80197010E949D0721503040BE
:100BF00040405040569547953795279580E12030E5
:100C0000380720F0DD2011F0DD24D6CFE889F989FE
:100C10003083EA89FB89208319A2EE89FF8940810C
:100C200021E030E0C9010C8C02C0880F991F0A94A2
:100C3000E2F7482B4083EE89FF894081C9010D8C82
:100C400002C0880F991F0A94E2F7482B4083EE896F
:100C5000FF894081C9010E8C02C0880F991F0A9438
:100C6000E2F7482B4083EE89FF8980810F8C02C018
:100C7000220F331F0A94E2F7209528232083DF9167
:100C8000CF911F910F91FF90EF90DF90BF90AF90A9
:100C90000895DC011C96ED91FC911D97E05CFF4FDF
:100CA0002191319180819181281B390B2F733070F4
:100CB000C9010895DC011C96ED91FC911D97E05C43
:100CC000FF4F20813181E054F040DF01AE5BBF4F28
:100CD0008D919C9111972817390719F42FEF3FEF49
:100CE00007C08D919C91E80FF91F8081282F30E07B
:100CF000C9010895DC011C96ED91FC911D97E05C03
:100D0000FF4F20813181E054F040DF01AE5BBF4FE7
:100D10008D919C9111972817390719F42FEF3FEF08
:100D200010C08D919C911197E80FF91F20818D9132
:100D30009C91119701968F73907011969C938E934E
:100D400030E0C9010895DC0191968C919197882338
:100D500039F05496ED91FC915597808186FFF9CF3B
:100D600091961C920895CF93DF93EC01EE85FF8559
:100D7000E05CFF4F20813181E054F0402F5F3F4F16
:100D80002F733070DF01AE5BBF4F8D919C91119737
:100D900028173907D1F3E05CFF4F80819181E0543F
:100DA000F040E80FF91F6083EE85FF85E05CFF4FA0
:100DB00031832083EE89FF89208181E090E00F8CD0
:100DC00002C0880F991F0A94E2F7282B208381E044
:100DD00089A3EC89FD8980818064808381E090E033
:100DE000DF91CF9108951092BC021092BB0288EE61
:100DF00093E0A0E0B0E08093BD029093BE02A09388
:100E0000BF02B093C0028CE091E09093BA0280934D
:100E1000B90281E392E09093C6028093C50285E710
:100E200092E09093C8028093C70285EC90E0909383
:100E3000CA028093C90284EC90E09093CC02809324
:100E4000CB0280EC90E09093CE028093CD0281ECB7
:100E500090E09093D0028093CF0282EC90E0909348
:100E6000D2028093D10286EC90E09093D4028093DA
:100E7000D30284E08093D50283E08093D60287E09A
:100E80008093D70285E08093D80281E08093D902D5
:100E90000895CF93DF930E942E040E948903C4E734
:100EA000D5E00E942E012097E1F30E947405F9CF4E
:100EB000CF92DF92EF92FF920F931F93CF93DF9326
:100EC0007C016B018A01C0E0D0E00FC0D6016D91BA
:100ED0006D01D701ED91FC910190F081E02DC701EA
:100EE0000995C80FD91F015010400115110571F760
:100EF000CE01DF91CF911F910F91FF90EF90DF9086
:100F0000CF900895DC01ED91FC910190F081E02DEE
:100F10000995089597FB092E07260AD077FD04D07E
:100F20002ED006D000201AF4709561957F4F089559
:100F3000F6F7909581959F4F0895A1E21A2EAA1B6E
:100F4000BB1BFD010DC0AA1FBB1FEE1FFF1FA21779
:100F5000B307E407F50720F0A21BB30BE40BF50B76
:100F6000661F771F881F991F1A9469F760957095FF
:100F7000809590959B01AC01BD01CF010895AA1BFE
:100F8000BB1B51E107C0AA1FBB1FA617B70710F074
:100F9000A61BB70B881F991F5A95A9F780959095A6
:100FA000BC01CD010895EE0FFF1F0590F491E02DD7
:060FB0000994F894FFCF44
:100FB600415652204953500000000000B30658071E
:080FC60049067A065A06A3064B
:00000001FF
