:100000000C9462000C948A000C948A000C948A0070
:100010000C948A000C948A000C948A000C948A0038
:100020000C948A000C948A000C948A000C948A0028
:100030000C948A000C948A000C948A000C948A0018
:100040000C94AA030C948A000C946D050C94B405CE
:100050000C948A000C948A000C948A000C948A00F8
:100060000C948A000C948A000000000024002700F1
:100070002A0000000000250028002B0000000000DE
:1000800023002600290004040404040404040202DA
:100090000202020203030303030301020408102007
:1000A0004080010204081020010204081020000012
:1000B0000007000201000003040600000000000029
:1000C00000001A0711241FBECFEFD8E0DEBFCDBF5E
:1000D00011E0A0E0B1E0E8EFFFE002C005900D9272
:1000E000A831B107D9F712E0A8E1B1E001C01D9233
:1000F000A83DB107E1F710E0C4ECD0E004C02297BE
:10010000FE010E94F607C23CD107C9F70E946A07A8
:100110000C94FA070C940000FF920F931F93F82E93
:1001200010E000E06F2D607881E10E94C5048EE050
:1001300060E00E94C5048EE061E00E94C504FF0CEF
:1001400084E00E941905110F182B0F5F083051F73A
:10015000812F1F910F91FF900895FF920F931F938E
:10016000162F042FF22E0E948C00812F0E948C00EB
:10017000802F0E948C008F2D0E948C001F910F9168
:10018000FF9008951F930E94AD00182F80EF60E04C
:1001900040E020E00E94AD0080FDF8CF812F1F914C
:1001A000089589EB92E00E947506892BD1F389EBC3
:1001B00092E00E94A6060895682F89EB92E00E94C3
:1001C000A30708951F93182F0E94D100803241F495
:1001D00084E10E94DC00812F0E94DC0080E101C0EC
:1001E00085E10E94DC001F9108950E94D1008032B9
:1001F00029F484E10E94DC0080E101C085E10E94D5
:10020000DC000895CF92DF92EF92FF920F931F933D
:10021000CF93DF930E94D100813509F440C282352B
:10022000B8F4813409F444C0823448F4803309F4CA
:100230004AC2813359F1803209F069C26CC28534F7
:1002400009F1803509F481C0823409F060C21CC014
:10025000813609F4E0C0823648F4863589F080366C
:1002600009F4D7C0853509F052C2C0C0843709F4FB
:100270009DC1853709F42AC2843609F048C2CEC030
:1002800000E0FCC100E05CC000E030C00E94D10092
:10029000803209F045C284E10E94DC00C0E0D1E078
:1002A00003C00E94DC00219688818823D1F72DC2EB
:1002B0000E94D100813861F0823818F4803871F4DE
:1002C00005C0823839F0833949F406C082E0E4C1C0
:1002D00081E0E2C182E1E0C183E5DEC180E0DCC112
:1002E0000E94D100C65EDE4F88830F5FC02FD0E032
:1002F0000431B1F7AAE1B2E0EAE1F1E089E001906E
:100300000D928150E1F79091240180E02091250128
:10031000820F911D909325028093240290912601D3
:1003200080E020912701820F911D909327028093F6
:100330002602C9C10E94D100C65EDE4F88830F5FCE
:10034000C02FD0E00530B1F7BEC18EE061E00E9461
:10035000C50484E061E00E94C50481E161E00E947F
:10036000C50487E061E00E94C5048EE061E00E9460
:10037000860484E060E00E94860481E161E00E94DE
:10038000860487E061E00E94860487E061E00E94C5
:10039000860487E061E00E94C5048EE061E00E946F
:1003A00086048EE060E00E94C50462E370E080E0B5
:1003B00090E00E94F20387E060E00E94C50462E3DF
:1003C00070E080E090E00E94F20384E060E00E9430
:1003D000860481E161E00E9486048CEA63E540E0E6
:1003E00020E00E94C2008FE060E06BC10E94D1005B
:1003F000082F10E010931901009318010E94D100FA
:10040000382F20E0200F311F30931901209318015D
:100410005AC10E94D1000E94D10055C10E94D10052
:10042000182F00E00E94D1006801C80ED11C21E005
:10043000C21621E0D2060CF001C10E94D100182F93
:1004400000E006C00E94D100C65EDE4F88830F5FC9
:10045000C02FD0E0CC15DD05ACF30E94D100803276
:1004600009F059C184E10E94DC00163429F081E1D1
:10047000153409F053C181C0809126029091270262
:10048000181619060CF0DAC062E070E00E94AB07A3
:10049000CC27DD27C61BD70B80911801909119013D
:1004A000C823D9230AE111E0EE24FF2458C080912B
:1004B00026029091270262E070E00E94AB077095DF
:1004C00061957F4F809118019091190186239723A0
:1004D000C817D907D9F06D2F772767FD7A958CE477
:1004E0004C2F20E00E94C2008091260290912702AA
:1004F00062E070E00E94AB07CC27DD27C61BD70B5C
:100500008091180190911901C823D92340911801B5
:1005100050911901652F772767FD7A9580E4F801DE
:1005200020810E94C200409118015091190122E0DF
:1005300030E0E20EF31E652F772767FD7A9588E499
:10054000F80121810E94C200809118019091190147
:10055000019690931901809318010E5F1F4FEC14C0
:10056000FD040CF4A4CF6D2F772767FD7A958CE4FA
:100570004C2F20E00E94C200C8C0C0E0D0E012C0F2
:100580008091180190911901880F991F9E01280FE1
:10059000422FFE01E65EFE4F80EC60E020810E946B
:1005A000C2002196CC15DD055CF3AFC00E94D100DE
:1005B000082F0E94D100F82E0E94D100182F0E940F
:1005C000D100803209F0A7C0902F80E0FC01EF0D30
:1005D000F11D7F0184E10E94DC00163469F5C0E062
:1005E000D0E026C04091180150911901652F77275E
:1005F00067FD7A9580E220E00E94AD000E94DC0059
:100600004091180150911901652F772767FD7A9560
:1006100088E220E00E94AD000E94DC008091180179
:1006200090911901019690931901809318012296D7
:10063000CE15DF05BCF269C0153411F081E16EC042
:10064000C0E0D0E011C08091180190911901880F8D
:10065000991F9E01280F422F80EA60E02FEF0E9431
:10066000AD000E94DC002196CE15DF0564F34DC07D
:100670000E94D100C65EDE4F88830F5FC02FD0E09E
:100680000430B1F780911A0160911B0140911C0167
:1006900020911D010E94C2000E94E20041C084E03E
:1006A00060E00E94860481E160E00E9486048EE0A2
:1006B00060E00E94860487E060E00E9486048FE08C
:1006C00061E00E94C5040E94F5002AC00E94D1008A
:1006D000803209F584E10E94DC0080E360E040E0C4
:1006E00020E00E94AD000E94DC0080E360E041E079
:1006F00020E00E94AD000E94DC0080E360E042E068
:1007000020E00E94AD000E94DC0080E107C00E9452
:10071000D100803211F085E101C082E10E94DC004D
:10072000DF91CF911F910F91FF90EF90DF90CF90CD
:10073000089589EB92E040E05BE460E070E00E94A5
:10074000EF058FE061E00E9486048FE061E00E9487
:10075000C50408951F920F920FB60F9211242F9384
:100760003F938F939F93AF93BF9380912C0290916F
:100770002D02A0912E02B0912F02309130020196ED
:10078000A11DB11D232F2D5F2D3720F02D57019670
:10079000A11DB11D2093300280932C0290932D0255
:1007A000A0932E02B0932F028091280290912902EB
:1007B000A0912A02B0912B020196A11DB11D809338
:1007C000280290932902A0932A02B0932B02BF9192
:1007D000AF919F918F913F912F910F900FBE0F90EE
:1007E0001F9018959B01AC017FB7F8948091280267
:1007F00090912902A0912A02B0912B0266B5A89B84
:1008000005C06F3F19F00196A11DB11D7FBFBA2F22
:10081000A92F982F8827860F911DA11DB11D62E079
:10082000880F991FAA1FBB1F6A95D1F7BC012DC065
:10083000FFB7F8948091280290912902A0912A0292
:10084000B0912B02E6B5A89B05C0EF3F19F00196C9
:10085000A11DB11DFFBFBA2FA92F982F88278E0F7A
:10086000911DA11DB11DE2E0880F991FAA1FBB1F9A
:10087000EA95D1F7861B970B885E9340C8F221500A
:1008800030404040504068517C4F211531054105B2
:10089000510571F60895789484B5826084BD84B55D
:1008A000816084BD85B5826085BD85B5816085BD6B
:1008B000EEE6F0E0808181608083E1E8F0E0108284
:1008C000808182608083808181608083E0E8F0E0C5
:1008D000808181608083E1EBF0E0808184608083AF
:1008E000E0EBF0E0808181608083EAE7F0E08081E6
:1008F0008460808380818260808380818160808346
:100900008081806880831092C1000895CF93DF9327
:10091000482F50E0CA0186569F4FFC0134914A5738
:100920005F4FFA018491882369F190E0880F991F45
:10093000FC01E859FF4FA591B491FC01EE58FF4F1F
:10094000C591D491662351F42FB7F8948C91932FCD
:10095000909589238C93888189230BC0623061F440
:100960002FB7F8948C91932F909589238C9388813D
:10097000832B88832FBF06C09FB7F8948C91832B5D
:100980008C939FBFDF91CF910895482F50E0CA010B
:1009900082559F4FFC012491CA0186569F4FFC014E
:1009A00094914A575F4FFA013491332309F440C0C0
:1009B000222351F1233071F0243028F42130A1F0AA
:1009C000223011F514C02630B1F02730C1F02430A8
:1009D000D9F404C0809180008F7703C0809180009B
:1009E0008F7D8093800010C084B58F7702C084B55E
:1009F0008F7D84BD09C08091B0008F7703C0809146
:100A0000B0008F7D8093B000E32FF0E0EE0FFF1F6A
:100A1000EE58FF4FA591B4912FB7F894662321F4B7
:100A20008C919095892302C08C91892B8C932FBF38
:100A30000895682F70E0CB0182559F4FFC012491EF
:100A4000CB0186569F4FFC0144916A577F4FFB01B3
:100A50009491992319F420E030E03CC0222351F115
:100A6000233071F0243028F42130A1F0223011F528
:100A700014C02630B1F02730C1F02430D9F404C0BE
:100A8000809180008F7703C0809180008F7D80935C
:100A9000800010C084B58F7702C084B58F7D84BD7F
:100AA00009C08091B0008F7703C08091B0008F7D26
:100AB0008093B000892F90E0880F991F84589F4F32
:100AC000FC01A591B4918C9120E030E0842311F0D9
:100AD00021E030E0C901089508951F920F920FB6EA
:100AE0000F9211242F933F934F938F939F93EF93E4
:100AF000FF934091C60020917102309172022F5FE6
:100B00003F4F2F73307080917302909174022817B9
:100B1000390759F0E0917102F0917202EF5CFD4FDC
:100B200040833093720220937102FF91EF919F9165
:100B30008F914F913F912F910F900FBE0F901F906B
:100B40001895E091C502F091C602E05CFF4F8191DB
:100B5000919120813181821B930B8F739070892B2F
:100B600011F00E946C0508951F920F920FB60F921C
:100B700011242F933F938F939F93EF93FF93209193
:100B8000B5023091B6028091B7029091B802281751
:100B9000390731F48091C1008F7D8093C10014C06A
:100BA000E091B702F091B802EB58FD4F208180919F
:100BB000B7029091B80201968F7390709093B8022B
:100BC0008093B7022093C600FF91EF919F918F9180
:100BD0003F912F910F900FBE0F901F901895AF92DD
:100BE000BF92DF92EF92FF920F931F93CF93DF9309
:100BF000EC017A018B01DD24403081EE580780E062
:100C0000680780E0780711F0DD24D39491E0A92EE5
:100C1000B12CEC89FD89DD2069F0C5010E8C02C084
:100C2000880F991F0A94E2F7808360E079E08DE3F2
:100C300090E005C0108260E874E88EE190E0A801C1
:100C400097010E94BE0721503040404050405695C9
:100C500047953795279580E12030380720F0DD2033
:100C600011F0DD24D6CFE889F9893083EA89FB8940
:100C70002083EE89FF89408121E030E0C9010A8CA0
:100C800002C0880F991F0A94E2F7482B4083EE892F
:100C9000FF894081C9010B8C02C0880F991F0A94FB
:100CA000E2F7482B4083EE89FF894081C9010C8C13
:100CB00002C0880F991F0A94E2F7482B4083EE89FF
:100CC000FF8980810D8C02C0220F331F0A94E2F746
:100CD000209528232083DF91CF911F910F91FF90C2
:100CE000EF90DF90BF90AF900895DC011C96ED91DE
:100CF000FC911D97E05CFF4F2191319180819181A2
:100D0000281B390B2F733070C9010895DC011C9624
:100D1000ED91FC911D97E05CFF4F20813181E05403
:100D2000F040DF01AE5BBF4F8D919C91119728176A
:100D3000390719F42FEF3FEF07C08D919C91E80F11
:100D4000F91F8081282F30E0C9010895DC011C962D
:100D5000ED91FC911D97E05CFF4F20813181E054C3
:100D6000F040DF01AE5BBF4F8D919C91119728172A
:100D7000390719F42FEF3FEF10C08D919C91119717
:100D8000E80FF91F20818D919C91119701968F7327
:100D9000907011969C938E9330E0C9010895FC01E8
:100DA00086859785DC01A05CBF4FFC01EE5BFF4FA1
:100DB0002D913C9111978081918128173907C1F7B6
:100DC0000895CF93DF93EC01EE85FF85E05CFF4F44
:100DD00020813181E054F0402F5F3F4F2F733070FE
:100DE000DF01AE5BBF4F8D919C911197281739079A
:100DF000D1F3E05CFF4F80819181E054F040E80F37
:100E0000F91F6083EE85FF85E05CFF4F318320830F
:100E1000EE89FF89208181E090E00D8C02C0880F6F
:100E2000991F0A94E2F7282B208381E090E0DF915C
:100E3000CF9108951092BC021092BB0288EE93E00D
:100E4000A0E0B0E08093BD029093BE02A093BF02E9
:100E5000B093C0028CE091E09093BA028093B90203
:100E600081E392E09093C6028093C50285E792E009
:100E70009093C8028093C70285EC90E09093CA02D9
:100E80008093C90284EC90E09093CC028093CB02D3
:100E900080EC90E09093CE028093CD0281EC90E0C4
:100EA0009093D0028093CF0286EC90E09093D20290
:100EB0008093D10284E08093D30283E08093D402B4
:100EC00087E08093D50285E08093D60281E080930D
:100ED000D7020895CF93DF930E944B040E94990399
:100EE000C1EAD5E00E9402012097E1F30E94A1052A
:100EF000F9CFCF92DF92EF92FF920F931F93CF9390
:100F0000DF937C016B018A01C0E0D0E00FC0D60105
:100F10006D916D01D701ED91FC910190F081E02D73
:100F2000C7010995C80FD91F0150104001151105BF
:100F300071F7CE01DF91CF911F910F91FF90EF904C
:100F4000DF90CF900895DC01ED91FC910190F0814C
:100F5000E02D0995089597FB092E07260AD077FD05
:100F600004D02ED006D000201AF4709561957F4FE2
:100F70000895F6F7909581959F4F0895A1E21A2E56
:100F8000AA1BBB1BFD010DC0AA1FBB1FEE1FFF1F2D
:100F9000A217B307E407F50720F0A21BB30BE40B7D
:100FA000F50B661F771F881F991F1A9469F76095C4
:100FB0007095809590959B01AC01BD01CF0108957E
:100FC000AA1BBB1B51E107C0AA1FBB1FA617B7076F
:100FD00010F0A61BB70B881F991F5A95A9F780958B
:100FE0009095BC01CD010895EE0FFF1F0590F4917F
:080FF000E02D0994F894FFCFF5
:100FF800415652204953500000000000E10679078D
:081008007506A6068606CF0658
:00000001FF
