:100000000C94C41F0C94192A0C94462A0C94EC1FCF
:100010000C94EC1F0C94EC1F0C94EC1F0C94EC1F34
:100020000C94EC1F0C94EC1F0C94EC1F0C94EC1F24
:100030000C94EC1F0C94EC1F0C94EC1F0C94EC1F14
:100040000C943F230C94EC1F0C94DE240C942C2570
:100050000C94EC1F0C94EC1F0C94EC1F0C94EC1FF4
:100060000C94EC1F0C94EC1F0C9461000C947E001B
:100070000C947E000C947E000C947E000C947E0008
:100080000C947E000C947E000C947E000C947E00F8
:100090000C947E000C947E000C947E000C947E00E8
:1000A0000C947E000C947E000C949D000C947E00B9
:1000B0000C947E000C947E000C947E000C947E00C8
:1000C0000C947E000C947E000C947E000C947E00B8
:1000D00000000000240027002A0000000000250086
:1000E00028002B0000000000230026002900040443
:1000F00004040404040402020202020203030303D0
:1001000003030102040810204080010204081020AB
:100110000102040810200000000700020100000393
:100120000406000000000000000011241FBECFEFF5
:10013000D8E0DEBFCDBF11E0A0E0B1E0EEE7F3E034
:1001400002C005900D92A230B107D9F711E0A2E0EC
:10015000B1E001C01D92AB30B107E1F70E94B601DA
:100160000C94BD010C9400008091000161E00E949C
:10017000690168EE73E080E090E00E94E500809104
:10018000000160E00E94690168EE73E080E090E0A9
:100190000E94E50008958091000161E00E944901FC
:1001A00008951F920F920FB60F9211242F933F9331
:1001B0008F939F93AF93BF93809106019091070116
:1001C000A0910801B091090130910A010196A11D89
:1001D000B11D232F2D5F2D3720F02D570196A11D26
:1001E000B11D20930A018093060190930701A0930B
:1001F0000801B09309018091020190910301A0913F
:100200000401B09105010196A11DB11D8093020169
:1002100090930301A0930401B0930501BF91AF91A6
:100220009F918F913F912F910F900FBE0F901F9034
:100230001895EF92FF920F931F937B018C018FB75C
:10024000F894409106015091070160910801709166
:1002500009018FBF2FB7F894809106019091070193
:10026000A0910801B09109012FBF841B950BA60B2B
:10027000B70BE816F9060A071B0760F71F910F91E5
:10028000FF90EF900895789484B5826084BD84B522
:10029000816084BD85B5826085BD85B5816085BD81
:1002A000EEE6F0E0808181608083E1E8F0E080812B
:1002B00082608083808181608083E0E8F0E08081DB
:1002C00081608083E1EBF0E0808184608083E0EBFB
:1002D000F0E0808181608083EAE7F0E080818460E3
:1002E000808380818260808380818160808380813F
:1002F000806880831092C1000895282F30E0C901E2
:1003000086569F4FFC0194912A573F4FF9018491E3
:10031000882391F0E82FF0E0EE0FFF1FE859FF4F20
:10032000A591B491662329F48C91909589238C939F
:1003300008958C91892B8C930895482F50E0CA0121
:1003400082559F4FFC012491CA0186569F4FFC01A4
:1003500094914A575F4FFA0134913323D1F122230C
:1003600031F1233021F4809180008F7705C0243053
:1003700031F4809180008F7D8093800018C02130FF
:1003800019F484B58F7704C0223021F484B58F7DB1
:1003900084BD0DC0263021F48091B0008F7705C058
:1003A000273029F48091B0008F7D8093B000E32F37
:1003B000F0E0EE0FFF1FEE58FF4FA591B4916623BA
:1003C00029F48C91909589238C9308958C91892B95
:1003D0008C9308950E940F010E9497000E94800054
:1003E000FDCFF894FFCF0D000C9458020C9402102E
:1003F0000C942F100C9480020C9480020C948002B8
:100400000C9480020C9480020C9480020C94800264
:100410000C9480020C9480020C9480020C94800254
:100420000C9480020C9480020C945C100C9480025A
:100430000C941E120C9465120C9480020C94800291
:100440000C9480020C9480020C9480020C94800224
:100450000A417661696C61626C6520636F6D6D61E4
:100460006E64733A0A20203C6E6E3E206920202084
:1004700020202D20736574206E6F64652049442010
:10048000287374616E64617264206E6F64652069A4
:1004900064732061726520312E2E3236290A2020A5
:1004A00020202020202020202020202020286F72A3
:1004B00020656E74657220616E2075707065726360
:1004C000617365202741272E2E275A2720746F201D
:1004D000736574206964290A20203C6E3E206220E6
:1004E00020202020202D20736574204D487A206222
:1004F000616E64202834203D203433332C20382092
:100500003D203836382C2039203D20393135290A14
:1005100020203C6E6E6E3E2067202020202D207310
:100520006574206E6574776F726B2067726F75707B
:10053000202852464D3132206F6E6C7920616C6CF0
:100540006F7773203231322C2030203D20616E795C
:10055000290A20203C6E3E20632020202020202DD0
:100560002073657420636F6C6C656374206D6F64B9
:10057000652028616476616E6365642C206E6F72FD
:100580006D616C6C792030290A2020742020202095
:100590002020202020202D2062726F61646361730F
:1005A00074206D61782D73697A6520746573742089
:1005B0007061636B65742C20776974682061636B6C
:1005C0000A20202E2E2E2C3C6E6E3E2061202D20E7
:1005D00073656E642064617461207061636B65741F
:1005E00020746F206E6F6465203C6E6E3E2C207709
:1005F0006974682061636B0A20202E2E2E2C3C6EBD
:100600006E3E2073202D2073656E642064617461DA
:10061000207061636B657420746F206E6F64652059
:100620003C6E6E3E2C206E6F2061636B0A20203C76
:100630006E3E206C2020202020202D207475726EAC
:10064000206163746976697479204C4544206F6E2B
:1006500020504231206F6E206F72206F66660A2034
:10066000203C6E3E20712020202020202D2073650C
:1006700074207175696574206D6F64652028312060
:100680003D20646F6E2774207265706F72742062F3
:100690006164207061636B657473290A52656D6FC4
:1006A000746520636F6E74726F6C20636F6D6D6123
:1006B0006E64733A0A20203C686368693E2C3C688B
:1006C000636C6F3E2C3C616464723E2C3C636D64D1
:1006D0003E206620202020202D20465332302063EB
:1006E0006F6D6D616E642028383638204D487A2948
:1006F0000A20203C616464723E2C3C6465763E2C8A
:100700003C6F6E3E206B20202020202020202020C7
:10071000202020202D204B414B5520636F6D6D61B3
:100720006E642028343333204D487A290A00466C01
:100730006173682073746F7261676520284A65650C
:100740004C696E6B206F6E6C79293A0A2020642008
:100750002020202020202020202020202020202099
:100760002020202020202020202020202020202D7C
:100770002064756D7020616C6C206C6F67206D61FA
:10078000726B6572730A20203C73683E2C3C736C5C
:100790003E2C3C74333E2C3C74323E2C3C74313E37
:1007A0002C3C74303E207220202D207265706C61CC
:1007B000792066726F6D2073706563696669656420
:1007C000206D61726B65720A20203132332C3C62DD
:1007D00068693E2C3C626C6F3E2065202020202002
:1007E00020202020202020202020202D2065726124
:1007F000736520344B20626C6F636B0A20203132AA
:100800002C3334207720202020202020202020205E
:100810002020202020202020202020202020202DCB
:10082000207769706520656E7469726520666C61F9
:100830007368206D656D6F72790A000000000024F6
:100840000027002A0000000000250028002B0000DF
:10085000000000230026002900040404040404040A
:10086000040202020202020303030303030102045F
:100870000810204080010204081020010204081022
:100880002000000007000201000003040600000031
:10089000000000000000DC1311241FBECFEFD8E0E1
:1008A000DEBFCDBF11E0A0E0B1E0E4EFFCE202C0AA
:1008B00005900D92A63CB107D9F714E0A6ECB1E083
:1008C00001C01D92AB37B107E1F714E0C0EBD4E0F3
:1008D00004C02297FE010E947416CE3AD107C9F7D0
:1008E0000E942C140C9478160C940000FB01DC017F
:1008F00002C001900D9241505040D8F70895FB017D
:10090000DC010D900020E9F7119701900D92002075
:10091000E1F70895FB01DC0101900D920020E1F761
:10092000089525E0F89428982EBD0DB407FEFDCF5C
:100930009EB51EBC0DB407FEFDCF9EB5289A7894D7
:100940009F3F11F090FDEECFF89428988EBD0DB426
:1009500007FEFDCF8EB508951F93182F86E00E94E5
:100960009D02289A7894812F0E949D021F910895DC
:10097000DF92EF92FF920F931F93CF93DF938C013F
:10098000D62E7A01E90183E00E949D021EBD0DB4BE
:1009900007FEFDCF8EB50EBD0DB407FEFDCF8EB5A3
:1009A000DEBC0DB407FEFDCF8EB520E030E00BC0FD
:1009B0001EBC0DB407FEFDCF8EB5F701E20FF11D91
:1009C00080832F5F3F4F2C173D0790F3289A789430
:1009D000DF91CF911F910F91FF90EF90DF900895DD
:1009E0000F931F93CF93DF938C01EB0182E00E9462
:1009F000B8021EBD0DB407FEFDCF8EB50EBD0DB401
:100A000007FEFDCF8EB51EBC0DB407FEFDCF8EB523
:100A100020E030E0FE01E20FF11D80818EBD0DB4BB
:100A200007FEFDCF8EB52F5F3F4F81E020303807A6
:100A300089F7289A7894DF91CF911F910F910895AB
:100A400080E090E060E070E040E050E020E030E0E6
:100A50000E94C40208951F93CF93DF93EC01FE011F
:100A600021961491112369F01A3029F48CE594E051
:100A70006DE00E9465148CE594E0612F0E9465147E
:100A8000EECFDF91CF911F91089588E690E00E940C
:100A900037038091710290917202892B21F086E4D4
:100AA00093E00E9437038CE594E060E071E00E94DF
:100AB000F71581E00E94610F0895EF92FF920F9366
:100AC0001F938C017B0181E00E94E60DC8018A56CC
:100AD0009F4F0E940B1180E00E94E60DC701885CC9
:100AE00090400E940B111F910F91FF90EF9008957D
:100AF0000F931F93CF93DF93EC016830A1F49C0117
:100B0000220F331F082E82958025082E8695869504
:100B10008025C82FD0E02196D595C795C170D0709B
:100B2000C22BD32B69E0262F30E02150304081E0EA
:100B300090E0A0E0B0E004C0880F991FAA1FBB1F7F
:100B40002A95D2F78C010FC0C8018C239D23892BD5
:100B500019F460E971E002C068E572E0CB010E941F
:100B60006903169507950115110571F7DF91CF916E
:100B70001F910F9108950F931F938C018CE594E0C2
:100B800067E171E00E94F4158CE594E0B8014AE059
:100B900050E00E94511588ED0E94B8021EBD0DB4B0
:100BA00007FEFDCF8EB50EBD0DB407FEFDCF8EB591
:100BB0001EBC0DB407FEFDCF8EB5289A78940E9416
:100BC0002C031F910F91089560917303662309F41C
:100BD00098C020917102309172022F5F3F4F8FE1D8
:100BE0002030380710F020E032E03093720220937A
:100BF000710282E02030380749F480916B039091B4
:100C00006C03019690936C0380936B038FEF9FEFBF
:100C10009093720380937103E3E7F2E090E04FEF6B
:100C20005FEF7FEF961718F0983F08F4708381917B
:100C30004827842F82958427082E869586958025BF
:100C4000082E869580258770042E452F869507945B
:100C50008795502D482706948795502548279F5FF4
:100C60009E3F01F75093720340937103C90163E7FC
:100C700072E00E94FC02109273030E942C038CE528
:100C800094E06DE171E00E94F41560917102709141
:100C900072028CE594E04AE050E00E9440158CE539
:100CA00094E060E20E94651460916B0370916C03A4
:100CB0008CE594E04AE050E00E9440158CE594E019
:100CC00060E20E94651440916D0350916E03609143
:100CD0006F03709170038CE594E02AE030E00E948D
:100CE000AE158091710290917202882351F4805068
:100CF0009F4F2FE18030920710F080E092E00E9439
:100D0000C70308950E94A41028EE33E040E050E0AD
:100D10000E945016CA01B90108950F931F93CF93F3
:100D2000DF93EC018B016A30710540F0CB016AE082
:100D300070E00E942916CE010E949904DE010D90F8
:100D40000020E9F71197AC1BCA0FD11DC8016AE05A
:100D500070E00E942916805D8883DF91CF911F91FA
:100D60000F9108951F93CF93DF93C9ECD1E08CE1ED
:100D7000FE0111928A95E9F7CE0163E271E00E94CB
:100D800096021091C7011F71FE0101900020E9F742
:100D9000EA5CF140F0E0EC0FFD1F105C1083105492
:100DA000CE0165E271E00E948B02CE01612F70E0FE
:100DB0000E9499048091C70185FF0BC0FE0101903C
:100DC0000020E9F7EA5CF140F0E0EC0FFD1F8AE259
:100DD000808389EC91E068E271E00E948B0260916F
:100DE000C80189EC91E070E00E94990489EC91E0DF
:100DF0006BE271E00E948B02E091C701F0E066E0D7
:100E0000F595E7956A95E1F7EE0FFF1FE355FE4F65
:100E10006081718189EC91E00E94990489EC91E0F4
:100E20006FE271E00E948B028FEF9FEF9093E601DB
:100E30008093E501E7ECF1E021918091E50190914B
:100E4000E6018227282F22952827022E269526950F
:100E50002025022E269520252770082E892F2695DD
:100E600007942795902D8227069427959025822711
:100E70009093E6018093E50181E0E53EF807E1F615
:100E800080E290E0FC01E955FE4FE081F999FECF48
:100E90001FBA92BD81BDE0BD0FB6F894FA9AF99AD7
:100EA0000FBE01968034910569F781E00E94610FC1
:100EB000882331F48CE594E065E371E00E94F71536
:100EC000DF91CF911F9108951F93182F89E061E062
:100ED0000E94501160E0112309F461E089E00E9452
:100EE00076111F9108952F923F924F925F926F92C9
:100EF0007F928F929F92AF92BF92CF92DF92EF92AA
:100F0000FF920F931F93DF93CF93CDB7DEB7649714
:100F10000FB6F894DEBF0FBECDBF8CE594E00E9403
:100F20003413892B09F436C48CE594E00E946513D0
:100F3000182F80538A3058F480912C022AE0829F27
:100F4000C00111248053810F80932C0223C41C32D2
:100F500089F490912D02923450F4E92FF0E0E25D93
:100F6000FD4F80912C0280839F5F90932D02109201
:100F70002C0210C4812F81568A3108F0F9C38CE508
:100F800094E068E471E00E94F41560912C028CE515
:100F900094E070E04AE050E00E94C2158CE594E0D5
:100FA000612F0E948D14193689F11A36B4F4143663
:100FB00009F449C1153644F4123679F113360CF0B0
:100FC0004BC0113601F57DC0163609F493C01636B4
:100FD0000CF487C31736B9F43AC0123709F499C133
:100FE00013374CF41C3609F480C0113709F4B0C330
:100FF0001B3649F4C6C01437E9F114370CF461C04C
:10100000173709F483C30E945103A6C390912C02A1
:101010009F718091C701807E14C080912C0288301E
:1010200011F492E005C0893011F091E001C093E025
:1010300090932C029295990F990F907C8091C70103
:101040008F73980F9093C7010E94BE0485C380914F
:101050002C028093C801F8CF80912C02882321F0C4
:101060008091C701806203C08091C7018F7D80930A
:10107000C701EACF81E68093E70182E48093E8012B
:101080001092E901EAEEF1E090E080917002890FA0
:1010900081939F5F9234C9F78CE594E06BE471E033
:1010A0000E94F415609170028CE594E070E04AE0D3
:1010B00050E00E94D515809170028F5F809370027E
:1010C0004BC31093E70140912D024093E8018091BA
:1010D0002C028093E9012AEE31E0EEE2F2E0C90150
:1010E000BF0150E00E94820237C380912C020E940F
:1010F000700532C380E062E044ED0E942E0E81E074
:101100000E94700590912E0280E020912F027C01B8
:10111000E20EF11CB0903002C0902C02DF2C1B2D8F
:101120001C0D1A5F1E0D1F0D00E081E090E06DE0C8
:101130000E9484038D2D90E068E00E948403C70123
:1011400068E00E9484038B2D90E068E00E94840395
:101150008C2D90E068E00E948403812F90E068E08D
:101160000E94840380E090E061E00E9484036AE0D2
:1011700070E080E090E00E94B2100F5F0330A9F6AB
:101180005BC080E061E044ED0E942E0E81E00E9491
:10119000700580912F02082F10E00150104024E0CC
:1011A000000F111F2A95E1F7166080912E029927F2
:1011B00087FD909501978F709070082B192B809167
:1011C0002C0281111860DD249CEDA92E95E0B92E2A
:1011D00030C087E791E065E674E00E946903C801CA
:1011E0000E2C02C0959587950A94E2F780FD03C006
:1011F00087E791E002C085E694E0B501681B790BB2
:101200000E9469030894E11CF11C2CE0E216F10431
:1012100001F787E791E067E771E00E9469036BE0FF
:1012200070E080E090E00E94B210D39484E0D81681
:1012300019F0EE24FF24CDCF80E00E94700581E0FC
:101240000E94610F89C28091710290917202892B74
:1012500009F482C28CE594E00E94651397FFFACFEF
:1012600000E012E08DE0E82EF12CEC0EFD1E8CE586
:1012700094E00E94651397FF6FC2C80168EF70E0A9
:10128000A70128E030E00E94C4028D859E858F5F13
:101290009F4FB9F18CE594E061E571E00E94F4158F
:1012A0008CE594E0B8014AE050E00E9440158CE5DE
:1012B00094E067E571E00E94F4156D857E858CE50C
:1012C00094E04AE050E00E9440158CE594E060E232
:1012D0000E9465144F85588969897A898CE594E064
:1012E0002AE030E00E946E158CE594E060E20E94F6
:1012F00065146B897C898CE594E04AE050E00E949B
:1013000051150F5F1F4FBFE100301B0709F0AFCF32
:1013100023C28091710290917202892B09F41CC240
:1013200090912E0280E0892B19F480912F02811177
:1013300081E0282E33249091300280E0892B11F037
:1013400031E005C080913102811181E0382F909108
:10135000320280E0892B11F021E005C080912C023F
:10136000811181E0282F832F90E0A0E0B0E0DC0124
:1013700099278827E22EFF2400E010E0E82AF92AC6
:101380000A2B1B2BC12CA2E0DA2EAA24AA94BA2C79
:1013900088249924F7E06F2E712C6C0E7D1E2E018F
:1013A0000894411C511CC60168EF70E0A30126E0BF
:1013B00030E00E94C4022F813885EFEF2F3F3E07B7
:1013C000E9F02215330568F02A153B0550F4D201E7
:1013D000F30186E001900D928150E1F7A980BA8077
:1013E00046012A153B0551F489859A85AB85BC8554
:1013F000E816F9060A071B070CF046010894C11C01
:10140000D11CF0E0CF16FFE1DF0669F68CE594E031
:101410006BE571E00E94F4158CE594E0B4014AE0BC
:1014200050E00E9440158CE594E060E20E94651453
:1014300060917102709172028CE594E04AE050E094
:101440000E9451158CE594E00E94651397FFFACF36
:10145000C0906B03D0906C0304C18CE594E00E94B3
:10146000651397FF06C10894811C911C20E0821629
:101470002FE1920618F0812CE2E09E2EC40160E07C
:1014800070E043E752E020E031E00E94C402809126
:101490006B0390916C038F5F9F4F09F4E2C0E3E709
:1014A000F2E00FEF1FEF81910827802F82958027B0
:1014B000082E869586958025082E8695802587702E
:1014C000002E012F869507948795102D08270694E6
:1014D000879510250827B3E0E337FB0721F70115AF
:1014E000110511F410E083C08CE594E064E671E02E
:1014F0000E94F4158CE594E0B4014AE050E00E94AB
:1015000040158CE594E060E20E9465148CE594E05F
:10151000B8014AE050E00E945115A3C08CE594E068
:101520000E943413892B09F06DC08CE594E06BE6C2
:1015300071E00E94F41560916B0370916C038CE56F
:1015400094E04AE050E00E9440158CE594E060E2AF
:101550000E946514012F0F5FF701808140916D0398
:1015600050916E0360916F0370917003480F511D8D
:10157000611D711D8CE594E02AE030E00E946E153B
:101580008CE594E060E20E9465141E5FE02FF0E0BD
:10159000ED58FD4F60818CE594E070E04AE050E04A
:1015A0000E94C215E12FF0E0ED58FD4FE0801F5F73
:1015B000F12E0E2D13C08CE594E060E20E946514BC
:1015C000EF2DF0E0ED58FD4F6081F3948CE594E051
:1015D00070E04AE050E00E94C2150150002359F724
:1015E0001E0D8CE594E00E946D14183F58F4E12E16
:1015F000FF2483E792E0E80EF91ED7018C918F3F1C
:1016000009F08CCF8CE594E06EE671E00E94F41551
:101610008CE594E0B4014AE050E00E9440158CE56E
:1016200094E060E20E94651460916B0370916C031A
:101630008CE594E04AE050E00E9440158CE594E08F
:1016400060E20E94651440916D0350916E036091B9
:101650006F03709170038CE594E02AE030E00E9403
:10166000AE1580917102909172028816990609F068
:10167000F4CE109273030894C11CD11CD0926C0359
:10168000C0926B038CE594E067E171E00E94F41571
:1016900060917102709172028CE594E04AE050E032
:1016A0000E9440158CE594E060E20E946514609110
:1016B0006B0370916C038CE594E04AE050E00E946B
:1016C00040158CE594E060E20E9465140E94A4102D
:1016D000AB01BC018CE594E02AE030E00E942C15BF
:1016E0003BC08091710290917202892BA9F1809187
:1016F0002E028B3789F590912F0280E020912C02E9
:1017000030E0822B932B0E94C70326C08091710288
:1017100090917202892B01F180912E028C30E1F4BC
:1017200080912C028232C1F48CE594E064E771E090
:101730000E94F71587EC0E94B802289A78940E94BC
:101740002C038CE594E069E771E00E94F71504C072
:1017500080912C028093C60110922D0210922C02CF
:1017600082E4EEE2F2E0DF011D928A95E9F712C011
:10177000812F81548A3150F41F718091C701807E7E
:10178000810F8093C7010E94BE0404C0113214F07F
:101790000E9451030E94DA0C882309F4E9C0F090FA
:1017A00078038091740390917503892B39F48CE54B
:1017B00094E060E871E00E94F41510C08091C601C9
:1017C000882309F00DC18CE594E063E871E00E9484
:1017D000F415B4E1BF1510F474E1F72E8091C8013F
:1017E000882379F48CE594E066E871E00E94F415B2
:1017F000609176038CE594E070E04AE050E00E944E
:10180000C2158CE594E060E20E9465146091770354
:101810008CE594E070E04AE050E00E94C21500E0E0
:1018200010E012C08CE594E060E20E946514F801BB
:10183000E758FC4F60818CE594E070E04AE050E0AE
:101840000E94C2150F5F1F4F0F1560F38CE594E0E7
:101850000E946D148091740390917503892B09F097
:1018600087C081E00E9470058091710290917202A0
:10187000892B09F459C0109178031E5F809173037E
:10188000882351F40E948E0460936D0370936E035D
:1018900080936F03909370030E948E04AB01BC0190
:1018A00080916D0390916E03A0916F03B0917003CE
:1018B000481B590B6A0B7B0B4F3F510561057105A6
:1018C0004CF48091730390E00196810F911D893F44
:1018D000910580F00E94F0030E948E0460936D03D6
:1018E00070936E0380936F039093700340E050E019
:1018F00060E070E020917303E22FF0E0ED58FD4FBF
:1019000040832F5F2093730330E02D583D4F47E70E
:1019100053E0C901BA01412F50E00E948202809138
:101920007303810F809373038091770385FF1DC03C
:101930008091770387FD19C08091C70185FD15C08F
:101940008CE594E069E871E00E94F71580917703D7
:1019500086FF02C080E804C0809177038F71806C9D
:1019600060E070E040E00E94FB0D80E00E947005A6
:101970008091E7018823A1F10E94730D882381F1F2
:1019800081E00E9470058CE594E061E971E00E94BD
:10199000F4156091E8018CE594E070E04AE050E0D5
:1019A0000E94C2158CE594E066E971E00E94F7158B
:1019B0008091E701813611F080E001C080E29091D2
:1019C000E901992311F09064892B6AEE71E040914E
:1019D000E8010E94FB0D1092E70180E00E94700573
:1019E00064960FB6F894DEBF0FBECDBFCF91DF91E6
:1019F0001F910F91FF90EF90DF90CF90BF90AF902D
:101A00009F908F907F906F905F904F903F902F901E
:101A10000895CF92DF92EF92FF920F931F93DF937F
:101A2000CF9300D0CDB7DEB78CE594E040E051EE27
:101A300060E070E00E94AE128CE594E069E971E02C
:101A40000E94F41581E00E94610F8823A9F0F999A2
:101A5000FECF80E290E092BD81BDF89A80B5809380
:101A6000C701F999FECF81E290E092BD81BDF89A5D
:101A700080B58093C80108C081E48093C70184EDDC
:101A80008093C8010E94BE04289A88E061E00E9409
:101A900050118FE90E949D021EBC0DB407FEFDCFC0
:101AA0003EB51EBC0DB407FEFDCF2EB5932F80E0D2
:101AB000289A789430E0822B932B8052904209F040
:101AC00063C081E00E94B8021EBC0DB407FEFDCFCA
:101AD0008EB5289A789410926C0310926B038FEF56
:101AE0009EE1909372028093710200E012E03FEF5A
:101AF000E32E3EE1F32E6E010894C11CD11CC801F7
:101B000068EF70E0A60122E030E00E94C402898103
:101B10009A812FEF8F3F920739F0019690936C03D3
:101B200080936B03780105C0C8010197E816F90698
:101B300031F00F5F1F4F8FE10030180701F7F0926F
:101B40007202E09271028CE594E067EA71E00E9413
:101B5000F41560917102709172028CE594E04AE094
:101B600050E00E9440158CE594E060E20E9465140C
:101B700060916B0370916C038CE594E04AE050E057
:101B80000E9451150E94F0030E9451030F900F9084
:101B9000CF91DF911F910F91FF90EF90DF90CF9049
:101BA00008952A981EBC0DB407FEFDCF8EB51EBC4D
:101BB0000DB407FEFDCF8EB52A9A8091C4038530FF
:101BC00009F06EC08CB581608CBD2A9880EB8EBD0B
:101BD0000DB407FEFDCF2EB51EBC0DB407FEFDCF24
:101BE0003EB580E02A9A2CB52E7F2CBD382B8091F3
:101BF000C603882371F49091C503992351F0809115
:101C0000C603E82FF0E0EA58FC4F90838F5F809383
:101C1000C6038091C603E82FF0E0EA58FC4F3083FA
:101C20008F5F8093C603809174039091750383271F
:101C3000282F22952827022E269526952025022E2C
:101C4000269520252770082E892F269507942795FD
:101C5000902D8227069427959025822790937503CF
:101C600080937403809178032091C60390E00496DA
:101C700030E0821793072CF08091C603873408F474
:101C80008CC02A9882E88EBD0DB407FEFDCF8EB5BC
:101C90008DE08EBD0DB407FEFDCF8EB52A9A089556
:101CA0008091C40387FF2EC0E09178038091C40324
:101CB0008F5F8093C4038150ED5FE80FF0E0EA5836
:101CC000FC4FE08180917403909175038E27282F3B
:101CD00022952827022E269526952025022E269528
:101CE00020252770082E892F269507942795902D5B
:101CF00082270694279590258227909375038093D9
:101D000074033AC08091C4038F5F8093C4038150F1
:101D1000833019F184302CF4882399F0813059F5FF
:101D200016C0893019F08A3031F502C0EDE224C0C6
:101D3000E0917603909178038EEF891B8093C40322
:101D40001BC08091740390917503E82F15C080919A
:101D5000740390917503E92F0FC02A9882E88EBD15
:101D60000DB407FEFDCF8EB58DE08EBD0DB407FE20
:101D7000FDCF8EB52A9AEAEA2A9888EB8EBD0DB47B
:101D800007FEFDCF8EB58E2F90E0805098448EBD1B
:101D90000DB407FEFDCF8EB52A9A08958091C40335
:101DA000853009F042C0809178032091C60390E00D
:101DB000049630E08217930724F08091C60387349D
:101DC000A0F184E08093C40380917803833430F0E1
:101DD00081E090E090937503809374038091770382
:101DE00086FF12C08091C303282F30E0C9018F7194
:101DF00090704F9749F08091770390E08227932766
:101E00008F719070892B89F4809174039091750380
:101E1000892B09F04EC0E091C103F091C2033097C5
:101E200009F447C080E0099550C08091C403843014
:101E300011F080E0089510927803809178038093E8
:101E4000C6038FEF9FEF90937503809374032091E7
:101E5000C5032223D9F08227282F22952827022E76
:101E6000269526952025022E269520252770082EBA
:101E7000892F269507942795902D822706942795DC
:101E800090258227909375038093740385E0809357
:101E9000C4032A9882E88EBD0DB407FEFDCF8EB52F
:101EA0008DED8EBD0DB407FEFDCF8EB52A9A80E074
:101EB00008958FEF9FEFAFEFBFEF8093BD03909337
:101EC000BE03A093BF03B093C00381E00895809147
:101ED000C403853011F58091C6038823F1F41EBC3C
:101EE0000DB407FEFDCF0EB400FC17C02A9882E89F
:101EF0008EBD0DB407FEFDCF8EB58DE08EBD0DB449
:101F000007FEFDCF8EB52A9A84E08093C4038091AA
:101F1000C5038093760381E0089580E00895982FAB
:101F200086FD05C0907E8091C3038F71980F9093BA
:101F30007703E091C103F091C203309711F081E083
:101F400009958FEF9FEF90937503809374038091B1
:101F5000740390917503209176038227282F229590
:101F60002827022E269526952025022E2695202507
:101F70002770082E892F269507942795902D822764
:101F80000694279590258227909375038093740378
:101F900086E08093C4032A9882E88EBD0DB407FEC4
:101FA000FDCF8EB58DE38EBD0DB407FEFDCF8EB592
:101FB0002A9A0895882319F42DE032E802C02DE30F
:101FC00032E82A9882E88EBD0DB407FEFDCF8EB5AB
:101FD0002EBD0DB407FEFDCF8EB52A9A08951F932E
:101FE000182F4093780329E733E0C90150E00E949D
:101FF0008202812F0E949B0D1F9108952A9A229A96
:102000008AE061E00E9476118AE061E00E9450114E
:102010008BE061E00E9450118CE060E00E94501162
:102020008DE061E00E94501180E58CBD8DB581602E
:102030008DBD82E060E00E94501182E061E00E946C
:10204000761108951F93162F8093C3034093C50301
:102050000E940A0E2A981EBC0DB407FEFDCF8EB555
:102060001EBC0DB407FEFDCF8EB52A9A2A9882E8D1
:102070008EBD0DB407FEFDCF8EB585E08EBD0DB4CF
:1020800007FEFDCF8EB52A9A2A9888EB8EBD0DB437
:1020900007FEFDCF8EB51EBC0DB407FEFDCF0AC0F6
:1020A0002A981EBC0DB407FEFDCF8EB51EBC0DB424
:1020B00007FEFDCF8EB52A9A82E00E94CA11892BB5
:1020C00079F3612F70E0E4E0660F771FEA95E1F79E
:1020D000676C70682A987EBD0DB407FEFDCF8EB583
:1020E0006EBD0DB407FEFDCF8EB52A9A2A9886EAFA
:1020F0008EBD0DB407FEFDCF8EB580E48EBD0DB450
:1021000007FEFDCF8EB52A9A2A9886EC8EBD0DB4B7
:1021100007FEFDCF8EB586E08EBD0DB407FEFDCF68
:102120008EB52A9A2A9884E98EBD0DB407FEFDCF9C
:102130008EB582EA8EBD0DB407FEFDCF8EB52A9A0C
:102140002A9882EC8EBD0DB407FEFDCF8EB58CEAC9
:102150008EBD0DB407FEFDCF8EB52A9A9091C503B2
:102160009923E1F02A988AEC8EBD0DB407FEFDCFCD
:102170008EB583E88EBD0DB407FEFDCF8EB52A9ACD
:10218000892F90E09E6C2A989EBD0DB407FEFDCF6E
:102190002EB58EBD0DB407FEFDCF1AC02A988AEC6D
:1021A0008EBD0DB407FEFDCF8EB58BE88EBD0DB490
:1021B00007FEFDCF8EB52A9A2A988EEC8EBD0DB4FF
:1021C00007FEFDCF8EB58DE28EBD0DB407FEFDCFAF
:1021D0008EB52A9A2A9884EC8EBD0DB407FEFDCFE9
:1021E0008EB583E88EBD0DB407FEFDCF8EB52A9A5D
:1021F0002A9888E98EBD0DB407FEFDCF8EB580E527
:102200008EBD0DB407FEFDCF8EB52A9A2A988CECB0
:102210008EBD0DB407FEFDCF8EB587E78EBD0DB424
:1022200007FEFDCF8EB52A9A2A9880EE8EBD0DB49A
:1022300007FEFDCF8EB51EBC0DB407FEFDCF8EB5DB
:102240002A9A2A9888EC8EBD0DB407FEFDCF8EB574
:102250001EBC0DB407FEFDCF8EB52A9A2A9880ECDD
:102260008EBD0DB407FEFDCF8EB589E48EBD0DB4D5
:1022700007FEFDCF8EB52A9A84E08093C403809137
:10228000C30390E08F719070892B41F080E06DED79
:102290007BE040E050E00E94CC0F03C080E00E9451
:1022A000EF0F8091C3031F910895EF92FF920F9358
:1022B0001F93CF93DF93E82E4FEF5FEF20E230E0E4
:1022C000F999FECF32BD21BDF89A80B54827842FF9
:1022D00082958427082E869586958025082E8695DA
:1022E00080258770042E452F869507948795502D5D
:1022F000482706948795502548272F5F3F4F203465
:10230000310509F0DDCF452B11F080E032C000E04F
:10231000FF2410E0C0E2D0E0F999FECFD2BDC1BDEC
:10232000F89A60B5112311F4062F0CC0113011F486
:10233000F62E08C0662351F0EE2021F08CE594E0E3
:102340000E9465141F5F21961E3131F7EE2021F0A7
:102350008CE594E00E946D14602F70E0F6E07595B6
:102360006795FA95E1F7802F4F2D0E942E0E802F52
:102370008F71DF91CF911F910F91FF90EF90089592
:10238000823000F5E82FF0E0EE0FFF1FE953FC4F1D
:1023900071836083882319F08130A1F408C0809193
:1023A00069008C7F842B80936900E89A089580915E
:1023B0006900440F551F440F551F837F842B809362
:1023C0006900E99A0895823080F4882319F08130F9
:1023D00021F402C0E89801C0E998E82FF0E0EE0F80
:1023E000FF1FE953FC4F1182108208951F920F9234
:1023F0000FB60F9211242F933F934F935F936F93D8
:102400007F938F939F93AF93BF93EF93FF938091AD
:10241000C7039091C803892B29F0E091C703F0917D
:10242000C8030995FF91EF91BF91AF919F918F9153
:102430007F916F915F914F913F912F910F900FBEC0
:102440000F901F9018951F920F920FB60F921124A4
:102450002F933F934F935F936F937F938F939F93AC
:10246000AF93BF93EF93FF938091C9039091CA03F9
:10247000892B29F0E091C903F091CA030995FF91D6
:10248000EF91BF91AF919F918F917F916F915F91EC
:102490004F913F912F910F900FBE0F901F90189565
:1024A0001F920F920FB60F9211242F933F938F9389
:1024B0009F93AF93BF938091CF039091D003A0914E
:1024C000D103B091D2033091D3030196A11DB11D68
:1024D000232F2D5F2D3720F02D570196A11DB11D03
:1024E0002093D3038093CF039093D003A093D10381
:1024F000B093D2038091CB039091CC03A091CD03F4
:10250000B091CE030196A11DB11D8093CB03909392
:10251000CC03A093CD03B093CE03BF91AF919F9115
:102520008F913F912F910F900FBE0F901F90189594
:102530008FB7F8942091CF033091D0034091D1030D
:102540005091D2038FBFB901CA0108959B01AC011C
:102550007FB7F8948091CB039091CC03A091CD03E9
:10256000B091CE0366B5A89B05C06F3F19F00196E8
:10257000A11DB11D7FBFBA2FA92F982F8827860FC5
:10258000911DA11DB11D62E0880F991FAA1FBB1FDD
:102590006A95D1F7BC012DC0FFB7F8948091CB03A9
:1025A0009091CC03A091CD03B091CE03E6B5A89B4A
:1025B00005C0EF3F19F00196A11DB11DFFBFBA2F55
:1025C000A92F982F88278E0F911DA11DB11DE2E024
:1025D000880F991FAA1FBB1FEA95D1F7861B970B7F
:1025E000885E9340C8F221503040404050406851CE
:1025F0007C4F211531054105510571F6089501976C
:1026000039F0880F991F880F991F02970197F1F7EA
:102610000895789484B5826084BD84B5816084BD5A
:1026200085B5826085BD85B5816085BDEEE6F0E04B
:10263000808181608083E1E8F0E0108280818260A7
:102640008083808181608083E0E8F0E08081816028
:102650008083E1EBF0E0808184608083E0EBF0E058
:10266000808181608083EAE7F0E0808184608083FC
:1026700080818260808380818160808380818068A6
:1026800080831092C1000895482F50E0CA018B57F3
:102690009B4FFC0124914F585B4FFA018491882392
:1026A000C1F0E82FF0E0EE0FFF1FED5AFB4FA591B0
:1026B000B491662341F49FB7F8948C9120958223BE
:1026C0008C939FBF08959FB7F8948C91822B8C9325
:1026D0009FBF0895482F50E0CA0187569B4FFC01C9
:1026E0002491CA018B579B4FFC0194914F585B4F2B
:1026F000FA013491332309F440C0222351F12330ED
:1027000071F0243028F42130A1F0223011F514C0EA
:102710002630B1F02730C1F02430D9F404C08091C4
:1027200080008F7703C0809180008F7D8093800030
:1027300010C084B58F7702C084B58F7D84BD09C079
:102740008091B0008F7703C08091B0008F7D80931F
:10275000B000E32FF0E0EE0FFF1FE35AFB4FA5910F
:10276000B4912FB7F894662321F48C919095892326
:1027700002C08C91892B8C932FBF0895682F70E035
:10278000CB0187569B4FFC012491CB018B579B4F6C
:10279000FC0144916F587B4FFB019491992319F4EC
:1027A00020E030E03CC0222351F1233071F024308E
:1027B00028F42130A1F0223011F514C02630B1F0F8
:1027C0002730C1F02430D9F404C0809180008F7785
:1027D00003C0809180008F7D8093800010C084B5FD
:1027E0008F7702C084B58F7D84BD09C08091B00011
:1027F0008F7703C08091B0008F7D8093B000892FC8
:1028000090E0880F991F89599B4FFC01A591B491C5
:102810008C9120E030E0842311F021E030E0C90108
:10282000089508951F920F920FB60F9211242F93BF
:102830003F934F938F939F93EF93FF934091C600E5
:1028400020911404309115042F5F3F4F2F73307087
:1028500080911604909117042817390759F0E091D8
:102860001404F0911504EC52FC4F4083309315048E
:1028700020931404FF91EF919F918F914F913F917D
:102880002F910F900FBE0F901F901895E091680444
:10289000F0916904E05CFF4F819191912081318139
:1028A000821B930B8F739070892B11F00E941D1265
:1028B00008951F920F920FB60F9211242F933F93FA
:1028C0004F935F936F937F938F939F93AF93BF9338
:1028D000EF93FF93209158043091590480915A044A
:1028E00090915B042817390731F48091C1008F7DE6
:1028F0008093C10016C0E0915A04F0915B04E85E39
:10290000FB4F408180915A0490915B04019660E4F2
:1029100070E00E943D1690935B0480935A044093AC
:10292000C600FF91EF91BF91AF919F918F917F91E1
:102930006F915F914F913F912F910F900FBE0F902C
:102940001F901895AF92BF92DF92EF92FF920F9374
:102950001F93CF93DF93EC017A018B01DD2440308C
:1029600081EE580780E0680780E0780711F0DD24E9
:10297000D39491E0A92EB12CEC89FD89DD2069F07A
:10298000C5010E8C02C0880F991F0A94E2F780835C
:1029900060E079E08DE390E005C0108260E874E8C3
:1029A0008EE190E0A80197010E945016215030401E
:1029B00040405040569547953795279580E1203007
:1029C000380720F0DD2011F0DD24D6CFE889F98921
:1029D0003083EA89FB892083EE89FF89408121E0E9
:1029E00030E0C9010A8C02C0880F991F0A94E2F7EF
:1029F000482B4083EE89FF894081C9010B8C02C0BE
:102A0000880F991F0A94E2F7482B4083EE89FF89CB
:102A10004081C9010C8C02C0880F991F0A94E2F70B
:102A2000482B4083EE89FF8980810D8C02C0220FE4
:102A3000331F0A94E2F7209528232083DF91CF915A
:102A40001F910F91FF90EF90DF90BF90AF9008958E
:102A5000DC011C96ED91FC911D97E05CFF4F2191EC
:102A6000319180819181281B390B2F733070C901FE
:102A70000895DC011C96ED91FC911D97E05CFF4FE1
:102A800020813181E054F040DF01AE5BBF4F8D917A
:102A90009C9111972817390719F42FEF3FEF07C0C2
:102AA0008D919C91E80FF91F8081282F30E0C9019A
:102AB0000895DC011C96ED91FC911D97E05CFF4FA1
:102AC00020813181E054F040DF01AE5BBF4F8D913A
:102AD0009C9111972817390719F42FEF3FEF10C079
:102AE0008D919C911197E80FF91F20818D919C91F8
:102AF000119701968F73907011969C938E9330E08E
:102B0000C9010895FC0186859785DC01A05CBF4F53
:102B1000FC01EE5BFF4F2D913C91119780819181DB
:102B200028173907C1F70895CF93DF93EC01462F9B
:102B3000EE85FF85E05CFF4F80819181E054F0409D
:102B4000019660E470E00E943D169C01DF01AE5BDF
:102B5000BF4F8D919C91119728173907D1F3E05CF5
:102B6000FF4F80819181E054F040E80FF91F4083CE
:102B7000EE85FF85E05CFF4F31832083EE89FF897E
:102B8000208181E090E00D8C02C0880F991F0A948B
:102B9000E2F7282B208381E090E0DF91CF91089528
:102BA00010925F0410925E0488EE93E0A0E0B0E023
:102BB0008093600490936104A0936204B0936304D3
:102BC00089EB91E090935D0480935C0484ED93E045
:102BD000909369048093680488E194E090936B0477
:102BE00080936A0485EC90E090936D0480936C046C
:102BF00084EC90E090936F0480936E0480EC90E0FE
:102C0000909371048093700481EC90E0909373042E
:102C10008093720486EC90E0909375048093740422
:102C200084E08093760483E08093770487E0809348
:102C3000780485E08093790481E080937A04089594
:102C4000CF93DF930E9415110E94150BC2E5D2E1CC
:102C50000E947F052097E1F30E945212F9CFCF9294
:102C6000DF92EF92FF920F931F93CF93DF937C013C
:102C70006B018A01C0E0D0E00FC0D6016D916D01FB
:102C8000D701ED91FC910190F081E02DC7010995EC
:102C9000C80FD91F015010400115110571F7CE0161
:102CA000DF91CF911F910F91FF90EF90DF90CF9028
:102CB0000895DC01ED91FC910190F081E02D0995E2
:102CC0000895EF92FF920F931F938C01DC01ED9119
:102CD000FC910190F081E02D6DE009957C01D80117
:102CE000ED91FC910190F081E02DC8016AE0099519
:102CF0009C012E0D3F1DC9011F910F91FF90EF9078
:102D00000895EF92FF920F931F937C01DC01ED91E8
:102D1000FC910190F081E02D09958C01C7010E9482
:102D20006D14080F191FC8011F910F91FF90EF90AC
:102D30000895CF93DF93DB010D900020E9F7119701
:102D4000A61BB70BEC01E881F9810280F381E02D2D
:102D5000AD010995DF91CF9108954F925F927F92D7
:102D60008F929F92AF92BF92CF92DF92EF92FF929B
:102D70000F931F93DF93CF93CDB7DEB7A1970FB615
:102D8000F894DEBF0FBECDBF2C01742ECB012230D4
:102D900008F42AE019A231E2C32ED12CCC0EDD1E9C
:102DA000822E9924AA24BB24672D752FA501940196
:102DB0000E94501679018A01C801B701A50194014A
:102DC0000E940A16472D461B0894C108D1084A30B4
:102DD00014F4405D01C0495CF6014083E114F10444
:102DE0000105110521F07E2C5F2DC801DDCFC20148
:102DF000B6010E94A514A1960FB6F894DEBF0FBECF
:102E0000CDBFCF91DF911F910F91FF90EF90DF9099
:102E1000CF90BF90AF909F908F907F905F904F909A
:102E20000895DC012115310541F4ED91FC910190EB
:102E3000F081E02D642F099508950E94B91408953A
:102E4000EF92FF920F931F937C010E941D158C013E
:102E5000C7010E946D149C01200F311FC9011F91F1
:102E60000F91FF90EF900895EF92FF920F931F93B1
:102E70009A017B0100E010E0B801A7010E941D1536
:102E80001F910F91FF90EF900895CF92DF92EF92F4
:102E9000FF920F931F936C017B019A0100E010E0F9
:102EA000B801A7010E941D158C01C6010E946D1476
:102EB000080F191FC8011F910F91FF90EF90DF902D
:102EC000CF900895CF92DF92EF92FF920F931F93CE
:102ED000CF93DF93EC016A017B012115310541F4A9
:102EE000E881F9810190F081E02D642F09951FC0E0
:102EF0002A303105D1F477FF17C0E881F9810190BC
:102F0000F081E02D6DE209958C0144275527BA0127
:102F10004C195D096E097F09CE012AE00E94B9149F
:102F20009801280F391F04C02AE00E94B9149C019F
:102F3000C901DF91CF911F910F91FF90EF90DF902A
:102F4000CF900895EF92FF920F931F937C010E9400
:102F50006E158C01C7010E946D149C01200F311F5A
:102F6000C9011F910F91FF90EF900895EF92FF928A
:102F70000F931F937B019A010027F7FC0095102FF8
:102F8000B801A7010E946E151F910F91FF90EF905D
:102F90000895CF92DF92EF92FF920F931F936C01EF
:102FA0007B019A010027F7FC0095102FB801A701BB
:102FB0000E946E158C01C6010E946D14080F191F26
:102FC000C8011F910F91FF90EF90DF90CF9008956F
:102FD0000E94A5140895EF92FF920F931F937C0116
:102FE0000E94A5148C01C7010E946D14080F191FBF
:102FF000C8011F910F91FF90EF900895629FD0013B
:10300000739FF001829FE00DF11D649FE00DF11DA3
:10301000929FF00D839FF00D749FF00D659FF00D52
:103020009927729FB00DE11DF91F639FB00DE11D3F
:10303000F91FBD01CF0111240895AA1BBB1B51E14B
:1030400007C0AA1FBB1FA617B70710F0A61BB70B18
:10305000881F991F5A95A9F780959095BC01CD01BD
:10306000089597FB092E07260AD077FD04D0E5DFE7
:1030700006D000201AF4709561957F4F0895F6F7F9
:10308000909581959F4F0895A1E21A2EAA1BBB1B14
:10309000FD010DC0AA1FBB1FEE1FFF1FA217B30724
:1030A000E407F50720F0A21BB30BE40BF50B661F3A
:1030B000771F881F991F1A9469F7609570958095FE
:1030C00090959B01AC01BD01CF010895EE0FFF1F4C
:1030D0000590F491E02D0994F894FFCF4375727236
:1030E000656E7420636F6E66696775726174696F6F
:1030F0006E3A0044462045200044462053200020DC
:103100000020690020670020402000204D487A20E0
:1031100000636F6E6669672073617665206661691A
:103120006C6564003E200074657374200020646642
:10313000232000203A2000723A2070616765200049
:10314000444620433F2000522000444620522000A5
:103150004446205700657261736564004F4B002040
:103160003F00472000202D3E2061636B00202D3E54
:1031700020002062000A5B5246313264656D6F2E7A
:10318000385D004446204920003B01B101640393AF
:103190000300000000A0133B143413651345138E85
:1031A0001300112484B714BE81FFF0D085E0809312
:1031B000810082E08093C00088E18093C10086E0B6
:1031C0008093C20080E18093C4008EE0C9D0259A2C
:1031D00086E020E33CEF91E030938500209384006B
:1031E00096BBB09BFECF1D9AA8958150A9F7CC2421
:1031F000DD2488248394B5E0AB2EA1E19A2EF3E080
:10320000BF2EA2D0813461F49FD0082FAFD00238F6
:1032100011F0013811F484E001C083E08DD089C041
:10322000823411F484E103C0853419F485E0A6D01A
:1032300080C0853579F488D0E82EFF2485D0082F0A
:1032400010E0102F00270E291F29000F111F8ED00C
:1032500068016FC0863521F484E090D080E0DECF35
:10326000843609F040C070D06FD0082F6DD080E058
:10327000C81680E7D80618F4F601B7BEE895C0E096
:10328000D1E062D089930C17E1F7F0E0CF16F0E7B8
:10329000DF0618F0F601B7BEE89568D007B600FC67
:1032A000FDCFA601A0E0B1E02C9130E011968C9109
:1032B000119790E0982F8827822B932B1296FA0172
:1032C0000C0187BEE89511244E5F5F4FF1E0A038F6
:1032D000BF0751F7F601A7BEE89507B600FCFDCF82
:1032E00097BEE89526C08437B1F42ED02DD0F82EA5
:1032F0002BD03CD0F601EF2C8F010F5F1F4F849134
:103300001BD0EA94F801C1F70894C11CD11CFA94AF
:10331000CF0CD11C0EC0853739F428D08EE10CD0EB
:1033200085E90AD08FE07ACF813511F488E018D092
:103330001DD080E101D065CF982F8091C00085FF1E
:10334000FCCF9093C60008958091C00087FFFCCF0A
:103350008091C00084FD01C0A8958091C6000895A9
:10336000E0E6F0E098E1908380830895EDDF80321D
:1033700019F088E0F5DFFFCF84E1DECF1F93182F2F
:10338000E3DF1150E9F7F2DF1F91089580E0E8DFF5
:10339000EE27FF270994FFFFFFFFFFFFFFFFFFFF5F
:1033A00004040C94343C0C94513C0C94513C0C940B
:1033B000513C0C94513C0C94513C0C94513C0C9459
:1033C000513C0C94513C0C94513C0C94513C0C9449
:1033D000513C0C94513C0C94513C0C94513C0C9439
:1033E000513C0C94513C0C94513C0C94513C0C9429
:1033F000513C0C94513C0C94513C0C94513C0C9419
:10340000513C0C94513C0C94513C11241FBECFEF05
:10341000D8E0DEBFCDBF11E0A0E0B1E0ECE9FFE70E
:1034200002C005900D92A230B107D9F712E0A2E0D8
:10343000B1E001C01D92AD30B107E1F70E942D3D12
:103440000C94CC3F0C94003C982F959595959595B0
:103450009595905D8F708A307CF0282F295A809145
:10346000C00085FFFCCF9093C6008091C00085FF0F
:10347000FCCF2093C6000895282F205DF0CF982F11
:103480008091C00085FFFCCF9093C6000895EF9215
:10349000FF920F931F93EE24FF2487018091C000B9
:1034A00087FD17C00894E11CF11C011D111D81E46A
:1034B000E81682E4F8068FE0080780E0180770F34A
:1034C000E0910401F091050109958091C00087FF0A
:1034D000E9CF8091C6001F910F91FF90EF90089562
:1034E0000E94763C982F8091C00085FFFCCF90937E
:1034F000C60091362CF490330CF09053892F089528
:103500009755892F08951F930E949F3C182F0E9462
:103510009F3C1295107F810F1F9108951F93182FC4
:10352000882321F00E94763C1150E1F71F91089505
:103530001F93182F0E94763C803249F0809103013E
:103540008F5F809303018530C1F01F9108958091B2
:10355000C00085FFFCCF84E18093C6008091C0004D
:1035600085FFFCCF1093C6008091C00085FFFCCF83
:1035700080E18093C6001F910895E0910401F091CD
:10358000050109951F9108950E94763C803241F013
:10359000809103018F5F80930301853081F008954E
:1035A0008091C00085FFFCCF84E18093C6008091AC
:1035B000C00085FFFCCF80E18093C6000895E091B4
:1035C0000401F09105010995089540E951E088232F
:1035D000A1F02D9A28EE33E0FA013197F1F721504E
:1035E0003040D1F72D9828EE33E0FA013197F1F70A
:1035F00021503040D1F7815061F708953F924F92AA
:103600005F926F927F928F929F92AF92BF92CF9272
:10361000DF92EF92FF920F931F93CF93DF930000FF
:1036200080E18093C4001092C50088E18093C100BE
:1036300086E08093C2005098589A259A81E00E94B3
:10364000143D24E1F22E9EE1E92E85E9D82E0FE00B
:10365000C02E10E1B12EAA24A394B1E49B2EA6E5BE
:103660008A2EF2E57F2EE0E26E2E79E4572E63E596
:10367000462E50E5352E0E94763C8033B1F18133E1
:10368000B9F1803409F46FC0813409F476C0823412
:1036900009F485C0853409F488C0803531F182355C
:1036A00021F1813511F1853509F485C0863509F49C
:1036B0008DC0843609F496C0843709F403C1853778
:1036C00009F472C1863709F466C0809103018F5FE7
:1036D00080930301853079F6E0910401F0910501B2
:1036E00009950E94763C803351F60E94F33CC3CF8B
:1036F0000E94763C803249F78091C00085FFFCCF64
:10370000F092C6008091C00085FFFCCF9092C60069
:103710008091C00085FFFCCF8092C6008091C000E0
:1037200085FFFCCF7092C6008091C00085FFFCCF62
:103730006092C6008091C00085FFFCCF5092C60009
:103740008091C00085FFFCCF4092C6008091C000F0
:1037500085FFFCCF3092C6008091C00085FFFCCF72
:10376000B092C60088CF0E94763C863808F4BDCF60
:103770000E94763C0E94F33C7ECF0E94763C8038CB
:1037800009F49CC0813809F40BC1823809F43CC1AA
:10379000883909F48FC080E00E94C73C6CCF84E177
:1037A0000E94BD3C0E94F33C66CF85E00E94BD3C78
:1037B0000E94F33C60CF0E94763C809306010E94F9
:1037C000763C809307010E94F33C55CF0E94763CE3
:1037D000803309F41DC183E00E94BD3C80E00E945B
:1037E000C73C49CF0E94763C809309020E94763CF8
:1037F0008093080280910C028E7F80930C020E94BD
:10380000763C853409F415C1809108029091090233
:10381000892B89F000E010E00E94763CF801E85F17
:10382000FE4F80830F5F1F4F809108029091090225
:103830000817190788F30E94763C803209F045CFBB
:1038400080910C0280FF01C1609106017091070117
:10385000660F771F7093070160930601A09108021D
:10386000B09109021097C9F0E8E0F1E09B01AD01C9
:103870004E0F5F1FF999FECF32BD21BD819180BDF2
:10388000FA9AF99A2F5F3F4FE417F50799F76A0FF5
:103890007B1F70930701609306018091C00085FF34
:1038A000FCCFF092C6008091C00085FFFCCFB092A3
:1038B000C600E1CE83E00E94C73CDDCE82E00E94DC
:1038C000C73CD9CE0E94763C809309020E94763C88
:1038D000809308028091060190910701880F991F3B
:1038E00090930701809306010E94763C853409F489
:1038F000A6C080910C028E7F80930C020E94763CC1
:10390000803209F0B8CE8091C00085FFFCCFF092E4
:10391000C600609108027091090261157105B9F144
:1039200040E050E080910C02A82FA170B82FB27037
:1039300011C0BB2309F45CC0E0910601F0910701BE
:103940003196F0930701E09306014F5F5F4F4617F2
:103950005707E8F4AA2369F3F999FECF20910601ED
:103960003091070132BD21BDF89A90B58091C00019
:1039700085FFFCCF9093C6002F5F3F4F3093070128
:10398000209306014F5F5F4F4617570718F380914A
:10399000C00085FDE5CE8091C00085FFF8CFE0CE68
:1039A00081E00E94C73C67CE0E94763C803209F0DD
:1039B0008CCE8091C00085FFFCCFF092C600809134
:1039C000C00085FFFCCFE092C6008091C00085FF5B
:1039D000FCCFD092C6008091C00085FFFCCFC09282
:1039E000C6008091C00085FFFCCFB092C60043CED8
:1039F000E0910601F091070194918091C00085FF4C
:103A0000FCCF9093C6009CCF80E10E94C73C33CE90
:103A10000E94763C0E94763C182F0E94763C11232F
:103A200009F483C0113009F484C08FE00E94C73CC0
:103A300022CE80910C02816080930C02E5CE8091B1
:103A40000C02816080930C0259CF8091070188237A
:103A5000880F880B8A2180930B0280910601909138
:103A60000701880F991F90930701809306018091A9
:103A7000080280FF09C08091080290910902019616
:103A80009093090280930802F894F999FECF1127C8
:103A9000E0910601F0910701C8E0D1E080910802B1
:103AA00090910902103091F400915700017001309B
:103AB000D9F303E000935700E89500915700017097
:103AC0000130D9F301E100935700E895099019906E
:103AD0000091570001700130D9F301E000935700C5
:103AE000E8951395103498F0112700915700017054
:103AF0000130D9F305E000935700E8950091570095
:103B000001700130D9F301E100935700E895329636
:103B1000029709F0C7CF103011F00296E5CF1124BB
:103B20008091C00085FFB9CEBCCE8EE10E94C73C1B
:103B3000A2CD85E90E94C73C9ECDF894FFCF8000BE
:103B400085E08093810082E08093C00088E18093CB
:103B5000C10086E08093C20080E18093C40084B7F6
:103B600014BE81FFD0D08EE0C8D0259A86E020E335
:103B70003CEF91E0309385002093840096BBB09B8E
:103B8000FECF1D9AA8958150A9F7DD24D394A5E016
:103B9000EA2EF1E1FF2EA4D0813421F481E0BED0E1
:103BA00083E024C0823411F484E103C0853419F425
:103BB00085E0B4D08AC08535A1F492D0082F10E0FA
:103BC00010930102009300028BD090E0982F882779
:103BD000802B912B880F991F9093010280930002F4
:103BE00073C0863529F484E099D080E071D06DC02F
:103BF000843609F043C07CD0E0910002F0910102CC
:103C000083E080935700E895C0E0D1E069D08993C4
:103C1000809102028150809302028823B9F778D004
:103C200007B600FCFDCF4091000250910102A0E0D8
:103C3000B1E02C9130E011968C91119790E0982F83
:103C40008827822B932B1296FA010C01D0925700F1
:103C5000E89511244E5F5F4FF1E0A038BF0749F7A8
:103C6000E0910002F0910102E0925700E89507B65A
:103C700000FCFDCFF0925700E89527C08437B9F4D7
:103C800037D046D0E0910002F09101023196F093D6
:103C90000102E09300023197E4918E2F19D08091B8
:103CA0000202815080930202882361F70EC085379B
:103CB00039F42ED08EE10CD085E90AD08FE096CF72
:103CC000813511F488E019D023D080E101D063CF91
:103CD000982F8091C00085FFFCCF9093C600089577
:103CE000A8958091C00087FFFCCF8091C600089501
:103CF000F7DFF6DF80930202F3CFE0E6F0E098E131
:103D000090838083089580E0F8DFEE27FF270994F1
:103D1000E7DF803209F0F7DF84E1DACF1F93182F55
:103D2000DFDF1150E9F7F4DF1F910895112484B704
:103D300014BE81FFF0D085E08093810082E0809303
:103D4000C00088E18093C10086E08093C20080E1DA
:103D50008093C4008EE0C9D0259A86E020E33CEF32
:103D600091E0309385002093840096BBB09BFECFFA
:103D70001D9AA8958150A9F7CC24DD24882483942A
:103D8000B5E0AB2EA1E19A2EF3E0BF2EA2D0813494
:103D900061F49FD0082FAFD0023811F0013811F430
:103DA00084E001C083E08DD089C0823411F484E1C5
:103DB00003C0853419F485E0A6D080C0853579F438
:103DC00088D0E82EFF2485D0082F10E0102F002780
:103DD0000E291F29000F111F8ED068016FC0863574
:103DE00021F484E090D080E0DECF843609F040C03A
:103DF00070D06FD0082F6DD080E0C81680E7D8064D
:103E000018F4F601B7BEE895C0E0D1E062D089931E
:103E10000C17E1F7F0E0CF16F0E7DF0618F0F60137
:103E2000B7BEE89568D007B600FCFDCFA601A0E0BC
:103E3000B1E02C9130E011968C91119790E0982F81
:103E40008827822B932B1296FA010C0187BEE895E6
:103E500011244E5F5F4FF1E0A038BF0751F7F60124
:103E6000A7BEE89507B600FCFDCF97BEE89526C033
:103E70008437B1F42ED02DD0F82E2BD03CD0F601C3
:103E8000EF2C8F010F5F1F4F84911BD0EA94F80134
:103E9000C1F70894C11CD11CFA94CF0CD11C0EC0E0
:103EA000853739F428D08EE10CD085E90AD08FE02F
:103EB0007ACF813511F488E018D01DD080E101D08F
:103EC00065CF982F8091C00085FFFCCF9093C600EE
:103ED00008958091C00087FFFCCF8091C00084FDD1
:103EE00001C0A8958091C6000895E0E6F0E098E151
:103EF000908380830895EDDF803219F088E0F5DF4C
:103F0000FFCF84E1DECF1F93182FE3DF1150E9F7D5
:103F1000F2DF1F91089580E0E8DFEE27FF27099484
:103F2000FFFFFFFFFFFFFFFFFFFF04040000000093
:103F3000240027002A0000000000250028002B0094
:103F400000000000230026002900040404040404E7
:103F50000404020202020202030303030303010238
:103F60000408102040800102040810200102040807
:103F700010200000000700020100000304060000FA
:103F8000000000000000982611241FBECFEFD8E0EB
:103F9000DEBFCDBF13E0A0E0B1E0E8E7F5E502C089
:103FA00005900D92AC31B107D9F714E0ACE1B3E064
:103FB00001C01D92A132B107E1F71FE3C8E8DFE3BA
:103FC00004C02297FE010E94B62AC638D107C9F75D
:103FD0000E94EE260C94BA2A0C940000089589E001
:103FE00061E00E940E2489E060E00E947A2464E689
:103FF00070E080E090E00E94AD2389E060E00E94E4
:104000000E240895BF92CF92DF92EF92FF920F930A
:104010001F93CF93DF9300E0C0E0D0E081E0C82E93
:10402000D12CE12CF12CFE01E95FFC4F1081812F96
:1040300060E00E940E24812F61E00E947A24812F8B
:104040000E94AD24892B61F0D701C6010C2E04C05B
:10405000880F991FAA1FBB1F0A94D2F7082B0CC008
:10406000D701C6010C2E04C0880F991FAA1FBB1FC1
:104070000A94D2F780950823812F60E00E947A2469
:104080002196C430D10579F6802FDF91CF911F9111
:104090000F91FF90EF90DF90CF90BF900895FF9227
:1040A0000F931F93F82E80911C038823C1F010E01A
:1040B00020E0F7FE02C0439A01C043984098409A1E
:1040C00089B1110F90E034E0959587953A95E1F725
:1040D0008170182B2F5F2830D1F0FF0CEACF10E051
:1040E00000E06F2D607881E10E947A248EE060E02C
:1040F0000E947A248EE061E00E947A24FF0C84E022
:104100000E94AD24110F182B0F5F083051F7812F3B
:104110001F910F91FF900895FF920F931F93182FF7
:10412000062FF42E892F0E944F20812F0E944F20AE
:10413000802F0E944F208F2D0E944F201F910F91A2
:10414000FF90089587E061E00E947A248EE060E0AD
:104150000E947A246EE170E080E090E00E94AD233E
:1041600087E060E00E947A246EE170E080E090E0F9
:104170000E94AD2383E59CEA62E242E20E948C2029
:10418000823211F481E008958EEA93E060E071E0FC
:104190000E94112880E008950E948C2080E090EF1A
:1041A00060E040E00E948C2080FDF8CF0895FB0184
:1041B00080FD03C020E030E402C020E038E44491F8
:1041C000BC0176956795892F99278695822B932B2D
:1041D0000E948C2008957F928F929F92AF92BF92FF
:1041E000CF92DF92EF92FF920F931F93CF93DF93C3
:1041F000082F8EEA93E0602F4AE050E00E94DE270D
:104200000E94A220782E882309F461C081E0809367
:104210001C03A02FB0E0FD0123E0EE0FFF1F2A9545
:10422000E1F7E852FD4FC080D18093E0AA0FBB1F99
:104230009A95E1F7FD01EA52FD4F86809780B6011D
:10424000607876956795A652BD4FCD91DC91C8599F
:10425000DF4FAA24BB242CC010E8E12E1FEFF12E63
:10426000EC20FD20F694E7946E157F0559F0872F1A
:1042700099279C6440E00E94CC208EEA93E06EE295
:104280000E94272786010F5F1F4FC601BE010E94B3
:10429000D72082E090E0C80ED91E2196C801BE0149
:1042A0000E94D72082E090E0A80EB91E2196B701A7
:1042B000A814B90488F2872F99279C6440E00E94D3
:1042C000CC208EEA93E00E942F2710921C03872DAA
:1042D000DF91CF911F910F91FF90EF90DF90CF90E2
:1042E000BF90AF909F908F907F900895DF92EF9254
:1042F000FF920F931F93CF93DF938EEA93E040E0FA
:1043000051EE60E070E00E9467258EEA93E066E17E
:1043100071E00E9411280E94EF1F8EE061E00E9470
:104320007A2481E161E00E947A2487E061E00E94C2
:104330007A248EE061E00E940E2481E161E00E9417
:104340000E2487E061E00E940E240E940220182FB4
:10435000DD24D394D82290E095958795082F01709D
:104360009595879572E0E72EE80E8EEA93E067E276
:1043700071E00E940E288EEA93E0612F40E150E048
:104380000E94DE27002319F467E371E002C062E4B3
:1043900071E08EEA93E00E9411288EEA93E00E9479
:1043A0002F27ED2DF0E063E0EE0FFF1F6A95E1F798
:1043B000EA52FD4F608171818EEA93E00E941128DC
:1043C000CE2DD0E0FE0153E0EE0FFF1F5A95E1F72E
:1043D000EA52FD4F608171818EEA93E00E941128BC
:1043E0008EEA93E00E942F270E94A220882309F4DE
:1043F000F9C08EEA93E06FE471E00E94112880E832
:104400009CEA62E242E20E94CC200E94A220882321
:1044100009F4E8C0002319F4FF24FA9402C04EED19
:10442000F42E33E0CC0FDD1F3A95E1F7C852DD4F93
:10443000E881F981FF708CE0E030F80759F08EE0F8
:10444000E030F80719F0EF2B39F002C00EED05C08F
:104450000AED03C00CED01C008ED8EEA93E06DE5B6
:1044600071E00E94112880EA9CEA60E04F2D0E94D2
:10447000CC2088EA9CEA60E0402F0E94CC2084EAAD
:104480009CEA60E04DEF0E94CC2080EE9CEA60E068
:104490004FEC0E94CC208D2D0E94EB20882309F444
:1044A000A1C08E2D0E94EB20882309F49BC08EEAC8
:1044B00093E06BE671E00E940E2810E08EEA93E034
:1044C00067E771E00E940E2880E090E3612F40E0F2
:1044D0000E948C20682F8EEA93E040E150E00E9419
:1044E000DE271F5F183051F78EEA93E069E771E02D
:1044F0000E9411288EEA93E06AE771E00E940E287C
:1045000080E098E560E040E00E948C20682F8EEA11
:1045100093E040E150E00E94F0278EEA93E066E8E5
:1045200071E00E940E2880E090E560E040E00E948B
:104530008C20682F8EEA93E040E150E00E94DE2755
:104540008EEA93E062E971E00E940E2888E098E527
:1045500060E040E00E948C20682F8EEA93E040E10A
:1045600050E00E94DE278EEA93E06AE971E00E9443
:104570000E2888E090E560E040E00E948C20682FE3
:104580008EEA93E040E150E00E94F02780E098E559
:1045900060E040E00E948C208F3C09F069C080E020
:1045A00090E560E040E00E948C208F1509F060C02B
:1045B00088E098E560E040E00E948C20801709F0D8
:1045C00057C088E090E560E040E00E948C208D3F7D
:1045D00009F04EC08EEA93E066EA71E00E9411286D
:1045E0000E94EF1F8EE060E00E940E2481E160E0F7
:1045F0000E940E2487E060E00E940E248EE060E0BE
:104600000E947A2481E160E00E947A2487E060E0E1
:104610000E947A248EEA93E00E9448266AE070E0C5
:1046200080E090E00E94AD2381E062E044ED0E94D2
:10463000672980E00E941D29F89480917A008F7785
:1046400080937A008FEF8093640083B7817F8460CA
:1046500083BF83B7816083BF889583B78E7F83BF15
:10466000DF91CF911F910F91FF90EF90DF90089510
:104670008EEA93E06DEA71E00E941128B3CF1F9299
:104680000F920FB60F9211242F933F938F939F9306
:10469000AF93BF938091210390912203A0912303B4
:1046A000B0912403309125030196A11DB11D232F44
:1046B0002D5F2D3720F02D570196A11DB11D2093A0
:1046C00025038093210390932203A0932303B093A7
:1046D000240380911D0390911E03A0911F03B091AC
:1046E00020030196A11DB11D80931D0390931E030D
:1046F000A0931F03B0932003BF91AF919F918F911F
:104700003F912F910F900FBE0F901F9018959FB75C
:10471000F89420911D0330911E0340911F03509186
:10472000200386B5A89B06C08F3F21F02F5F3F4F27
:104730004F4F5F4F9FBF542F432F322F2227280FF9
:10474000311D411D511D82E0220F331F441F551F93
:104750008A95D1F7B901CA010895EF92FF920F939C
:104760001F93CF93DF937B018C010E948723EB0182
:104770000EC00E9487236C1B7D0B685E7340C8F3DC
:104780000894E108F10801091109C851DC4FE1144E
:10479000F1040105110569F7DF91CF911F910F9188
:1047A000FF90EF900895789484B5826084BD84B5BD
:1047B000816084BD85B5826085BD85B5816085BD1C
:1047C000EEE6F0E0808181608083E1E8F0E0108235
:1047D000808182608083808181608083E0E8F0E076
:1047E000808181608083E1EBF0E080818460808360
:1047F000E0EBF0E0808181608083EAE7F0E0808197
:1048000084608083808182608083808181608083F6
:104810008081806880831092C1000895CF93DF93D8
:10482000482F50E0CA01825A904CFC013491465BFB
:10483000504CFA018491882369F190E0880F991F08
:10484000FC01E45DF04CA591B491FC01EA5CF04CF4
:10485000C591D491662351F42FB7F8948C91932F7E
:10486000909589238C93888189230BC0623061F4F1
:104870002FB7F8948C91932F909589238C938881EE
:10488000832B88832FBF06C09FB7F8948C91832B0E
:104890008C939FBFDF91CF910895833071F0843066
:1048A00028F48130A1F0823021F514C08630B1F0B7
:1048B0008730D1F08430E9F404C0809180008F7794
:1048C00003C0809180008F7D80938000089584B51F
:1048D0008F7702C084B58F7D84BD08958091B0002C
:1048E0008F778093B00008958091B0008F7D809382
:1048F000B0000895FF920F931F93F62E482F50E0BB
:10490000CA018E58904CFC012491CA01825A904CE5
:10491000FC011491465B504CFA0104910023C9F04C
:10492000222319F0822F0E944D24E02FF0E0EE0F99
:10493000FF1FEA5CF04CA591B4919FB7F894FF205B
:1049400021F48C911095812302C08C91812B8C9342
:104950009FBF1F910F91FF9008950F931F93482FB2
:1049600050E0CA018E58904CFC012491CA01825A31
:10497000904CFC010491465B504CFA0114911123B8
:1049800019F420E030E015C0222319F0822F0E9494
:104990004D24812F90E0880F991F805C904CFC0182
:1049A000A591B4918C9120E030E0802311F021E0BA
:1049B00030E0C9011F910F91089508951F920F9241
:1049C0000FB60F9211242F933F934F938F939F9382
:1049D000EF93FF938091C00082FD1DC04091C600FF
:1049E00020916603309167032F5F3F4F2F73307024
:1049F00080916803909169032817390771F0E0915D
:104A00006603F0916703EA5DFC4F408330936703D0
:104A10002093660302C08091C600FF91EF919F91A1
:104A20008F914F913F912F910F900FBE0F901F903C
:104A30001895E091BA03F091BB03E05CFF4F8191C0
:104A4000919120813181821B930B8F739070892B00
:104A500011F00E94DD2408951F920F920FB60F925D
:104A600011242F933F938F939F93EF93FF93209164
:104A7000AA033091AB038091AC039091AD0328174A
:104A8000390731F48091C1008F7D8093C10014C03B
:104A9000E091AC03F091AD03E659FC4F2081809189
:104AA000AC039091AD0301968F7390709093AD031A
:104AB0008093AC032093C600FF91EF919F918F915B
:104AC0003F912F910F900FBE0F901F901895AF92AE
:104AD000BF92DF92EF92FF920F931F93CF93DF93DA
:104AE000EC017A018B01DD24403081EE580780E033
:104AF000680780E0780711F0DD24D39491E0A92EB7
:104B0000B12CEC89FD89DD2069F0C50108A002C047
:104B1000880F991F0A94E2F7808360E079E08DE3C3
:104B200090E005C0108260E874E88EE190E0A80192
:104B300097010E94922A21503040404050405695A3
:104B400047953795279580E12030380720F0DD2004
:104B500011F0DD24D6CFE889F9893083EA89FB8911
:104B6000208319A2EE89FF89408121E030E0C9014C
:104B70000C8C02C0880F991F0A94E2F7482B4083DF
:104B8000EE89FF894081C9010D8C02C0880F991FF1
:104B90000A94E2F7482B4083EE89FF894081C901DE
:104BA0000E8C02C0880F991F0A94E2F7482B4083AD
:104BB000EE89FF8980810F8C02C0220F331F0A9477
:104BC000E2F7209528232083DF91CF911F910F9149
:104BD000FF90EF90DF90BF90AF900895DC011C969E
:104BE000ED91FC911D97E05CFF4F21913191808107
:104BF0009181281B390B2F733070C9010895DC0196
:104C00001C96ED91FC911D97E05CFF4F2081318156
:104C1000E054F040DF01AE5BBF4F8D919C91119746
:104C20002817390719F42FEF3FEF07C08D919C919A
:104C3000E80FF91F8081282F30E0C9010895DC01B9
:104C40001C96ED91FC911D97E05CFF4F2081318116
:104C5000E054F040DF01AE5BBF4F8D919C91119706
:104C60002817390719F42FEF3FEF10C08D919C9151
:104C70001197E80FF91F20818D919C911197019652
:104C80008F73907011969C938E9330E0C9010895B4
:104C9000DC0191968C919197882339F05496ED918F
:104CA000FC915597808186FFF9CF91961C920895CB
:104CB000CF93DF93EC01EE85FF85E05CFF4F208111
:104CC0003181E054F0402F5F3F4F2F733070DF0190
:104CD000AE5BBF4F8D919C91119728173907D1F387
:104CE000E05CFF4F80819181E054F040E80FF91FB4
:104CF0006083EE85FF85E05CFF4F31832083EE8982
:104D0000FF89208181E090E00F8C02C0880F991FFD
:104D10000A94E2F7282B208381E089A3EC89FD899E
:104D200080818064808381E090E0DF91CF9108955D
:104D30001092B1031092B00388EE93E0A0E0B0E0CF
:104D40008093B2039093B303A093B403B093B503DD
:104D50008FE093E09093AF038093AE0386E293E0FD
:104D60009093BB038093BA038AE693E09093BD03CC
:104D70008093BC0385EC90E09093BF038093BE03C7
:104D800084EC90E09093C1038093C00380EC90E0AA
:104D90009093C3038093C20381EC90E09093C5038A
:104DA0008093C40382EC90E09093C7038093C60382
:104DB00086EC90E09093C9038093C80384E08093CD
:104DC000CA0383E08093CB0387E08093CC0385E024
:104DD0008093CD0381E08093CE030895CF93DF933A
:104DE0000E94D3230E947621C9E1D5E20E94EE1FE2
:104DF0002097E1F30E941925F9CFCF92DF92EF922D
:104E0000FF920F931F93CF93DF937C016B018A0175
:104E1000C0E0D0E00FC0D6016D916D01D701ED91DA
:104E2000FC910190F081E02DC7010995C80FD91FB1
:104E3000015010400115110571F7CE01DF91CF919E
:104E40001F910F91FF90EF90DF90CF900895DC01BC
:104E5000ED91FC910190F081E02D09950895EF927C
:104E6000FF920F931F938C01DC01ED91FC91019057
:104E7000F081E02D6DE009957C01D801ED91FC9168
:104E80000190F081E02DC8016AE009959C012E0D8A
:104E90003F1DC9011F910F91FF90EF900895CF938F
:104EA000DF93EC016115710519F420E030E00FC0CB
:104EB000DB010D900020E9F71197A61BB70BE881E5
:104EC000F9810280F381E02DAD0109959C01C901B2
:104ED000DF91CF9108954F925F927F928F929F9230
:104EE000AF92BF92CF92DF92EF92FF920F931F93F8
:104EF000DF93CF93CDB7DEB7A1970FB6F894DEBF9F
:104F00000FBECDBF2C01742ECB01223008F42AE055
:104F100019A231E2C32ED12CCC0EDD1E822E992493
:104F2000AA24BB24672D752FA50194010E94922A03
:104F300079018A01C801B701A50194010E94732A71
:104F4000472D461B0894C108D1084A3010F4405D33
:104F500001C0495CF6014083E114F104010511052B
:104F600021F07E2C5F2DC801DDCFC201B6010E9469
:104F70004F27A1960FB6F894DEBF0FBECDBFCF91DD
:104F8000DF911F910F91FF90EF90DF90CF90BF9036
:104F9000AF909F908F907F905F904F900895DC012D
:104FA0002115310541F4ED91FC910190F081E02D46
:104FB000642F099508950E946B270895EF92FF9240
:104FC0000F931F939A01E62EFF2400E010E0B80132
:104FD000A7010E94CF271F910F91FF90EF90089596
:104FE000CF92DF92EF92FF920F931F936C01E62E08
:104FF0009A01FF2400E010E0B801A7010E94CF272A
:105000008C01C6010E942F27080F191FC8011F918C
:105010000F91FF90EF90DF90CF9008950E944F275F
:105020000895EF92FF920F931F937C010E944F27E8
:105030008C01C7010E942F27080F191FC8011F915B
:105040000F91FF90EF900895782F8CB581608CBD03
:1050500065B121E030E040E050E00090060304C07C
:10506000220F331F441F551F0A94D2F7522F822F4D
:105070008095862385B99EBD0DB407FEFDCF8EB504
:105080007EBD0DB407FEFDCF4EB5382F20E085B1B3
:10509000582B55B98CB58E7F8CBD50E0422B532BCD
:1050A000CA010895E8980E942428E89A089580E0AB
:1050B00090E00E94242880911A04853009F054C0A1
:1050C00080E090EB0E942428282F80911C048823E4
:1050D00071F490911B04992351F080911C04E82FE6
:1050E000F0E0EE52FC4F90838F5F80931C04809120
:1050F0001C04E82FF0E0EE52FC4F20838F5F80937A
:105100001C048091D0039091D1038227282F2295EF
:105110002827022E269526952025022E2695202525
:105120002770082E892F269507942795902D822782
:1051300006942795902582279093D1038093D003DE
:105140008091D40320911C0490E0049630E08217F3
:1051500093072CF080911C04873408F46DC08DE017
:1051600092E80E942428089580911A0487FF2EC097
:10517000E091D40380911A048F5F80931A048150C8
:10518000ED5FE80FF0E0EE52FC4FE0818091D0033C
:105190009091D1038E27282F22952827022E26951D
:1051A00026952025022E269520252770082E892F4A
:1051B000269507942795902D82270694279590256C
:1051C00082279093D1038093D00330C080911A043A
:1051D0008F5F80931A048150833019F184302CF44E
:1051E000882399F0813009F516C0893019F08A308A
:1051F000E1F402C0EDE21AC0E0911B049091D403E7
:105200008EEF891B80931A0411C08091D003909176
:10521000D103E82F0BC08091D0039091D103E92FE7
:1052200005C08DE092E80E942428EAEA8E2F90E0E3
:10523000805098440E94242808951F93182F90E0CE
:10524000956E0E94522885E092E80E945228112310
:1052500021F087E092E80E94522884E080931A04AB
:105260001F91089525B181E090E0A0E0B0E00090AA
:10527000060304C0880F991FAA1FBB1F0A94D2F708
:10528000282B25B924B1822B84B98AE061E00E94E1
:105290007A248AE061E00E940E248BE061E00E94A3
:1052A0000E248CE060E00E940E248DE061E00E94FC
:1052B0000E2480E58CBD8DB581608DBD82E060E0FF
:1052C0000E940E2482E061E00E947A2408951F93D8
:1052D000162F8093190440931B040E94322980E00A
:1052E00090E00E94242885E092E80E94242880E033
:1052F00098EB02C080E090E00E94242882E00E94A7
:10530000AD24892BB9F3812F90E064E0880F991FB9
:105310006A95E1F7876C90680E94242880E496EAF9
:105320000E94242886E096EC0E94242882EA94E9D0
:105330000E9424288CEA92EC0E94242810911B04DD
:10534000112341F083E89AEC0E942428812F90E0F9
:105350009E6C06C08BE89AEC0E9424288DE29EEC9D
:105360000E94242883E894EC0E94242880E598E990
:105370000E94242887E79CEC0E94242880E090EE7D
:105380000E94242880E098EC0E94242889E490EC74
:105390000E94242884E080931A048091190490E0EC
:1053A0008F719070892B41F080E067E578E240E0F2
:1053B00050E00E94E32903C080E00E94062A809109
:1053C00019041F910895823000F5E82FF0E0EE0FE8
:1053D000FF1FE35EFB4F71836083882319F08130E8
:1053E000A1F408C0809169008C7F842B80936900B0
:1053F000E89A089580916900440F551F440F551F86
:10540000837F842B80936900E99A0895823080F429
:10541000882319F0813021F402C0E89801C0E9988E
:10542000E82FF0E0EE0FFF1FE35EFB4F11821082CA
:1054300008951F920F920FB60F9211242F933F934E
:105440004F935F936F937F938F939F93AF93BF938C
:10545000EF93FF9380911D0490911E04892B29F0F6
:10546000E0911D04F0911E040995FF91EF91BF9109
:10547000AF919F918F917F916F915F914F913F91EC
:105480002F910F900FBE0F901F9018951F920F92A3
:105490000FB60F9211242F933F934F935F936F9307
:1054A0007F938F939F93AF93BF93EF93FF938091DD
:1054B0001F0490912004892B29F0E0911F04F091A2
:1054C00020040995FF91EF91BF91AF919F918F912A
:1054D0007F916F915F914F913F912F910F900FBEF0
:1054E0000F901F901895629FD001739FF001829FCB
:1054F000E00DF11D649FE00DF11D929FF00D839F63
:10550000F00D749FF00D659FF00D9927729FB00DFF
:10551000E11DF91F639FB00DE11DF91FBD01CF0112
:1055200011240895A1E21A2EAA1BBB1BFD010DC078
:10553000AA1FBB1FEE1FFF1FA217B307E407F50743
:1055400020F0A21BB30BE40BF50B661F771F881F1F
:10555000991F1A9469F760957095809590959B01B5
:10556000AC01BD01CF010895EE0FFF1F0590F4912E
:08557000E02D0994F894FFCF2F
:1055780050726F6772616D20456E61626C6520467E
:1055880041494C4544000A5B6973705F72657061FC
:105598006972322E325D00436F6E6669677572619B
:1055A80074696F6E3A200020286372797374616C95
:1055B800290020287265736F6E61746F7229004527
:1055C800726173696E6720466C6173680053657415
:1055D80074696E67204675736573005369676E61F9
:1055E80074757265733A002000004C6F636B20423B
:1055F8006974733A200046757365733A206C6F7747
:1056080020002C206869676820002C206578746564
:105618006E64656420000A446F6E652E00467573DB
:105628006573204E4F54204F4B2100323031302DBE
:1056380030342D313820426C696E6B2E6370702EB9
:10564800686578202020202020202020202020206D
:105658002020202020383936622040203078303011
:10566800303000323031312D31322D323620524631
:10567800313264656D6F2E6370702E6865782020F6
:1056880020202020202020202020202020313137D9
:1056980030366220402030783030303000323031BF
:1056A800312D31312D3239206F707469626F6F740A
:1056B8005F61746D6567613332382E6865782020C4
:1056C80020202020202020353132622040203078D0
:1056D8003745303000323030392D30382D313120D7
:1056E80041546D656761424F4F545F3136385F6191
:1056F800746D6567613332382E68657820202031F3
:105708003935306220402030783738303000323038
:1057180031312D30352D3235206F707469626F6FDD
:10572800745F61746D6567613332385F31732E68F9
:105738006578202020202020343932622040203013
:10574800783745303000BB01000000008003F301CA
:1057580000008003BA2D2D02007E3A310002650256
:1057680000783A339E079E02007ED83AEC012D025B
:10577800007EC43C000202050F100600000000581D
:0C57880026FD26EE251F26FF25482600E2
:00000001FF
